{
	"METH.sol": {
		"METH": {
			"abi": [
				{
					"anonymous": false,
					"inputs": [
						{
							"indexed": true,
							"internalType": "address",
							"name": "owner",
							"type": "address"
						},
						{
							"indexed": true,
							"internalType": "address",
							"name": "spender",
							"type": "address"
						},
						{
							"indexed": false,
							"internalType": "uint256",
							"name": "value",
							"type": "uint256"
						}
					],
					"name": "Approval",
					"type": "event"
				},
				{
					"anonymous": false,
					"inputs": [
						{
							"indexed": false,
							"internalType": "uint8",
							"name": "version",
							"type": "uint8"
						}
					],
					"name": "Initialized",
					"type": "event"
				},
				{
					"anonymous": false,
					"inputs": [
						{
							"indexed": true,
							"internalType": "address",
							"name": "previousOwner",
							"type": "address"
						},
						{
							"indexed": true,
							"internalType": "address",
							"name": "newOwner",
							"type": "address"
						}
					],
					"name": "OwnershipTransferred",
					"type": "event"
				},
				{
					"anonymous": false,
					"inputs": [
						{
							"indexed": true,
							"internalType": "address",
							"name": "from",
							"type": "address"
						},
						{
							"indexed": true,
							"internalType": "address",
							"name": "to",
							"type": "address"
						},
						{
							"indexed": false,
							"internalType": "uint256",
							"name": "value",
							"type": "uint256"
						}
					],
					"name": "Transfer",
					"type": "event"
				},
				{
					"anonymous": false,
					"inputs": [
						{
							"indexed": false,
							"internalType": "uint256",
							"name": "amountSent",
							"type": "uint256"
						},
						{
							"indexed": false,
							"internalType": "uint256",
							"name": "amountReceived",
							"type": "uint256"
						}
					],
					"name": "TransferBothExcluded",
					"type": "event"
				},
				{
					"anonymous": false,
					"inputs": [
						{
							"indexed": false,
							"internalType": "uint256",
							"name": "amountSent",
							"type": "uint256"
						},
						{
							"indexed": false,
							"internalType": "uint256",
							"name": "amountReceived",
							"type": "uint256"
						}
					],
					"name": "TransferFromExcluded",
					"type": "event"
				},
				{
					"anonymous": false,
					"inputs": [
						{
							"indexed": false,
							"internalType": "uint256",
							"name": "amountSent",
							"type": "uint256"
						},
						{
							"indexed": false,
							"internalType": "uint256",
							"name": "amountReceived",
							"type": "uint256"
						}
					],
					"name": "TransferStandard",
					"type": "event"
				},
				{
					"anonymous": false,
					"inputs": [
						{
							"indexed": false,
							"internalType": "uint256",
							"name": "amountSent",
							"type": "uint256"
						},
						{
							"indexed": false,
							"internalType": "uint256",
							"name": "amountReceived",
							"type": "uint256"
						}
					],
					"name": "TransferToExcluded",
					"type": "event"
				},
				{
					"inputs": [
						{
							"internalType": "uint256",
							"name": "",
							"type": "uint256"
						}
					],
					"name": "_excluded",
					"outputs": [
						{
							"internalType": "address",
							"name": "",
							"type": "address"
						}
					],
					"stateMutability": "view",
					"type": "function"
				},
				{
					"inputs": [],
					"name": "_getCurrentSupply",
					"outputs": [
						{
							"internalType": "uint256",
							"name": "",
							"type": "uint256"
						},
						{
							"internalType": "uint256",
							"name": "",
							"type": "uint256"
						}
					],
					"stateMutability": "view",
					"type": "function"
				},
				{
					"inputs": [],
					"name": "_getRate",
					"outputs": [
						{
							"internalType": "uint256",
							"name": "",
							"type": "uint256"
						}
					],
					"stateMutability": "view",
					"type": "function"
				},
				{
					"inputs": [],
					"name": "_rTotal",
					"outputs": [
						{
							"internalType": "uint256",
							"name": "",
							"type": "uint256"
						}
					],
					"stateMutability": "view",
					"type": "function"
				},
				{
					"inputs": [],
					"name": "_tTotal",
					"outputs": [
						{
							"internalType": "uint256",
							"name": "",
							"type": "uint256"
						}
					],
					"stateMutability": "view",
					"type": "function"
				},
				{
					"inputs": [
						{
							"internalType": "address",
							"name": "owner",
							"type": "address"
						},
						{
							"internalType": "address",
							"name": "spender",
							"type": "address"
						}
					],
					"name": "allowance",
					"outputs": [
						{
							"internalType": "uint256",
							"name": "",
							"type": "uint256"
						}
					],
					"stateMutability": "view",
					"type": "function"
				},
				{
					"inputs": [],
					"name": "antiWhale",
					"outputs": [
						{
							"internalType": "bool",
							"name": "",
							"type": "bool"
						}
					],
					"stateMutability": "view",
					"type": "function"
				},
				{
					"inputs": [
						{
							"internalType": "address",
							"name": "spender",
							"type": "address"
						},
						{
							"internalType": "uint256",
							"name": "amount",
							"type": "uint256"
						}
					],
					"name": "approve",
					"outputs": [
						{
							"internalType": "bool",
							"name": "",
							"type": "bool"
						}
					],
					"stateMutability": "nonpayable",
					"type": "function"
				},
				{
					"inputs": [
						{
							"internalType": "address",
							"name": "account",
							"type": "address"
						}
					],
					"name": "balanceOf",
					"outputs": [
						{
							"internalType": "uint256",
							"name": "",
							"type": "uint256"
						}
					],
					"stateMutability": "view",
					"type": "function"
				},
				{
					"inputs": [],
					"name": "decimals",
					"outputs": [
						{
							"internalType": "uint8",
							"name": "",
							"type": "uint8"
						}
					],
					"stateMutability": "view",
					"type": "function"
				},
				{
					"inputs": [
						{
							"internalType": "address",
							"name": "spender",
							"type": "address"
						},
						{
							"internalType": "uint256",
							"name": "subtractedValue",
							"type": "uint256"
						}
					],
					"name": "decreaseAllowance",
					"outputs": [
						{
							"internalType": "bool",
							"name": "",
							"type": "bool"
						}
					],
					"stateMutability": "nonpayable",
					"type": "function"
				},
				{
					"inputs": [
						{
							"internalType": "address",
							"name": "spender",
							"type": "address"
						},
						{
							"internalType": "uint256",
							"name": "addedValue",
							"type": "uint256"
						}
					],
					"name": "increaseAllowance",
					"outputs": [
						{
							"internalType": "bool",
							"name": "",
							"type": "bool"
						}
					],
					"stateMutability": "nonpayable",
					"type": "function"
				},
				{
					"inputs": [],
					"name": "initialize",
					"outputs": [],
					"stateMutability": "nonpayable",
					"type": "function"
				},
				{
					"inputs": [
						{
							"internalType": "address",
							"name": "account",
							"type": "address"
						}
					],
					"name": "isExcluded",
					"outputs": [
						{
							"internalType": "bool",
							"name": "",
							"type": "bool"
						}
					],
					"stateMutability": "view",
					"type": "function"
				},
				{
					"inputs": [
						{
							"internalType": "address",
							"name": "account",
							"type": "address"
						}
					],
					"name": "isExcludedFromMaxTx",
					"outputs": [
						{
							"internalType": "bool",
							"name": "",
							"type": "bool"
						}
					],
					"stateMutability": "view",
					"type": "function"
				},
				{
					"inputs": [],
					"name": "maxTxAmount",
					"outputs": [
						{
							"internalType": "uint256",
							"name": "",
							"type": "uint256"
						}
					],
					"stateMutability": "view",
					"type": "function"
				},
				{
					"inputs": [],
					"name": "name",
					"outputs": [
						{
							"internalType": "string",
							"name": "",
							"type": "string"
						}
					],
					"stateMutability": "view",
					"type": "function"
				},
				{
					"inputs": [],
					"name": "owner",
					"outputs": [
						{
							"internalType": "address",
							"name": "",
							"type": "address"
						}
					],
					"stateMutability": "view",
					"type": "function"
				},
				{
					"inputs": [
						{
							"internalType": "address",
							"name": "account",
							"type": "address"
						}
					],
					"name": "rBalanceOf",
					"outputs": [
						{
							"internalType": "uint256",
							"name": "",
							"type": "uint256"
						}
					],
					"stateMutability": "view",
					"type": "function"
				},
				{
					"inputs": [],
					"name": "renounceOwnership",
					"outputs": [],
					"stateMutability": "nonpayable",
					"type": "function"
				},
				{
					"inputs": [
						{
							"internalType": "bool",
							"name": "_status",
							"type": "bool"
						}
					],
					"name": "setAntiWhaleStatus",
					"outputs": [],
					"stateMutability": "nonpayable",
					"type": "function"
				},
				{
					"inputs": [],
					"name": "symbol",
					"outputs": [
						{
							"internalType": "string",
							"name": "",
							"type": "string"
						}
					],
					"stateMutability": "view",
					"type": "function"
				},
				{
					"inputs": [],
					"name": "totalSupply",
					"outputs": [
						{
							"internalType": "uint256",
							"name": "",
							"type": "uint256"
						}
					],
					"stateMutability": "view",
					"type": "function"
				},
				{
					"inputs": [
						{
							"internalType": "address",
							"name": "recipient",
							"type": "address"
						},
						{
							"internalType": "uint256",
							"name": "amount",
							"type": "uint256"
						}
					],
					"name": "transfer",
					"outputs": [
						{
							"internalType": "bool",
							"name": "",
							"type": "bool"
						}
					],
					"stateMutability": "nonpayable",
					"type": "function"
				},
				{
					"inputs": [
						{
							"internalType": "address",
							"name": "sender",
							"type": "address"
						},
						{
							"internalType": "address",
							"name": "recipient",
							"type": "address"
						},
						{
							"internalType": "uint256",
							"name": "amount",
							"type": "uint256"
						}
					],
					"name": "transferFrom",
					"outputs": [
						{
							"internalType": "bool",
							"name": "",
							"type": "bool"
						}
					],
					"stateMutability": "nonpayable",
					"type": "function"
				},
				{
					"inputs": [
						{
							"internalType": "address",
							"name": "newOwner",
							"type": "address"
						}
					],
					"name": "transferOwnership",
					"outputs": [],
					"stateMutability": "nonpayable",
					"type": "function"
				},
				{
					"inputs": [
						{
							"internalType": "address",
							"name": "_address",
							"type": "address"
						}
					],
					"name": "viewTBalanceRBalance",
					"outputs": [
						{
							"internalType": "uint256",
							"name": "",
							"type": "uint256"
						},
						{
							"internalType": "uint256",
							"name": "",
							"type": "uint256"
						}
					],
					"stateMutability": "view",
					"type": "function"
				}
			],
			"devdoc": {
				"author": "METH Token developer team (info@crystalmeth.xyz)",
				"details": "Inherits multiple OpenZeppelin standards ",
				"events": {
					"Approval(address,address,uint256)": {
						"details": "Emitted when the allowance of a `spender` for an `owner` is set by a call to {approve}. `value` is the new allowance."
					},
					"Initialized(uint8)": {
						"details": "Triggered when the contract has been initialized or reinitialized."
					},
					"Transfer(address,address,uint256)": {
						"details": "Emitted when `value` tokens are moved from one account (`from`) to another (`to`). Note that `value` may be zero."
					}
				},
				"kind": "dev",
				"methods": {
					"owner()": {
						"details": "Returns the address of the current owner."
					},
					"renounceOwnership()": {
						"details": "Leaves the contract without owner. It will not be possible to call `onlyOwner` functions. Can only be called by the current owner. NOTE: Renouncing ownership will leave the contract without an owner, thereby disabling any functionality that is only available to the owner."
					},
					"transferOwnership(address)": {
						"details": "Transfers ownership of the contract to a new account (`newOwner`). Can only be called by the current owner."
					}
				},
				"title": "An ERC20 contract named METH",
				"version": 1
			},
			"evm": {
				"assembly": "    /* \"METH.sol\":26674:48108  contract METH is Initializable, IERC20Upgradeable, OwnableUpgradeable {... */\n  mstore(0x40, 0x80)\n    /* \"METH.sol\":37095:37121  bool private mutex = false */\n  0x72\n  dup1\n  sload\n  not(0xff00)\n  and\n  swap1\n  sstore\n    /* \"METH.sol\":26674:48108  contract METH is Initializable, IERC20Upgradeable, OwnableUpgradeable {... */\n  callvalue\n  dup1\n  iszero\n  tag_1\n  jumpi\n  0x00\n  dup1\n  revert\ntag_1:\n  pop\n  dataSize(sub_0)\n  dup1\n  dataOffset(sub_0)\n  0x00\n  codecopy\n  0x00\n  return\nstop\n\nsub_0: assembly {\n        /* \"METH.sol\":26674:48108  contract METH is Initializable, IERC20Upgradeable, OwnableUpgradeable {... */\n      mstore(0x40, 0x80)\n      callvalue\n      dup1\n      iszero\n      tag_1\n      jumpi\n      0x00\n      dup1\n      revert\n    tag_1:\n      pop\n      jumpi(tag_2, lt(calldatasize, 0x04))\n      shr(0xe0, calldataload(0x00))\n      dup1\n      0x80da2287\n      gt\n      tag_30\n      jumpi\n      dup1\n      0x97a9d560\n      gt\n      tag_31\n      jumpi\n      dup1\n      0xaf465a27\n      gt\n      tag_32\n      jumpi\n      dup1\n      0xaf465a27\n      eq\n      tag_26\n      jumpi\n      dup1\n      0xcba0e996\n      eq\n      tag_27\n      jumpi\n      dup1\n      0xdd62ed3e\n      eq\n      tag_28\n      jumpi\n      dup1\n      0xf2fde38b\n      eq\n      tag_29\n      jumpi\n      0x00\n      dup1\n      revert\n    tag_32:\n      dup1\n      0x97a9d560\n      eq\n      tag_23\n      jumpi\n      dup1\n      0xa457c2d7\n      eq\n      tag_24\n      jumpi\n      dup1\n      0xa9059cbb\n      eq\n      tag_25\n      jumpi\n      0x00\n      dup1\n      revert\n    tag_31:\n      dup1\n      0x8c0b5e22\n      gt\n      tag_33\n      jumpi\n      dup1\n      0x8c0b5e22\n      eq\n      tag_19\n      jumpi\n      dup1\n      0x8da5cb5b\n      eq\n      tag_20\n      jumpi\n      dup1\n      0x94e10784\n      eq\n      tag_21\n      jumpi\n      dup1\n      0x95d89b41\n      eq\n      tag_22\n      jumpi\n      0x00\n      dup1\n      revert\n    tag_33:\n      dup1\n      0x80da2287\n      eq\n      tag_16\n      jumpi\n      dup1\n      0x8129fc1c\n      eq\n      tag_17\n      jumpi\n      dup1\n      0x83f24c09\n      eq\n      tag_18\n      jumpi\n      0x00\n      dup1\n      revert\n    tag_30:\n      dup1\n      0x45e0b9d4\n      gt\n      tag_34\n      jumpi\n      dup1\n      0x5319e78f\n      gt\n      tag_35\n      jumpi\n      dup1\n      0x5319e78f\n      eq\n      tag_12\n      jumpi\n      dup1\n      0x658c27a9\n      eq\n      tag_13\n      jumpi\n      dup1\n      0x70a08231\n      eq\n      tag_14\n      jumpi\n      dup1\n      0x715018a6\n      eq\n      tag_15\n      jumpi\n      0x00\n      dup1\n      revert\n    tag_35:\n      dup1\n      0x45e0b9d4\n      eq\n      tag_9\n      jumpi\n      dup1\n      0x4d09deb3\n      eq\n      tag_10\n      jumpi\n      dup1\n      0x4dacf3f5\n      eq\n      tag_11\n      jumpi\n      0x00\n      dup1\n      revert\n    tag_34:\n      dup1\n      0x06fdde03\n      eq\n      tag_3\n      jumpi\n      dup1\n      0x095ea7b3\n      eq\n      tag_4\n      jumpi\n      dup1\n      0x18160ddd\n      eq\n      tag_5\n      jumpi\n      dup1\n      0x23b872dd\n      eq\n      tag_6\n      jumpi\n      dup1\n      0x313ce567\n      eq\n      tag_7\n      jumpi\n      dup1\n      0x39509351\n      eq\n      tag_8\n      jumpi\n    tag_2:\n      0x00\n      dup1\n      revert\n        /* \"METH.sol\":30000:30083  function name() public view returns (string memory) {... */\n    tag_3:\n      tag_36\n      tag_37\n      jump\t// in\n    tag_36:\n      mload(0x40)\n      tag_38\n      swap2\n      swap1\n      tag_39\n      jump\t// in\n    tag_38:\n      mload(0x40)\n      dup1\n      swap2\n      sub\n      swap1\n      return\n        /* \"METH.sol\":32052:32233  function approve(address spender, uint256 amount) public override (IERC20Upgradeable) returns (bool) {... */\n    tag_4:\n      tag_40\n      tag_41\n      calldatasize\n      0x04\n      tag_42\n      jump\t// in\n    tag_41:\n      tag_43\n      jump\t// in\n    tag_40:\n      mload(0x40)\n        /* \"#utility.yul\":1272:1286   */\n      swap1\n      iszero\n        /* \"#utility.yul\":1265:1287   */\n      iszero\n        /* \"#utility.yul\":1247:1288   */\n      dup2\n      mstore\n        /* \"#utility.yul\":1235:1237   */\n      0x20\n        /* \"#utility.yul\":1220:1238   */\n      add\n        /* \"METH.sol\":32052:32233  function approve(address spender, uint256 amount) public override (IERC20Upgradeable) returns (bool) {... */\n      tag_38\n        /* \"#utility.yul\":1107:1294   */\n      jump\n        /* \"METH.sol\":30410:30525  function totalSupply() public view override (IERC20Upgradeable) returns (uint256) {... */\n    tag_5:\n        /* \"METH.sol\":30510:30517  _tTotal */\n      sload(0x6f)\n        /* \"METH.sol\":30410:30525  function totalSupply() public view override (IERC20Upgradeable) returns (uint256) {... */\n    tag_46:\n      mload(0x40)\n        /* \"#utility.yul\":1445:1470   */\n      swap1\n      dup2\n      mstore\n        /* \"#utility.yul\":1433:1435   */\n      0x20\n        /* \"#utility.yul\":1418:1436   */\n      add\n        /* \"METH.sol\":30410:30525  function totalSupply() public view override (IERC20Upgradeable) returns (uint256) {... */\n      tag_38\n        /* \"#utility.yul\":1299:1476   */\n      jump\n        /* \"METH.sol\":31378:31714  function transferFrom(... */\n    tag_6:\n      tag_40\n      tag_51\n      calldatasize\n      0x04\n      tag_52\n      jump\t// in\n    tag_51:\n      tag_53\n      jump\t// in\n        /* \"METH.sol\":30248:30331  function decimals() public view returns (uint8) {... */\n    tag_7:\n        /* \"METH.sol\":30314:30323  _decimals */\n      sload(0x67)\n        /* \"METH.sol\":30248:30331  function decimals() public view returns (uint8) {... */\n      mload(0x40)\n        /* \"METH.sol\":30314:30323  _decimals */\n      0xff\n      swap1\n      swap2\n      and\n        /* \"#utility.yul\":1956:1992   */\n      dup2\n      mstore\n        /* \"#utility.yul\":1944:1946   */\n      0x20\n        /* \"#utility.yul\":1929:1947   */\n      add\n        /* \"METH.sol\":30248:30331  function decimals() public view returns (uint8) {... */\n      tag_38\n        /* \"#utility.yul\":1814:1998   */\n      jump\n        /* \"METH.sol\":32306:32521  function increaseAllowance(address spender, uint256 addedValue) public virtual returns (bool) {... */\n    tag_8:\n      tag_40\n      tag_60\n      calldatasize\n      0x04\n      tag_42\n      jump\t// in\n    tag_60:\n      tag_61\n      jump\t// in\n        /* \"METH.sol\":28014:28036  uint256 public _rTotal */\n    tag_9:\n      tag_46\n      sload(0x70)\n      dup2\n      jump\n        /* \"METH.sol\":26899:26925  address[] public _excluded */\n    tag_10:\n      tag_66\n      tag_67\n      calldatasize\n      0x04\n      tag_68\n      jump\t// in\n    tag_67:\n      tag_69\n      jump\t// in\n    tag_66:\n      mload(0x40)\n      sub(shl(0xa0, 0x01), 0x01)\n        /* \"#utility.yul\":2352:2384   */\n      swap1\n      swap2\n      and\n        /* \"#utility.yul\":2334:2385   */\n      dup2\n      mstore\n        /* \"#utility.yul\":2322:2324   */\n      0x20\n        /* \"#utility.yul\":2307:2325   */\n      add\n        /* \"METH.sol\":26899:26925  address[] public _excluded */\n      tag_38\n        /* \"#utility.yul\":2188:2391   */\n      jump\n        /* \"METH.sol\":28115:28136  bool public antiWhale */\n    tag_11:\n      sload(0x72)\n      tag_40\n      swap1\n      0xff\n      and\n      dup2\n      jump\n        /* \"METH.sol\":34855:35431  function rBalanceOf(address account) public view returns (uint256) {... */\n    tag_12:\n      tag_46\n      tag_76\n      calldatasize\n      0x04\n      tag_77\n      jump\t// in\n    tag_76:\n      tag_78\n      jump\t// in\n        /* \"METH.sol\":47214:47342  function isExcludedFromMaxTx(address account) public view returns (bool) {... */\n    tag_13:\n      tag_40\n      tag_81\n      calldatasize\n      0x04\n      tag_77\n      jump\t// in\n    tag_81:\n      sub(shl(0xa0, 0x01), 0x01)\n        /* \"METH.sol\":47305:47334  _isExcludedFromMaxTx[account] */\n      and\n        /* \"METH.sol\":47281:47285  bool */\n      0x00\n        /* \"METH.sol\":47305:47334  _isExcludedFromMaxTx[account] */\n      swap1\n      dup2\n      mstore\n        /* \"METH.sol\":47305:47325  _isExcludedFromMaxTx */\n      0x6d\n        /* \"METH.sol\":47305:47334  _isExcludedFromMaxTx[account] */\n      0x20\n      mstore\n      0x40\n      swap1\n      keccak256\n      sload\n      0xff\n      and\n      swap1\n        /* \"METH.sol\":47214:47342  function isExcludedFromMaxTx(address account) public view returns (bool) {... */\n      jump\n        /* \"METH.sol\":30648:31026  function balanceOf(address account) public view override (IERC20Upgradeable) returns (uint256) {... */\n    tag_14:\n      tag_46\n      tag_85\n      calldatasize\n      0x04\n      tag_77\n      jump\t// in\n    tag_85:\n      tag_86\n      jump\t// in\n        /* \"METH.sol\":22656:22759  function renounceOwnership() public virtual onlyOwner {... */\n    tag_15:\n      tag_88\n      tag_89\n      jump\t// in\n    tag_88:\n      stop\n        /* \"METH.sol\":47768:47994  function viewTBalanceRBalance(address _address) public view returns (uint256, uint256) {... */\n    tag_16:\n      tag_90\n      tag_91\n      calldatasize\n      0x04\n      tag_77\n      jump\t// in\n    tag_91:\n      sub(shl(0xa0, 0x01), 0x01)\n        /* \"METH.sol\":47885:47902  _tOwned[_address] */\n      and\n        /* \"METH.sol\":47837:47844  uint256 */\n      0x00\n        /* \"METH.sol\":47885:47902  _tOwned[_address] */\n      swap1\n      dup2\n      mstore\n        /* \"METH.sol\":47885:47892  _tOwned */\n      0x69\n        /* \"METH.sol\":47885:47902  _tOwned[_address] */\n      0x20\n      swap1\n      dup2\n      mstore\n      0x40\n      dup1\n      dup4\n      keccak256\n      sload\n        /* \"METH.sol\":47932:47939  _rOwned */\n      0x6a\n        /* \"METH.sol\":47932:47949  _rOwned[_address] */\n      swap1\n      swap3\n      mstore\n      swap1\n      swap2\n      keccak256\n      sload\n        /* \"METH.sol\":47885:47902  _tOwned[_address] */\n      swap1\n      swap2\n        /* \"METH.sol\":47768:47994  function viewTBalanceRBalance(address _address) public view returns (uint256, uint256) {... */\n      jump\n    tag_90:\n      0x40\n      dup1\n      mload\n        /* \"#utility.yul\":2761:2786   */\n      swap3\n      dup4\n      mstore\n        /* \"#utility.yul\":2817:2819   */\n      0x20\n        /* \"#utility.yul\":2802:2820   */\n      dup4\n      add\n        /* \"#utility.yul\":2795:2829   */\n      swap2\n      swap1\n      swap2\n      mstore\n        /* \"#utility.yul\":2734:2752   */\n      add\n        /* \"METH.sol\":47768:47994  function viewTBalanceRBalance(address _address) public view returns (uint256, uint256) {... */\n      tag_38\n        /* \"#utility.yul\":2587:2835   */\n      jump\n        /* \"METH.sol\":28482:29911  function initialize(... */\n    tag_17:\n      tag_88\n      tag_96\n      jump\t// in\n        /* \"METH.sol\":33008:33107  function setAntiWhaleStatus(bool _status) external onlyOwner {... */\n    tag_18:\n      tag_88\n      tag_98\n      calldatasize\n      0x04\n      tag_99\n      jump\t// in\n    tag_98:\n      tag_100\n      jump\t// in\n        /* \"METH.sol\":28080:28106  uint256 public maxTxAmount */\n    tag_19:\n      tag_46\n      sload(0x71)\n      dup2\n      jump\n        /* \"METH.sol\":22015:22102  function owner() public view virtual returns (address) {... */\n    tag_20:\n        /* \"METH.sol\":22088:22094  _owner */\n      and(sub(shl(0xa0, 0x01), 0x01), sload(0x33))\n        /* \"METH.sol\":22015:22102  function owner() public view virtual returns (address) {... */\n      jump(tag_66)\n        /* \"METH.sol\":35498:35759  function _getRate() public view returns (uint256) {... */\n    tag_21:\n      tag_46\n      tag_108\n      jump\t// in\n        /* \"METH.sol\":30121:30208  function symbol() public view returns (string memory) {... */\n    tag_22:\n      tag_36\n      tag_111\n      jump\t// in\n        /* \"METH.sol\":35856:36495  function _getCurrentSupply() public view returns (uint256, uint256) {... */\n    tag_23:\n      tag_90\n      tag_114\n      jump\t// in\n        /* \"METH.sol\":32594:32819  function decreaseAllowance(address spender, uint256 subtractedValue) public virtual returns (bool) {... */\n    tag_24:\n      tag_40\n      tag_117\n      calldatasize\n      0x04\n      tag_42\n      jump\t// in\n    tag_117:\n      tag_118\n      jump\t// in\n        /* \"METH.sol\":31098:31285  function transfer(address recipient, uint256 amount) public override (IERC20Upgradeable) returns (bool) {... */\n    tag_25:\n      tag_40\n      tag_121\n      calldatasize\n      0x04\n      tag_42\n      jump\t// in\n    tag_121:\n      tag_122\n      jump\t// in\n        /* \"METH.sol\":27822:27844  uint256 public _tTotal */\n    tag_26:\n      tag_46\n      sload(0x6f)\n      dup2\n      jump\n        /* \"METH.sol\":47421:47531  function isExcluded(address account) public view returns (bool) {... */\n    tag_27:\n      tag_40\n      tag_128\n      calldatasize\n      0x04\n      tag_77\n      jump\t// in\n    tag_128:\n      sub(shl(0xa0, 0x01), 0x01)\n        /* \"METH.sol\":47503:47523  _isExcluded[account] */\n      and\n        /* \"METH.sol\":47479:47483  bool */\n      0x00\n        /* \"METH.sol\":47503:47523  _isExcluded[account] */\n      swap1\n      dup2\n      mstore\n        /* \"METH.sol\":47503:47514  _isExcluded */\n      0x6c\n        /* \"METH.sol\":47503:47523  _isExcluded[account] */\n      0x20\n      mstore\n      0x40\n      swap1\n      keccak256\n      sload\n      0xff\n      and\n      swap1\n        /* \"METH.sol\":47421:47531  function isExcluded(address account) public view returns (bool) {... */\n      jump\n        /* \"METH.sol\":31807:31970  function allowance(address owner, address spender) public view override (IERC20Upgradeable) returns (uint256) {... */\n    tag_28:\n      tag_46\n      tag_132\n      calldatasize\n      0x04\n      tag_133\n      jump\t// in\n    tag_132:\n      sub(shl(0xa0, 0x01), 0x01)\n        /* \"METH.sol\":31935:31953  _allowances[owner] */\n      swap2\n      dup3\n      and\n        /* \"METH.sol\":31908:31915  uint256 */\n      0x00\n        /* \"METH.sol\":31935:31953  _allowances[owner] */\n      swap1\n      dup2\n      mstore\n        /* \"METH.sol\":31935:31946  _allowances */\n      0x6b\n        /* \"METH.sol\":31935:31953  _allowances[owner] */\n      0x20\n      swap1\n      dup2\n      mstore\n      0x40\n      dup1\n      dup4\n      keccak256\n        /* \"METH.sol\":31935:31962  _allowances[owner][spender] */\n      swap4\n      swap1\n      swap5\n      and\n      dup3\n      mstore\n      swap2\n      swap1\n      swap2\n      mstore\n      keccak256\n      sload\n      swap1\n        /* \"METH.sol\":31807:31970  function allowance(address owner, address spender) public view override (IERC20Upgradeable) returns (uint256) {... */\n      jump\n        /* \"METH.sol\":22914:23115  function transferOwnership(address newOwner) public virtual onlyOwner {... */\n    tag_29:\n      tag_88\n      tag_137\n      calldatasize\n      0x04\n      tag_77\n      jump\t// in\n    tag_137:\n      tag_138\n      jump\t// in\n        /* \"METH.sol\":30000:30083  function name() public view returns (string memory) {... */\n    tag_37:\n        /* \"METH.sol\":30037:30050  string memory */\n      0x60\n        /* \"METH.sol\":30070:30075  _name */\n      0x65\n        /* \"METH.sol\":30063:30075  return _name */\n      dup1\n      sload\n      tag_140\n      swap1\n      tag_141\n      jump\t// in\n    tag_140:\n      dup1\n      0x1f\n      add\n      0x20\n      dup1\n      swap2\n      div\n      mul\n      0x20\n      add\n      mload(0x40)\n      swap1\n      dup2\n      add\n      0x40\n      mstore\n      dup1\n      swap3\n      swap2\n      swap1\n      dup2\n      dup2\n      mstore\n      0x20\n      add\n      dup3\n      dup1\n      sload\n      tag_142\n      swap1\n      tag_141\n      jump\t// in\n    tag_142:\n      dup1\n      iszero\n      tag_143\n      jumpi\n      dup1\n      0x1f\n      lt\n      tag_144\n      jumpi\n      0x0100\n      dup1\n      dup4\n      sload\n      div\n      mul\n      dup4\n      mstore\n      swap2\n      0x20\n      add\n      swap2\n      jump(tag_143)\n    tag_144:\n      dup3\n      add\n      swap2\n      swap1\n      0x00\n      mstore\n      keccak256(0x00, 0x20)\n      swap1\n    tag_145:\n      dup2\n      sload\n      dup2\n      mstore\n      swap1\n      0x01\n      add\n      swap1\n      0x20\n      add\n      dup1\n      dup4\n      gt\n      tag_145\n      jumpi\n      dup3\n      swap1\n      sub\n      0x1f\n      and\n      dup3\n      add\n      swap2\n    tag_143:\n      pop\n      pop\n      pop\n      pop\n      pop\n      swap1\n      pop\n        /* \"METH.sol\":30000:30083  function name() public view returns (string memory) {... */\n      swap1\n      jump\t// out\n        /* \"METH.sol\":32052:32233  function approve(address spender, uint256 amount) public override (IERC20Upgradeable) returns (bool) {... */\n    tag_43:\n        /* \"METH.sol\":32147:32151  bool */\n      0x00\n        /* \"METH.sol\":32164:32203  _approve(_msgSender(), spender, amount) */\n      tag_147\n        /* \"METH.sol\":20205:20215  msg.sender */\n      caller\n        /* \"METH.sol\":32187:32194  spender */\n      dup5\n        /* \"METH.sol\":32196:32202  amount */\n      dup5\n        /* \"METH.sol\":32164:32172  _approve */\n      tag_150\n        /* \"METH.sol\":32164:32203  _approve(_msgSender(), spender, amount) */\n      jump\t// in\n    tag_147:\n      pop\n        /* \"METH.sol\":32221:32225  true */\n      0x01\n        /* \"METH.sol\":32052:32233  function approve(address spender, uint256 amount) public override (IERC20Upgradeable) returns (bool) {... */\n    tag_146:\n      swap3\n      swap2\n      pop\n      pop\n      jump\t// out\n        /* \"METH.sol\":31378:31714  function transferFrom(... */\n    tag_53:\n        /* \"METH.sol\":31546:31550  bool */\n      0x00\n        /* \"METH.sol\":31563:31599  _transfer(sender, recipient, amount) */\n      tag_153\n        /* \"METH.sol\":31573:31579  sender */\n      dup5\n        /* \"METH.sol\":31581:31590  recipient */\n      dup5\n        /* \"METH.sol\":31592:31598  amount */\n      dup5\n        /* \"METH.sol\":31563:31572  _transfer */\n      tag_154\n        /* \"METH.sol\":31563:31599  _transfer(sender, recipient, amount) */\n      jump\t// in\n    tag_153:\n      sub(shl(0xa0, 0x01), 0x01)\n        /* \"METH.sol\":31641:31660  _allowances[sender] */\n      dup5\n      and\n      0x00\n      swap1\n      dup2\n      mstore\n        /* \"METH.sol\":31641:31652  _allowances */\n      0x6b\n        /* \"METH.sol\":31641:31660  _allowances[sender] */\n      0x20\n      swap1\n      dup2\n      mstore\n      0x40\n      dup1\n      dup4\n      keccak256\n        /* \"METH.sol\":20205:20215  msg.sender */\n      caller\n        /* \"METH.sol\":31641:31674  _allowances[sender][_msgSender()] */\n      dup1\n      dup6\n      mstore\n      swap3\n      mstore\n      swap1\n      swap2\n      keccak256\n      sload\n        /* \"METH.sol\":31610:31684  _approve(sender, _msgSender(), _allowances[sender][_msgSender()] - amount) */\n      tag_155\n      swap2\n        /* \"METH.sol\":31619:31625  sender */\n      dup7\n      swap2\n        /* \"METH.sol\":31641:31683  _allowances[sender][_msgSender()] - amount */\n      tag_158\n      swap1\n        /* \"METH.sol\":31677:31683  amount */\n      dup7\n      swap1\n        /* \"METH.sol\":31641:31683  _allowances[sender][_msgSender()] - amount */\n      tag_159\n      jump\t// in\n    tag_158:\n        /* \"METH.sol\":31610:31618  _approve */\n      tag_150\n        /* \"METH.sol\":31610:31684  _approve(sender, _msgSender(), _allowances[sender][_msgSender()] - amount) */\n      jump\t// in\n    tag_155:\n      pop\n        /* \"METH.sol\":31702:31706  true */\n      0x01\n        /* \"METH.sol\":31378:31714  function transferFrom(... */\n      swap4\n      swap3\n      pop\n      pop\n      pop\n      jump\t// out\n        /* \"METH.sol\":32306:32521  function increaseAllowance(address spender, uint256 addedValue) public virtual returns (bool) {... */\n    tag_61:\n        /* \"METH.sol\":20205:20215  msg.sender */\n      caller\n        /* \"METH.sol\":32394:32398  bool */\n      0x00\n        /* \"METH.sol\":32443:32468  _allowances[_msgSender()] */\n      dup2\n      dup2\n      mstore\n        /* \"METH.sol\":32443:32454  _allowances */\n      0x6b\n        /* \"METH.sol\":32443:32468  _allowances[_msgSender()] */\n      0x20\n      swap1\n      dup2\n      mstore\n      0x40\n      dup1\n      dup4\n      keccak256\n      sub(shl(0xa0, 0x01), 0x01)\n        /* \"METH.sol\":32443:32477  _allowances[_msgSender()][spender] */\n      dup8\n      and\n      dup5\n      mstore\n      swap1\n      swap2\n      mstore\n      dup2\n      keccak256\n      sload\n        /* \"METH.sol\":32394:32398  bool */\n      swap1\n      swap2\n        /* \"METH.sol\":32411:32491  _approve(_msgSender(), spender, _allowances[_msgSender()][spender] + addedValue) */\n      tag_147\n      swap2\n        /* \"METH.sol\":32434:32441  spender */\n      dup6\n      swap1\n        /* \"METH.sol\":32443:32490  _allowances[_msgSender()][spender] + addedValue */\n      tag_158\n      swap1\n        /* \"METH.sol\":32480:32490  addedValue */\n      dup7\n      swap1\n        /* \"METH.sol\":32443:32490  _allowances[_msgSender()][spender] + addedValue */\n      tag_166\n      jump\t// in\n        /* \"METH.sol\":26899:26925  address[] public _excluded */\n    tag_69:\n      0x68\n      dup2\n      dup2\n      sload\n      dup2\n      lt\n      tag_167\n      jumpi\n      0x00\n      dup1\n      revert\n    tag_167:\n      0x00\n      swap2\n      dup3\n      mstore\n      0x20\n      swap1\n      swap2\n      keccak256\n      add\n      sload\n      sub(shl(0xa0, 0x01), 0x01)\n      and\n      swap1\n      pop\n      dup2\n      jump\t// out\n        /* \"METH.sol\":34855:35431  function rBalanceOf(address account) public view returns (uint256) {... */\n    tag_78:\n      sub(shl(0xa0, 0x01), 0x01)\n        /* \"METH.sol\":34950:34966  _rOwned[account] */\n      dup2\n      and\n        /* \"METH.sol\":34913:34920  uint256 */\n      0x00\n        /* \"METH.sol\":34950:34966  _rOwned[account] */\n      swap1\n      dup2\n      mstore\n        /* \"METH.sol\":34950:34957  _rOwned */\n      0x6a\n        /* \"METH.sol\":34950:34966  _rOwned[account] */\n      0x20\n      mstore\n      0x40\n      dup2\n      keccak256\n      sload\n        /* \"METH.sol\":35074:35081  _rTotal */\n      sload(0x70)\n        /* \"METH.sol\":35064:35081  rOwned <= _rTotal */\n      dup2\n      gt\n      iszero\n        /* \"METH.sol\":35056:35128  require(rOwned <= _rTotal, \"Amount must be less than total reflections\") */\n      tag_170\n      jumpi\n      mload(0x40)\n      shl(0xe5, 0x461bcd)\n      dup2\n      mstore\n        /* \"#utility.yul\":4365:4367   */\n      0x20\n        /* \"METH.sol\":35056:35128  require(rOwned <= _rTotal, \"Amount must be less than total reflections\") */\n      0x04\n      dup3\n      add\n        /* \"#utility.yul\":4347:4368   */\n      mstore\n        /* \"#utility.yul\":4404:4406   */\n      0x2a\n        /* \"#utility.yul\":4384:4402   */\n      0x24\n      dup3\n      add\n        /* \"#utility.yul\":4377:4407   */\n      mstore\n        /* \"#utility.yul\":4443:4477   */\n      0x416d6f756e74206d757374206265206c657373207468616e20746f74616c2072\n        /* \"#utility.yul\":4423:4441   */\n      0x44\n      dup3\n      add\n        /* \"#utility.yul\":4416:4478   */\n      mstore\n      shl(0xb0, 0x65666c656374696f6e73)\n        /* \"#utility.yul\":4494:4512   */\n      0x64\n      dup3\n      add\n        /* \"#utility.yul\":4487:4527   */\n      mstore\n        /* \"#utility.yul\":4544:4563   */\n      0x84\n      add\n        /* \"METH.sol\":35056:35128  require(rOwned <= _rTotal, \"Amount must be less than total reflections\") */\n    tag_171:\n      mload(0x40)\n      dup1\n      swap2\n      sub\n      swap1\n      revert\n    tag_170:\n        /* \"METH.sol\":35205:35224  uint256 currentRate */\n      0x00\n        /* \"METH.sol\":35227:35237  _getRate() */\n      tag_173\n        /* \"METH.sol\":35227:35235  _getRate */\n      tag_108\n        /* \"METH.sol\":35227:35237  _getRate() */\n      jump\t// in\n    tag_173:\n        /* \"METH.sol\":35205:35237  uint256 currentRate = _getRate() */\n      swap1\n      pop\n        /* \"METH.sol\":35252:35258  rOwned */\n      dup2\n        /* \"METH.sol\":35262:35263  0 */\n      0x00\n        /* \"METH.sol\":35252:35263  rOwned == 0 */\n      sub\n        /* \"METH.sol\":35248:35424  if (rOwned == 0) {... */\n      tag_174\n      jumpi\n      pop\n        /* \"METH.sol\":35287:35288  0 */\n      0x00\n      swap4\n        /* \"METH.sol\":34855:35431  function rBalanceOf(address account) public view returns (uint256) {... */\n      swap3\n      pop\n      pop\n      pop\n      jump\t// out\n        /* \"METH.sol\":35248:35424  if (rOwned == 0) {... */\n    tag_174:\n        /* \"METH.sol\":35392:35412  rOwned / currentRate */\n      tag_176\n        /* \"METH.sol\":35401:35412  currentRate */\n      dup2\n        /* \"METH.sol\":35392:35398  rOwned */\n      dup4\n        /* \"METH.sol\":35392:35412  rOwned / currentRate */\n      tag_177\n      jump\t// in\n    tag_176:\n        /* \"METH.sol\":35385:35412  return rOwned / currentRate */\n      swap5\n        /* \"METH.sol\":34855:35431  function rBalanceOf(address account) public view returns (uint256) {... */\n      swap4\n      pop\n      pop\n      pop\n      pop\n      jump\t// out\n        /* \"METH.sol\":30648:31026  function balanceOf(address account) public view override (IERC20Upgradeable) returns (uint256) {... */\n    tag_86:\n      sub(shl(0xa0, 0x01), 0x01)\n        /* \"METH.sol\":30819:30839  _isExcluded[account] */\n      dup2\n      and\n        /* \"METH.sol\":30734:30741  uint256 */\n      0x00\n        /* \"METH.sol\":30819:30839  _isExcluded[account] */\n      swap1\n      dup2\n      mstore\n        /* \"METH.sol\":30819:30830  _isExcluded */\n      0x6c\n        /* \"METH.sol\":30819:30839  _isExcluded[account] */\n      0x20\n      mstore\n      0x40\n      dup2\n      keccak256\n      sload\n      0xff\n      and\n        /* \"METH.sol\":30815:31019  if (_isExcluded[account]) {... */\n      iszero\n      tag_180\n      jumpi\n      pop\n      sub(shl(0xa0, 0x01), 0x01)\n        /* \"METH.sol\":30863:30879  _tOwned[account] */\n      and\n      0x00\n      swap1\n      dup2\n      mstore\n        /* \"METH.sol\":30863:30870  _tOwned */\n      0x69\n        /* \"METH.sol\":30863:30879  _tOwned[account] */\n      0x20\n      mstore\n      0x40\n      swap1\n      keccak256\n      sload\n      swap1\n        /* \"METH.sol\":30648:31026  function balanceOf(address account) public view override (IERC20Upgradeable) returns (uint256) {... */\n      jump\t// out\n        /* \"METH.sol\":30815:31019  if (_isExcluded[account]) {... */\n    tag_180:\n        /* \"METH.sol\":30988:31007  rBalanceOf(account) */\n      tag_146\n        /* \"METH.sol\":30999:31006  account */\n      dup3\n        /* \"METH.sol\":30988:30998  rBalanceOf */\n      tag_78\n        /* \"METH.sol\":30988:31007  rBalanceOf(account) */\n      jump\t// in\n        /* \"METH.sol\":30815:31019  if (_isExcluded[account]) {... */\n    tag_181:\n        /* \"METH.sol\":30648:31026  function balanceOf(address account) public view override (IERC20Upgradeable) returns (uint256) {... */\n      swap2\n      swap1\n      pop\n      jump\t// out\n        /* \"METH.sol\":22656:22759  function renounceOwnership() public virtual onlyOwner {... */\n    tag_89:\n        /* \"METH.sol\":21901:21914  _checkOwner() */\n      tag_184\n        /* \"METH.sol\":21901:21912  _checkOwner */\n      tag_185\n        /* \"METH.sol\":21901:21914  _checkOwner() */\n      jump\t// in\n    tag_184:\n        /* \"METH.sol\":22721:22751  _transferOwnership(address(0)) */\n      tag_187\n        /* \"METH.sol\":22748:22749  0 */\n      0x00\n        /* \"METH.sol\":22721:22739  _transferOwnership */\n      tag_188\n        /* \"METH.sol\":22721:22751  _transferOwnership(address(0)) */\n      jump\t// in\n    tag_187:\n        /* \"METH.sol\":22656:22759  function renounceOwnership() public virtual onlyOwner {... */\n      jump\t// out\n        /* \"METH.sol\":28482:29911  function initialize(... */\n    tag_96:\n        /* \"METH.sol\":15965:15984  bool isTopLevelCall */\n      0x00\n        /* \"METH.sol\":15988:16001  _initializing */\n      sload\n      0x0100\n      swap1\n      div\n      0xff\n      and\n        /* \"METH.sol\":15987:16001  !_initializing */\n      iszero\n      dup1\n        /* \"METH.sol\":16035:16069  isTopLevelCall && _initialized < 1 */\n      dup1\n      iszero\n      tag_191\n      jumpi\n      pop\n        /* \"METH.sol\":16053:16065  _initialized */\n      sload(0x00)\n        /* \"METH.sol\":16068:16069  1 */\n      0x01\n        /* \"METH.sol\":16053:16065  _initialized */\n      0xff\n      swap1\n      swap2\n      and\n        /* \"METH.sol\":16053:16069  _initialized < 1 */\n      lt\n        /* \"METH.sol\":16035:16069  isTopLevelCall && _initialized < 1 */\n    tag_191:\n        /* \"METH.sol\":16034:16142  (isTopLevelCall && _initialized < 1) || (!AddressUpgradeable.isContract(address(this)) && _initialized == 1) */\n      dup1\n      tag_195\n      jumpi\n      pop\n        /* \"METH.sol\":16114:16118  this */\n      address\n        /* \"METH.sol\":4927:4946  account.code.length */\n      extcodesize\n        /* \"METH.sol\":4927:4950  account.code.length > 0 */\n      iszero\n      dup1\n      iszero\n        /* \"METH.sol\":16075:16141  !AddressUpgradeable.isContract(address(this)) && _initialized == 1 */\n      tag_195\n      jumpi\n      pop\n        /* \"METH.sol\":16124:16136  _initialized */\n      and(0xff, sload(0x00))\n      0x01\n        /* \"METH.sol\":16124:16141  _initialized == 1 */\n      eq\n        /* \"METH.sol\":16075:16141  !AddressUpgradeable.isContract(address(this)) && _initialized == 1 */\n    tag_195:\n        /* \"METH.sol\":16012:16216  require(... */\n      tag_196\n      jumpi\n      mload(0x40)\n      shl(0xe5, 0x461bcd)\n      dup2\n      mstore\n        /* \"#utility.yul\":5033:5035   */\n      0x20\n        /* \"METH.sol\":16012:16216  require(... */\n      0x04\n      dup3\n      add\n        /* \"#utility.yul\":5015:5036   */\n      mstore\n        /* \"#utility.yul\":5072:5074   */\n      0x2e\n        /* \"#utility.yul\":5052:5070   */\n      0x24\n      dup3\n      add\n        /* \"#utility.yul\":5045:5075   */\n      mstore\n        /* \"#utility.yul\":5111:5145   */\n      0x496e697469616c697a61626c653a20636f6e747261637420697320616c726561\n        /* \"#utility.yul\":5091:5109   */\n      0x44\n      dup3\n      add\n        /* \"#utility.yul\":5084:5146   */\n      mstore\n      shl(0x92, 0x191e481a5b9a5d1a585b1a5e9959)\n        /* \"#utility.yul\":5162:5180   */\n      0x64\n      dup3\n      add\n        /* \"#utility.yul\":5155:5199   */\n      mstore\n        /* \"#utility.yul\":5216:5235   */\n      0x84\n      add\n        /* \"METH.sol\":16012:16216  require(... */\n      tag_171\n        /* \"#utility.yul\":4831:5241   */\n      jump\n        /* \"METH.sol\":16012:16216  require(... */\n    tag_196:\n        /* \"METH.sol\":16227:16239  _initialized */\n      0x00\n        /* \"METH.sol\":16227:16243  _initialized = 1 */\n      dup1\n      sload\n      not(0xff)\n      and\n        /* \"METH.sol\":16242:16243  1 */\n      0x01\n        /* \"METH.sol\":16227:16243  _initialized = 1 */\n      or\n      swap1\n      sstore\n        /* \"METH.sol\":16254:16321  if (isTopLevelCall) {... */\n      dup1\n      iszero\n      tag_199\n      jumpi\n        /* \"METH.sol\":16289:16302  _initializing */\n      0x00\n        /* \"METH.sol\":16289:16309  _initializing = true */\n      dup1\n      sload\n      not(0xff00)\n      and\n      0x0100\n      or\n      swap1\n      sstore\n        /* \"METH.sol\":16254:16321  if (isTopLevelCall) {... */\n    tag_199:\n        /* \"METH.sol\":28660:28695  OwnableUpgradeable.__Ownable_init() */\n      tag_201\n        /* \"METH.sol\":28660:28693  OwnableUpgradeable.__Ownable_init */\n      tag_202\n        /* \"METH.sol\":28660:28695  OwnableUpgradeable.__Ownable_init() */\n      jump\t// in\n    tag_201:\n        /* \"METH.sol\":28740:28754  _name = \"METH\" */\n      0x40\n      dup1\n      mload\n      dup1\n      dup3\n      add\n      swap1\n      swap2\n      mstore\n      0x04\n      dup2\n      mstore\n      shl(0xe3, 0x09a8aa89)\n      0x20\n      dup3\n      add\n      mstore\n        /* \"METH.sol\":28740:28745  _name */\n      0x65\n      swap1\n        /* \"METH.sol\":28740:28754  _name = \"METH\" */\n      tag_203\n      swap1\n        /* \"METH.sol\":28740:28745  _name */\n      dup3\n        /* \"METH.sol\":28740:28754  _name = \"METH\" */\n      tag_204\n      jump\t// in\n    tag_203:\n      pop\n        /* \"METH.sol\":28765:28781  _symbol = \"METH\" */\n      0x40\n      dup1\n      mload\n      dup1\n      dup3\n      add\n      swap1\n      swap2\n      mstore\n      0x04\n      dup2\n      mstore\n      shl(0xe3, 0x09a8aa89)\n      0x20\n      dup3\n      add\n      mstore\n        /* \"METH.sol\":28765:28772  _symbol */\n      0x66\n      swap1\n        /* \"METH.sol\":28765:28781  _symbol = \"METH\" */\n      tag_205\n      swap1\n        /* \"METH.sol\":28765:28772  _symbol */\n      dup3\n        /* \"METH.sol\":28765:28781  _symbol = \"METH\" */\n      tag_204\n      jump\t// in\n    tag_205:\n      pop\n        /* \"METH.sol\":28792:28801  _decimals */\n      0x67\n        /* \"METH.sol\":28792:28806  _decimals = 18 */\n      dup1\n      sload\n      not(0xff)\n      and\n        /* \"METH.sol\":28804:28806  18 */\n      0x12\n        /* \"METH.sol\":28792:28806  _decimals = 18 */\n      or\n      swap1\n      sstore\n        /* \"METH.sol\":28915:28944  10000000000000000000000000000 */\n      0x204fce5e3e25026110000000\n        /* \"METH.sol\":28905:28912  _tTotal */\n      0x6f\n        /* \"METH.sol\":28905:28944  _tTotal = 10000000000000000000000000000 */\n      dup2\n      swap1\n      sstore\n      not(0x00)\n        /* \"METH.sol\":28989:28993  _MAX */\n      0x6e\n        /* \"METH.sol\":28989:29007  _MAX = ~uint256(0) */\n      dup2\n      swap1\n      sstore\n        /* \"METH.sol\":29086:29100  _MAX % _tTotal */\n      tag_206\n      swap2\n        /* \"METH.sol\":28915:28944  10000000000000000000000000000 */\n      swap1\n        /* \"METH.sol\":29086:29100  _MAX % _tTotal */\n      tag_207\n      jump\t// in\n    tag_206:\n        /* \"METH.sol\":29078:29082  _MAX */\n      sload(0x6e)\n        /* \"METH.sol\":29078:29101  _MAX - (_MAX % _tTotal) */\n      tag_208\n      swap2\n      swap1\n      tag_159\n      jump\t// in\n    tag_208:\n        /* \"METH.sol\":29067:29074  _rTotal */\n      0x70\n        /* \"METH.sol\":29067:29102  _rTotal = (_MAX - (_MAX % _tTotal)) */\n      dup2\n      swap1\n      sstore\n        /* \"METH.sol\":29218:29225  _rOwned */\n      0x6a\n        /* \"METH.sol\":29218:29234  _rOwned[owner()] */\n      0x00\n        /* \"METH.sol\":29226:29233  owner() */\n      tag_209\n        /* \"METH.sol\":22088:22094  _owner */\n      and(sub(shl(0xa0, 0x01), 0x01), sload(0x33))\n      swap1\n        /* \"METH.sol\":22015:22102  function owner() public view virtual returns (address) {... */\n      jump\n        /* \"METH.sol\":29226:29233  owner() */\n    tag_209:\n      sub(shl(0xa0, 0x01), 0x01)\n        /* \"METH.sol\":29218:29234  _rOwned[owner()] */\n      and\n      dup2\n      mstore\n      0x20\n      dup1\n      dup3\n      add\n      swap3\n      swap1\n      swap3\n      mstore\n      0x40\n      add\n      0x00\n      swap1\n      dup2\n      keccak256\n        /* \"METH.sol\":29218:29244  _rOwned[owner()] = _rTotal */\n      swap3\n      swap1\n      swap3\n      sstore\n        /* \"METH.sol\":29272:29279  _tTotal */\n      sload(0x6f)\n        /* \"METH.sol\":29258:29269  maxTxAmount */\n      0x71\n        /* \"METH.sol\":29258:29279  maxTxAmount = _tTotal */\n      sstore\n        /* \"METH.sol\":29353:29364  _isExcluded */\n      0x6c\n        /* \"METH.sol\":29353:29376  _isExcluded[address(0)] */\n      swap1\n      mstore\n      0x7febd347df14ea35c529e50fb2dd629d4a6226f5ccc893710fb466f8b83823fc\n        /* \"METH.sol\":29353:29383  _isExcluded[address(0)] = true */\n      dup1\n      sload\n      not(0xff)\n      swap1\n      dup2\n      and\n        /* \"METH.sol\":29379:29383  true */\n      0x01\n        /* \"METH.sol\":29353:29383  _isExcluded[address(0)] = true */\n      swap1\n      dup2\n      or\n      swap1\n      swap3\n      sstore\n        /* \"METH.sol\":29394:29458  _isExcluded[address(0x000000000000000000000000000000000000dEaD)] */\n      0x8c482e007f935c93984ddf7a647e33ef99566883ffae3563aa616dc14d1632f7\n        /* \"METH.sol\":29394:29465  _isExcluded[address(0x000000000000000000000000000000000000dEaD)] = true */\n      dup1\n      sload\n      dup3\n      and\n      dup4\n      or\n      swap1\n      sstore\n        /* \"METH.sol\":29476:29540  _isExcluded[address(0x0000000000000000000000000000000000000369)] */\n      0xb6e99d88b536ae7728c4b89ca5a6073cf06fd2059e0aff5b1a4de2c799d9cb96\n        /* \"METH.sol\":29476:29547  _isExcluded[address(0x0000000000000000000000000000000000000369)] = true */\n      dup1\n      sload\n      dup3\n      and\n      dup4\n      or\n      swap1\n      sstore\n        /* \"METH.sol\":29496:29538  0x0000000000000000000000000000000000000369 */\n      0x0369\n        /* \"METH.sol\":29737:29801  _isExcluded[address(0x0000000000000000000000000000000000000369)] */\n      swap1\n      swap3\n      mstore\n        /* \"METH.sol\":29821:29830  antiWhale */\n      0x72\n        /* \"METH.sol\":29821:29837  antiWhale = true */\n      dup1\n      sload\n      swap1\n      swap3\n      and\n      or\n      swap1\n      sstore\n        /* \"METH.sol\":29876:29883  owner() */\n      tag_210\n        /* \"METH.sol\":22088:22094  _owner */\n      and(sub(shl(0xa0, 0x01), 0x01), sload(0x33))\n      swap1\n        /* \"METH.sol\":22015:22102  function owner() public view virtual returns (address) {... */\n      jump\n        /* \"METH.sol\":29876:29883  owner() */\n    tag_210:\n      sub(shl(0xa0, 0x01), 0x01)\n        /* \"METH.sol\":29855:29893  Transfer(address(0), owner(), _tTotal) */\n      and\n        /* \"METH.sol\":29872:29873  0 */\n      0x00\n      sub(shl(0xa0, 0x01), 0x01)\n        /* \"METH.sol\":29855:29893  Transfer(address(0), owner(), _tTotal) */\n      and\n      0x00\n      dup1\n      mload\n      0x20\n      data_ada389e1fc24a8587c776340efb91b36e675792ab631816100d55df0b5cf3cbc\n      dup4\n      codecopy\n      dup2\n      mload\n      swap2\n      mstore\n        /* \"METH.sol\":29885:29892  _tTotal */\n      sload(0x6f)\n        /* \"METH.sol\":29855:29893  Transfer(address(0), owner(), _tTotal) */\n      mload(0x40)\n      tag_211\n      swap2\n        /* \"#utility.yul\":1445:1470   */\n      dup2\n      mstore\n        /* \"#utility.yul\":1433:1435   */\n      0x20\n        /* \"#utility.yul\":1418:1436   */\n      add\n      swap1\n        /* \"#utility.yul\":1299:1476   */\n      jump\n        /* \"METH.sol\":29855:29893  Transfer(address(0), owner(), _tTotal) */\n    tag_211:\n      mload(0x40)\n      dup1\n      swap2\n      sub\n      swap1\n      log3\n        /* \"METH.sol\":16347:16361  isTopLevelCall */\n      dup1\n        /* \"METH.sol\":16343:16445  if (isTopLevelCall) {... */\n      iszero\n      tag_212\n      jumpi\n        /* \"METH.sol\":16394:16399  false */\n      0x00\n        /* \"METH.sol\":16378:16399  _initializing = false */\n      dup1\n      sload\n      not(0xff00)\n      and\n      swap1\n      sstore\n        /* \"METH.sol\":16419:16433  Initialized(1) */\n      mload(0x40)\n      0x01\n        /* \"#utility.yul\":1956:1992   */\n      dup2\n      mstore\n        /* \"METH.sol\":16419:16433  Initialized(1) */\n      0x7f26b83ff96e1f2b6a682f133852f6798a09c465da95921460cefb3847402498\n      swap1\n        /* \"#utility.yul\":1944:1946   */\n      0x20\n        /* \"#utility.yul\":1929:1947   */\n      add\n        /* \"METH.sol\":16419:16433  Initialized(1) */\n      mload(0x40)\n      dup1\n      swap2\n      sub\n      swap1\n      log1\n        /* \"METH.sol\":16343:16445  if (isTopLevelCall) {... */\n    tag_212:\n        /* \"METH.sol\":15954:16452  {... */\n      pop\n        /* \"METH.sol\":28482:29911  function initialize(... */\n      jump\t// out\n        /* \"METH.sol\":33008:33107  function setAntiWhaleStatus(bool _status) external onlyOwner {... */\n    tag_100:\n        /* \"METH.sol\":21901:21914  _checkOwner() */\n      tag_216\n        /* \"METH.sol\":21901:21912  _checkOwner */\n      tag_185\n        /* \"METH.sol\":21901:21914  _checkOwner() */\n      jump\t// in\n    tag_216:\n        /* \"METH.sol\":33080:33089  antiWhale */\n      0x72\n        /* \"METH.sol\":33080:33099  antiWhale = _status */\n      dup1\n      sload\n      not(0xff)\n      and\n      swap2\n      iszero\n      iszero\n      swap2\n      swap1\n      swap2\n      or\n      swap1\n      sstore\n        /* \"METH.sol\":33008:33107  function setAntiWhaleStatus(bool _status) external onlyOwner {... */\n      jump\t// out\n        /* \"METH.sol\":35498:35759  function _getRate() public view returns (uint256) {... */\n    tag_108:\n        /* \"METH.sol\":35539:35546  uint256 */\n      0x00\n        /* \"METH.sol\":35621:35636  uint256 rSupply */\n      dup1\n        /* \"METH.sol\":35638:35653  uint256 tSupply */\n      0x00\n        /* \"METH.sol\":35657:35676  _getCurrentSupply() */\n      tag_220\n        /* \"METH.sol\":35657:35674  _getCurrentSupply */\n      tag_114\n        /* \"METH.sol\":35657:35676  _getCurrentSupply() */\n      jump\t// in\n    tag_220:\n        /* \"METH.sol\":35620:35676  (uint256 rSupply, uint256 tSupply) = _getCurrentSupply() */\n      swap1\n      swap3\n      pop\n      swap1\n      pop\n        /* \"METH.sol\":35734:35751  rSupply / tSupply */\n      tag_221\n        /* \"METH.sol\":35620:35676  (uint256 rSupply, uint256 tSupply) = _getCurrentSupply() */\n      dup2\n      dup4\n        /* \"METH.sol\":35734:35751  rSupply / tSupply */\n      tag_177\n      jump\t// in\n    tag_221:\n        /* \"METH.sol\":35727:35751  return rSupply / tSupply */\n      swap3\n      pop\n      pop\n      pop\n        /* \"METH.sol\":35498:35759  function _getRate() public view returns (uint256) {... */\n      swap1\n      jump\t// out\n        /* \"METH.sol\":30121:30208  function symbol() public view returns (string memory) {... */\n    tag_111:\n        /* \"METH.sol\":30160:30173  string memory */\n      0x60\n        /* \"METH.sol\":30193:30200  _symbol */\n      0x66\n        /* \"METH.sol\":30186:30200  return _symbol */\n      dup1\n      sload\n      tag_140\n      swap1\n      tag_141\n      jump\t// in\n        /* \"METH.sol\":35856:36495  function _getCurrentSupply() public view returns (uint256, uint256) {... */\n    tag_114:\n        /* \"METH.sol\":36012:36019  _rTotal */\n      sload(0x70)\n        /* \"METH.sol\":36048:36055  _tTotal */\n      sload(0x6f)\n        /* \"METH.sol\":35906:35913  uint256 */\n      0x00\n      swap2\n      dup3\n      swap2\n      dup3\n        /* \"METH.sol\":36123:36450  for (uint256 i = 0; i < _excluded.length; i++) {... */\n    tag_229:\n        /* \"METH.sol\":36147:36156  _excluded */\n      0x68\n        /* \"METH.sol\":36147:36163  _excluded.length */\n      sload\n        /* \"METH.sol\":36143:36163  i < _excluded.length */\n      dup2\n      lt\n        /* \"METH.sol\":36123:36450  for (uint256 i = 0; i < _excluded.length; i++) {... */\n      iszero\n      tag_230\n      jumpi\n        /* \"METH.sol\":36285:36292  _rOwned */\n      0x6a\n        /* \"METH.sol\":36285:36306  _rOwned[_excluded[i]] */\n      0x00\n        /* \"METH.sol\":36293:36302  _excluded */\n      0x68\n        /* \"METH.sol\":36303:36304  i */\n      dup4\n        /* \"METH.sol\":36293:36305  _excluded[i] */\n      dup2\n      sload\n      dup2\n      lt\n      tag_233\n      jumpi\n      tag_233\n      tag_234\n      jump\t// in\n    tag_233:\n      0x00\n      swap2\n      dup3\n      mstore\n      0x20\n      dup1\n      dup4\n      keccak256\n      swap1\n      swap2\n      add\n      sload\n      sub(shl(0xa0, 0x01), 0x01)\n      and\n        /* \"METH.sol\":36285:36306  _rOwned[_excluded[i]] */\n      dup4\n      mstore\n      dup3\n      add\n      swap3\n      swap1\n      swap3\n      mstore\n      0x40\n      add\n      swap1\n      keccak256\n      sload\n        /* \"METH.sol\":36275:36306  rSupply - _rOwned[_excluded[i]] */\n      tag_236\n      swap1\n        /* \"METH.sol\":36275:36282  rSupply */\n      dup5\n        /* \"METH.sol\":36275:36306  rSupply - _rOwned[_excluded[i]] */\n      tag_159\n      jump\t// in\n    tag_236:\n        /* \"METH.sol\":36265:36306  rSupply = rSupply - _rOwned[_excluded[i]] */\n      swap3\n      pop\n        /* \"METH.sol\":36417:36424  _tOwned */\n      0x69\n        /* \"METH.sol\":36417:36438  _tOwned[_excluded[i]] */\n      0x00\n        /* \"METH.sol\":36425:36434  _excluded */\n      0x68\n        /* \"METH.sol\":36435:36436  i */\n      dup4\n        /* \"METH.sol\":36425:36437  _excluded[i] */\n      dup2\n      sload\n      dup2\n      lt\n      tag_238\n      jumpi\n      tag_238\n      tag_234\n      jump\t// in\n    tag_238:\n      0x00\n      swap2\n      dup3\n      mstore\n      0x20\n      dup1\n      dup4\n      keccak256\n      swap1\n      swap2\n      add\n      sload\n      sub(shl(0xa0, 0x01), 0x01)\n      and\n        /* \"METH.sol\":36417:36438  _tOwned[_excluded[i]] */\n      dup4\n      mstore\n      dup3\n      add\n      swap3\n      swap1\n      swap3\n      mstore\n      0x40\n      add\n      swap1\n      keccak256\n      sload\n        /* \"METH.sol\":36407:36438  tSupply - _tOwned[_excluded[i]] */\n      tag_240\n      swap1\n        /* \"METH.sol\":36407:36414  tSupply */\n      dup4\n        /* \"METH.sol\":36407:36438  tSupply - _tOwned[_excluded[i]] */\n      tag_159\n      jump\t// in\n    tag_240:\n        /* \"METH.sol\":36397:36438  tSupply = tSupply - _tOwned[_excluded[i]] */\n      swap2\n      pop\n        /* \"METH.sol\":36165:36168  i++ */\n      0x01\n      add\n        /* \"METH.sol\":36123:36450  for (uint256 i = 0; i < _excluded.length; i++) {... */\n      jump(tag_229)\n    tag_230:\n      pop\n        /* \"METH.sol\":36470:36477  rSupply */\n      swap1\n      swap4\n        /* \"METH.sol\":36479:36486  tSupply */\n      swap1\n      swap3\n      pop\n        /* \"METH.sol\":35856:36495  function _getCurrentSupply() public view returns (uint256, uint256) {... */\n      swap1\n      pop\n      jump\t// out\n        /* \"METH.sol\":32594:32819  function decreaseAllowance(address spender, uint256 subtractedValue) public virtual returns (bool) {... */\n    tag_118:\n        /* \"METH.sol\":20205:20215  msg.sender */\n      caller\n        /* \"METH.sol\":32687:32691  bool */\n      0x00\n        /* \"METH.sol\":32736:32761  _allowances[_msgSender()] */\n      dup2\n      dup2\n      mstore\n        /* \"METH.sol\":32736:32747  _allowances */\n      0x6b\n        /* \"METH.sol\":32736:32761  _allowances[_msgSender()] */\n      0x20\n      swap1\n      dup2\n      mstore\n      0x40\n      dup1\n      dup4\n      keccak256\n      sub(shl(0xa0, 0x01), 0x01)\n        /* \"METH.sol\":32736:32770  _allowances[_msgSender()][spender] */\n      dup8\n      and\n      dup5\n      mstore\n      swap1\n      swap2\n      mstore\n      dup2\n      keccak256\n      sload\n        /* \"METH.sol\":32687:32691  bool */\n      swap1\n      swap2\n        /* \"METH.sol\":32704:32789  _approve(_msgSender(), spender, _allowances[_msgSender()][spender] - subtractedValue) */\n      tag_147\n      swap2\n        /* \"METH.sol\":32727:32734  spender */\n      dup6\n      swap1\n        /* \"METH.sol\":32736:32788  _allowances[_msgSender()][spender] - subtractedValue */\n      tag_158\n      swap1\n        /* \"METH.sol\":32773:32788  subtractedValue */\n      dup7\n      swap1\n        /* \"METH.sol\":32736:32788  _allowances[_msgSender()][spender] - subtractedValue */\n      tag_159\n      jump\t// in\n        /* \"METH.sol\":31098:31285  function transfer(address recipient, uint256 amount) public override (IERC20Upgradeable) returns (bool) {... */\n    tag_122:\n        /* \"METH.sol\":31196:31200  bool */\n      0x00\n        /* \"METH.sol\":31213:31255  _transfer(_msgSender(), recipient, amount) */\n      tag_147\n        /* \"METH.sol\":20205:20215  msg.sender */\n      caller\n        /* \"METH.sol\":31237:31246  recipient */\n      dup5\n        /* \"METH.sol\":31248:31254  amount */\n      dup5\n        /* \"METH.sol\":31213:31222  _transfer */\n      tag_154\n        /* \"METH.sol\":31213:31255  _transfer(_msgSender(), recipient, amount) */\n      jump\t// in\n        /* \"METH.sol\":22914:23115  function transferOwnership(address newOwner) public virtual onlyOwner {... */\n    tag_138:\n        /* \"METH.sol\":21901:21914  _checkOwner() */\n      tag_252\n        /* \"METH.sol\":21901:21912  _checkOwner */\n      tag_185\n        /* \"METH.sol\":21901:21914  _checkOwner() */\n      jump\t// in\n    tag_252:\n      sub(shl(0xa0, 0x01), 0x01)\n        /* \"METH.sol\":23003:23025  newOwner != address(0) */\n      dup2\n      and\n        /* \"METH.sol\":22995:23068  require(newOwner != address(0), \"Ownable: new owner is the zero address\") */\n      tag_254\n      jumpi\n      mload(0x40)\n      shl(0xe5, 0x461bcd)\n      dup2\n      mstore\n        /* \"#utility.yul\":8198:8200   */\n      0x20\n        /* \"METH.sol\":22995:23068  require(newOwner != address(0), \"Ownable: new owner is the zero address\") */\n      0x04\n      dup3\n      add\n        /* \"#utility.yul\":8180:8201   */\n      mstore\n        /* \"#utility.yul\":8237:8239   */\n      0x26\n        /* \"#utility.yul\":8217:8235   */\n      0x24\n      dup3\n      add\n        /* \"#utility.yul\":8210:8240   */\n      mstore\n        /* \"#utility.yul\":8276:8310   */\n      0x4f776e61626c653a206e6577206f776e657220697320746865207a65726f2061\n        /* \"#utility.yul\":8256:8274   */\n      0x44\n      dup3\n      add\n        /* \"#utility.yul\":8249:8311   */\n      mstore\n      shl(0xd0, 0x646472657373)\n        /* \"#utility.yul\":8327:8345   */\n      0x64\n      dup3\n      add\n        /* \"#utility.yul\":8320:8356   */\n      mstore\n        /* \"#utility.yul\":8373:8392   */\n      0x84\n      add\n        /* \"METH.sol\":22995:23068  require(newOwner != address(0), \"Ownable: new owner is the zero address\") */\n      tag_171\n        /* \"#utility.yul\":7996:8398   */\n      jump\n        /* \"METH.sol\":22995:23068  require(newOwner != address(0), \"Ownable: new owner is the zero address\") */\n    tag_254:\n        /* \"METH.sol\":23079:23107  _transferOwnership(newOwner) */\n      tag_212\n        /* \"METH.sol\":23098:23106  newOwner */\n      dup2\n        /* \"METH.sol\":23079:23097  _transferOwnership */\n      tag_188\n        /* \"METH.sol\":23079:23107  _transferOwnership(newOwner) */\n      jump\t// in\n        /* \"METH.sol\":36579:37085  function _approve(... */\n    tag_150:\n      sub(shl(0xa0, 0x01), 0x01)\n        /* \"METH.sol\":36770:36789  owner != address(0) */\n      dup4\n      and\n        /* \"METH.sol\":36762:36830  require(owner != address(0), \"ERC20: approve from the zero address\") */\n      tag_260\n      jumpi\n      mload(0x40)\n      shl(0xe5, 0x461bcd)\n      dup2\n      mstore\n        /* \"#utility.yul\":8605:8607   */\n      0x20\n        /* \"METH.sol\":36762:36830  require(owner != address(0), \"ERC20: approve from the zero address\") */\n      0x04\n      dup3\n      add\n        /* \"#utility.yul\":8587:8608   */\n      mstore\n        /* \"#utility.yul\":8644:8646   */\n      0x24\n        /* \"#utility.yul\":8624:8642   */\n      dup1\n      dup3\n      add\n        /* \"#utility.yul\":8617:8647   */\n      mstore\n        /* \"#utility.yul\":8683:8717   */\n      0x45524332303a20617070726f76652066726f6d20746865207a65726f20616464\n        /* \"#utility.yul\":8663:8681   */\n      0x44\n      dup3\n      add\n        /* \"#utility.yul\":8656:8718   */\n      mstore\n      shl(0xe0, 0x72657373)\n        /* \"#utility.yul\":8734:8752   */\n      0x64\n      dup3\n      add\n        /* \"#utility.yul\":8727:8761   */\n      mstore\n        /* \"#utility.yul\":8778:8797   */\n      0x84\n      add\n        /* \"METH.sol\":36762:36830  require(owner != address(0), \"ERC20: approve from the zero address\") */\n      tag_171\n        /* \"#utility.yul\":8403:8803   */\n      jump\n        /* \"METH.sol\":36762:36830  require(owner != address(0), \"ERC20: approve from the zero address\") */\n    tag_260:\n      sub(shl(0xa0, 0x01), 0x01)\n        /* \"METH.sol\":36849:36870  spender != address(0) */\n      dup3\n      and\n        /* \"METH.sol\":36841:36909  require(spender != address(0), \"ERC20: approve to the zero address\") */\n      tag_263\n      jumpi\n      mload(0x40)\n      shl(0xe5, 0x461bcd)\n      dup2\n      mstore\n        /* \"#utility.yul\":9010:9012   */\n      0x20\n        /* \"METH.sol\":36841:36909  require(spender != address(0), \"ERC20: approve to the zero address\") */\n      0x04\n      dup3\n      add\n        /* \"#utility.yul\":8992:9013   */\n      mstore\n        /* \"#utility.yul\":9049:9051   */\n      0x22\n        /* \"#utility.yul\":9029:9047   */\n      0x24\n      dup3\n      add\n        /* \"#utility.yul\":9022:9052   */\n      mstore\n        /* \"#utility.yul\":9088:9122   */\n      0x45524332303a20617070726f766520746f20746865207a65726f206164647265\n        /* \"#utility.yul\":9068:9086   */\n      0x44\n      dup3\n      add\n        /* \"#utility.yul\":9061:9123   */\n      mstore\n      shl(0xf0, 0x7373)\n        /* \"#utility.yul\":9139:9157   */\n      0x64\n      dup3\n      add\n        /* \"#utility.yul\":9132:9164   */\n      mstore\n        /* \"#utility.yul\":9181:9200   */\n      0x84\n      add\n        /* \"METH.sol\":36841:36909  require(spender != address(0), \"ERC20: approve to the zero address\") */\n      tag_171\n        /* \"#utility.yul\":8808:9206   */\n      jump\n        /* \"METH.sol\":36841:36909  require(spender != address(0), \"ERC20: approve to the zero address\") */\n    tag_263:\n      sub(shl(0xa0, 0x01), 0x01)\n        /* \"METH.sol\":36993:37011  _allowances[owner] */\n      dup4\n      dup2\n      and\n      0x00\n      dup2\n      dup2\n      mstore\n        /* \"METH.sol\":36993:37004  _allowances */\n      0x6b\n        /* \"METH.sol\":36993:37011  _allowances[owner] */\n      0x20\n      swap1\n      dup2\n      mstore\n      0x40\n      dup1\n      dup4\n      keccak256\n        /* \"METH.sol\":36993:37020  _allowances[owner][spender] */\n      swap5\n      dup8\n      and\n      dup1\n      dup5\n      mstore\n      swap5\n      dup3\n      mstore\n      swap2\n      dup3\n      swap1\n      keccak256\n        /* \"METH.sol\":36993:37029  _allowances[owner][spender] = amount */\n      dup6\n      swap1\n      sstore\n        /* \"METH.sol\":37045:37077  Approval(owner, spender, amount) */\n      swap1\n      mload\n        /* \"#utility.yul\":1445:1470   */\n      dup5\n      dup2\n      mstore\n        /* \"METH.sol\":37045:37077  Approval(owner, spender, amount) */\n      0x8c5be1e5ebec7d5bd14f71427d1e84f3dd0314c0f7b2291e5b200ac8c7c3b925\n      swap2\n        /* \"#utility.yul\":1418:1436   */\n      add\n        /* \"METH.sol\":37045:37077  Approval(owner, spender, amount) */\n      mload(0x40)\n      dup1\n      swap2\n      sub\n      swap1\n      log3\n        /* \"METH.sol\":36579:37085  function _approve(... */\n      pop\n      pop\n      pop\n      jump\t// out\n        /* \"METH.sol\":37208:39713  function _transfer(... */\n    tag_154:\n        /* \"METH.sol\":37367:37372  mutex */\n      sload(0x72)\n      0x0100\n      swap1\n      div\n      0xff\n      and\n        /* \"METH.sol\":37367:37381  mutex == false */\n      iszero\n        /* \"METH.sol\":37359:37382  require(mutex == false) */\n      tag_268\n      jumpi\n      0x00\n      dup1\n      revert\n    tag_268:\n        /* \"METH.sol\":37393:37398  mutex */\n      0x72\n        /* \"METH.sol\":37393:37405  mutex = true */\n      dup1\n      sload\n      not(0xff00)\n      and\n      0x0100\n      or\n      swap1\n      sstore\n      sub(shl(0xa0, 0x01), 0x01)\n        /* \"METH.sol\":37476:37494  from != address(0) */\n      dup4\n      and\n        /* \"METH.sol\":37468:37536  require(from != address(0), \"ERC20: transfer from the zero address\") */\n      tag_269\n      jumpi\n      mload(0x40)\n      shl(0xe5, 0x461bcd)\n      dup2\n      mstore\n        /* \"#utility.yul\":9413:9415   */\n      0x20\n        /* \"METH.sol\":37468:37536  require(from != address(0), \"ERC20: transfer from the zero address\") */\n      0x04\n      dup3\n      add\n        /* \"#utility.yul\":9395:9416   */\n      mstore\n        /* \"#utility.yul\":9452:9454   */\n      0x25\n        /* \"#utility.yul\":9432:9450   */\n      0x24\n      dup3\n      add\n        /* \"#utility.yul\":9425:9455   */\n      mstore\n        /* \"#utility.yul\":9491:9525   */\n      0x45524332303a207472616e736665722066726f6d20746865207a65726f206164\n        /* \"#utility.yul\":9471:9489   */\n      0x44\n      dup3\n      add\n        /* \"#utility.yul\":9464:9526   */\n      mstore\n      shl(0xd8, 0x6472657373)\n        /* \"#utility.yul\":9542:9560   */\n      0x64\n      dup3\n      add\n        /* \"#utility.yul\":9535:9570   */\n      mstore\n        /* \"#utility.yul\":9587:9606   */\n      0x84\n      add\n        /* \"METH.sol\":37468:37536  require(from != address(0), \"ERC20: transfer from the zero address\") */\n      tag_171\n        /* \"#utility.yul\":9211:9612   */\n      jump\n        /* \"METH.sol\":37468:37536  require(from != address(0), \"ERC20: transfer from the zero address\") */\n    tag_269:\n      sub(shl(0xa0, 0x01), 0x01)\n        /* \"METH.sol\":37555:37571  to != address(0) */\n      dup3\n      and\n        /* \"METH.sol\":37547:37611  require(to != address(0), \"ERC20: transfer to the zero address\") */\n      tag_272\n      jumpi\n      mload(0x40)\n      shl(0xe5, 0x461bcd)\n      dup2\n      mstore\n        /* \"#utility.yul\":9819:9821   */\n      0x20\n        /* \"METH.sol\":37547:37611  require(to != address(0), \"ERC20: transfer to the zero address\") */\n      0x04\n      dup3\n      add\n        /* \"#utility.yul\":9801:9822   */\n      mstore\n        /* \"#utility.yul\":9858:9860   */\n      0x23\n        /* \"#utility.yul\":9838:9856   */\n      0x24\n      dup3\n      add\n        /* \"#utility.yul\":9831:9861   */\n      mstore\n        /* \"#utility.yul\":9897:9931   */\n      0x45524332303a207472616e7366657220746f20746865207a65726f2061646472\n        /* \"#utility.yul\":9877:9895   */\n      0x44\n      dup3\n      add\n        /* \"#utility.yul\":9870:9932   */\n      mstore\n      shl(0xe8, 0x657373)\n        /* \"#utility.yul\":9948:9966   */\n      0x64\n      dup3\n      add\n        /* \"#utility.yul\":9941:9974   */\n      mstore\n        /* \"#utility.yul\":9991:10010   */\n      0x84\n      add\n        /* \"METH.sol\":37547:37611  require(to != address(0), \"ERC20: transfer to the zero address\") */\n      tag_171\n        /* \"#utility.yul\":9617:10016   */\n      jump\n        /* \"METH.sol\":37547:37611  require(to != address(0), \"ERC20: transfer to the zero address\") */\n    tag_272:\n        /* \"METH.sol\":37639:37640  0 */\n      0x00\n        /* \"METH.sol\":37630:37636  amount */\n      dup2\n        /* \"METH.sol\":37630:37640  amount > 0 */\n      gt\n        /* \"METH.sol\":37622:37686  require(amount > 0, \"Transfer amount must be greater than zero\") */\n      tag_275\n      jumpi\n      mload(0x40)\n      shl(0xe5, 0x461bcd)\n      dup2\n      mstore\n        /* \"#utility.yul\":10223:10225   */\n      0x20\n        /* \"METH.sol\":37622:37686  require(amount > 0, \"Transfer amount must be greater than zero\") */\n      0x04\n      dup3\n      add\n        /* \"#utility.yul\":10205:10226   */\n      mstore\n        /* \"#utility.yul\":10262:10264   */\n      0x29\n        /* \"#utility.yul\":10242:10260   */\n      0x24\n      dup3\n      add\n        /* \"#utility.yul\":10235:10265   */\n      mstore\n        /* \"#utility.yul\":10301:10335   */\n      0x5472616e7366657220616d6f756e74206d757374206265206772656174657220\n        /* \"#utility.yul\":10281:10299   */\n      0x44\n      dup3\n      add\n        /* \"#utility.yul\":10274:10336   */\n      mstore\n      shl(0xb8, 0x7468616e207a65726f)\n        /* \"#utility.yul\":10352:10370   */\n      0x64\n      dup3\n      add\n        /* \"#utility.yul\":10345:10384   */\n      mstore\n        /* \"#utility.yul\":10401:10420   */\n      0x84\n      add\n        /* \"METH.sol\":37622:37686  require(amount > 0, \"Transfer amount must be greater than zero\") */\n      tag_171\n        /* \"#utility.yul\":10021:10426   */\n      jump\n        /* \"METH.sol\":37622:37686  require(amount > 0, \"Transfer amount must be greater than zero\") */\n    tag_275:\n        /* \"METH.sol\":37931:37945  isRouter(from) */\n      tag_278\n        /* \"METH.sol\":37940:37944  from */\n      dup4\n        /* \"METH.sol\":37931:37939  isRouter */\n      tag_279\n        /* \"METH.sol\":37931:37945  isRouter(from) */\n      jump\t// in\n    tag_278:\n        /* \"METH.sol\":37931:37953  isRouter(from) == true */\n      iszero\n      iszero\n        /* \"METH.sol\":37949:37953  true */\n      0x01\n        /* \"METH.sol\":37931:37953  isRouter(from) == true */\n      eq\n        /* \"METH.sol\":37931:37998  isRouter(from) == true && ... */\n      dup1\n      iszero\n      tag_280\n      jumpi\n      pop\n      sub(shl(0xa0, 0x01), 0x01)\n        /* \"METH.sol\":37972:37998  _isExcludedFromMaxTx[from] */\n      dup4\n      and\n      0x00\n      swap1\n      dup2\n      mstore\n        /* \"METH.sol\":37972:37992  _isExcludedFromMaxTx */\n      0x6d\n        /* \"METH.sol\":37972:37998  _isExcludedFromMaxTx[from] */\n      0x20\n      mstore\n      0x40\n      swap1\n      keccak256\n      sload\n      0xff\n      and\n        /* \"METH.sol\":37971:37998  !_isExcludedFromMaxTx[from] */\n      iszero\n        /* \"METH.sol\":37931:37998  isRouter(from) == true && ... */\n    tag_280:\n        /* \"METH.sol\":37931:38033  isRouter(from) == true && ... */\n      dup1\n      iszero\n      tag_281\n      jumpi\n      pop\n      sub(shl(0xa0, 0x01), 0x01)\n        /* \"METH.sol\":38016:38033  _isExcluded[from] */\n      dup4\n      and\n      0x00\n      swap1\n      dup2\n      mstore\n        /* \"METH.sol\":38016:38027  _isExcluded */\n      0x6c\n        /* \"METH.sol\":38016:38033  _isExcluded[from] */\n      0x20\n      mstore\n      0x40\n      swap1\n      keccak256\n      sload\n      0xff\n      and\n        /* \"METH.sol\":38015:38033  !_isExcluded[from] */\n      iszero\n        /* \"METH.sol\":37931:38033  isRouter(from) == true && ... */\n    tag_281:\n        /* \"METH.sol\":37913:38141  if (... */\n      iszero\n      tag_285\n      jumpi\n        /* \"METH.sol\":38068:38090  excludeFromMaxTx(from) */\n      tag_283\n        /* \"METH.sol\":38085:38089  from */\n      dup4\n        /* \"METH.sol\":38068:38084  excludeFromMaxTx */\n      tag_284\n        /* \"METH.sol\":38068:38090  excludeFromMaxTx(from) */\n      jump\t// in\n    tag_283:\n        /* \"METH.sol\":38109:38129  excludeAddress(from) */\n      tag_285\n        /* \"METH.sol\":38124:38128  from */\n      dup4\n        /* \"METH.sol\":38109:38123  excludeAddress */\n      tag_286\n        /* \"METH.sol\":38109:38129  excludeAddress(from) */\n      jump\t// in\n    tag_285:\n        /* \"METH.sol\":38171:38183  isRouter(to) */\n      tag_287\n        /* \"METH.sol\":38180:38182  to */\n      dup3\n        /* \"METH.sol\":38171:38179  isRouter */\n      tag_279\n        /* \"METH.sol\":38171:38183  isRouter(to) */\n      jump\t// in\n    tag_287:\n        /* \"METH.sol\":38171:38191  isRouter(to) == true */\n      iszero\n      iszero\n        /* \"METH.sol\":38187:38191  true */\n      0x01\n        /* \"METH.sol\":38171:38191  isRouter(to) == true */\n      eq\n        /* \"METH.sol\":38171:38234  isRouter(to) == true && ... */\n      dup1\n      iszero\n      tag_288\n      jumpi\n      pop\n      sub(shl(0xa0, 0x01), 0x01)\n        /* \"METH.sol\":38210:38234  _isExcludedFromMaxTx[to] */\n      dup3\n      and\n      0x00\n      swap1\n      dup2\n      mstore\n        /* \"METH.sol\":38210:38230  _isExcludedFromMaxTx */\n      0x6d\n        /* \"METH.sol\":38210:38234  _isExcludedFromMaxTx[to] */\n      0x20\n      mstore\n      0x40\n      swap1\n      keccak256\n      sload\n      0xff\n      and\n        /* \"METH.sol\":38209:38234  !_isExcludedFromMaxTx[to] */\n      iszero\n        /* \"METH.sol\":38171:38234  isRouter(to) == true && ... */\n    tag_288:\n        /* \"METH.sol\":38171:38267  isRouter(to) == true && ... */\n      dup1\n      iszero\n      tag_289\n      jumpi\n      pop\n      sub(shl(0xa0, 0x01), 0x01)\n        /* \"METH.sol\":38252:38267  _isExcluded[to] */\n      dup3\n      and\n      0x00\n      swap1\n      dup2\n      mstore\n        /* \"METH.sol\":38252:38263  _isExcluded */\n      0x6c\n        /* \"METH.sol\":38252:38267  _isExcluded[to] */\n      0x20\n      mstore\n      0x40\n      swap1\n      keccak256\n      sload\n      0xff\n      and\n        /* \"METH.sol\":38251:38267  !_isExcluded[to] */\n      iszero\n        /* \"METH.sol\":38171:38267  isRouter(to) == true && ... */\n    tag_289:\n        /* \"METH.sol\":38153:38371  if (... */\n      iszero\n      tag_292\n      jumpi\n        /* \"METH.sol\":38302:38322  excludeFromMaxTx(to) */\n      tag_291\n        /* \"METH.sol\":38319:38321  to */\n      dup3\n        /* \"METH.sol\":38302:38318  excludeFromMaxTx */\n      tag_284\n        /* \"METH.sol\":38302:38322  excludeFromMaxTx(to) */\n      jump\t// in\n    tag_291:\n        /* \"METH.sol\":38341:38359  excludeAddress(to) */\n      tag_292\n        /* \"METH.sol\":38356:38358  to */\n      dup3\n        /* \"METH.sol\":38341:38355  excludeAddress */\n      tag_286\n        /* \"METH.sol\":38341:38359  excludeAddress(to) */\n      jump\t// in\n    tag_292:\n        /* \"METH.sol\":22088:22094  _owner */\n      sload(0x33)\n      sub(shl(0xa0, 0x01), 0x01)\n        /* \"METH.sol\":38466:38481  from != owner() */\n      dup5\n      dup2\n      and\n        /* \"METH.sol\":22088:22094  _owner */\n      swap2\n      and\n        /* \"METH.sol\":38466:38481  from != owner() */\n      eq\n      dup1\n      iszero\n      swap1\n        /* \"METH.sol\":38466:38498  from != owner() && to != owner() */\n      tag_294\n      jumpi\n      pop\n        /* \"METH.sol\":22088:22094  _owner */\n      sload(0x33)\n      sub(shl(0xa0, 0x01), 0x01)\n        /* \"METH.sol\":38485:38498  to != owner() */\n      dup4\n      dup2\n      and\n        /* \"METH.sol\":22088:22094  _owner */\n      swap2\n      and\n        /* \"METH.sol\":38485:38498  to != owner() */\n      eq\n      iszero\n        /* \"METH.sol\":38466:38498  from != owner() && to != owner() */\n    tag_294:\n        /* \"METH.sol\":38462:38925  if (from != owner() && to != owner()) {... */\n      iszero\n      tag_299\n      jumpi\n      sub(shl(0xa0, 0x01), 0x01)\n        /* \"METH.sol\":38689:38715  _isExcludedFromMaxTx[from] */\n      dup4\n      and\n      0x00\n      swap1\n      dup2\n      mstore\n        /* \"METH.sol\":38689:38709  _isExcludedFromMaxTx */\n      0x6d\n        /* \"METH.sol\":38689:38715  _isExcludedFromMaxTx[from] */\n      0x20\n      mstore\n      0x40\n      swap1\n      keccak256\n      sload\n      0xff\n      and\n        /* \"METH.sol\":38688:38715  !_isExcludedFromMaxTx[from] */\n      iszero\n        /* \"METH.sol\":38688:38744  !_isExcludedFromMaxTx[from] && !_isExcludedFromMaxTx[to] */\n      dup1\n      iszero\n      tag_297\n      jumpi\n      pop\n      sub(shl(0xa0, 0x01), 0x01)\n        /* \"METH.sol\":38720:38744  _isExcludedFromMaxTx[to] */\n      dup3\n      and\n      0x00\n      swap1\n      dup2\n      mstore\n        /* \"METH.sol\":38720:38740  _isExcludedFromMaxTx */\n      0x6d\n        /* \"METH.sol\":38720:38744  _isExcludedFromMaxTx[to] */\n      0x20\n      mstore\n      0x40\n      swap1\n      keccak256\n      sload\n      0xff\n      and\n        /* \"METH.sol\":38719:38744  !_isExcludedFromMaxTx[to] */\n      iszero\n        /* \"METH.sol\":38688:38744  !_isExcludedFromMaxTx[from] && !_isExcludedFromMaxTx[to] */\n    tag_297:\n        /* \"METH.sol\":38684:38914  if (!_isExcludedFromMaxTx[from] && !_isExcludedFromMaxTx[to]) {... */\n      iszero\n      tag_299\n      jumpi\n        /* \"METH.sol\":38842:38853  maxTxAmount */\n      sload(0x71)\n        /* \"METH.sol\":38832:38838  amount */\n      dup2\n        /* \"METH.sol\":38832:38853  amount <= maxTxAmount */\n      gt\n      iszero\n        /* \"METH.sol\":38824:38898  require(amount <= maxTxAmount, \"Transfer amount exceeds the maxTxAmount.\") */\n      tag_299\n      jumpi\n      mload(0x40)\n      shl(0xe5, 0x461bcd)\n      dup2\n      mstore\n      0x04\n      add\n      tag_171\n      swap1\n      tag_301\n      jump\t// in\n    tag_299:\n        /* \"METH.sol\":22088:22094  _owner */\n      sload(0x33)\n      sub(shl(0xa0, 0x01), 0x01)\n        /* \"METH.sol\":39000:39015  from != owner() */\n      dup5\n      dup2\n      and\n        /* \"METH.sol\":22088:22094  _owner */\n      swap2\n      and\n        /* \"METH.sol\":39000:39015  from != owner() */\n      eq\n      dup1\n      iszero\n      swap1\n        /* \"METH.sol\":39000:39032  from != owner() && to != owner() */\n      tag_303\n      jumpi\n      pop\n        /* \"METH.sol\":22088:22094  _owner */\n      sload(0x33)\n      sub(shl(0xa0, 0x01), 0x01)\n        /* \"METH.sol\":39019:39032  to != owner() */\n      dup4\n      dup2\n      and\n        /* \"METH.sol\":22088:22094  _owner */\n      swap2\n      and\n        /* \"METH.sol\":39019:39032  to != owner() */\n      eq\n      iszero\n        /* \"METH.sol\":39000:39032  from != owner() && to != owner() */\n    tag_303:\n        /* \"METH.sol\":38996:39448  if (from != owner() && to != owner()) {... */\n      iszero\n      tag_308\n      jumpi\n      sub(shl(0xa0, 0x01), 0x01)\n        /* \"METH.sol\":39212:39238  _isExcludedFromMaxTx[from] */\n      dup4\n      and\n      0x00\n      swap1\n      dup2\n      mstore\n        /* \"METH.sol\":39212:39232  _isExcludedFromMaxTx */\n      0x6d\n        /* \"METH.sol\":39212:39238  _isExcludedFromMaxTx[from] */\n      0x20\n      mstore\n      0x40\n      swap1\n      keccak256\n      sload\n      0xff\n      and\n        /* \"METH.sol\":39211:39238  !_isExcludedFromMaxTx[from] */\n      iszero\n        /* \"METH.sol\":39211:39267  !_isExcludedFromMaxTx[from] && !_isExcludedFromMaxTx[to] */\n      dup1\n      iszero\n      tag_306\n      jumpi\n      pop\n      sub(shl(0xa0, 0x01), 0x01)\n        /* \"METH.sol\":39243:39267  _isExcludedFromMaxTx[to] */\n      dup3\n      and\n      0x00\n      swap1\n      dup2\n      mstore\n        /* \"METH.sol\":39243:39263  _isExcludedFromMaxTx */\n      0x6d\n        /* \"METH.sol\":39243:39267  _isExcludedFromMaxTx[to] */\n      0x20\n      mstore\n      0x40\n      swap1\n      keccak256\n      sload\n      0xff\n      and\n        /* \"METH.sol\":39242:39267  !_isExcludedFromMaxTx[to] */\n      iszero\n        /* \"METH.sol\":39211:39267  !_isExcludedFromMaxTx[from] && !_isExcludedFromMaxTx[to] */\n    tag_306:\n        /* \"METH.sol\":39207:39437  if (!_isExcludedFromMaxTx[from] && !_isExcludedFromMaxTx[to]) {... */\n      iszero\n      tag_308\n      jumpi\n        /* \"METH.sol\":39365:39376  maxTxAmount */\n      sload(0x71)\n        /* \"METH.sol\":39355:39361  amount */\n      dup2\n        /* \"METH.sol\":39355:39376  amount <= maxTxAmount */\n      gt\n      iszero\n        /* \"METH.sol\":39347:39421  require(amount <= maxTxAmount, \"Transfer amount exceeds the maxTxAmount.\") */\n      tag_308\n      jumpi\n      mload(0x40)\n      shl(0xe5, 0x461bcd)\n      dup2\n      mstore\n      0x04\n      add\n      tag_171\n      swap1\n      tag_301\n      jump\t// in\n    tag_308:\n        /* \"METH.sol\":39647:39679  _tokenTransfer(from, to, amount) */\n      tag_310\n        /* \"METH.sol\":39662:39666  from */\n      dup4\n        /* \"METH.sol\":39668:39670  to */\n      dup4\n        /* \"METH.sol\":39672:39678  amount */\n      dup4\n        /* \"METH.sol\":39647:39661  _tokenTransfer */\n      tag_311\n        /* \"METH.sol\":39647:39679  _tokenTransfer(from, to, amount) */\n      jump\t// in\n    tag_310:\n      pop\n      pop\n        /* \"METH.sol\":39692:39697  mutex */\n      0x72\n        /* \"METH.sol\":39692:39705  mutex = false */\n      dup1\n      sload\n      not(0xff00)\n      and\n      swap1\n      sstore\n      pop\n        /* \"METH.sol\":37208:39713  function _transfer(... */\n      jump\t// out\n        /* \"METH.sol\":22180:22312  function _checkOwner() internal view virtual {... */\n    tag_185:\n        /* \"METH.sol\":22088:22094  _owner */\n      and(sub(shl(0xa0, 0x01), 0x01), sload(0x33))\n        /* \"METH.sol\":20205:20215  msg.sender */\n      caller\n        /* \"METH.sol\":22244:22267  owner() == _msgSender() */\n      eq\n        /* \"METH.sol\":22236:22304  require(owner() == _msgSender(), \"Ownable: caller is not the owner\") */\n      tag_187\n      jumpi\n      mload(0x40)\n      shl(0xe5, 0x461bcd)\n      dup2\n      mstore\n        /* \"#utility.yul\":11042:11044   */\n      0x20\n        /* \"METH.sol\":22236:22304  require(owner() == _msgSender(), \"Ownable: caller is not the owner\") */\n      0x04\n      dup3\n      add\n        /* \"#utility.yul\":11024:11045   */\n      dup2\n      swap1\n      mstore\n        /* \"#utility.yul\":11061:11079   */\n      0x24\n      dup3\n      add\n        /* \"#utility.yul\":11054:11084   */\n      mstore\n        /* \"#utility.yul\":11120:11154   */\n      0x4f776e61626c653a2063616c6c6572206973206e6f7420746865206f776e6572\n        /* \"#utility.yul\":11100:11118   */\n      0x44\n      dup3\n      add\n        /* \"#utility.yul\":11093:11155   */\n      mstore\n        /* \"#utility.yul\":11172:11190   */\n      0x64\n      add\n        /* \"METH.sol\":22236:22304  require(owner() == _msgSender(), \"Ownable: caller is not the owner\") */\n      tag_171\n        /* \"#utility.yul\":10840:11196   */\n      jump\n        /* \"METH.sol\":23275:23466  function _transferOwnership(address newOwner) internal virtual {... */\n    tag_188:\n        /* \"METH.sol\":23368:23374  _owner */\n      0x33\n      dup1\n      sload\n      sub(shl(0xa0, 0x01), 0x01)\n        /* \"METH.sol\":23385:23402  _owner = newOwner */\n      dup4\n      dup2\n      and\n      not(sub(shl(0xa0, 0x01), 0x01))\n      dup4\n      and\n      dup2\n      or\n      swap1\n      swap4\n      sstore\n        /* \"METH.sol\":23418:23458  OwnershipTransferred(oldOwner, newOwner) */\n      mload(0x40)\n        /* \"METH.sol\":23368:23374  _owner */\n      swap2\n      and\n      swap2\n        /* \"METH.sol\":23385:23402  _owner = newOwner */\n      swap1\n        /* \"METH.sol\":23368:23374  _owner */\n      dup3\n      swap1\n        /* \"METH.sol\":23418:23458  OwnershipTransferred(oldOwner, newOwner) */\n      0x8be0079c531659141344cd1fd0a4f28419497f9722a3daafe3b4186f6b6457e0\n      swap1\n        /* \"METH.sol\":23349:23365  address oldOwner */\n      0x00\n      swap1\n        /* \"METH.sol\":23418:23458  OwnershipTransferred(oldOwner, newOwner) */\n      log3\n        /* \"METH.sol\":23338:23466  {... */\n      pop\n        /* \"METH.sol\":23275:23466  function _transferOwnership(address newOwner) internal virtual {... */\n      pop\n      jump\t// out\n        /* \"METH.sol\":21558:21655  function __Ownable_init() internal onlyInitializing {... */\n    tag_202:\n        /* \"METH.sol\":18108:18121  _initializing */\n      sload(0x00)\n      0x0100\n      swap1\n      div\n      0xff\n      and\n        /* \"METH.sol\":18100:18169  require(_initializing, \"Initializable: contract is not initializing\") */\n      tag_321\n      jumpi\n      mload(0x40)\n      shl(0xe5, 0x461bcd)\n      dup2\n      mstore\n      0x04\n      add\n      tag_171\n      swap1\n      tag_323\n      jump\t// in\n    tag_321:\n        /* \"METH.sol\":21621:21647  __Ownable_init_unchained() */\n      tag_187\n        /* \"METH.sol\":21621:21645  __Ownable_init_unchained */\n      tag_326\n        /* \"METH.sol\":21621:21647  __Ownable_init_unchained() */\n      jump\t// in\n        /* \"METH.sol\":33273:33490  function isRouter(address _address) internal view returns (bool) {... */\n    tag_279:\n        /* \"METH.sol\":33405:33437  abi.encodeWithSelector(SELECTOR) */\n      0x40\n      dup1\n      mload\n      0x04\n      dup2\n      mstore\n      0x24\n      dup2\n      add\n      dup3\n      mstore\n      0x20\n      dup2\n      add\n      dup1\n      mload\n      sub(shl(0xe0, 0x01), 0x01)\n      and\n      shl(0xe0, 0xc45a0155)\n      or\n      swap1\n      mstore\n        /* \"METH.sol\":33385:33438  _address.staticcall(abi.encodeWithSelector(SELECTOR)) */\n      swap1\n      mload\n        /* \"METH.sol\":33332:33336  bool */\n      0x00\n      swap2\n      dup3\n      swap2\n      dup3\n      swap2\n      sub(shl(0xa0, 0x01), 0x01)\n        /* \"METH.sol\":33385:33404  _address.staticcall */\n      dup7\n      and\n      swap2\n        /* \"METH.sol\":33385:33438  _address.staticcall(abi.encodeWithSelector(SELECTOR)) */\n      tag_328\n      swap2\n        /* \"METH.sol\":33405:33437  abi.encodeWithSelector(SELECTOR) */\n      swap1\n        /* \"METH.sol\":33385:33438  _address.staticcall(abi.encodeWithSelector(SELECTOR)) */\n      tag_329\n      jump\t// in\n    tag_328:\n      0x00\n      mload(0x40)\n      dup1\n      dup4\n      sub\n      dup2\n      dup6\n      gas\n      staticcall\n      swap2\n      pop\n      pop\n      returndatasize\n      dup1\n      0x00\n      dup2\n      eq\n      tag_332\n      jumpi\n      mload(0x40)\n      swap2\n      pop\n      and(add(returndatasize, 0x3f), not(0x1f))\n      dup3\n      add\n      0x40\n      mstore\n      returndatasize\n      dup3\n      mstore\n      returndatasize\n      0x00\n      0x20\n      dup5\n      add\n      returndatacopy\n      jump(tag_331)\n    tag_332:\n      0x60\n      swap2\n      pop\n    tag_331:\n      pop\n        /* \"METH.sol\":33349:33438  (bool success, bytes memory data) = _address.staticcall(abi.encodeWithSelector(SELECTOR)) */\n      swap2\n      pop\n      swap2\n      pop\n        /* \"METH.sol\":33456:33463  success */\n      dup2\n        /* \"METH.sol\":33456:33482  success && data.length > 0 */\n      dup1\n      iszero\n      tag_176\n      jumpi\n      pop\n        /* \"METH.sol\":33467:33478  data.length */\n      mload\n        /* \"METH.sol\":33467:33482  data.length > 0 */\n      iszero\n      iszero\n      swap4\n        /* \"METH.sol\":33449:33482  return success && data.length > 0 */\n      swap3\n      pop\n      pop\n      pop\n        /* \"METH.sol\":33273:33490  function isRouter(address _address) internal view returns (bool) {... */\n      jump\t// out\n        /* \"METH.sol\":33674:33861  function excludeFromMaxTx(address account) private {... */\n    tag_284:\n      sub(shl(0xa0, 0x01), 0x01)\n        /* \"METH.sol\":33745:33774  _isExcludedFromMaxTx[account] */\n      dup2\n      and\n      0x00\n      swap1\n      dup2\n      mstore\n        /* \"METH.sol\":33745:33765  _isExcludedFromMaxTx */\n      0x6d\n        /* \"METH.sol\":33745:33774  _isExcludedFromMaxTx[account] */\n      0x20\n      mstore\n      0x40\n      swap1\n      keccak256\n      sload\n      0xff\n      and\n        /* \"METH.sol\":33744:33774  !_isExcludedFromMaxTx[account] */\n      iszero\n        /* \"METH.sol\":33736:33806  require(!_isExcludedFromMaxTx[account], \"Account is already excluded\") */\n      tag_335\n      jumpi\n      mload(0x40)\n      shl(0xe5, 0x461bcd)\n      dup2\n      mstore\n        /* \"#utility.yul\":12107:12109   */\n      0x20\n        /* \"METH.sol\":33736:33806  require(!_isExcludedFromMaxTx[account], \"Account is already excluded\") */\n      0x04\n      dup3\n      add\n        /* \"#utility.yul\":12089:12110   */\n      mstore\n        /* \"#utility.yul\":12146:12148   */\n      0x1b\n        /* \"#utility.yul\":12126:12144   */\n      0x24\n      dup3\n      add\n        /* \"#utility.yul\":12119:12149   */\n      mstore\n        /* \"#utility.yul\":12185:12214   */\n      0x4163636f756e7420697320616c7265616479206578636c756465640000000000\n        /* \"#utility.yul\":12165:12183   */\n      0x44\n      dup3\n      add\n        /* \"#utility.yul\":12158:12215   */\n      mstore\n        /* \"#utility.yul\":12232:12250   */\n      0x64\n      add\n        /* \"METH.sol\":33736:33806  require(!_isExcludedFromMaxTx[account], \"Account is already excluded\") */\n      tag_171\n        /* \"#utility.yul\":11905:12256   */\n      jump\n        /* \"METH.sol\":33736:33806  require(!_isExcludedFromMaxTx[account], \"Account is already excluded\") */\n    tag_335:\n      sub(shl(0xa0, 0x01), 0x01)\n        /* \"METH.sol\":33817:33846  _isExcludedFromMaxTx[account] */\n      and\n      0x00\n      swap1\n      dup2\n      mstore\n        /* \"METH.sol\":33817:33837  _isExcludedFromMaxTx */\n      0x6d\n        /* \"METH.sol\":33817:33846  _isExcludedFromMaxTx[account] */\n      0x20\n      mstore\n      0x40\n      swap1\n      keccak256\n        /* \"METH.sol\":33817:33853  _isExcludedFromMaxTx[account] = true */\n      dup1\n      sload\n      not(0xff)\n      and\n        /* \"METH.sol\":33849:33853  true */\n      0x01\n        /* \"METH.sol\":33817:33853  _isExcludedFromMaxTx[account] = true */\n      or\n      swap1\n      sstore\n        /* \"METH.sol\":33674:33861  function excludeFromMaxTx(address account) private {... */\n      jump\t// out\n        /* \"METH.sol\":34114:34698  function excludeAddress(address account) private {... */\n    tag_286:\n      sub(shl(0xa0, 0x01), 0x01)\n        /* \"METH.sol\":34183:34203  _isExcluded[account] */\n      dup2\n      and\n      0x00\n      swap1\n      dup2\n      mstore\n        /* \"METH.sol\":34183:34194  _isExcluded */\n      0x6c\n        /* \"METH.sol\":34183:34203  _isExcluded[account] */\n      0x20\n      mstore\n      0x40\n      swap1\n      keccak256\n      sload\n      0xff\n      and\n        /* \"METH.sol\":34182:34203  !_isExcluded[account] */\n      iszero\n        /* \"METH.sol\":34174:34235  require(!_isExcluded[account], \"Account is already excluded\") */\n      tag_339\n      jumpi\n      mload(0x40)\n      shl(0xe5, 0x461bcd)\n      dup2\n      mstore\n        /* \"#utility.yul\":12107:12109   */\n      0x20\n        /* \"METH.sol\":34174:34235  require(!_isExcluded[account], \"Account is already excluded\") */\n      0x04\n      dup3\n      add\n        /* \"#utility.yul\":12089:12110   */\n      mstore\n        /* \"#utility.yul\":12146:12148   */\n      0x1b\n        /* \"#utility.yul\":12126:12144   */\n      0x24\n      dup3\n      add\n        /* \"#utility.yul\":12119:12149   */\n      mstore\n        /* \"#utility.yul\":12185:12214   */\n      0x4163636f756e7420697320616c7265616479206578636c756465640000000000\n        /* \"#utility.yul\":12165:12183   */\n      0x44\n      dup3\n      add\n        /* \"#utility.yul\":12158:12215   */\n      mstore\n        /* \"#utility.yul\":12232:12250   */\n      0x64\n      add\n        /* \"METH.sol\":34174:34235  require(!_isExcluded[account], \"Account is already excluded\") */\n      tag_171\n        /* \"#utility.yul\":11905:12256   */\n      jump\n        /* \"METH.sol\":34174:34235  require(!_isExcluded[account], \"Account is already excluded\") */\n    tag_339:\n      sub(shl(0xa0, 0x01), 0x01)\n        /* \"METH.sol\":34300:34316  _rOwned[account] */\n      dup2\n      and\n        /* \"METH.sol\":34319:34320  0 */\n      0x00\n        /* \"METH.sol\":34300:34316  _rOwned[account] */\n      swap1\n      dup2\n      mstore\n        /* \"METH.sol\":34300:34307  _rOwned */\n      0x6a\n        /* \"METH.sol\":34300:34316  _rOwned[account] */\n      0x20\n      mstore\n      0x40\n      swap1\n      keccak256\n      sload\n        /* \"METH.sol\":34300:34320  _rOwned[account] > 0 */\n      iszero\n        /* \"METH.sol\":34296:34510  if (_rOwned[account] > 0) {... */\n      tag_341\n      jumpi\n        /* \"METH.sol\":34479:34498  rBalanceOf(account) */\n      tag_342\n        /* \"METH.sol\":34490:34497  account */\n      dup2\n        /* \"METH.sol\":34479:34489  rBalanceOf */\n      tag_78\n        /* \"METH.sol\":34479:34498  rBalanceOf(account) */\n      jump\t// in\n    tag_342:\n      sub(shl(0xa0, 0x01), 0x01)\n        /* \"METH.sol\":34460:34476  _tOwned[account] */\n      dup3\n      and\n      0x00\n      swap1\n      dup2\n      mstore\n        /* \"METH.sol\":34460:34467  _tOwned */\n      0x69\n        /* \"METH.sol\":34460:34476  _tOwned[account] */\n      0x20\n      mstore\n      0x40\n      swap1\n      keccak256\n        /* \"METH.sol\":34460:34498  _tOwned[account] = rBalanceOf(account) */\n      sstore\n        /* \"METH.sol\":34296:34510  if (_rOwned[account] > 0) {... */\n    tag_341:\n      sub(shl(0xa0, 0x01), 0x01)\n        /* \"METH.sol\":34564:34584  _isExcluded[account] */\n      and\n      0x00\n      dup2\n      dup2\n      mstore\n        /* \"METH.sol\":34564:34575  _isExcluded */\n      0x6c\n        /* \"METH.sol\":34564:34584  _isExcluded[account] */\n      0x20\n      mstore\n      0x40\n      dup2\n      keccak256\n        /* \"METH.sol\":34564:34591  _isExcluded[account] = true */\n      dup1\n      sload\n      not(0xff)\n      and\n        /* \"METH.sol\":34587:34591  true */\n      0x01\n        /* \"METH.sol\":34564:34591  _isExcluded[account] = true */\n      swap1\n      dup2\n      or\n      swap1\n      swap2\n      sstore\n        /* \"METH.sol\":34667:34676  _excluded */\n      0x68\n        /* \"METH.sol\":34667:34690  _excluded.push(account) */\n      dup1\n      sload\n      swap2\n      dup3\n      add\n      dup2\n      sstore\n      swap1\n      swap2\n      mstore\n      0xa2153420d844928b4421650203c77babc8b33d7f2e7b450e2966db0c22097753\n      add\n      dup1\n      sload\n      not(sub(shl(0xa0, 0x01), 0x01))\n      and\n      swap1\n      swap2\n      or\n      swap1\n      sstore\n        /* \"METH.sol\":34114:34698  function excludeAddress(address account) private {... */\n      jump\t// out\n        /* \"METH.sol\":39793:40748  function _tokenTransfer(address sender, address recipient, uint256 amount) private {... */\n    tag_311:\n      sub(shl(0xa0, 0x01), 0x01)\n        /* \"METH.sol\":39944:39963  _isExcluded[sender] */\n      dup4\n      and\n      0x00\n      swap1\n      dup2\n      mstore\n        /* \"METH.sol\":39944:39955  _isExcluded */\n      0x6c\n        /* \"METH.sol\":39944:39963  _isExcluded[sender] */\n      0x20\n      mstore\n      0x40\n      swap1\n      keccak256\n      sload\n      0xff\n      and\n        /* \"METH.sol\":39944:39990  _isExcluded[sender] && !_isExcluded[recipient] */\n      dup1\n      iszero\n      tag_345\n      jumpi\n      pop\n      sub(shl(0xa0, 0x01), 0x01)\n        /* \"METH.sol\":39968:39990  _isExcluded[recipient] */\n      dup3\n      and\n      0x00\n      swap1\n      dup2\n      mstore\n        /* \"METH.sol\":39968:39979  _isExcluded */\n      0x6c\n        /* \"METH.sol\":39968:39990  _isExcluded[recipient] */\n      0x20\n      mstore\n      0x40\n      swap1\n      keccak256\n      sload\n      0xff\n      and\n        /* \"METH.sol\":39967:39990  !_isExcluded[recipient] */\n      iszero\n        /* \"METH.sol\":39944:39990  _isExcluded[sender] && !_isExcluded[recipient] */\n    tag_345:\n        /* \"METH.sol\":39940:40741  if (_isExcluded[sender] && !_isExcluded[recipient]) {... */\n      iszero\n      tag_346\n      jumpi\n        /* \"METH.sol\":40008:40056  _transferFromExcluded(sender, recipient, amount) */\n      tag_347\n        /* \"METH.sol\":40030:40036  sender */\n      dup4\n        /* \"METH.sol\":40038:40047  recipient */\n      dup4\n        /* \"METH.sol\":40049:40055  amount */\n      dup4\n        /* \"METH.sol\":40008:40029  _transferFromExcluded */\n      tag_348\n        /* \"METH.sol\":40008:40056  _transferFromExcluded(sender, recipient, amount) */\n      jump\t// in\n    tag_347:\n        /* \"METH.sol\":39793:40748  function _tokenTransfer(address sender, address recipient, uint256 amount) private {... */\n      pop\n      pop\n      pop\n      jump\t// out\n        /* \"METH.sol\":39940:40741  if (_isExcluded[sender] && !_isExcluded[recipient]) {... */\n    tag_346:\n      sub(shl(0xa0, 0x01), 0x01)\n        /* \"METH.sol\":40214:40233  _isExcluded[sender] */\n      dup4\n      and\n      0x00\n      swap1\n      dup2\n      mstore\n        /* \"METH.sol\":40214:40225  _isExcluded */\n      0x6c\n        /* \"METH.sol\":40214:40233  _isExcluded[sender] */\n      0x20\n      mstore\n      0x40\n      swap1\n      keccak256\n      sload\n      0xff\n      and\n        /* \"METH.sol\":40213:40233  !_isExcluded[sender] */\n      iszero\n        /* \"METH.sol\":40213:40259  !_isExcluded[sender] && _isExcluded[recipient] */\n      dup1\n      iszero\n      tag_350\n      jumpi\n      pop\n      sub(shl(0xa0, 0x01), 0x01)\n        /* \"METH.sol\":40237:40259  _isExcluded[recipient] */\n      dup3\n      and\n      0x00\n      swap1\n      dup2\n      mstore\n        /* \"METH.sol\":40237:40248  _isExcluded */\n      0x6c\n        /* \"METH.sol\":40237:40259  _isExcluded[recipient] */\n      0x20\n      mstore\n      0x40\n      swap1\n      keccak256\n      sload\n      0xff\n      and\n        /* \"METH.sol\":40213:40259  !_isExcluded[sender] && _isExcluded[recipient] */\n    tag_350:\n        /* \"METH.sol\":40209:40741  if (!_isExcluded[sender] && _isExcluded[recipient]) {... */\n      iszero\n      tag_351\n      jumpi\n        /* \"METH.sol\":40276:40322  _transferToExcluded(sender, recipient, amount) */\n      tag_347\n        /* \"METH.sol\":40296:40302  sender */\n      dup4\n        /* \"METH.sol\":40304:40313  recipient */\n      dup4\n        /* \"METH.sol\":40315:40321  amount */\n      dup4\n        /* \"METH.sol\":40276:40295  _transferToExcluded */\n      tag_353\n        /* \"METH.sol\":40276:40322  _transferToExcluded(sender, recipient, amount) */\n      jump\t// in\n        /* \"METH.sol\":40209:40741  if (!_isExcluded[sender] && _isExcluded[recipient]) {... */\n    tag_351:\n      sub(shl(0xa0, 0x01), 0x01)\n        /* \"METH.sol\":40486:40505  _isExcluded[sender] */\n      dup4\n      and\n      0x00\n      swap1\n      dup2\n      mstore\n        /* \"METH.sol\":40486:40497  _isExcluded */\n      0x6c\n        /* \"METH.sol\":40486:40505  _isExcluded[sender] */\n      0x20\n      mstore\n      0x40\n      swap1\n      keccak256\n      sload\n      0xff\n      and\n        /* \"METH.sol\":40486:40531  _isExcluded[sender] && _isExcluded[recipient] */\n      dup1\n      iszero\n      tag_355\n      jumpi\n      pop\n      sub(shl(0xa0, 0x01), 0x01)\n        /* \"METH.sol\":40509:40531  _isExcluded[recipient] */\n      dup3\n      and\n      0x00\n      swap1\n      dup2\n      mstore\n        /* \"METH.sol\":40509:40520  _isExcluded */\n      0x6c\n        /* \"METH.sol\":40509:40531  _isExcluded[recipient] */\n      0x20\n      mstore\n      0x40\n      swap1\n      keccak256\n      sload\n      0xff\n      and\n        /* \"METH.sol\":40486:40531  _isExcluded[sender] && _isExcluded[recipient] */\n    tag_355:\n        /* \"METH.sol\":40482:40741  if (_isExcluded[sender] && _isExcluded[recipient]) {... */\n      iszero\n      tag_356\n      jumpi\n        /* \"METH.sol\":40549:40597  _transferBothExcluded(sender, recipient, amount) */\n      tag_347\n        /* \"METH.sol\":40571:40577  sender */\n      dup4\n        /* \"METH.sol\":40579:40588  recipient */\n      dup4\n        /* \"METH.sol\":40590:40596  amount */\n      dup4\n        /* \"METH.sol\":40549:40570  _transferBothExcluded */\n      tag_358\n        /* \"METH.sol\":40549:40597  _transferBothExcluded(sender, recipient, amount) */\n      jump\t// in\n        /* \"METH.sol\":40482:40741  if (_isExcluded[sender] && _isExcluded[recipient]) {... */\n    tag_356:\n        /* \"METH.sol\":40685:40729  _transferStandard(sender, recipient, amount) */\n      tag_347\n        /* \"METH.sol\":40703:40709  sender */\n      dup4\n        /* \"METH.sol\":40711:40720  recipient */\n      dup4\n        /* \"METH.sol\":40722:40728  amount */\n      dup4\n        /* \"METH.sol\":40685:40702  _transferStandard */\n      tag_361\n        /* \"METH.sol\":40685:40729  _transferStandard(sender, recipient, amount) */\n      jump\t// in\n        /* \"METH.sol\":21663:21776  function __Ownable_init_unchained() internal onlyInitializing {... */\n    tag_326:\n        /* \"METH.sol\":18108:18121  _initializing */\n      sload(0x00)\n      0x0100\n      swap1\n      div\n      0xff\n      and\n        /* \"METH.sol\":18100:18169  require(_initializing, \"Initializable: contract is not initializing\") */\n      tag_363\n      jumpi\n      mload(0x40)\n      shl(0xe5, 0x461bcd)\n      dup2\n      mstore\n      0x04\n      add\n      tag_171\n      swap1\n      tag_323\n      jump\t// in\n    tag_363:\n        /* \"METH.sol\":21736:21768  _transferOwnership(_msgSender()) */\n      tag_187\n        /* \"METH.sol\":20205:20215  msg.sender */\n      caller\n        /* \"METH.sol\":21736:21754  _transferOwnership */\n      tag_188\n        /* \"METH.sol\":21736:21768  _transferOwnership(_msgSender()) */\n      jump\t// in\n        /* \"METH.sol\":43171:44968  function _transferFromExcluded(address sender, address recipient, uint256 tAmount) private {... */\n    tag_348:\n        /* \"METH.sol\":43273:43297  TransferData memory data */\n      tag_369\n      tag_370\n      jump\t// in\n    tag_369:\n        /* \"METH.sol\":43375:43384  antiWhale */\n      and(0xff, sload(0x72))\n        /* \"METH.sol\":43375:43392  antiWhale == true */\n      iszero\n      iszero\n        /* \"METH.sol\":43375:43384  antiWhale */\n      0x01\n        /* \"METH.sol\":43375:43392  antiWhale == true */\n      sub\n        /* \"METH.sol\":43372:43529  if(antiWhale == true) {... */\n      tag_373\n      jumpi\n        /* \"METH.sol\":43439:43443  1000 */\n      0x03e8\n        /* \"METH.sol\":43429:43436  _tTotal */\n      sload(0x6f)\n        /* \"METH.sol\":43429:43443  _tTotal / 1000 */\n      tag_372\n      swap2\n      swap1\n      tag_177\n      jump\t// in\n    tag_372:\n        /* \"METH.sol\":43417:43424  tAmount */\n      dup3\n        /* \"METH.sol\":43417:43444  tAmount <= (_tTotal / 1000) */\n      gt\n      iszero\n        /* \"METH.sol\":43409:43517  require(tAmount <= (_tTotal / 1000), \"Cannot purchase more than 10m (0.1%) of supply in single transaction\") */\n      tag_373\n      jumpi\n      mload(0x40)\n      shl(0xe5, 0x461bcd)\n      dup2\n      mstore\n        /* \"#utility.yul\":12463:12465   */\n      0x20\n        /* \"METH.sol\":43409:43517  require(tAmount <= (_tTotal / 1000), \"Cannot purchase more than 10m (0.1%) of supply in single transaction\") */\n      0x04\n      dup3\n      add\n        /* \"#utility.yul\":12445:12466   */\n      mstore\n        /* \"#utility.yul\":12502:12504   */\n      0x44\n        /* \"#utility.yul\":12482:12500   */\n      0x24\n      dup3\n      add\n        /* \"#utility.yul\":12475:12505   */\n      dup2\n      swap1\n      mstore\n        /* \"#utility.yul\":12541:12575   */\n      0x43616e6e6f74207075726368617365206d6f7265207468616e2031306d202830\n        /* \"#utility.yul\":12521:12539   */\n      swap1\n      dup3\n      add\n        /* \"#utility.yul\":12514:12576   */\n      mstore\n        /* \"#utility.yul\":12612:12646   */\n      0x2e312529206f6620737570706c7920696e2073696e676c65207472616e736163\n        /* \"#utility.yul\":12592:12610   */\n      0x64\n      dup3\n      add\n        /* \"#utility.yul\":12585:12647   */\n      mstore\n      shl(0xe1, 0x3a34b7b7)\n        /* \"#utility.yul\":12663:12682   */\n      0x84\n      dup3\n      add\n        /* \"#utility.yul\":12656:12691   */\n      mstore\n        /* \"#utility.yul\":12708:12727   */\n      0xa4\n      add\n        /* \"METH.sol\":43409:43517  require(tAmount <= (_tTotal / 1000), \"Cannot purchase more than 10m (0.1%) of supply in single transaction\") */\n      tag_171\n        /* \"#utility.yul\":12261:12733   */\n      jump\n        /* \"METH.sol\":43409:43517  require(tAmount <= (_tTotal / 1000), \"Cannot purchase more than 10m (0.1%) of supply in single transaction\") */\n    tag_373:\n        /* \"METH.sol\":43587:43613  data.tAmountSent = tAmount */\n      dup2\n      dup2\n      mstore\n        /* \"METH.sol\":43653:43663  _getRate() */\n      tag_376\n        /* \"METH.sol\":43653:43661  _getRate */\n      tag_108\n        /* \"METH.sol\":43653:43663  _getRate() */\n      jump\t// in\n    tag_376:\n        /* \"METH.sol\":43643:43663  tAmount * _getRate() */\n      tag_377\n      swap1\n        /* \"METH.sol\":43643:43650  tAmount */\n      dup4\n        /* \"METH.sol\":43643:43663  tAmount * _getRate() */\n      tag_378\n      jump\t// in\n    tag_377:\n        /* \"METH.sol\":43624:43640  data.rAmountSent */\n      0x20\n      dup3\n      add\n        /* \"METH.sol\":43624:43663  data.rAmountSent = tAmount * _getRate() */\n      mstore\n        /* \"METH.sol\":43753:43754  0 */\n      0x00\n        /* \"METH.sol\":43731:43750  data.totalBuyTaxBps */\n      0x40\n      dup3\n      add\n        /* \"METH.sol\":43731:43754  data.totalBuyTaxBps = 0 */\n      dup2\n      swap1\n      mstore\n        /* \"METH.sol\":43876:43881  10000 */\n      0x2710\n      swap1\n        /* \"METH.sol\":43843:43872  tAmount * data.totalBuyTaxBps */\n      tag_379\n      swap1\n        /* \"METH.sol\":43843:43850  tAmount */\n      dup5\n        /* \"METH.sol\":43843:43872  tAmount * data.totalBuyTaxBps */\n      tag_378\n      jump\t// in\n    tag_379:\n        /* \"METH.sol\":43842:43881  (tAmount * data.totalBuyTaxBps) / 10000 */\n      tag_380\n      swap2\n      swap1\n      tag_177\n      jump\t// in\n    tag_380:\n        /* \"METH.sol\":43822:43839  data.tBuyFeeTotal */\n      0x80\n      dup3\n      add\n        /* \"METH.sol\":43822:43881  data.tBuyFeeTotal = (tAmount * data.totalBuyTaxBps) / 10000 */\n      mstore\n        /* \"METH.sol\":43932:43942  _getRate() */\n      tag_381\n        /* \"METH.sol\":43932:43940  _getRate */\n      tag_108\n        /* \"METH.sol\":43932:43942  _getRate() */\n      jump\t// in\n    tag_381:\n        /* \"METH.sol\":43912:43916  data */\n      dup2\n        /* \"METH.sol\":43912:43929  data.tBuyFeeTotal */\n      0x80\n      add\n      mload\n        /* \"METH.sol\":43912:43942  data.tBuyFeeTotal * _getRate() */\n      tag_382\n      swap2\n      swap1\n      tag_378\n      jump\t// in\n    tag_382:\n        /* \"METH.sol\":43892:43909  data.rBuyFeeTotal */\n      0xa0\n      dup3\n      add\n        /* \"METH.sol\":43892:43942  data.rBuyFeeTotal = data.tBuyFeeTotal * _getRate() */\n      dup2\n      swap1\n      mstore\n        /* \"METH.sol\":44042:44063  data.rBuyFeeTotal > 0 */\n      iszero\n        /* \"METH.sol\":44024:44132  if (... */\n      tag_383\n      jumpi\n        /* \"METH.sol\":44103:44120  data.rBuyFeeTotal */\n      0xa0\n      dup2\n      add\n      mload\n        /* \"METH.sol\":44080:44100  data.reflectedAmount */\n      0x0100\n      dup3\n      add\n        /* \"METH.sol\":44080:44120  data.reflectedAmount = data.rBuyFeeTotal */\n      mstore\n        /* \"METH.sol\":44024:44132  if (... */\n    tag_383:\n        /* \"METH.sol\":44297:44313  data.tAmountSent */\n      dup1\n      mload\n      sub(shl(0xa0, 0x01), 0x01)\n        /* \"METH.sol\":44278:44293  _tOwned[sender] */\n      dup6\n      and\n        /* \"METH.sol\":44297:44313  data.tAmountSent */\n      0x00\n        /* \"METH.sol\":44278:44293  _tOwned[sender] */\n      swap1\n      dup2\n      mstore\n        /* \"METH.sol\":44278:44285  _tOwned */\n      0x69\n        /* \"METH.sol\":44278:44293  _tOwned[sender] */\n      0x20\n      mstore\n      0x40\n      dup2\n      keccak256\n        /* \"METH.sol\":44278:44313  _tOwned[sender] -= data.tAmountSent */\n      dup1\n      sload\n        /* \"METH.sol\":44278:44293  _tOwned[sender] */\n      swap1\n      swap2\n        /* \"METH.sol\":44297:44313  data.tAmountSent */\n      swap1\n        /* \"METH.sol\":44278:44313  _tOwned[sender] -= data.tAmountSent */\n      tag_384\n      swap1\n        /* \"METH.sol\":44297:44313  data.tAmountSent */\n      dup5\n      swap1\n        /* \"METH.sol\":44278:44313  _tOwned[sender] -= data.tAmountSent */\n      tag_159\n      jump\t// in\n    tag_384:\n      swap1\n      swap2\n      sstore\n      pop\n      pop\n        /* \"METH.sol\":44343:44359  data.rAmountSent */\n      0x20\n      dup1\n      dup3\n      add\n      mload\n      sub(shl(0xa0, 0x01), 0x01)\n        /* \"METH.sol\":44324:44339  _rOwned[sender] */\n      dup7\n      and\n      0x00\n      swap1\n      dup2\n      mstore\n        /* \"METH.sol\":44324:44331  _rOwned */\n      0x6a\n        /* \"METH.sol\":44324:44339  _rOwned[sender] */\n      swap1\n      swap3\n      mstore\n      0x40\n      dup3\n      keccak256\n        /* \"METH.sol\":44324:44359  _rOwned[sender] -= data.rAmountSent */\n      dup1\n      sload\n        /* \"METH.sol\":44343:44359  data.rAmountSent */\n      swap2\n      swap3\n        /* \"METH.sol\":44324:44339  _rOwned[sender] */\n      swap1\n      swap2\n        /* \"METH.sol\":44324:44359  _rOwned[sender] -= data.rAmountSent */\n      tag_385\n      swap1\n        /* \"METH.sol\":44343:44359  data.rAmountSent */\n      dup5\n      swap1\n        /* \"METH.sol\":44324:44359  _rOwned[sender] -= data.rAmountSent */\n      tag_159\n      jump\t// in\n    tag_385:\n      swap1\n      swap2\n      sstore\n      pop\n      pop\n        /* \"METH.sol\":44527:44544  data.rBuyFeeTotal */\n      0xa0\n      dup2\n      add\n      mload\n        /* \"METH.sol\":44508:44524  data.rAmountSent */\n      0x20\n      dup3\n      add\n      mload\n        /* \"METH.sol\":44508:44544  data.rAmountSent - data.rBuyFeeTotal */\n      tag_386\n      swap2\n        /* \"METH.sol\":44527:44544  data.rBuyFeeTotal */\n      swap1\n        /* \"METH.sol\":44508:44544  data.rAmountSent - data.rBuyFeeTotal */\n      tag_159\n      jump\t// in\n    tag_386:\n      sub(shl(0xa0, 0x01), 0x01)\n        /* \"METH.sol\":44485:44503  _rOwned[recipient] */\n      dup5\n      and\n      0x00\n      swap1\n      dup2\n      mstore\n        /* \"METH.sol\":44485:44492  _rOwned */\n      0x6a\n        /* \"METH.sol\":44485:44503  _rOwned[recipient] */\n      0x20\n      mstore\n      0x40\n      dup2\n      keccak256\n        /* \"METH.sol\":44485:44545  _rOwned[recipient] += (data.rAmountSent - data.rBuyFeeTotal) */\n      dup1\n      sload\n        /* \"METH.sol\":44485:44503  _rOwned[recipient] */\n      swap1\n      swap2\n      swap1\n        /* \"METH.sol\":44485:44545  _rOwned[recipient] += (data.rAmountSent - data.rBuyFeeTotal) */\n      tag_387\n      swap1\n      dup5\n      swap1\n      tag_166\n      jump\t// in\n    tag_387:\n      swap1\n      swap2\n      sstore\n      pop\n      pop\n        /* \"METH.sol\":44651:44671  data.reflectedAmount */\n      0x0100\n      dup2\n      add\n      mload\n        /* \"METH.sol\":44640:44647  _rTotal */\n      0x70\n        /* \"METH.sol\":44640:44671  _rTotal -= data.reflectedAmount */\n      dup1\n      sload\n        /* \"METH.sol\":44640:44647  _rTotal */\n      0x00\n      swap1\n        /* \"METH.sol\":44640:44671  _rTotal -= data.reflectedAmount */\n      tag_388\n      swap1\n        /* \"METH.sol\":44651:44671  data.reflectedAmount */\n      dup5\n      swap1\n        /* \"METH.sol\":44640:44671  _rTotal -= data.reflectedAmount */\n      tag_159\n      jump\t// in\n    tag_388:\n      swap1\n      swap2\n      sstore\n      pop\n      pop\n        /* \"METH.sol\":44796:44813  data.tBuyFeeTotal */\n      0x80\n      dup2\n      add\n      mload\n        /* \"METH.sol\":44777:44793  data.tAmountSent */\n      dup2\n      mload\n      sub(shl(0xa0, 0x01), 0x01)\n        /* \"METH.sol\":44748:44815  Transfer(sender, recipient, (data.tAmountSent - data.tBuyFeeTotal)) */\n      dup1\n      dup7\n      and\n      swap3\n      swap1\n      dup8\n      and\n      swap2\n      0x00\n      dup1\n      mload\n      0x20\n      data_ada389e1fc24a8587c776340efb91b36e675792ab631816100d55df0b5cf3cbc\n      dup4\n      codecopy\n      dup2\n      mload\n      swap2\n      mstore\n      swap2\n        /* \"METH.sol\":44777:44813  data.tAmountSent - data.tBuyFeeTotal */\n      tag_389\n      swap2\n      tag_159\n      jump\t// in\n    tag_389:\n        /* \"METH.sol\":44748:44815  Transfer(sender, recipient, (data.tAmountSent - data.tBuyFeeTotal)) */\n      mload(0x40)\n        /* \"#utility.yul\":1445:1470   */\n      swap1\n      dup2\n      mstore\n        /* \"#utility.yul\":1433:1435   */\n      0x20\n        /* \"#utility.yul\":1418:1436   */\n      add\n        /* \"METH.sol\":44748:44815  Transfer(sender, recipient, (data.tAmountSent - data.tBuyFeeTotal)) */\n      mload(0x40)\n      dup1\n      swap2\n      sub\n      swap1\n      log3\n        /* \"METH.sol\":44876:44892  data.tAmountSent */\n      dup1\n      mload\n        /* \"METH.sol\":44927:44944  data.tBuyFeeTotal */\n      0x80\n      dup3\n      add\n      mload\n        /* \"METH.sol\":44841:44960  TransferFromExcluded(... */\n      0xe6ef78c5a1f105fc4b9500eeb7cd09b041367bdee35f1d85761735ee78b3ff2e\n      swap2\n        /* \"METH.sol\":44876:44892  data.tAmountSent */\n      swap1\n        /* \"METH.sol\":44908:44944  data.tAmountSent - data.tBuyFeeTotal */\n      tag_391\n      swap1\n        /* \"METH.sol\":44876:44892  data.tAmountSent */\n      dup3\n        /* \"METH.sol\":44908:44944  data.tAmountSent - data.tBuyFeeTotal */\n      tag_159\n      jump\t// in\n    tag_391:\n        /* \"METH.sol\":44841:44960  TransferFromExcluded(... */\n      0x40\n      dup1\n      mload\n        /* \"#utility.yul\":2761:2786   */\n      swap3\n      dup4\n      mstore\n        /* \"#utility.yul\":2817:2819   */\n      0x20\n        /* \"#utility.yul\":2802:2820   */\n      dup4\n      add\n        /* \"#utility.yul\":2795:2829   */\n      swap2\n      swap1\n      swap2\n      mstore\n        /* \"#utility.yul\":2734:2752   */\n      add\n        /* \"METH.sol\":44841:44960  TransferFromExcluded(... */\n    tag_392:\n      mload(0x40)\n      dup1\n      swap2\n      sub\n      swap1\n      log1\n        /* \"METH.sol\":43262:44968  {... */\n      pop\n        /* \"METH.sol\":43171:44968  function _transferFromExcluded(address sender, address recipient, uint256 tAmount) private {... */\n      pop\n      pop\n      pop\n      jump\t// out\n        /* \"METH.sol\":41269:43029  function _transferToExcluded(address sender, address recipient, uint256 tAmount) private {... */\n    tag_353:\n        /* \"METH.sol\":41369:41393  TransferData memory data */\n      tag_394\n      tag_370\n      jump\t// in\n    tag_394:\n        /* \"METH.sol\":41567:41569  10 */\n      0x0a\n        /* \"METH.sol\":41546:41564  rBalanceOf(sender) */\n      tag_395\n        /* \"METH.sol\":41557:41563  sender */\n      dup6\n        /* \"METH.sol\":41546:41556  rBalanceOf */\n      tag_78\n        /* \"METH.sol\":41546:41564  rBalanceOf(sender) */\n      jump\t// in\n    tag_395:\n        /* \"METH.sol\":41546:41569  rBalanceOf(sender) / 10 */\n      tag_396\n      swap2\n      swap1\n      tag_177\n      jump\t// in\n    tag_396:\n        /* \"METH.sol\":41535:41542  tAmount */\n      dup3\n        /* \"METH.sol\":41535:41569  tAmount <= rBalanceOf(sender) / 10 */\n      gt\n      iszero\n        /* \"METH.sol\":41527:41632  require(tAmount <= rBalanceOf(sender) / 10, \"Cannot sell more than 10% of balance in single transaction\") */\n      tag_397\n      jumpi\n      mload(0x40)\n      shl(0xe5, 0x461bcd)\n      dup2\n      mstore\n        /* \"#utility.yul\":13113:13115   */\n      0x20\n        /* \"METH.sol\":41527:41632  require(tAmount <= rBalanceOf(sender) / 10, \"Cannot sell more than 10% of balance in single transaction\") */\n      0x04\n      dup3\n      add\n        /* \"#utility.yul\":13095:13116   */\n      mstore\n        /* \"#utility.yul\":13152:13154   */\n      0x3a\n        /* \"#utility.yul\":13132:13150   */\n      0x24\n      dup3\n      add\n        /* \"#utility.yul\":13125:13155   */\n      mstore\n        /* \"#utility.yul\":13191:13225   */\n      0x43616e6e6f742073656c6c206d6f7265207468616e20313025206f662062616c\n        /* \"#utility.yul\":13171:13189   */\n      0x44\n      dup3\n      add\n        /* \"#utility.yul\":13164:13226   */\n      mstore\n        /* \"#utility.yul\":13262:13290   */\n      0x616e636520696e2073696e676c65207472616e73616374696f6e000000000000\n        /* \"#utility.yul\":13242:13260   */\n      0x64\n      dup3\n      add\n        /* \"#utility.yul\":13235:13291   */\n      mstore\n        /* \"#utility.yul\":13308:13327   */\n      0x84\n      add\n        /* \"METH.sol\":41527:41632  require(tAmount <= rBalanceOf(sender) / 10, \"Cannot sell more than 10% of balance in single transaction\") */\n      tag_171\n        /* \"#utility.yul\":12911:13333   */\n      jump\n        /* \"METH.sol\":41527:41632  require(tAmount <= rBalanceOf(sender) / 10, \"Cannot sell more than 10% of balance in single transaction\") */\n    tag_397:\n        /* \"METH.sol\":41693:41719  data.tAmountSent = tAmount */\n      dup2\n      dup2\n      mstore\n        /* \"METH.sol\":41759:41769  _getRate() */\n      tag_400\n        /* \"METH.sol\":41759:41767  _getRate */\n      tag_108\n        /* \"METH.sol\":41759:41769  _getRate() */\n      jump\t// in\n    tag_400:\n        /* \"METH.sol\":41749:41769  tAmount * _getRate() */\n      tag_401\n      swap1\n        /* \"METH.sol\":41749:41756  tAmount */\n      dup4\n        /* \"METH.sol\":41749:41769  tAmount * _getRate() */\n      tag_378\n      jump\t// in\n    tag_401:\n        /* \"METH.sol\":41730:41746  data.rAmountSent */\n      0x20\n      dup3\n      add\n        /* \"METH.sol\":41730:41769  data.rAmountSent = tAmount * _getRate() */\n      mstore\n        /* \"METH.sol\":41805:41806  0 */\n      0x00\n        /* \"METH.sol\":41782:41802  data.totalSellTaxBps */\n      0x60\n      dup3\n      add\n        /* \"METH.sol\":41782:41806  data.totalSellTaxBps = 0 */\n      dup2\n      swap1\n      mstore\n        /* \"METH.sol\":41930:41935  10000 */\n      0x2710\n      swap1\n        /* \"METH.sol\":41896:41926  tAmount * data.totalSellTaxBps */\n      tag_402\n      swap1\n        /* \"METH.sol\":41896:41903  tAmount */\n      dup5\n        /* \"METH.sol\":41896:41926  tAmount * data.totalSellTaxBps */\n      tag_378\n      jump\t// in\n    tag_402:\n        /* \"METH.sol\":41895:41935  (tAmount * data.totalSellTaxBps) / 10000 */\n      tag_403\n      swap2\n      swap1\n      tag_177\n      jump\t// in\n    tag_403:\n        /* \"METH.sol\":41874:41892  data.tSellFeeTotal */\n      0xc0\n      dup3\n      add\n        /* \"METH.sol\":41874:41935  data.tSellFeeTotal = (tAmount * data.totalSellTaxBps) / 10000 */\n      mstore\n        /* \"METH.sol\":41988:41998  _getRate() */\n      tag_404\n        /* \"METH.sol\":41988:41996  _getRate */\n      tag_108\n        /* \"METH.sol\":41988:41998  _getRate() */\n      jump\t// in\n    tag_404:\n        /* \"METH.sol\":41967:41971  data */\n      dup2\n        /* \"METH.sol\":41967:41985  data.tSellFeeTotal */\n      0xc0\n      add\n      mload\n        /* \"METH.sol\":41967:41998  data.tSellFeeTotal * _getRate() */\n      tag_405\n      swap2\n      swap1\n      tag_378\n      jump\t// in\n    tag_405:\n        /* \"METH.sol\":41946:41964  data.rSellFeeTotal */\n      0xe0\n      dup3\n      add\n        /* \"METH.sol\":41946:41998  data.rSellFeeTotal = data.tSellFeeTotal * _getRate() */\n      dup2\n      swap1\n      mstore\n        /* \"METH.sol\":42084:42106  data.rSellFeeTotal > 0 */\n      iszero\n        /* \"METH.sol\":42080:42177  if (data.rSellFeeTotal > 0 ) {... */\n      tag_406\n      jumpi\n        /* \"METH.sol\":42147:42165  data.rSellFeeTotal */\n      0xe0\n      dup2\n      add\n      mload\n        /* \"METH.sol\":42124:42144  data.reflectedAmount */\n      0x0100\n      dup3\n      add\n        /* \"METH.sol\":42124:42165  data.reflectedAmount = data.rSellFeeTotal */\n      mstore\n        /* \"METH.sol\":42080:42177  if (data.rSellFeeTotal > 0 ) {... */\n    tag_406:\n        /* \"METH.sol\":42328:42332  data */\n      dup1\n        /* \"METH.sol\":42328:42344  data.rAmountSent */\n      0x20\n      add\n      mload\n        /* \"METH.sol\":42309:42316  _rOwned */\n      0x6a\n        /* \"METH.sol\":42309:42324  _rOwned[sender] */\n      0x00\n        /* \"METH.sol\":42317:42323  sender */\n      dup7\n      sub(shl(0xa0, 0x01), 0x01)\n        /* \"METH.sol\":42309:42324  _rOwned[sender] */\n      and\n      sub(shl(0xa0, 0x01), 0x01)\n      and\n      dup2\n      mstore\n      0x20\n      add\n      swap1\n      dup2\n      mstore\n      0x20\n      add\n      0x00\n      keccak256\n      0x00\n        /* \"METH.sol\":42309:42344  _rOwned[sender] -= data.rAmountSent */\n      dup3\n      dup3\n      sload\n      tag_407\n      swap2\n      swap1\n      tag_159\n      jump\t// in\n    tag_407:\n      swap1\n      swap2\n      sstore\n      pop\n      pop\n        /* \"METH.sol\":42523:42541  data.tSellFeeTotal */\n      0xc0\n      dup2\n      add\n      mload\n        /* \"METH.sol\":42504:42520  data.tAmountSent */\n      dup2\n      mload\n        /* \"METH.sol\":42504:42541  data.tAmountSent - data.tSellFeeTotal */\n      tag_408\n      swap2\n        /* \"METH.sol\":42523:42541  data.tSellFeeTotal */\n      swap1\n        /* \"METH.sol\":42504:42541  data.tAmountSent - data.tSellFeeTotal */\n      tag_159\n      jump\t// in\n    tag_408:\n      sub(shl(0xa0, 0x01), 0x01)\n        /* \"METH.sol\":42481:42499  _tOwned[recipient] */\n      dup5\n      and\n      0x00\n      swap1\n      dup2\n      mstore\n        /* \"METH.sol\":42481:42488  _tOwned */\n      0x69\n        /* \"METH.sol\":42481:42499  _tOwned[recipient] */\n      0x20\n      mstore\n      0x40\n      dup2\n      keccak256\n        /* \"METH.sol\":42481:42542  _tOwned[recipient] += (data.tAmountSent - data.tSellFeeTotal) */\n      dup1\n      sload\n        /* \"METH.sol\":42481:42499  _tOwned[recipient] */\n      swap1\n      swap2\n      swap1\n        /* \"METH.sol\":42481:42542  _tOwned[recipient] += (data.tAmountSent - data.tSellFeeTotal) */\n      tag_409\n      swap1\n      dup5\n      swap1\n      tag_166\n      jump\t// in\n    tag_409:\n      swap1\n      swap2\n      sstore\n      pop\n      pop\n        /* \"METH.sol\":42595:42613  data.rSellFeeTotal */\n      0xe0\n      dup2\n      add\n      mload\n        /* \"METH.sol\":42576:42592  data.rAmountSent */\n      0x20\n      dup3\n      add\n      mload\n        /* \"METH.sol\":42576:42613  data.rAmountSent - data.rSellFeeTotal */\n      tag_410\n      swap2\n        /* \"METH.sol\":42595:42613  data.rSellFeeTotal */\n      swap1\n        /* \"METH.sol\":42576:42613  data.rAmountSent - data.rSellFeeTotal */\n      tag_159\n      jump\t// in\n    tag_410:\n      sub(shl(0xa0, 0x01), 0x01)\n        /* \"METH.sol\":42553:42571  _rOwned[recipient] */\n      dup5\n      and\n      0x00\n      swap1\n      dup2\n      mstore\n        /* \"METH.sol\":42553:42560  _rOwned */\n      0x6a\n        /* \"METH.sol\":42553:42571  _rOwned[recipient] */\n      0x20\n      mstore\n      0x40\n      dup2\n      keccak256\n        /* \"METH.sol\":42553:42614  _rOwned[recipient] += (data.rAmountSent - data.rSellFeeTotal) */\n      dup1\n      sload\n        /* \"METH.sol\":42553:42571  _rOwned[recipient] */\n      swap1\n      swap2\n      swap1\n        /* \"METH.sol\":42553:42614  _rOwned[recipient] += (data.rAmountSent - data.rSellFeeTotal) */\n      tag_411\n      swap1\n      dup5\n      swap1\n      tag_166\n      jump\t// in\n    tag_411:\n      swap1\n      swap2\n      sstore\n      pop\n      pop\n        /* \"METH.sol\":42720:42740  data.reflectedAmount */\n      0x0100\n      dup2\n      add\n      mload\n        /* \"METH.sol\":42709:42716  _rTotal */\n      0x70\n        /* \"METH.sol\":42709:42740  _rTotal -= data.reflectedAmount */\n      dup1\n      sload\n        /* \"METH.sol\":42709:42716  _rTotal */\n      0x00\n      swap1\n        /* \"METH.sol\":42709:42740  _rTotal -= data.reflectedAmount */\n      tag_412\n      swap1\n        /* \"METH.sol\":42720:42740  data.reflectedAmount */\n      dup5\n      swap1\n        /* \"METH.sol\":42709:42740  _rTotal -= data.reflectedAmount */\n      tag_159\n      jump\t// in\n    tag_412:\n      swap1\n      swap2\n      sstore\n      pop\n      pop\n        /* \"METH.sol\":42865:42883  data.tSellFeeTotal */\n      0xc0\n      dup2\n      add\n      mload\n        /* \"METH.sol\":42846:42862  data.tAmountSent */\n      dup2\n      mload\n      sub(shl(0xa0, 0x01), 0x01)\n        /* \"METH.sol\":42817:42885  Transfer(sender, recipient, (data.tAmountSent - data.tSellFeeTotal)) */\n      dup1\n      dup7\n      and\n      swap3\n      swap1\n      dup8\n      and\n      swap2\n      0x00\n      dup1\n      mload\n      0x20\n      data_ada389e1fc24a8587c776340efb91b36e675792ab631816100d55df0b5cf3cbc\n      dup4\n      codecopy\n      dup2\n      mload\n      swap2\n      mstore\n      swap2\n        /* \"METH.sol\":42846:42883  data.tAmountSent - data.tSellFeeTotal */\n      tag_413\n      swap2\n      tag_159\n      jump\t// in\n    tag_413:\n        /* \"METH.sol\":42817:42885  Transfer(sender, recipient, (data.tAmountSent - data.tSellFeeTotal)) */\n      mload(0x40)\n        /* \"#utility.yul\":1445:1470   */\n      swap1\n      dup2\n      mstore\n        /* \"#utility.yul\":1433:1435   */\n      0x20\n        /* \"#utility.yul\":1418:1436   */\n      add\n        /* \"METH.sol\":42817:42885  Transfer(sender, recipient, (data.tAmountSent - data.tSellFeeTotal)) */\n      mload(0x40)\n      dup1\n      swap2\n      sub\n      swap1\n      log3\n        /* \"METH.sol\":42936:42952  data.tAmountSent */\n      dup1\n      mload\n        /* \"METH.sol\":42987:43005  data.tSellFeeTotal */\n      0xc0\n      dup3\n      add\n      mload\n        /* \"METH.sol\":42903:43021  TransferToExcluded(... */\n      0xff000e16c1c0d33b07404c2b2abb9832356b5cfd57566d73c9d09611f030890d\n      swap2\n        /* \"METH.sol\":42936:42952  data.tAmountSent */\n      swap1\n        /* \"METH.sol\":42968:43005  data.tAmountSent - data.tSellFeeTotal */\n      tag_391\n      swap1\n        /* \"METH.sol\":42936:42952  data.tAmountSent */\n      dup3\n        /* \"METH.sol\":42968:43005  data.tAmountSent - data.tSellFeeTotal */\n      tag_159\n      jump\t// in\n        /* \"METH.sol\":45141:46077  function _transferBothExcluded(address sender, address recipient, uint256 tAmount) private {... */\n    tag_358:\n        /* \"METH.sol\":45243:45267  TransferData memory data */\n      tag_418\n      tag_370\n      jump\t// in\n    tag_418:\n        /* \"METH.sol\":45381:45407  data.tAmountSent = tAmount */\n      dup2\n      dup2\n      mstore\n        /* \"METH.sol\":45447:45457  _getRate() */\n      tag_419\n        /* \"METH.sol\":45447:45455  _getRate */\n      tag_108\n        /* \"METH.sol\":45447:45457  _getRate() */\n      jump\t// in\n    tag_419:\n        /* \"METH.sol\":45437:45457  tAmount * _getRate() */\n      tag_420\n      swap1\n        /* \"METH.sol\":45437:45444  tAmount */\n      dup4\n        /* \"METH.sol\":45437:45457  tAmount * _getRate() */\n      tag_378\n      jump\t// in\n    tag_420:\n        /* \"METH.sol\":45418:45434  data.rAmountSent */\n      0x20\n      dup1\n      dup4\n      add\n        /* \"METH.sol\":45418:45457  data.rAmountSent = tAmount * _getRate() */\n      swap2\n      swap1\n      swap2\n      mstore\n        /* \"METH.sol\":45574:45590  data.tAmountSent */\n      dup2\n      mload\n      sub(shl(0xa0, 0x01), 0x01)\n        /* \"METH.sol\":45555:45570  _tOwned[sender] */\n      dup7\n      and\n        /* \"METH.sol\":45574:45590  data.tAmountSent */\n      0x00\n        /* \"METH.sol\":45555:45570  _tOwned[sender] */\n      swap1\n      dup2\n      mstore\n        /* \"METH.sol\":45555:45562  _tOwned */\n      0x69\n        /* \"METH.sol\":45555:45570  _tOwned[sender] */\n      swap1\n      swap3\n      mstore\n      0x40\n      dup3\n      keccak256\n        /* \"METH.sol\":45555:45590  _tOwned[sender] -= data.tAmountSent */\n      dup1\n      sload\n        /* \"METH.sol\":45574:45590  data.tAmountSent */\n      swap2\n      swap3\n        /* \"METH.sol\":45555:45570  _tOwned[sender] */\n      swap1\n      swap2\n        /* \"METH.sol\":45555:45590  _tOwned[sender] -= data.tAmountSent */\n      tag_421\n      swap1\n        /* \"METH.sol\":45574:45590  data.tAmountSent */\n      dup5\n      swap1\n        /* \"METH.sol\":45555:45590  _tOwned[sender] -= data.tAmountSent */\n      tag_159\n      jump\t// in\n    tag_421:\n      swap1\n      swap2\n      sstore\n      pop\n      pop\n        /* \"METH.sol\":45620:45636  data.rAmountSent */\n      0x20\n      dup1\n      dup3\n      add\n      mload\n      sub(shl(0xa0, 0x01), 0x01)\n        /* \"METH.sol\":45601:45616  _rOwned[sender] */\n      dup7\n      and\n      0x00\n      swap1\n      dup2\n      mstore\n        /* \"METH.sol\":45601:45608  _rOwned */\n      0x6a\n        /* \"METH.sol\":45601:45616  _rOwned[sender] */\n      swap1\n      swap3\n      mstore\n      0x40\n      dup3\n      keccak256\n        /* \"METH.sol\":45601:45636  _rOwned[sender] -= data.rAmountSent */\n      dup1\n      sload\n        /* \"METH.sol\":45620:45636  data.rAmountSent */\n      swap2\n      swap3\n        /* \"METH.sol\":45601:45616  _rOwned[sender] */\n      swap1\n      swap2\n        /* \"METH.sol\":45601:45636  _rOwned[sender] -= data.rAmountSent */\n      tag_422\n      swap1\n        /* \"METH.sol\":45620:45636  data.rAmountSent */\n      dup5\n      swap1\n        /* \"METH.sol\":45601:45636  _rOwned[sender] -= data.rAmountSent */\n      tag_159\n      jump\t// in\n    tag_422:\n      swap1\n      swap2\n      sstore\n      pop\n      pop\n        /* \"METH.sol\":45740:45756  data.tAmountSent */\n      dup1\n      mload\n      sub(shl(0xa0, 0x01), 0x01)\n        /* \"METH.sol\":45718:45736  _tOwned[recipient] */\n      dup5\n      and\n        /* \"METH.sol\":45740:45756  data.tAmountSent */\n      0x00\n        /* \"METH.sol\":45718:45736  _tOwned[recipient] */\n      swap1\n      dup2\n      mstore\n        /* \"METH.sol\":45718:45725  _tOwned */\n      0x69\n        /* \"METH.sol\":45718:45736  _tOwned[recipient] */\n      0x20\n      mstore\n      0x40\n      dup2\n      keccak256\n        /* \"METH.sol\":45718:45756  _tOwned[recipient] += data.tAmountSent */\n      dup1\n      sload\n        /* \"METH.sol\":45718:45736  _tOwned[recipient] */\n      swap1\n      swap2\n        /* \"METH.sol\":45740:45756  data.tAmountSent */\n      swap1\n        /* \"METH.sol\":45718:45756  _tOwned[recipient] += data.tAmountSent */\n      tag_423\n      swap1\n        /* \"METH.sol\":45740:45756  data.tAmountSent */\n      dup5\n      swap1\n        /* \"METH.sol\":45718:45756  _tOwned[recipient] += data.tAmountSent */\n      tag_166\n      jump\t// in\n    tag_423:\n      swap1\n      swap2\n      sstore\n      pop\n      pop\n        /* \"METH.sol\":45789:45805  data.rAmountSent */\n      0x20\n      dup1\n      dup3\n      add\n      mload\n      sub(shl(0xa0, 0x01), 0x01)\n        /* \"METH.sol\":45767:45785  _rOwned[recipient] */\n      dup6\n      and\n      0x00\n      swap1\n      dup2\n      mstore\n        /* \"METH.sol\":45767:45774  _rOwned */\n      0x6a\n        /* \"METH.sol\":45767:45785  _rOwned[recipient] */\n      swap1\n      swap3\n      mstore\n      0x40\n      dup3\n      keccak256\n        /* \"METH.sol\":45767:45805  _rOwned[recipient] += data.rAmountSent */\n      dup1\n      sload\n        /* \"METH.sol\":45789:45805  data.rAmountSent */\n      swap2\n      swap3\n        /* \"METH.sol\":45767:45785  _rOwned[recipient] */\n      swap1\n      swap2\n        /* \"METH.sol\":45767:45805  _rOwned[recipient] += data.rAmountSent */\n      tag_424\n      swap1\n        /* \"METH.sol\":45789:45805  data.rAmountSent */\n      dup5\n      swap1\n        /* \"METH.sol\":45767:45805  _rOwned[recipient] += data.rAmountSent */\n      tag_166\n      jump\t// in\n    tag_424:\n      swap1\n      swap2\n      sstore\n      pop\n      pop\n        /* \"METH.sol\":45910:45926  data.tAmountSent */\n      dup1\n      mload\n        /* \"METH.sol\":45882:45927  Transfer(sender, recipient, data.tAmountSent) */\n      mload(0x40)\n        /* \"#utility.yul\":1445:1470   */\n      swap1\n      dup2\n      mstore\n      sub(shl(0xa0, 0x01), 0x01)\n        /* \"METH.sol\":45882:45927  Transfer(sender, recipient, data.tAmountSent) */\n      dup5\n      dup2\n      and\n      swap2\n      swap1\n      dup7\n      and\n      swap1\n      0x00\n      dup1\n      mload\n      0x20\n      data_ada389e1fc24a8587c776340efb91b36e675792ab631816100d55df0b5cf3cbc\n      dup4\n      codecopy\n      dup2\n      mload\n      swap2\n      mstore\n      swap1\n        /* \"#utility.yul\":1433:1435   */\n      0x20\n        /* \"#utility.yul\":1418:1436   */\n      add\n        /* \"METH.sol\":45882:45927  Transfer(sender, recipient, data.tAmountSent) */\n      mload(0x40)\n      dup1\n      swap2\n      sub\n      swap1\n      log3\n        /* \"METH.sol\":45980:45996  data.tAmountSent */\n      dup1\n      mload\n        /* \"METH.sol\":45945:46069  TransferBothExcluded(... */\n      0x40\n      dup1\n      mload\n        /* \"#utility.yul\":2761:2786   */\n      dup3\n      dup2\n      mstore\n        /* \"#utility.yul\":2817:2819   */\n      0x20\n        /* \"#utility.yul\":2802:2820   */\n      dup2\n      add\n        /* \"#utility.yul\":2795:2829   */\n      swap3\n      swap1\n      swap3\n      mstore\n        /* \"METH.sol\":45945:46069  TransferBothExcluded(... */\n      0x2541109a23d530c06d62a3bf63d8d03107194870126fddb7170c0daef360cd8a\n      swap2\n        /* \"#utility.yul\":2734:2752   */\n      add\n        /* \"METH.sol\":45945:46069  TransferBothExcluded(... */\n      tag_392\n        /* \"#utility.yul\":2587:2835   */\n      jump\n        /* \"METH.sol\":46218:47145  function _transferStandard(address sender, address recipient, uint256 tAmount) private {... */\n    tag_361:\n        /* \"METH.sol\":46316:46340  TransferData memory data */\n      tag_428\n      tag_370\n      jump\t// in\n    tag_428:\n        /* \"METH.sol\":46486:46505  1000000000000000000 */\n      0x0de0b6b3a7640000\n        /* \"METH.sol\":46465:46483  rBalanceOf(sender) */\n      tag_429\n        /* \"METH.sol\":46476:46482  sender */\n      dup6\n        /* \"METH.sol\":46465:46475  rBalanceOf */\n      tag_78\n        /* \"METH.sol\":46465:46483  rBalanceOf(sender) */\n      jump\t// in\n    tag_429:\n        /* \"METH.sol\":46465:46505  rBalanceOf(sender) - 1000000000000000000 */\n      tag_430\n      swap2\n      swap1\n      tag_159\n      jump\t// in\n    tag_430:\n        /* \"METH.sol\":46454:46461  tAmount */\n      dup3\n        /* \"METH.sol\":46454:46505  tAmount <= rBalanceOf(sender) - 1000000000000000000 */\n      gt\n      iszero\n        /* \"METH.sol\":46446:46539  require(tAmount <= rBalanceOf(sender) - 1000000000000000000, \"You gotta keep 1 METH always!\") */\n      tag_431\n      jumpi\n      mload(0x40)\n      shl(0xe5, 0x461bcd)\n      dup2\n      mstore\n        /* \"#utility.yul\":13540:13542   */\n      0x20\n        /* \"METH.sol\":46446:46539  require(tAmount <= rBalanceOf(sender) - 1000000000000000000, \"You gotta keep 1 METH always!\") */\n      0x04\n      dup3\n      add\n        /* \"#utility.yul\":13522:13543   */\n      mstore\n        /* \"#utility.yul\":13579:13581   */\n      0x1d\n        /* \"#utility.yul\":13559:13577   */\n      0x24\n      dup3\n      add\n        /* \"#utility.yul\":13552:13582   */\n      mstore\n        /* \"#utility.yul\":13618:13649   */\n      0x596f7520676f747461206b6565702031204d45544820616c7761797321000000\n        /* \"#utility.yul\":13598:13616   */\n      0x44\n      dup3\n      add\n        /* \"#utility.yul\":13591:13650   */\n      mstore\n        /* \"#utility.yul\":13667:13685   */\n      0x64\n      add\n        /* \"METH.sol\":46446:46539  require(tAmount <= rBalanceOf(sender) - 1000000000000000000, \"You gotta keep 1 METH always!\") */\n      tag_171\n        /* \"#utility.yul\":13338:13691   */\n      jump\n        /* \"METH.sol\":46446:46539  require(tAmount <= rBalanceOf(sender) - 1000000000000000000, \"You gotta keep 1 METH always!\") */\n    tag_431:\n        /* \"METH.sol\":46598:46624  data.tAmountSent = tAmount */\n      dup2\n      dup2\n      mstore\n        /* \"METH.sol\":46664:46674  _getRate() */\n      tag_434\n        /* \"METH.sol\":46664:46672  _getRate */\n      tag_108\n        /* \"METH.sol\":46664:46674  _getRate() */\n      jump\t// in\n    tag_434:\n        /* \"METH.sol\":46654:46674  tAmount * _getRate() */\n      tag_435\n      swap1\n        /* \"METH.sol\":46654:46661  tAmount */\n      dup4\n        /* \"METH.sol\":46654:46674  tAmount * _getRate() */\n      tag_378\n      jump\t// in\n    tag_435:\n        /* \"METH.sol\":46635:46651  data.rAmountSent */\n      0x20\n      dup1\n      dup4\n      add\n        /* \"METH.sol\":46635:46674  data.rAmountSent = tAmount * _getRate() */\n      dup3\n      swap1\n      mstore\n      sub(shl(0xa0, 0x01), 0x01)\n        /* \"METH.sol\":46791:46806  _rOwned[sender] */\n      dup7\n      and\n      0x00\n      swap1\n      dup2\n      mstore\n        /* \"METH.sol\":46791:46798  _rOwned */\n      0x6a\n        /* \"METH.sol\":46791:46806  _rOwned[sender] */\n      swap1\n      swap2\n      mstore\n      0x40\n      dup2\n      keccak256\n        /* \"METH.sol\":46791:46826  _rOwned[sender] -= data.rAmountSent */\n      dup1\n      sload\n        /* \"METH.sol\":46791:46806  _rOwned[sender] */\n      swap1\n      swap2\n      swap1\n        /* \"METH.sol\":46791:46826  _rOwned[sender] -= data.rAmountSent */\n      tag_436\n      swap1\n        /* \"METH.sol\":46635:46674  data.rAmountSent = tAmount * _getRate() */\n      dup5\n      swap1\n        /* \"METH.sol\":46791:46826  _rOwned[sender] -= data.rAmountSent */\n      tag_159\n      jump\t// in\n    tag_436:\n      swap1\n      swap2\n      sstore\n      pop\n      pop\n        /* \"METH.sol\":46945:46961  data.rAmountSent */\n      0x20\n      dup1\n      dup3\n      add\n      mload\n      sub(shl(0xa0, 0x01), 0x01)\n        /* \"METH.sol\":46923:46941  _rOwned[recipient] */\n      dup6\n      and\n      0x00\n      swap1\n      dup2\n      mstore\n        /* \"METH.sol\":46923:46930  _rOwned */\n      0x6a\n        /* \"METH.sol\":46923:46941  _rOwned[recipient] */\n      swap1\n      swap3\n      mstore\n      0x40\n      dup3\n      keccak256\n        /* \"METH.sol\":46923:46961  _rOwned[recipient] += data.rAmountSent */\n      dup1\n      sload\n        /* \"METH.sol\":46945:46961  data.rAmountSent */\n      swap2\n      swap3\n        /* \"METH.sol\":46923:46941  _rOwned[recipient] */\n      swap1\n      swap2\n        /* \"METH.sol\":46923:46961  _rOwned[recipient] += data.rAmountSent */\n      tag_437\n      swap1\n        /* \"METH.sol\":46945:46961  data.rAmountSent */\n      dup5\n      swap1\n        /* \"METH.sol\":46923:46961  _rOwned[recipient] += data.rAmountSent */\n      tag_166\n      jump\t// in\n    tag_437:\n      swap1\n      swap2\n      sstore\n      pop\n      pop\n        /* \"METH.sol\":47008:47024  data.tAmountSent */\n      dup1\n      mload\n        /* \"METH.sol\":46979:47026  Transfer(sender, recipient, (data.tAmountSent)) */\n      mload(0x40)\n        /* \"#utility.yul\":1445:1470   */\n      swap1\n      dup2\n      mstore\n      sub(shl(0xa0, 0x01), 0x01)\n        /* \"METH.sol\":46979:47026  Transfer(sender, recipient, (data.tAmountSent)) */\n      dup5\n      dup2\n      and\n      swap2\n      swap1\n      dup7\n      and\n      swap1\n      0x00\n      dup1\n      mload\n      0x20\n      data_ada389e1fc24a8587c776340efb91b36e675792ab631816100d55df0b5cf3cbc\n      dup4\n      codecopy\n      dup2\n      mload\n      swap2\n      mstore\n      swap1\n        /* \"#utility.yul\":1433:1435   */\n      0x20\n        /* \"#utility.yul\":1418:1436   */\n      add\n        /* \"METH.sol\":46979:47026  Transfer(sender, recipient, (data.tAmountSent)) */\n      mload(0x40)\n      dup1\n      swap2\n      sub\n      swap1\n      log3\n        /* \"METH.sol\":47075:47091  data.tAmountSent */\n      dup1\n      mload\n        /* \"METH.sol\":47044:47137  TransferStandard(... */\n      0x40\n      dup1\n      mload\n        /* \"#utility.yul\":2761:2786   */\n      dup3\n      dup2\n      mstore\n        /* \"#utility.yul\":2817:2819   */\n      0x20\n        /* \"#utility.yul\":2802:2820   */\n      dup2\n      add\n        /* \"#utility.yul\":2795:2829   */\n      swap3\n      swap1\n      swap3\n      mstore\n        /* \"METH.sol\":47044:47137  TransferStandard(... */\n      0xd9923e08d9d88ff7a7e9b8460f3163dc6b887fabe315449da3b5cd16bb5e9340\n      swap2\n        /* \"#utility.yul\":2734:2752   */\n      add\n        /* \"METH.sol\":47044:47137  TransferStandard(... */\n      tag_392\n        /* \"#utility.yul\":2587:2835   */\n      jump\n    tag_370:\n      mload(0x40)\n      dup1\n      0x0120\n      add\n      0x40\n      mstore\n      dup1\n      0x00\n      dup2\n      mstore\n      0x20\n      add\n      0x00\n      dup2\n      mstore\n      0x20\n      add\n      0x00\n      dup2\n      mstore\n      0x20\n      add\n      0x00\n      dup2\n      mstore\n      0x20\n      add\n      0x00\n      dup2\n      mstore\n      0x20\n      add\n      0x00\n      dup2\n      mstore\n      0x20\n      add\n      0x00\n      dup2\n      mstore\n      0x20\n      add\n      0x00\n      dup2\n      mstore\n      0x20\n      add\n      0x00\n      dup2\n      mstore\n      pop\n      swap1\n      jump\t// out\n        /* \"#utility.yul\":14:264   */\n    tag_440:\n        /* \"#utility.yul\":99:100   */\n      0x00\n        /* \"#utility.yul\":109:222   */\n    tag_450:\n        /* \"#utility.yul\":123:129   */\n      dup4\n        /* \"#utility.yul\":120:121   */\n      dup2\n        /* \"#utility.yul\":117:130   */\n      lt\n        /* \"#utility.yul\":109:222   */\n      iszero\n      tag_452\n      jumpi\n        /* \"#utility.yul\":199:210   */\n      dup2\n      dup2\n      add\n        /* \"#utility.yul\":193:211   */\n      mload\n        /* \"#utility.yul\":180:191   */\n      dup4\n      dup3\n      add\n        /* \"#utility.yul\":173:212   */\n      mstore\n        /* \"#utility.yul\":145:147   */\n      0x20\n        /* \"#utility.yul\":138:148   */\n      add\n        /* \"#utility.yul\":109:222   */\n      jump(tag_450)\n    tag_452:\n      pop\n      pop\n        /* \"#utility.yul\":256:257   */\n      0x00\n        /* \"#utility.yul\":238:254   */\n      swap2\n      add\n        /* \"#utility.yul\":231:258   */\n      mstore\n        /* \"#utility.yul\":14:264   */\n      jump\t// out\n        /* \"#utility.yul\":269:665   */\n    tag_39:\n        /* \"#utility.yul\":418:420   */\n      0x20\n        /* \"#utility.yul\":407:416   */\n      dup2\n        /* \"#utility.yul\":400:421   */\n      mstore\n        /* \"#utility.yul\":381:385   */\n      0x00\n        /* \"#utility.yul\":450:456   */\n      dup3\n        /* \"#utility.yul\":444:457   */\n      mload\n        /* \"#utility.yul\":493:499   */\n      dup1\n        /* \"#utility.yul\":488:490   */\n      0x20\n        /* \"#utility.yul\":477:486   */\n      dup5\n        /* \"#utility.yul\":473:491   */\n      add\n        /* \"#utility.yul\":466:500   */\n      mstore\n        /* \"#utility.yul\":509:588   */\n      tag_454\n        /* \"#utility.yul\":581:587   */\n      dup2\n        /* \"#utility.yul\":576:578   */\n      0x40\n        /* \"#utility.yul\":565:574   */\n      dup6\n        /* \"#utility.yul\":561:579   */\n      add\n        /* \"#utility.yul\":556:558   */\n      0x20\n        /* \"#utility.yul\":548:554   */\n      dup8\n        /* \"#utility.yul\":544:559   */\n      add\n        /* \"#utility.yul\":509:588   */\n      tag_440\n      jump\t// in\n    tag_454:\n        /* \"#utility.yul\":649:651   */\n      0x1f\n        /* \"#utility.yul\":628:643   */\n      add\n      not(0x1f)\n        /* \"#utility.yul\":624:653   */\n      and\n        /* \"#utility.yul\":609:654   */\n      swap2\n      swap1\n      swap2\n      add\n        /* \"#utility.yul\":656:658   */\n      0x40\n        /* \"#utility.yul\":605:659   */\n      add\n      swap3\n        /* \"#utility.yul\":269:665   */\n      swap2\n      pop\n      pop\n      jump\t// out\n        /* \"#utility.yul\":670:843   */\n    tag_441:\n        /* \"#utility.yul\":738:758   */\n      dup1\n      calldataload\n      sub(shl(0xa0, 0x01), 0x01)\n        /* \"#utility.yul\":787:818   */\n      dup2\n      and\n        /* \"#utility.yul\":777:819   */\n      dup2\n      eq\n        /* \"#utility.yul\":767:837   */\n      tag_181\n      jumpi\n        /* \"#utility.yul\":833:834   */\n      0x00\n        /* \"#utility.yul\":830:831   */\n      dup1\n        /* \"#utility.yul\":823:835   */\n      revert\n        /* \"#utility.yul\":848:1102   */\n    tag_42:\n        /* \"#utility.yul\":916:922   */\n      0x00\n        /* \"#utility.yul\":924:930   */\n      dup1\n        /* \"#utility.yul\":977:979   */\n      0x40\n        /* \"#utility.yul\":965:974   */\n      dup4\n        /* \"#utility.yul\":956:963   */\n      dup6\n        /* \"#utility.yul\":952:975   */\n      sub\n        /* \"#utility.yul\":948:980   */\n      slt\n        /* \"#utility.yul\":945:997   */\n      iszero\n      tag_458\n      jumpi\n        /* \"#utility.yul\":993:994   */\n      0x00\n        /* \"#utility.yul\":990:991   */\n      dup1\n        /* \"#utility.yul\":983:995   */\n      revert\n        /* \"#utility.yul\":945:997   */\n    tag_458:\n        /* \"#utility.yul\":1016:1045   */\n      tag_459\n        /* \"#utility.yul\":1035:1044   */\n      dup4\n        /* \"#utility.yul\":1016:1045   */\n      tag_441\n      jump\t// in\n    tag_459:\n        /* \"#utility.yul\":1006:1045   */\n      swap5\n        /* \"#utility.yul\":1092:1094   */\n      0x20\n        /* \"#utility.yul\":1077:1095   */\n      swap4\n      swap1\n      swap4\n      add\n        /* \"#utility.yul\":1064:1096   */\n      calldataload\n      swap4\n      pop\n      pop\n      pop\n        /* \"#utility.yul\":848:1102   */\n      jump\t// out\n        /* \"#utility.yul\":1481:1809   */\n    tag_52:\n        /* \"#utility.yul\":1558:1564   */\n      0x00\n        /* \"#utility.yul\":1566:1572   */\n      dup1\n        /* \"#utility.yul\":1574:1580   */\n      0x00\n        /* \"#utility.yul\":1627:1629   */\n      0x60\n        /* \"#utility.yul\":1615:1624   */\n      dup5\n        /* \"#utility.yul\":1606:1613   */\n      dup7\n        /* \"#utility.yul\":1602:1625   */\n      sub\n        /* \"#utility.yul\":1598:1630   */\n      slt\n        /* \"#utility.yul\":1595:1647   */\n      iszero\n      tag_463\n      jumpi\n        /* \"#utility.yul\":1643:1644   */\n      0x00\n        /* \"#utility.yul\":1640:1641   */\n      dup1\n        /* \"#utility.yul\":1633:1645   */\n      revert\n        /* \"#utility.yul\":1595:1647   */\n    tag_463:\n        /* \"#utility.yul\":1666:1695   */\n      tag_464\n        /* \"#utility.yul\":1685:1694   */\n      dup5\n        /* \"#utility.yul\":1666:1695   */\n      tag_441\n      jump\t// in\n    tag_464:\n        /* \"#utility.yul\":1656:1695   */\n      swap3\n      pop\n        /* \"#utility.yul\":1714:1752   */\n      tag_465\n        /* \"#utility.yul\":1748:1750   */\n      0x20\n        /* \"#utility.yul\":1737:1746   */\n      dup6\n        /* \"#utility.yul\":1733:1751   */\n      add\n        /* \"#utility.yul\":1714:1752   */\n      tag_441\n      jump\t// in\n    tag_465:\n        /* \"#utility.yul\":1704:1752   */\n      swap2\n      pop\n        /* \"#utility.yul\":1799:1801   */\n      0x40\n        /* \"#utility.yul\":1788:1797   */\n      dup5\n        /* \"#utility.yul\":1784:1802   */\n      add\n        /* \"#utility.yul\":1771:1803   */\n      calldataload\n        /* \"#utility.yul\":1761:1803   */\n      swap1\n      pop\n        /* \"#utility.yul\":1481:1809   */\n      swap3\n      pop\n      swap3\n      pop\n      swap3\n      jump\t// out\n        /* \"#utility.yul\":2003:2183   */\n    tag_68:\n        /* \"#utility.yul\":2062:2068   */\n      0x00\n        /* \"#utility.yul\":2115:2117   */\n      0x20\n        /* \"#utility.yul\":2103:2112   */\n      dup3\n        /* \"#utility.yul\":2094:2101   */\n      dup5\n        /* \"#utility.yul\":2090:2113   */\n      sub\n        /* \"#utility.yul\":2086:2118   */\n      slt\n        /* \"#utility.yul\":2083:2135   */\n      iszero\n      tag_468\n      jumpi\n        /* \"#utility.yul\":2131:2132   */\n      0x00\n        /* \"#utility.yul\":2128:2129   */\n      dup1\n        /* \"#utility.yul\":2121:2133   */\n      revert\n        /* \"#utility.yul\":2083:2135   */\n    tag_468:\n      pop\n        /* \"#utility.yul\":2154:2177   */\n      calldataload\n      swap2\n        /* \"#utility.yul\":2003:2183   */\n      swap1\n      pop\n      jump\t// out\n        /* \"#utility.yul\":2396:2582   */\n    tag_77:\n        /* \"#utility.yul\":2455:2461   */\n      0x00\n        /* \"#utility.yul\":2508:2510   */\n      0x20\n        /* \"#utility.yul\":2496:2505   */\n      dup3\n        /* \"#utility.yul\":2487:2494   */\n      dup5\n        /* \"#utility.yul\":2483:2506   */\n      sub\n        /* \"#utility.yul\":2479:2511   */\n      slt\n        /* \"#utility.yul\":2476:2528   */\n      iszero\n      tag_471\n      jumpi\n        /* \"#utility.yul\":2524:2525   */\n      0x00\n        /* \"#utility.yul\":2521:2522   */\n      dup1\n        /* \"#utility.yul\":2514:2526   */\n      revert\n        /* \"#utility.yul\":2476:2528   */\n    tag_471:\n        /* \"#utility.yul\":2547:2576   */\n      tag_472\n        /* \"#utility.yul\":2566:2575   */\n      dup3\n        /* \"#utility.yul\":2547:2576   */\n      tag_441\n      jump\t// in\n    tag_472:\n        /* \"#utility.yul\":2537:2576   */\n      swap4\n        /* \"#utility.yul\":2396:2582   */\n      swap3\n      pop\n      pop\n      pop\n      jump\t// out\n        /* \"#utility.yul\":2840:3113   */\n    tag_99:\n        /* \"#utility.yul\":2896:2902   */\n      0x00\n        /* \"#utility.yul\":2949:2951   */\n      0x20\n        /* \"#utility.yul\":2937:2946   */\n      dup3\n        /* \"#utility.yul\":2928:2935   */\n      dup5\n        /* \"#utility.yul\":2924:2947   */\n      sub\n        /* \"#utility.yul\":2920:2952   */\n      slt\n        /* \"#utility.yul\":2917:2969   */\n      iszero\n      tag_475\n      jumpi\n        /* \"#utility.yul\":2965:2966   */\n      0x00\n        /* \"#utility.yul\":2962:2963   */\n      dup1\n        /* \"#utility.yul\":2955:2967   */\n      revert\n        /* \"#utility.yul\":2917:2969   */\n    tag_475:\n        /* \"#utility.yul\":3004:3013   */\n      dup2\n        /* \"#utility.yul\":2991:3014   */\n      calldataload\n        /* \"#utility.yul\":3057:3062   */\n      dup1\n        /* \"#utility.yul\":3050:3063   */\n      iszero\n        /* \"#utility.yul\":3043:3064   */\n      iszero\n        /* \"#utility.yul\":3036:3041   */\n      dup2\n        /* \"#utility.yul\":3033:3065   */\n      eq\n        /* \"#utility.yul\":3023:3083   */\n      tag_472\n      jumpi\n        /* \"#utility.yul\":3079:3080   */\n      0x00\n        /* \"#utility.yul\":3076:3077   */\n      dup1\n        /* \"#utility.yul\":3069:3081   */\n      revert\n        /* \"#utility.yul\":3118:3378   */\n    tag_133:\n        /* \"#utility.yul\":3186:3192   */\n      0x00\n        /* \"#utility.yul\":3194:3200   */\n      dup1\n        /* \"#utility.yul\":3247:3249   */\n      0x40\n        /* \"#utility.yul\":3235:3244   */\n      dup4\n        /* \"#utility.yul\":3226:3233   */\n      dup6\n        /* \"#utility.yul\":3222:3245   */\n      sub\n        /* \"#utility.yul\":3218:3250   */\n      slt\n        /* \"#utility.yul\":3215:3267   */\n      iszero\n      tag_478\n      jumpi\n        /* \"#utility.yul\":3263:3264   */\n      0x00\n        /* \"#utility.yul\":3260:3261   */\n      dup1\n        /* \"#utility.yul\":3253:3265   */\n      revert\n        /* \"#utility.yul\":3215:3267   */\n    tag_478:\n        /* \"#utility.yul\":3286:3315   */\n      tag_479\n        /* \"#utility.yul\":3305:3314   */\n      dup4\n        /* \"#utility.yul\":3286:3315   */\n      tag_441\n      jump\t// in\n    tag_479:\n        /* \"#utility.yul\":3276:3315   */\n      swap2\n      pop\n        /* \"#utility.yul\":3334:3372   */\n      tag_480\n        /* \"#utility.yul\":3368:3370   */\n      0x20\n        /* \"#utility.yul\":3357:3366   */\n      dup5\n        /* \"#utility.yul\":3353:3371   */\n      add\n        /* \"#utility.yul\":3334:3372   */\n      tag_441\n      jump\t// in\n    tag_480:\n        /* \"#utility.yul\":3324:3372   */\n      swap1\n      pop\n        /* \"#utility.yul\":3118:3378   */\n      swap3\n      pop\n      swap3\n      swap1\n      pop\n      jump\t// out\n        /* \"#utility.yul\":3383:3763   */\n    tag_141:\n        /* \"#utility.yul\":3462:3463   */\n      0x01\n        /* \"#utility.yul\":3458:3470   */\n      dup2\n      dup2\n      shr\n      swap1\n        /* \"#utility.yul\":3505:3517   */\n      dup3\n      and\n      dup1\n        /* \"#utility.yul\":3526:3587   */\n      tag_482\n      jumpi\n        /* \"#utility.yul\":3580:3584   */\n      0x7f\n        /* \"#utility.yul\":3572:3578   */\n      dup3\n        /* \"#utility.yul\":3568:3585   */\n      and\n        /* \"#utility.yul\":3558:3585   */\n      swap2\n      pop\n        /* \"#utility.yul\":3526:3587   */\n    tag_482:\n        /* \"#utility.yul\":3633:3635   */\n      0x20\n        /* \"#utility.yul\":3625:3631   */\n      dup3\n        /* \"#utility.yul\":3622:3636   */\n      lt\n        /* \"#utility.yul\":3602:3620   */\n      dup2\n        /* \"#utility.yul\":3599:3637   */\n      sub\n        /* \"#utility.yul\":3596:3757   */\n      tag_483\n      jumpi\n        /* \"#utility.yul\":3679:3689   */\n      0x4e487b71\n        /* \"#utility.yul\":3674:3677   */\n      0xe0\n        /* \"#utility.yul\":3670:3690   */\n      shl\n        /* \"#utility.yul\":3667:3668   */\n      0x00\n        /* \"#utility.yul\":3660:3691   */\n      mstore\n        /* \"#utility.yul\":3714:3718   */\n      0x22\n        /* \"#utility.yul\":3711:3712   */\n      0x04\n        /* \"#utility.yul\":3704:3719   */\n      mstore\n        /* \"#utility.yul\":3742:3746   */\n      0x24\n        /* \"#utility.yul\":3739:3740   */\n      0x00\n        /* \"#utility.yul\":3732:3747   */\n      revert\n        /* \"#utility.yul\":3596:3757   */\n    tag_483:\n      pop\n        /* \"#utility.yul\":3383:3763   */\n      swap2\n      swap1\n      pop\n      jump\t// out\n        /* \"#utility.yul\":3768:3895   */\n    tag_442:\n        /* \"#utility.yul\":3829:3839   */\n      0x4e487b71\n        /* \"#utility.yul\":3824:3827   */\n      0xe0\n        /* \"#utility.yul\":3820:3840   */\n      shl\n        /* \"#utility.yul\":3817:3818   */\n      0x00\n        /* \"#utility.yul\":3810:3841   */\n      mstore\n        /* \"#utility.yul\":3860:3864   */\n      0x11\n        /* \"#utility.yul\":3857:3858   */\n      0x04\n        /* \"#utility.yul\":3850:3865   */\n      mstore\n        /* \"#utility.yul\":3884:3888   */\n      0x24\n        /* \"#utility.yul\":3881:3882   */\n      0x00\n        /* \"#utility.yul\":3874:3889   */\n      revert\n        /* \"#utility.yul\":3900:4028   */\n    tag_159:\n        /* \"#utility.yul\":3967:3976   */\n      dup2\n      dup2\n      sub\n        /* \"#utility.yul\":3988:3999   */\n      dup2\n      dup2\n      gt\n        /* \"#utility.yul\":3985:4022   */\n      iszero\n      tag_146\n      jumpi\n        /* \"#utility.yul\":4002:4020   */\n      tag_146\n      tag_442\n      jump\t// in\n        /* \"#utility.yul\":4033:4158   */\n    tag_166:\n        /* \"#utility.yul\":4098:4107   */\n      dup1\n      dup3\n      add\n        /* \"#utility.yul\":4119:4129   */\n      dup1\n      dup3\n      gt\n        /* \"#utility.yul\":4116:4152   */\n      iszero\n      tag_146\n      jumpi\n        /* \"#utility.yul\":4132:4150   */\n      tag_146\n      tag_442\n      jump\t// in\n        /* \"#utility.yul\":4574:4701   */\n    tag_443:\n        /* \"#utility.yul\":4635:4645   */\n      0x4e487b71\n        /* \"#utility.yul\":4630:4633   */\n      0xe0\n        /* \"#utility.yul\":4626:4646   */\n      shl\n        /* \"#utility.yul\":4623:4624   */\n      0x00\n        /* \"#utility.yul\":4616:4647   */\n      mstore\n        /* \"#utility.yul\":4666:4670   */\n      0x12\n        /* \"#utility.yul\":4663:4664   */\n      0x04\n        /* \"#utility.yul\":4656:4671   */\n      mstore\n        /* \"#utility.yul\":4690:4694   */\n      0x24\n        /* \"#utility.yul\":4687:4688   */\n      0x00\n        /* \"#utility.yul\":4680:4695   */\n      revert\n        /* \"#utility.yul\":4706:4826   */\n    tag_177:\n        /* \"#utility.yul\":4746:4747   */\n      0x00\n        /* \"#utility.yul\":4772:4773   */\n      dup3\n        /* \"#utility.yul\":4762:4797   */\n      tag_495\n      jumpi\n        /* \"#utility.yul\":4777:4795   */\n      tag_495\n      tag_443\n      jump\t// in\n    tag_495:\n      pop\n        /* \"#utility.yul\":4811:4820   */\n      div\n      swap1\n        /* \"#utility.yul\":4706:4826   */\n      jump\t// out\n        /* \"#utility.yul\":5246:5373   */\n    tag_444:\n        /* \"#utility.yul\":5307:5317   */\n      0x4e487b71\n        /* \"#utility.yul\":5302:5305   */\n      0xe0\n        /* \"#utility.yul\":5298:5318   */\n      shl\n        /* \"#utility.yul\":5295:5296   */\n      0x00\n        /* \"#utility.yul\":5288:5319   */\n      mstore\n        /* \"#utility.yul\":5338:5342   */\n      0x41\n        /* \"#utility.yul\":5335:5336   */\n      0x04\n        /* \"#utility.yul\":5328:5343   */\n      mstore\n        /* \"#utility.yul\":5362:5366   */\n      0x24\n        /* \"#utility.yul\":5359:5360   */\n      0x00\n        /* \"#utility.yul\":5352:5367   */\n      revert\n        /* \"#utility.yul\":5504:6022   */\n    tag_446:\n        /* \"#utility.yul\":5606:5608   */\n      0x1f\n        /* \"#utility.yul\":5601:5604   */\n      dup3\n        /* \"#utility.yul\":5598:5609   */\n      gt\n        /* \"#utility.yul\":5595:6016   */\n      iszero\n      tag_347\n      jumpi\n        /* \"#utility.yul\":5642:5647   */\n      dup1\n        /* \"#utility.yul\":5639:5640   */\n      0x00\n        /* \"#utility.yul\":5632:5648   */\n      mstore\n        /* \"#utility.yul\":5686:5690   */\n      0x20\n        /* \"#utility.yul\":5683:5684   */\n      0x00\n        /* \"#utility.yul\":5673:5691   */\n      keccak256\n        /* \"#utility.yul\":5756:5758   */\n      0x1f\n        /* \"#utility.yul\":5744:5754   */\n      dup5\n        /* \"#utility.yul\":5740:5759   */\n      add\n        /* \"#utility.yul\":5737:5738   */\n      0x05\n        /* \"#utility.yul\":5733:5760   */\n      shr\n        /* \"#utility.yul\":5727:5731   */\n      dup2\n        /* \"#utility.yul\":5723:5761   */\n      add\n        /* \"#utility.yul\":5792:5796   */\n      0x20\n        /* \"#utility.yul\":5780:5790   */\n      dup6\n        /* \"#utility.yul\":5777:5797   */\n      lt\n        /* \"#utility.yul\":5774:5821   */\n      iszero\n      tag_501\n      jumpi\n      pop\n        /* \"#utility.yul\":5815:5819   */\n      dup1\n        /* \"#utility.yul\":5774:5821   */\n    tag_501:\n        /* \"#utility.yul\":5870:5872   */\n      0x1f\n        /* \"#utility.yul\":5865:5868   */\n      dup5\n        /* \"#utility.yul\":5861:5873   */\n      add\n        /* \"#utility.yul\":5858:5859   */\n      0x05\n        /* \"#utility.yul\":5854:5874   */\n      shr\n        /* \"#utility.yul\":5848:5852   */\n      dup3\n        /* \"#utility.yul\":5844:5875   */\n      add\n        /* \"#utility.yul\":5834:5875   */\n      swap2\n      pop\n        /* \"#utility.yul\":5925:6006   */\n    tag_502:\n        /* \"#utility.yul\":5943:5945   */\n      dup2\n        /* \"#utility.yul\":5936:5941   */\n      dup2\n        /* \"#utility.yul\":5933:5946   */\n      lt\n        /* \"#utility.yul\":5925:6006   */\n      iszero\n      tag_504\n      jumpi\n        /* \"#utility.yul\":6002:6003   */\n      0x00\n        /* \"#utility.yul\":5988:6004   */\n      dup2\n      sstore\n        /* \"#utility.yul\":5969:5970   */\n      0x01\n        /* \"#utility.yul\":5958:5971   */\n      add\n        /* \"#utility.yul\":5925:6006   */\n      jump(tag_502)\n    tag_504:\n        /* \"#utility.yul\":5929:5932   */\n      pop\n      pop\n        /* \"#utility.yul\":5504:6022   */\n      pop\n      pop\n      pop\n      jump\t// out\n        /* \"#utility.yul\":6198:7543   */\n    tag_204:\n        /* \"#utility.yul\":6324:6327   */\n      dup2\n        /* \"#utility.yul\":6318:6328   */\n      mload\n        /* \"#utility.yul\":6351:6369   */\n      0xffffffffffffffff\n        /* \"#utility.yul\":6343:6349   */\n      dup2\n        /* \"#utility.yul\":6340:6370   */\n      gt\n        /* \"#utility.yul\":6337:6393   */\n      iszero\n      tag_508\n      jumpi\n        /* \"#utility.yul\":6373:6391   */\n      tag_508\n      tag_444\n      jump\t// in\n    tag_508:\n        /* \"#utility.yul\":6402:6499   */\n      tag_509\n        /* \"#utility.yul\":6492:6498   */\n      dup2\n        /* \"#utility.yul\":6452:6490   */\n      tag_510\n        /* \"#utility.yul\":6484:6488   */\n      dup5\n        /* \"#utility.yul\":6478:6489   */\n      sload\n        /* \"#utility.yul\":6452:6490   */\n      tag_141\n      jump\t// in\n    tag_510:\n        /* \"#utility.yul\":6446:6450   */\n      dup5\n        /* \"#utility.yul\":6402:6499   */\n      tag_446\n      jump\t// in\n    tag_509:\n        /* \"#utility.yul\":6554:6558   */\n      0x20\n      dup1\n        /* \"#utility.yul\":6611:6613   */\n      0x1f\n        /* \"#utility.yul\":6600:6614   */\n      dup4\n      gt\n        /* \"#utility.yul\":6628:6629   */\n      0x01\n        /* \"#utility.yul\":6623:7286   */\n      dup2\n      eq\n      tag_512\n      jumpi\n        /* \"#utility.yul\":7330:7331   */\n      0x00\n        /* \"#utility.yul\":7347:7353   */\n      dup5\n        /* \"#utility.yul\":7344:7433   */\n      iszero\n      tag_513\n      jumpi\n      pop\n        /* \"#utility.yul\":7399:7418   */\n      dup6\n      dup4\n      add\n        /* \"#utility.yul\":7393:7419   */\n      mload\n        /* \"#utility.yul\":7344:7433   */\n    tag_513:\n      not(0x00)\n        /* \"#utility.yul\":6155:6156   */\n      0x03\n        /* \"#utility.yul\":6151:6162   */\n      dup7\n      swap1\n      shl\n        /* \"#utility.yul\":6147:6171   */\n      shr\n        /* \"#utility.yul\":6143:6172   */\n      not\n        /* \"#utility.yul\":6133:6173   */\n      and\n        /* \"#utility.yul\":6179:6180   */\n      0x01\n        /* \"#utility.yul\":6175:6186   */\n      dup6\n      swap1\n      shl\n        /* \"#utility.yul\":6130:6187   */\n      or\n        /* \"#utility.yul\":7446:7527   */\n      dup6\n      sstore\n        /* \"#utility.yul\":6593:7537   */\n      jump(tag_511)\n        /* \"#utility.yul\":6623:7286   */\n    tag_512:\n        /* \"#utility.yul\":5451:5452   */\n      0x00\n        /* \"#utility.yul\":5444:5458   */\n      dup6\n      dup2\n      mstore\n        /* \"#utility.yul\":5488:5492   */\n      0x20\n        /* \"#utility.yul\":5475:5493   */\n      dup2\n      keccak256\n      not(0x1f)\n        /* \"#utility.yul\":6659:6679   */\n      dup7\n      and\n      swap2\n        /* \"#utility.yul\":6777:7013   */\n    tag_516:\n        /* \"#utility.yul\":6791:6798   */\n      dup3\n        /* \"#utility.yul\":6788:6789   */\n      dup2\n        /* \"#utility.yul\":6785:6799   */\n      lt\n        /* \"#utility.yul\":6777:7013   */\n      iszero\n      tag_518\n      jumpi\n        /* \"#utility.yul\":6880:6899   */\n      dup9\n      dup7\n      add\n        /* \"#utility.yul\":6874:6900   */\n      mload\n        /* \"#utility.yul\":6859:6901   */\n      dup3\n      sstore\n        /* \"#utility.yul\":6972:6999   */\n      swap5\n      dup5\n      add\n      swap5\n        /* \"#utility.yul\":6940:6941   */\n      0x01\n        /* \"#utility.yul\":6928:6942   */\n      swap1\n      swap2\n      add\n      swap1\n        /* \"#utility.yul\":6807:6826   */\n      dup5\n      add\n        /* \"#utility.yul\":6777:7013   */\n      jump(tag_516)\n    tag_518:\n        /* \"#utility.yul\":6781:6784   */\n      pop\n        /* \"#utility.yul\":7041:7047   */\n      dup6\n        /* \"#utility.yul\":7032:7039   */\n      dup3\n        /* \"#utility.yul\":7029:7048   */\n      lt\n        /* \"#utility.yul\":7026:7227   */\n      iszero\n      tag_519\n      jumpi\n        /* \"#utility.yul\":7102:7121   */\n      dup8\n      dup6\n      add\n        /* \"#utility.yul\":7096:7122   */\n      mload\n      not(0x00)\n        /* \"#utility.yul\":7185:7186   */\n      0x03\n        /* \"#utility.yul\":7181:7195   */\n      dup9\n      swap1\n      shl\n        /* \"#utility.yul\":7197:7200   */\n      0xf8\n        /* \"#utility.yul\":7177:7201   */\n      and\n        /* \"#utility.yul\":7173:7210   */\n      shr\n        /* \"#utility.yul\":7169:7211   */\n      not\n        /* \"#utility.yul\":7154:7212   */\n      and\n        /* \"#utility.yul\":7139:7213   */\n      dup2\n      sstore\n        /* \"#utility.yul\":7026:7227   */\n    tag_519:\n      pop\n      pop\n        /* \"#utility.yul\":7273:7274   */\n      0x01\n        /* \"#utility.yul\":7264:7270   */\n      dup5\n        /* \"#utility.yul\":7261:7262   */\n      0x01\n        /* \"#utility.yul\":7257:7271   */\n      shl\n        /* \"#utility.yul\":7253:7275   */\n      add\n        /* \"#utility.yul\":7247:7251   */\n      dup6\n        /* \"#utility.yul\":7240:7276   */\n      sstore\n        /* \"#utility.yul\":6593:7537   */\n    tag_511:\n      pop\n      pop\n      pop\n      pop\n        /* \"#utility.yul\":6198:7543   */\n      pop\n      pop\n      jump\t// out\n        /* \"#utility.yul\":7548:7660   */\n    tag_207:\n        /* \"#utility.yul\":7580:7581   */\n      0x00\n        /* \"#utility.yul\":7606:7607   */\n      dup3\n        /* \"#utility.yul\":7596:7631   */\n      tag_522\n      jumpi\n        /* \"#utility.yul\":7611:7629   */\n      tag_522\n      tag_443\n      jump\t// in\n    tag_522:\n      pop\n        /* \"#utility.yul\":7645:7654   */\n      mod\n      swap1\n        /* \"#utility.yul\":7548:7660   */\n      jump\t// out\n        /* \"#utility.yul\":7864:7991   */\n    tag_234:\n        /* \"#utility.yul\":7925:7935   */\n      0x4e487b71\n        /* \"#utility.yul\":7920:7923   */\n      0xe0\n        /* \"#utility.yul\":7916:7936   */\n      shl\n        /* \"#utility.yul\":7913:7914   */\n      0x00\n        /* \"#utility.yul\":7906:7937   */\n      mstore\n        /* \"#utility.yul\":7956:7960   */\n      0x32\n        /* \"#utility.yul\":7953:7954   */\n      0x04\n        /* \"#utility.yul\":7946:7961   */\n      mstore\n        /* \"#utility.yul\":7980:7984   */\n      0x24\n        /* \"#utility.yul\":7977:7978   */\n      0x00\n        /* \"#utility.yul\":7970:7985   */\n      revert\n        /* \"#utility.yul\":10431:10835   */\n    tag_301:\n        /* \"#utility.yul\":10633:10635   */\n      0x20\n        /* \"#utility.yul\":10615:10636   */\n      dup1\n      dup3\n      mstore\n        /* \"#utility.yul\":10672:10674   */\n      0x28\n        /* \"#utility.yul\":10652:10670   */\n      swap1\n      dup3\n      add\n        /* \"#utility.yul\":10645:10675   */\n      mstore\n        /* \"#utility.yul\":10711:10745   */\n      0x5472616e7366657220616d6f756e74206578636565647320746865206d617854\n        /* \"#utility.yul\":10706:10708   */\n      0x40\n        /* \"#utility.yul\":10691:10709   */\n      dup3\n      add\n        /* \"#utility.yul\":10684:10746   */\n      mstore\n      shl(0xc1, 0x3c20b6b7bab73a17)\n        /* \"#utility.yul\":10777:10779   */\n      0x60\n        /* \"#utility.yul\":10762:10780   */\n      dup3\n      add\n        /* \"#utility.yul\":10755:10793   */\n      mstore\n        /* \"#utility.yul\":10825:10828   */\n      0x80\n        /* \"#utility.yul\":10810:10829   */\n      add\n      swap1\n        /* \"#utility.yul\":10431:10835   */\n      jump\t// out\n        /* \"#utility.yul\":11201:11608   */\n    tag_323:\n        /* \"#utility.yul\":11403:11405   */\n      0x20\n        /* \"#utility.yul\":11385:11406   */\n      dup1\n      dup3\n      mstore\n        /* \"#utility.yul\":11442:11444   */\n      0x2b\n        /* \"#utility.yul\":11422:11440   */\n      swap1\n      dup3\n      add\n        /* \"#utility.yul\":11415:11445   */\n      mstore\n        /* \"#utility.yul\":11481:11515   */\n      0x496e697469616c697a61626c653a20636f6e7472616374206973206e6f742069\n        /* \"#utility.yul\":11476:11478   */\n      0x40\n        /* \"#utility.yul\":11461:11479   */\n      dup3\n      add\n        /* \"#utility.yul\":11454:11516   */\n      mstore\n      shl(0xa8, 0x6e697469616c697a696e67)\n        /* \"#utility.yul\":11547:11549   */\n      0x60\n        /* \"#utility.yul\":11532:11550   */\n      dup3\n      add\n        /* \"#utility.yul\":11525:11566   */\n      mstore\n        /* \"#utility.yul\":11598:11601   */\n      0x80\n        /* \"#utility.yul\":11583:11602   */\n      add\n      swap1\n        /* \"#utility.yul\":11201:11608   */\n      jump\t// out\n        /* \"#utility.yul\":11613:11900   */\n    tag_329:\n        /* \"#utility.yul\":11742:11745   */\n      0x00\n        /* \"#utility.yul\":11780:11786   */\n      dup3\n        /* \"#utility.yul\":11774:11787   */\n      mload\n        /* \"#utility.yul\":11796:11862   */\n      tag_535\n        /* \"#utility.yul\":11855:11861   */\n      dup2\n        /* \"#utility.yul\":11850:11853   */\n      dup5\n        /* \"#utility.yul\":11843:11847   */\n      0x20\n        /* \"#utility.yul\":11835:11841   */\n      dup8\n        /* \"#utility.yul\":11831:11848   */\n      add\n        /* \"#utility.yul\":11796:11862   */\n      tag_440\n      jump\t// in\n    tag_535:\n        /* \"#utility.yul\":11878:11894   */\n      swap2\n      swap1\n      swap2\n      add\n      swap3\n        /* \"#utility.yul\":11613:11900   */\n      swap2\n      pop\n      pop\n      jump\t// out\n        /* \"#utility.yul\":12738:12906   */\n    tag_378:\n        /* \"#utility.yul\":12811:12820   */\n      dup1\n      dup3\n      mul\n        /* \"#utility.yul\":12842:12851   */\n      dup2\n      iszero\n        /* \"#utility.yul\":12859:12874   */\n      dup3\n      dup3\n      div\n        /* \"#utility.yul\":12853:12875   */\n      dup5\n      eq\n        /* \"#utility.yul\":12839:12876   */\n      or\n        /* \"#utility.yul\":12829:12900   */\n      tag_146\n      jumpi\n        /* \"#utility.yul\":12880:12898   */\n      tag_146\n      tag_442\n      jump\t// in\n    stop\n    data_ada389e1fc24a8587c776340efb91b36e675792ab631816100d55df0b5cf3cbc ddf252ad1be2c89b69c2b068fc378daa952ba7f163c4a11628f55a4df523b3ef\n\n    auxdata: 0xa26469706673582212204554e5b0f6426765178e5f7312fdff93570d7615d0349f198c19856faf32ae4b64736f6c63430008180033\n}\n",
				"bytecode": {
					"linkReferences": {},
					"object": "60806040526072805461ff001916905534801561001a575f80fd5b50611f91806100285f395ff3fe608060405234801561000f575f80fd5b50600436106101a1575f3560e01c806380da2287116100f357806397a9d56011610093578063af465a271161006e578063af465a271461038c578063cba0e99614610395578063dd62ed3e146103c0578063f2fde38b146103f8575f80fd5b806397a9d5601461035e578063a457c2d714610366578063a9059cbb14610379575f80fd5b80638c0b5e22116100ce5780638c0b5e22146103345780638da5cb5b1461033d57806394e107841461034e57806395d89b4114610356575f80fd5b806380da2287146102cf5780638129fc1c1461031957806383f24c0914610321575f80fd5b806345e0b9d41161015e5780635319e78f116101395780635319e78f14610274578063658c27a91461028757806370a08231146102b2578063715018a6146102c5575f80fd5b806345e0b9d4146102335780634d09deb31461023c5780634dacf3f514610267575f80fd5b806306fdde03146101a5578063095ea7b3146101c357806318160ddd146101e657806323b872dd146101f8578063313ce5671461020b5780633950935114610220575b5f80fd5b6101ad61040b565b6040516101ba9190611b67565b60405180910390f35b6101d66101d1366004611baf565b61049b565b60405190151581526020016101ba565b606f545b6040519081526020016101ba565b6101d6610206366004611bd7565b6104b1565b60675460405160ff90911681526020016101ba565b6101d661022e366004611baf565b610501565b6101ea60705481565b61024f61024a366004611c10565b610537565b6040516001600160a01b0390911681526020016101ba565b6072546101d69060ff1681565b6101ea610282366004611c27565b61055f565b6101d6610295366004611c27565b6001600160a01b03165f908152606d602052604090205460ff1690565b6101ea6102c0366004611c27565b61060e565b6102cd610657565b005b6103046102dd366004611c27565b6001600160a01b03165f90815260696020908152604080832054606a909252909120549091565b604080519283526020830191909152016101ba565b6102cd61066a565b6102cd61032f366004611c47565b610927565b6101ea60715481565b6033546001600160a01b031661024f565b6101ea610942565b6101ad610963565b610304610972565b6101d6610374366004611baf565b610a26565b6101d6610387366004611baf565b610a5c565b6101ea606f5481565b6101d66103a3366004611c27565b6001600160a01b03165f908152606c602052604090205460ff1690565b6101ea6103ce366004611c66565b6001600160a01b039182165f908152606b6020908152604080832093909416825291909152205490565b6102cd610406366004611c27565b610a68565b60606065805461041a90611c97565b80601f016020809104026020016040519081016040528092919081815260200182805461044690611c97565b80156104915780601f1061046857610100808354040283529160200191610491565b820191905f5260205f20905b81548152906001019060200180831161047457829003601f168201915b5050505050905090565b5f6104a7338484610ade565b5060015b92915050565b5f6104bd848484610c01565b6001600160a01b0384165f908152606b60209081526040808320338085529252909120546104f79186916104f2908690611ce3565b610ade565b5060019392505050565b335f818152606b602090815260408083206001600160a01b038716845290915281205490916104a79185906104f2908690611cf6565b60688181548110610546575f80fd5b5f918252602090912001546001600160a01b0316905081565b6001600160a01b0381165f908152606a60205260408120546070548111156105e15760405162461bcd60e51b815260206004820152602a60248201527f416d6f756e74206d757374206265206c657373207468616e20746f74616c207260448201526965666c656374696f6e7360b01b60648201526084015b60405180910390fd5b5f6105ea610942565b9050815f036105fc57505f9392505050565b6106068183611d1d565b949350505050565b6001600160a01b0381165f908152606c602052604081205460ff161561064957506001600160a01b03165f9081526069602052604090205490565b6104ab8261055f565b919050565b61065f610f70565b6106685f610fca565b565b5f54610100900460ff161580801561068857505f54600160ff909116105b806106a15750303b1580156106a157505f5460ff166001145b6107045760405162461bcd60e51b815260206004820152602e60248201527f496e697469616c697a61626c653a20636f6e747261637420697320616c72656160448201526d191e481a5b9a5d1a585b1a5e995960921b60648201526084016105d8565b5f805460ff191660011790558015610725575f805461ff0019166101001790555b61072d61101b565b60408051808201909152600481526309a8aa8960e31b60208201526065906107559082611d8f565b5060408051808201909152600481526309a8aa8960e31b602082015260669061077e9082611d8f565b506067805460ff191660121790556b204fce5e3e25026110000000606f8190555f19606e8190556107af9190611e4f565b606e546107bc9190611ce3565b6070819055606a5f6107d66033546001600160a01b031690565b6001600160a01b031681526020808201929092526040015f90812092909255606f54607155606c90527f7febd347df14ea35c529e50fb2dd629d4a6226f5ccc893710fb466f8b83823fc805460ff1990811660019081179092557f8c482e007f935c93984ddf7a647e33ef99566883ffae3563aa616dc14d1632f780548216831790557fb6e99d88b536ae7728c4b89ca5a6073cf06fd2059e0aff5b1a4de2c799d9cb968054821683179055610369909252607280549092161790556108a46033546001600160a01b031690565b6001600160a01b03165f6001600160a01b03165f80516020611f3c833981519152606f546040516108d791815260200190565b60405180910390a38015610924575f805461ff0019169055604051600181527f7f26b83ff96e1f2b6a682f133852f6798a09c465da95921460cefb38474024989060200160405180910390a15b50565b61092f610f70565b6072805460ff1916911515919091179055565b5f805f61094d610972565b909250905061095c8183611d1d565b9250505090565b60606066805461041a90611c97565b607054606f545f918291825b606854811015610a1c57606a5f6068838154811061099e5761099e611e62565b5f9182526020808320909101546001600160a01b031683528201929092526040019020546109cc9084611ce3565b925060695f606883815481106109e4576109e4611e62565b5f9182526020808320909101546001600160a01b03168352820192909252604001902054610a129083611ce3565b915060010161097e565b5090939092509050565b335f818152606b602090815260408083206001600160a01b038716845290915281205490916104a79185906104f2908690611ce3565b5f6104a7338484610c01565b610a70610f70565b6001600160a01b038116610ad55760405162461bcd60e51b815260206004820152602660248201527f4f776e61626c653a206e6577206f776e657220697320746865207a65726f206160448201526564647265737360d01b60648201526084016105d8565b61092481610fca565b6001600160a01b038316610b405760405162461bcd60e51b8152602060048201526024808201527f45524332303a20617070726f76652066726f6d20746865207a65726f206164646044820152637265737360e01b60648201526084016105d8565b6001600160a01b038216610ba15760405162461bcd60e51b815260206004820152602260248201527f45524332303a20617070726f766520746f20746865207a65726f206164647265604482015261737360f01b60648201526084016105d8565b6001600160a01b038381165f818152606b602090815260408083209487168084529482529182902085905590518481527f8c5be1e5ebec7d5bd14f71427d1e84f3dd0314c0f7b2291e5b200ac8c7c3b925910160405180910390a3505050565b607254610100900460ff1615610c15575f80fd5b6072805461ff0019166101001790556001600160a01b038316610c885760405162461bcd60e51b815260206004820152602560248201527f45524332303a207472616e736665722066726f6d20746865207a65726f206164604482015264647265737360d81b60648201526084016105d8565b6001600160a01b038216610cea5760405162461bcd60e51b815260206004820152602360248201527f45524332303a207472616e7366657220746f20746865207a65726f206164647260448201526265737360e81b60648201526084016105d8565b5f8111610d4b5760405162461bcd60e51b815260206004820152602960248201527f5472616e7366657220616d6f756e74206d7573742062652067726561746572206044820152687468616e207a65726f60b81b60648201526084016105d8565b610d5483611049565b15156001148015610d7d57506001600160a01b0383165f908152606d602052604090205460ff16155b8015610da157506001600160a01b0383165f908152606c602052604090205460ff16155b15610db857610daf836110e2565b610db88361116d565b610dc182611049565b15156001148015610dea57506001600160a01b0382165f908152606d602052604090205460ff16155b8015610e0e57506001600160a01b0382165f908152606c602052604090205460ff16155b15610e2557610e1c826110e2565b610e258261116d565b6033546001600160a01b03848116911614801590610e5157506033546001600160a01b03838116911614155b15610ebd576001600160a01b0383165f908152606d602052604090205460ff16158015610e9657506001600160a01b0382165f908152606d602052604090205460ff16155b15610ebd57607154811115610ebd5760405162461bcd60e51b81526004016105d890611e76565b6033546001600160a01b03848116911614801590610ee957506033546001600160a01b03838116911614155b15610f55576001600160a01b0383165f908152606d602052604090205460ff16158015610f2e57506001600160a01b0382165f908152606d602052604090205460ff16155b15610f5557607154811115610f555760405162461bcd60e51b81526004016105d890611e76565b610f60838383611279565b50506072805461ff001916905550565b6033546001600160a01b031633146106685760405162461bcd60e51b815260206004820181905260248201527f4f776e61626c653a2063616c6c6572206973206e6f7420746865206f776e657260448201526064016105d8565b603380546001600160a01b038381166001600160a01b0319831681179093556040519116919082907f8be0079c531659141344cd1fd0a4f28419497f9722a3daafe3b4186f6b6457e0905f90a35050565b5f54610100900460ff166110415760405162461bcd60e51b81526004016105d890611ebe565b610668611375565b60408051600481526024810182526020810180516001600160e01b031663c45a015560e01b17905290515f91829182916001600160a01b0386169161108e9190611f09565b5f60405180830381855afa9150503d805f81146110c6576040519150601f19603f3d011682016040523d82523d5f602084013e6110cb565b606091505b509150915081801561060657505115159392505050565b6001600160a01b0381165f908152606d602052604090205460ff161561114a5760405162461bcd60e51b815260206004820152601b60248201527f4163636f756e7420697320616c7265616479206578636c75646564000000000060448201526064016105d8565b6001600160a01b03165f908152606d60205260409020805460ff19166001179055565b6001600160a01b0381165f908152606c602052604090205460ff16156111d55760405162461bcd60e51b815260206004820152601b60248201527f4163636f756e7420697320616c7265616479206578636c75646564000000000060448201526064016105d8565b6001600160a01b0381165f908152606a602052604090205415611214576111fb8161055f565b6001600160a01b0382165f908152606960205260409020555b6001600160a01b03165f818152606c60205260408120805460ff191660019081179091556068805491820181559091527fa2153420d844928b4421650203c77babc8b33d7f2e7b450e2966db0c220977530180546001600160a01b0319169091179055565b6001600160a01b0383165f908152606c602052604090205460ff1680156112b857506001600160a01b0382165f908152606c602052604090205460ff16155b156112cd576112c88383836113a4565b505050565b6001600160a01b0383165f908152606c602052604090205460ff1615801561130c57506001600160a01b0382165f908152606c602052604090205460ff165b1561131c576112c883838361160c565b6001600160a01b0383165f908152606c602052604090205460ff16801561135a57506001600160a01b0382165f908152606c602052604090205460ff165b1561136a576112c8838383611854565b6112c88383836119a8565b5f54610100900460ff1661139b5760405162461bcd60e51b81526004016105d890611ebe565b61066833610fca565b6113ac611b02565b60725460ff16151560010361144e576103e8606f546113cb9190611d1d565b82111561144e5760405162461bcd60e51b8152602060048201526044602482018190527f43616e6e6f74207075726368617365206d6f7265207468616e2031306d202830908201527f2e312529206f6620737570706c7920696e2073696e676c65207472616e7361636064820152633a34b7b760e11b608482015260a4016105d8565b818152611459610942565b6114639083611f24565b60208201525f604082018190526127109061147e9084611f24565b6114889190611d1d565b6080820152611495610942565b81608001516114a49190611f24565b60a08201819052156114bc5760a08101516101008201525b80516001600160a01b0385165f90815260696020526040812080549091906114e5908490611ce3565b90915550506020808201516001600160a01b0386165f908152606a90925260408220805491929091611518908490611ce3565b909155505060a081015160208201516115319190611ce3565b6001600160a01b0384165f908152606a602052604081208054909190611558908490611cf6565b9091555050610100810151607080545f90611574908490611ce3565b9091555050608081015181516001600160a01b0380861692908716915f80516020611f3c833981519152916115a891611ce3565b60405190815260200160405180910390a3805160808201517fe6ef78c5a1f105fc4b9500eeb7cd09b041367bdee35f1d85761735ee78b3ff2e91906115ed9082611ce3565b604080519283526020830191909152015b60405180910390a150505050565b611614611b02565b600a61161f8561055f565b6116299190611d1d565b82111561169e5760405162461bcd60e51b815260206004820152603a60248201527f43616e6e6f742073656c6c206d6f7265207468616e20313025206f662062616c60448201527f616e636520696e2073696e676c65207472616e73616374696f6e00000000000060648201526084016105d8565b8181526116a9610942565b6116b39083611f24565b60208201525f60608201819052612710906116ce9084611f24565b6116d89190611d1d565b60c08201526116e5610942565b8160c001516116f49190611f24565b60e082018190521561170c5760e08101516101008201525b8060200151606a5f866001600160a01b03166001600160a01b031681526020019081526020015f205f8282546117429190611ce3565b909155505060c081015181516117589190611ce3565b6001600160a01b0384165f908152606960205260408120805490919061177f908490611cf6565b909155505060e081015160208201516117989190611ce3565b6001600160a01b0384165f908152606a6020526040812080549091906117bf908490611cf6565b9091555050610100810151607080545f906117db908490611ce3565b909155505060c081015181516001600160a01b0380861692908716915f80516020611f3c8339815191529161180f91611ce3565b60405190815260200160405180910390a3805160c08201517fff000e16c1c0d33b07404c2b2abb9832356b5cfd57566d73c9d09611f030890d91906115ed9082611ce3565b61185c611b02565b818152611867610942565b6118719083611f24565b60208083019190915281516001600160a01b0386165f9081526069909252604082208054919290916118a4908490611ce3565b90915550506020808201516001600160a01b0386165f908152606a909252604082208054919290916118d7908490611ce3565b909155505080516001600160a01b0384165f9081526069602052604081208054909190611905908490611cf6565b90915550506020808201516001600160a01b0385165f908152606a90925260408220805491929091611938908490611cf6565b909155505080516040519081526001600160a01b0384811691908616905f80516020611f3c8339815191529060200160405180910390a380516040805182815260208101929092527f2541109a23d530c06d62a3bf63d8d03107194870126fddb7170c0daef360cd8a91016115fe565b6119b0611b02565b670de0b6b3a76400006119c28561055f565b6119cc9190611ce3565b821115611a1b5760405162461bcd60e51b815260206004820152601d60248201527f596f7520676f747461206b6565702031204d45544820616c776179732100000060448201526064016105d8565b818152611a26610942565b611a309083611f24565b60208083018290526001600160a01b0386165f908152606a909152604081208054909190611a5f908490611ce3565b90915550506020808201516001600160a01b0385165f908152606a90925260408220805491929091611a92908490611cf6565b909155505080516040519081526001600160a01b0384811691908616905f80516020611f3c8339815191529060200160405180910390a380516040805182815260208101929092527fd9923e08d9d88ff7a7e9b8460f3163dc6b887fabe315449da3b5cd16bb5e934091016115fe565b6040518061012001604052805f81526020015f81526020015f81526020015f81526020015f81526020015f81526020015f81526020015f81526020015f81525090565b5f5b83811015611b5f578181015183820152602001611b47565b50505f910152565b602081525f8251806020840152611b85816040850160208701611b45565b601f01601f19169190910160400192915050565b80356001600160a01b0381168114610652575f80fd5b5f8060408385031215611bc0575f80fd5b611bc983611b99565b946020939093013593505050565b5f805f60608486031215611be9575f80fd5b611bf284611b99565b9250611c0060208501611b99565b9150604084013590509250925092565b5f60208284031215611c20575f80fd5b5035919050565b5f60208284031215611c37575f80fd5b611c4082611b99565b9392505050565b5f60208284031215611c57575f80fd5b81358015158114611c40575f80fd5b5f8060408385031215611c77575f80fd5b611c8083611b99565b9150611c8e60208401611b99565b90509250929050565b600181811c90821680611cab57607f821691505b602082108103611cc957634e487b7160e01b5f52602260045260245ffd5b50919050565b634e487b7160e01b5f52601160045260245ffd5b818103818111156104ab576104ab611ccf565b808201808211156104ab576104ab611ccf565b634e487b7160e01b5f52601260045260245ffd5b5f82611d2b57611d2b611d09565b500490565b634e487b7160e01b5f52604160045260245ffd5b601f8211156112c857805f5260205f20601f840160051c81016020851015611d695750805b601f840160051c820191505b81811015611d88575f8155600101611d75565b5050505050565b815167ffffffffffffffff811115611da957611da9611d30565b611dbd81611db78454611c97565b84611d44565b602080601f831160018114611df0575f8415611dd95750858301515b5f19600386901b1c1916600185901b178555611e47565b5f85815260208120601f198616915b82811015611e1e57888601518255948401946001909101908401611dff565b5085821015611e3b57878501515f19600388901b60f8161c191681555b505060018460011b0185555b505050505050565b5f82611e5d57611e5d611d09565b500690565b634e487b7160e01b5f52603260045260245ffd5b60208082526028908201527f5472616e7366657220616d6f756e74206578636565647320746865206d6178546040820152673c20b6b7bab73a1760c11b606082015260800190565b6020808252602b908201527f496e697469616c697a61626c653a20636f6e7472616374206973206e6f74206960408201526a6e697469616c697a696e6760a81b606082015260800190565b5f8251611f1a818460208701611b45565b9190910192915050565b80820281158282048414176104ab576104ab611ccf56feddf252ad1be2c89b69c2b068fc378daa952ba7f163c4a11628f55a4df523b3efa26469706673582212204554e5b0f6426765178e5f7312fdff93570d7615d0349f198c19856faf32ae4b64736f6c63430008180033",
					"opcodes": "PUSH1 0x80 PUSH1 0x40 MSTORE PUSH1 0x72 DUP1 SLOAD PUSH2 0xFF00 NOT AND SWAP1 SSTORE CALLVALUE DUP1 ISZERO PUSH2 0x1A JUMPI PUSH0 DUP1 REVERT JUMPDEST POP PUSH2 0x1F91 DUP1 PUSH2 0x28 PUSH0 CODECOPY PUSH0 RETURN INVALID PUSH1 0x80 PUSH1 0x40 MSTORE CALLVALUE DUP1 ISZERO PUSH2 0xF JUMPI PUSH0 DUP1 REVERT JUMPDEST POP PUSH1 0x4 CALLDATASIZE LT PUSH2 0x1A1 JUMPI PUSH0 CALLDATALOAD PUSH1 0xE0 SHR DUP1 PUSH4 0x80DA2287 GT PUSH2 0xF3 JUMPI DUP1 PUSH4 0x97A9D560 GT PUSH2 0x93 JUMPI DUP1 PUSH4 0xAF465A27 GT PUSH2 0x6E JUMPI DUP1 PUSH4 0xAF465A27 EQ PUSH2 0x38C JUMPI DUP1 PUSH4 0xCBA0E996 EQ PUSH2 0x395 JUMPI DUP1 PUSH4 0xDD62ED3E EQ PUSH2 0x3C0 JUMPI DUP1 PUSH4 0xF2FDE38B EQ PUSH2 0x3F8 JUMPI PUSH0 DUP1 REVERT JUMPDEST DUP1 PUSH4 0x97A9D560 EQ PUSH2 0x35E JUMPI DUP1 PUSH4 0xA457C2D7 EQ PUSH2 0x366 JUMPI DUP1 PUSH4 0xA9059CBB EQ PUSH2 0x379 JUMPI PUSH0 DUP1 REVERT JUMPDEST DUP1 PUSH4 0x8C0B5E22 GT PUSH2 0xCE JUMPI DUP1 PUSH4 0x8C0B5E22 EQ PUSH2 0x334 JUMPI DUP1 PUSH4 0x8DA5CB5B EQ PUSH2 0x33D JUMPI DUP1 PUSH4 0x94E10784 EQ PUSH2 0x34E JUMPI DUP1 PUSH4 0x95D89B41 EQ PUSH2 0x356 JUMPI PUSH0 DUP1 REVERT JUMPDEST DUP1 PUSH4 0x80DA2287 EQ PUSH2 0x2CF JUMPI DUP1 PUSH4 0x8129FC1C EQ PUSH2 0x319 JUMPI DUP1 PUSH4 0x83F24C09 EQ PUSH2 0x321 JUMPI PUSH0 DUP1 REVERT JUMPDEST DUP1 PUSH4 0x45E0B9D4 GT PUSH2 0x15E JUMPI DUP1 PUSH4 0x5319E78F GT PUSH2 0x139 JUMPI DUP1 PUSH4 0x5319E78F EQ PUSH2 0x274 JUMPI DUP1 PUSH4 0x658C27A9 EQ PUSH2 0x287 JUMPI DUP1 PUSH4 0x70A08231 EQ PUSH2 0x2B2 JUMPI DUP1 PUSH4 0x715018A6 EQ PUSH2 0x2C5 JUMPI PUSH0 DUP1 REVERT JUMPDEST DUP1 PUSH4 0x45E0B9D4 EQ PUSH2 0x233 JUMPI DUP1 PUSH4 0x4D09DEB3 EQ PUSH2 0x23C JUMPI DUP1 PUSH4 0x4DACF3F5 EQ PUSH2 0x267 JUMPI PUSH0 DUP1 REVERT JUMPDEST DUP1 PUSH4 0x6FDDE03 EQ PUSH2 0x1A5 JUMPI DUP1 PUSH4 0x95EA7B3 EQ PUSH2 0x1C3 JUMPI DUP1 PUSH4 0x18160DDD EQ PUSH2 0x1E6 JUMPI DUP1 PUSH4 0x23B872DD EQ PUSH2 0x1F8 JUMPI DUP1 PUSH4 0x313CE567 EQ PUSH2 0x20B JUMPI DUP1 PUSH4 0x39509351 EQ PUSH2 0x220 JUMPI JUMPDEST PUSH0 DUP1 REVERT JUMPDEST PUSH2 0x1AD PUSH2 0x40B JUMP JUMPDEST PUSH1 0x40 MLOAD PUSH2 0x1BA SWAP2 SWAP1 PUSH2 0x1B67 JUMP JUMPDEST PUSH1 0x40 MLOAD DUP1 SWAP2 SUB SWAP1 RETURN JUMPDEST PUSH2 0x1D6 PUSH2 0x1D1 CALLDATASIZE PUSH1 0x4 PUSH2 0x1BAF JUMP JUMPDEST PUSH2 0x49B JUMP JUMPDEST PUSH1 0x40 MLOAD SWAP1 ISZERO ISZERO DUP2 MSTORE PUSH1 0x20 ADD PUSH2 0x1BA JUMP JUMPDEST PUSH1 0x6F SLOAD JUMPDEST PUSH1 0x40 MLOAD SWAP1 DUP2 MSTORE PUSH1 0x20 ADD PUSH2 0x1BA JUMP JUMPDEST PUSH2 0x1D6 PUSH2 0x206 CALLDATASIZE PUSH1 0x4 PUSH2 0x1BD7 JUMP JUMPDEST PUSH2 0x4B1 JUMP JUMPDEST PUSH1 0x67 SLOAD PUSH1 0x40 MLOAD PUSH1 0xFF SWAP1 SWAP2 AND DUP2 MSTORE PUSH1 0x20 ADD PUSH2 0x1BA JUMP JUMPDEST PUSH2 0x1D6 PUSH2 0x22E CALLDATASIZE PUSH1 0x4 PUSH2 0x1BAF JUMP JUMPDEST PUSH2 0x501 JUMP JUMPDEST PUSH2 0x1EA PUSH1 0x70 SLOAD DUP2 JUMP JUMPDEST PUSH2 0x24F PUSH2 0x24A CALLDATASIZE PUSH1 0x4 PUSH2 0x1C10 JUMP JUMPDEST PUSH2 0x537 JUMP JUMPDEST PUSH1 0x40 MLOAD PUSH1 0x1 PUSH1 0x1 PUSH1 0xA0 SHL SUB SWAP1 SWAP2 AND DUP2 MSTORE PUSH1 0x20 ADD PUSH2 0x1BA JUMP JUMPDEST PUSH1 0x72 SLOAD PUSH2 0x1D6 SWAP1 PUSH1 0xFF AND DUP2 JUMP JUMPDEST PUSH2 0x1EA PUSH2 0x282 CALLDATASIZE PUSH1 0x4 PUSH2 0x1C27 JUMP JUMPDEST PUSH2 0x55F JUMP JUMPDEST PUSH2 0x1D6 PUSH2 0x295 CALLDATASIZE PUSH1 0x4 PUSH2 0x1C27 JUMP JUMPDEST PUSH1 0x1 PUSH1 0x1 PUSH1 0xA0 SHL SUB AND PUSH0 SWAP1 DUP2 MSTORE PUSH1 0x6D PUSH1 0x20 MSTORE PUSH1 0x40 SWAP1 KECCAK256 SLOAD PUSH1 0xFF AND SWAP1 JUMP JUMPDEST PUSH2 0x1EA PUSH2 0x2C0 CALLDATASIZE PUSH1 0x4 PUSH2 0x1C27 JUMP JUMPDEST PUSH2 0x60E JUMP JUMPDEST PUSH2 0x2CD PUSH2 0x657 JUMP JUMPDEST STOP JUMPDEST PUSH2 0x304 PUSH2 0x2DD CALLDATASIZE PUSH1 0x4 PUSH2 0x1C27 JUMP JUMPDEST PUSH1 0x1 PUSH1 0x1 PUSH1 0xA0 SHL SUB AND PUSH0 SWAP1 DUP2 MSTORE PUSH1 0x69 PUSH1 0x20 SWAP1 DUP2 MSTORE PUSH1 0x40 DUP1 DUP4 KECCAK256 SLOAD PUSH1 0x6A SWAP1 SWAP3 MSTORE SWAP1 SWAP2 KECCAK256 SLOAD SWAP1 SWAP2 JUMP JUMPDEST PUSH1 0x40 DUP1 MLOAD SWAP3 DUP4 MSTORE PUSH1 0x20 DUP4 ADD SWAP2 SWAP1 SWAP2 MSTORE ADD PUSH2 0x1BA JUMP JUMPDEST PUSH2 0x2CD PUSH2 0x66A JUMP JUMPDEST PUSH2 0x2CD PUSH2 0x32F CALLDATASIZE PUSH1 0x4 PUSH2 0x1C47 JUMP JUMPDEST PUSH2 0x927 JUMP JUMPDEST PUSH2 0x1EA PUSH1 0x71 SLOAD DUP2 JUMP JUMPDEST PUSH1 0x33 SLOAD PUSH1 0x1 PUSH1 0x1 PUSH1 0xA0 SHL SUB AND PUSH2 0x24F JUMP JUMPDEST PUSH2 0x1EA PUSH2 0x942 JUMP JUMPDEST PUSH2 0x1AD PUSH2 0x963 JUMP JUMPDEST PUSH2 0x304 PUSH2 0x972 JUMP JUMPDEST PUSH2 0x1D6 PUSH2 0x374 CALLDATASIZE PUSH1 0x4 PUSH2 0x1BAF JUMP JUMPDEST PUSH2 0xA26 JUMP JUMPDEST PUSH2 0x1D6 PUSH2 0x387 CALLDATASIZE PUSH1 0x4 PUSH2 0x1BAF JUMP JUMPDEST PUSH2 0xA5C JUMP JUMPDEST PUSH2 0x1EA PUSH1 0x6F SLOAD DUP2 JUMP JUMPDEST PUSH2 0x1D6 PUSH2 0x3A3 CALLDATASIZE PUSH1 0x4 PUSH2 0x1C27 JUMP JUMPDEST PUSH1 0x1 PUSH1 0x1 PUSH1 0xA0 SHL SUB AND PUSH0 SWAP1 DUP2 MSTORE PUSH1 0x6C PUSH1 0x20 MSTORE PUSH1 0x40 SWAP1 KECCAK256 SLOAD PUSH1 0xFF AND SWAP1 JUMP JUMPDEST PUSH2 0x1EA PUSH2 0x3CE CALLDATASIZE PUSH1 0x4 PUSH2 0x1C66 JUMP JUMPDEST PUSH1 0x1 PUSH1 0x1 PUSH1 0xA0 SHL SUB SWAP2 DUP3 AND PUSH0 SWAP1 DUP2 MSTORE PUSH1 0x6B PUSH1 0x20 SWAP1 DUP2 MSTORE PUSH1 0x40 DUP1 DUP4 KECCAK256 SWAP4 SWAP1 SWAP5 AND DUP3 MSTORE SWAP2 SWAP1 SWAP2 MSTORE KECCAK256 SLOAD SWAP1 JUMP JUMPDEST PUSH2 0x2CD PUSH2 0x406 CALLDATASIZE PUSH1 0x4 PUSH2 0x1C27 JUMP JUMPDEST PUSH2 0xA68 JUMP JUMPDEST PUSH1 0x60 PUSH1 0x65 DUP1 SLOAD PUSH2 0x41A SWAP1 PUSH2 0x1C97 JUMP JUMPDEST DUP1 PUSH1 0x1F ADD PUSH1 0x20 DUP1 SWAP2 DIV MUL PUSH1 0x20 ADD PUSH1 0x40 MLOAD SWAP1 DUP2 ADD PUSH1 0x40 MSTORE DUP1 SWAP3 SWAP2 SWAP1 DUP2 DUP2 MSTORE PUSH1 0x20 ADD DUP3 DUP1 SLOAD PUSH2 0x446 SWAP1 PUSH2 0x1C97 JUMP JUMPDEST DUP1 ISZERO PUSH2 0x491 JUMPI DUP1 PUSH1 0x1F LT PUSH2 0x468 JUMPI PUSH2 0x100 DUP1 DUP4 SLOAD DIV MUL DUP4 MSTORE SWAP2 PUSH1 0x20 ADD SWAP2 PUSH2 0x491 JUMP JUMPDEST DUP3 ADD SWAP2 SWAP1 PUSH0 MSTORE PUSH1 0x20 PUSH0 KECCAK256 SWAP1 JUMPDEST DUP2 SLOAD DUP2 MSTORE SWAP1 PUSH1 0x1 ADD SWAP1 PUSH1 0x20 ADD DUP1 DUP4 GT PUSH2 0x474 JUMPI DUP3 SWAP1 SUB PUSH1 0x1F AND DUP3 ADD SWAP2 JUMPDEST POP POP POP POP POP SWAP1 POP SWAP1 JUMP JUMPDEST PUSH0 PUSH2 0x4A7 CALLER DUP5 DUP5 PUSH2 0xADE JUMP JUMPDEST POP PUSH1 0x1 JUMPDEST SWAP3 SWAP2 POP POP JUMP JUMPDEST PUSH0 PUSH2 0x4BD DUP5 DUP5 DUP5 PUSH2 0xC01 JUMP JUMPDEST PUSH1 0x1 PUSH1 0x1 PUSH1 0xA0 SHL SUB DUP5 AND PUSH0 SWAP1 DUP2 MSTORE PUSH1 0x6B PUSH1 0x20 SWAP1 DUP2 MSTORE PUSH1 0x40 DUP1 DUP4 KECCAK256 CALLER DUP1 DUP6 MSTORE SWAP3 MSTORE SWAP1 SWAP2 KECCAK256 SLOAD PUSH2 0x4F7 SWAP2 DUP7 SWAP2 PUSH2 0x4F2 SWAP1 DUP7 SWAP1 PUSH2 0x1CE3 JUMP JUMPDEST PUSH2 0xADE JUMP JUMPDEST POP PUSH1 0x1 SWAP4 SWAP3 POP POP POP JUMP JUMPDEST CALLER PUSH0 DUP2 DUP2 MSTORE PUSH1 0x6B PUSH1 0x20 SWAP1 DUP2 MSTORE PUSH1 0x40 DUP1 DUP4 KECCAK256 PUSH1 0x1 PUSH1 0x1 PUSH1 0xA0 SHL SUB DUP8 AND DUP5 MSTORE SWAP1 SWAP2 MSTORE DUP2 KECCAK256 SLOAD SWAP1 SWAP2 PUSH2 0x4A7 SWAP2 DUP6 SWAP1 PUSH2 0x4F2 SWAP1 DUP7 SWAP1 PUSH2 0x1CF6 JUMP JUMPDEST PUSH1 0x68 DUP2 DUP2 SLOAD DUP2 LT PUSH2 0x546 JUMPI PUSH0 DUP1 REVERT JUMPDEST PUSH0 SWAP2 DUP3 MSTORE PUSH1 0x20 SWAP1 SWAP2 KECCAK256 ADD SLOAD PUSH1 0x1 PUSH1 0x1 PUSH1 0xA0 SHL SUB AND SWAP1 POP DUP2 JUMP JUMPDEST PUSH1 0x1 PUSH1 0x1 PUSH1 0xA0 SHL SUB DUP2 AND PUSH0 SWAP1 DUP2 MSTORE PUSH1 0x6A PUSH1 0x20 MSTORE PUSH1 0x40 DUP2 KECCAK256 SLOAD PUSH1 0x70 SLOAD DUP2 GT ISZERO PUSH2 0x5E1 JUMPI PUSH1 0x40 MLOAD PUSH3 0x461BCD PUSH1 0xE5 SHL DUP2 MSTORE PUSH1 0x20 PUSH1 0x4 DUP3 ADD MSTORE PUSH1 0x2A PUSH1 0x24 DUP3 ADD MSTORE PUSH32 0x416D6F756E74206D757374206265206C657373207468616E20746F74616C2072 PUSH1 0x44 DUP3 ADD MSTORE PUSH10 0x65666C656374696F6E73 PUSH1 0xB0 SHL PUSH1 0x64 DUP3 ADD MSTORE PUSH1 0x84 ADD JUMPDEST PUSH1 0x40 MLOAD DUP1 SWAP2 SUB SWAP1 REVERT JUMPDEST PUSH0 PUSH2 0x5EA PUSH2 0x942 JUMP JUMPDEST SWAP1 POP DUP2 PUSH0 SUB PUSH2 0x5FC JUMPI POP PUSH0 SWAP4 SWAP3 POP POP POP JUMP JUMPDEST PUSH2 0x606 DUP2 DUP4 PUSH2 0x1D1D JUMP JUMPDEST SWAP5 SWAP4 POP POP POP POP JUMP JUMPDEST PUSH1 0x1 PUSH1 0x1 PUSH1 0xA0 SHL SUB DUP2 AND PUSH0 SWAP1 DUP2 MSTORE PUSH1 0x6C PUSH1 0x20 MSTORE PUSH1 0x40 DUP2 KECCAK256 SLOAD PUSH1 0xFF AND ISZERO PUSH2 0x649 JUMPI POP PUSH1 0x1 PUSH1 0x1 PUSH1 0xA0 SHL SUB AND PUSH0 SWAP1 DUP2 MSTORE PUSH1 0x69 PUSH1 0x20 MSTORE PUSH1 0x40 SWAP1 KECCAK256 SLOAD SWAP1 JUMP JUMPDEST PUSH2 0x4AB DUP3 PUSH2 0x55F JUMP JUMPDEST SWAP2 SWAP1 POP JUMP JUMPDEST PUSH2 0x65F PUSH2 0xF70 JUMP JUMPDEST PUSH2 0x668 PUSH0 PUSH2 0xFCA JUMP JUMPDEST JUMP JUMPDEST PUSH0 SLOAD PUSH2 0x100 SWAP1 DIV PUSH1 0xFF AND ISZERO DUP1 DUP1 ISZERO PUSH2 0x688 JUMPI POP PUSH0 SLOAD PUSH1 0x1 PUSH1 0xFF SWAP1 SWAP2 AND LT JUMPDEST DUP1 PUSH2 0x6A1 JUMPI POP ADDRESS EXTCODESIZE ISZERO DUP1 ISZERO PUSH2 0x6A1 JUMPI POP PUSH0 SLOAD PUSH1 0xFF AND PUSH1 0x1 EQ JUMPDEST PUSH2 0x704 JUMPI PUSH1 0x40 MLOAD PUSH3 0x461BCD PUSH1 0xE5 SHL DUP2 MSTORE PUSH1 0x20 PUSH1 0x4 DUP3 ADD MSTORE PUSH1 0x2E PUSH1 0x24 DUP3 ADD MSTORE PUSH32 0x496E697469616C697A61626C653A20636F6E747261637420697320616C726561 PUSH1 0x44 DUP3 ADD MSTORE PUSH14 0x191E481A5B9A5D1A585B1A5E9959 PUSH1 0x92 SHL PUSH1 0x64 DUP3 ADD MSTORE PUSH1 0x84 ADD PUSH2 0x5D8 JUMP JUMPDEST PUSH0 DUP1 SLOAD PUSH1 0xFF NOT AND PUSH1 0x1 OR SWAP1 SSTORE DUP1 ISZERO PUSH2 0x725 JUMPI PUSH0 DUP1 SLOAD PUSH2 0xFF00 NOT AND PUSH2 0x100 OR SWAP1 SSTORE JUMPDEST PUSH2 0x72D PUSH2 0x101B JUMP JUMPDEST PUSH1 0x40 DUP1 MLOAD DUP1 DUP3 ADD SWAP1 SWAP2 MSTORE PUSH1 0x4 DUP2 MSTORE PUSH4 0x9A8AA89 PUSH1 0xE3 SHL PUSH1 0x20 DUP3 ADD MSTORE PUSH1 0x65 SWAP1 PUSH2 0x755 SWAP1 DUP3 PUSH2 0x1D8F JUMP JUMPDEST POP PUSH1 0x40 DUP1 MLOAD DUP1 DUP3 ADD SWAP1 SWAP2 MSTORE PUSH1 0x4 DUP2 MSTORE PUSH4 0x9A8AA89 PUSH1 0xE3 SHL PUSH1 0x20 DUP3 ADD MSTORE PUSH1 0x66 SWAP1 PUSH2 0x77E SWAP1 DUP3 PUSH2 0x1D8F JUMP JUMPDEST POP PUSH1 0x67 DUP1 SLOAD PUSH1 0xFF NOT AND PUSH1 0x12 OR SWAP1 SSTORE PUSH12 0x204FCE5E3E25026110000000 PUSH1 0x6F DUP2 SWAP1 SSTORE PUSH0 NOT PUSH1 0x6E DUP2 SWAP1 SSTORE PUSH2 0x7AF SWAP2 SWAP1 PUSH2 0x1E4F JUMP JUMPDEST PUSH1 0x6E SLOAD PUSH2 0x7BC SWAP2 SWAP1 PUSH2 0x1CE3 JUMP JUMPDEST PUSH1 0x70 DUP2 SWAP1 SSTORE PUSH1 0x6A PUSH0 PUSH2 0x7D6 PUSH1 0x33 SLOAD PUSH1 0x1 PUSH1 0x1 PUSH1 0xA0 SHL SUB AND SWAP1 JUMP JUMPDEST PUSH1 0x1 PUSH1 0x1 PUSH1 0xA0 SHL SUB AND DUP2 MSTORE PUSH1 0x20 DUP1 DUP3 ADD SWAP3 SWAP1 SWAP3 MSTORE PUSH1 0x40 ADD PUSH0 SWAP1 DUP2 KECCAK256 SWAP3 SWAP1 SWAP3 SSTORE PUSH1 0x6F SLOAD PUSH1 0x71 SSTORE PUSH1 0x6C SWAP1 MSTORE PUSH32 0x7FEBD347DF14EA35C529E50FB2DD629D4A6226F5CCC893710FB466F8B83823FC DUP1 SLOAD PUSH1 0xFF NOT SWAP1 DUP2 AND PUSH1 0x1 SWAP1 DUP2 OR SWAP1 SWAP3 SSTORE PUSH32 0x8C482E007F935C93984DDF7A647E33EF99566883FFAE3563AA616DC14D1632F7 DUP1 SLOAD DUP3 AND DUP4 OR SWAP1 SSTORE PUSH32 0xB6E99D88B536AE7728C4B89CA5A6073CF06FD2059E0AFF5B1A4DE2C799D9CB96 DUP1 SLOAD DUP3 AND DUP4 OR SWAP1 SSTORE PUSH2 0x369 SWAP1 SWAP3 MSTORE PUSH1 0x72 DUP1 SLOAD SWAP1 SWAP3 AND OR SWAP1 SSTORE PUSH2 0x8A4 PUSH1 0x33 SLOAD PUSH1 0x1 PUSH1 0x1 PUSH1 0xA0 SHL SUB AND SWAP1 JUMP JUMPDEST PUSH1 0x1 PUSH1 0x1 PUSH1 0xA0 SHL SUB AND PUSH0 PUSH1 0x1 PUSH1 0x1 PUSH1 0xA0 SHL SUB AND PUSH0 DUP1 MLOAD PUSH1 0x20 PUSH2 0x1F3C DUP4 CODECOPY DUP2 MLOAD SWAP2 MSTORE PUSH1 0x6F SLOAD PUSH1 0x40 MLOAD PUSH2 0x8D7 SWAP2 DUP2 MSTORE PUSH1 0x20 ADD SWAP1 JUMP JUMPDEST PUSH1 0x40 MLOAD DUP1 SWAP2 SUB SWAP1 LOG3 DUP1 ISZERO PUSH2 0x924 JUMPI PUSH0 DUP1 SLOAD PUSH2 0xFF00 NOT AND SWAP1 SSTORE PUSH1 0x40 MLOAD PUSH1 0x1 DUP2 MSTORE PUSH32 0x7F26B83FF96E1F2B6A682F133852F6798A09C465DA95921460CEFB3847402498 SWAP1 PUSH1 0x20 ADD PUSH1 0x40 MLOAD DUP1 SWAP2 SUB SWAP1 LOG1 JUMPDEST POP JUMP JUMPDEST PUSH2 0x92F PUSH2 0xF70 JUMP JUMPDEST PUSH1 0x72 DUP1 SLOAD PUSH1 0xFF NOT AND SWAP2 ISZERO ISZERO SWAP2 SWAP1 SWAP2 OR SWAP1 SSTORE JUMP JUMPDEST PUSH0 DUP1 PUSH0 PUSH2 0x94D PUSH2 0x972 JUMP JUMPDEST SWAP1 SWAP3 POP SWAP1 POP PUSH2 0x95C DUP2 DUP4 PUSH2 0x1D1D JUMP JUMPDEST SWAP3 POP POP POP SWAP1 JUMP JUMPDEST PUSH1 0x60 PUSH1 0x66 DUP1 SLOAD PUSH2 0x41A SWAP1 PUSH2 0x1C97 JUMP JUMPDEST PUSH1 0x70 SLOAD PUSH1 0x6F SLOAD PUSH0 SWAP2 DUP3 SWAP2 DUP3 JUMPDEST PUSH1 0x68 SLOAD DUP2 LT ISZERO PUSH2 0xA1C JUMPI PUSH1 0x6A PUSH0 PUSH1 0x68 DUP4 DUP2 SLOAD DUP2 LT PUSH2 0x99E JUMPI PUSH2 0x99E PUSH2 0x1E62 JUMP JUMPDEST PUSH0 SWAP2 DUP3 MSTORE PUSH1 0x20 DUP1 DUP4 KECCAK256 SWAP1 SWAP2 ADD SLOAD PUSH1 0x1 PUSH1 0x1 PUSH1 0xA0 SHL SUB AND DUP4 MSTORE DUP3 ADD SWAP3 SWAP1 SWAP3 MSTORE PUSH1 0x40 ADD SWAP1 KECCAK256 SLOAD PUSH2 0x9CC SWAP1 DUP5 PUSH2 0x1CE3 JUMP JUMPDEST SWAP3 POP PUSH1 0x69 PUSH0 PUSH1 0x68 DUP4 DUP2 SLOAD DUP2 LT PUSH2 0x9E4 JUMPI PUSH2 0x9E4 PUSH2 0x1E62 JUMP JUMPDEST PUSH0 SWAP2 DUP3 MSTORE PUSH1 0x20 DUP1 DUP4 KECCAK256 SWAP1 SWAP2 ADD SLOAD PUSH1 0x1 PUSH1 0x1 PUSH1 0xA0 SHL SUB AND DUP4 MSTORE DUP3 ADD SWAP3 SWAP1 SWAP3 MSTORE PUSH1 0x40 ADD SWAP1 KECCAK256 SLOAD PUSH2 0xA12 SWAP1 DUP4 PUSH2 0x1CE3 JUMP JUMPDEST SWAP2 POP PUSH1 0x1 ADD PUSH2 0x97E JUMP JUMPDEST POP SWAP1 SWAP4 SWAP1 SWAP3 POP SWAP1 POP JUMP JUMPDEST CALLER PUSH0 DUP2 DUP2 MSTORE PUSH1 0x6B PUSH1 0x20 SWAP1 DUP2 MSTORE PUSH1 0x40 DUP1 DUP4 KECCAK256 PUSH1 0x1 PUSH1 0x1 PUSH1 0xA0 SHL SUB DUP8 AND DUP5 MSTORE SWAP1 SWAP2 MSTORE DUP2 KECCAK256 SLOAD SWAP1 SWAP2 PUSH2 0x4A7 SWAP2 DUP6 SWAP1 PUSH2 0x4F2 SWAP1 DUP7 SWAP1 PUSH2 0x1CE3 JUMP JUMPDEST PUSH0 PUSH2 0x4A7 CALLER DUP5 DUP5 PUSH2 0xC01 JUMP JUMPDEST PUSH2 0xA70 PUSH2 0xF70 JUMP JUMPDEST PUSH1 0x1 PUSH1 0x1 PUSH1 0xA0 SHL SUB DUP2 AND PUSH2 0xAD5 JUMPI PUSH1 0x40 MLOAD PUSH3 0x461BCD PUSH1 0xE5 SHL DUP2 MSTORE PUSH1 0x20 PUSH1 0x4 DUP3 ADD MSTORE PUSH1 0x26 PUSH1 0x24 DUP3 ADD MSTORE PUSH32 0x4F776E61626C653A206E6577206F776E657220697320746865207A65726F2061 PUSH1 0x44 DUP3 ADD MSTORE PUSH6 0x646472657373 PUSH1 0xD0 SHL PUSH1 0x64 DUP3 ADD MSTORE PUSH1 0x84 ADD PUSH2 0x5D8 JUMP JUMPDEST PUSH2 0x924 DUP2 PUSH2 0xFCA JUMP JUMPDEST PUSH1 0x1 PUSH1 0x1 PUSH1 0xA0 SHL SUB DUP4 AND PUSH2 0xB40 JUMPI PUSH1 0x40 MLOAD PUSH3 0x461BCD PUSH1 0xE5 SHL DUP2 MSTORE PUSH1 0x20 PUSH1 0x4 DUP3 ADD MSTORE PUSH1 0x24 DUP1 DUP3 ADD MSTORE PUSH32 0x45524332303A20617070726F76652066726F6D20746865207A65726F20616464 PUSH1 0x44 DUP3 ADD MSTORE PUSH4 0x72657373 PUSH1 0xE0 SHL PUSH1 0x64 DUP3 ADD MSTORE PUSH1 0x84 ADD PUSH2 0x5D8 JUMP JUMPDEST PUSH1 0x1 PUSH1 0x1 PUSH1 0xA0 SHL SUB DUP3 AND PUSH2 0xBA1 JUMPI PUSH1 0x40 MLOAD PUSH3 0x461BCD PUSH1 0xE5 SHL DUP2 MSTORE PUSH1 0x20 PUSH1 0x4 DUP3 ADD MSTORE PUSH1 0x22 PUSH1 0x24 DUP3 ADD MSTORE PUSH32 0x45524332303A20617070726F766520746F20746865207A65726F206164647265 PUSH1 0x44 DUP3 ADD MSTORE PUSH2 0x7373 PUSH1 0xF0 SHL PUSH1 0x64 DUP3 ADD MSTORE PUSH1 0x84 ADD PUSH2 0x5D8 JUMP JUMPDEST PUSH1 0x1 PUSH1 0x1 PUSH1 0xA0 SHL SUB DUP4 DUP2 AND PUSH0 DUP2 DUP2 MSTORE PUSH1 0x6B PUSH1 0x20 SWAP1 DUP2 MSTORE PUSH1 0x40 DUP1 DUP4 KECCAK256 SWAP5 DUP8 AND DUP1 DUP5 MSTORE SWAP5 DUP3 MSTORE SWAP2 DUP3 SWAP1 KECCAK256 DUP6 SWAP1 SSTORE SWAP1 MLOAD DUP5 DUP2 MSTORE PUSH32 0x8C5BE1E5EBEC7D5BD14F71427D1E84F3DD0314C0F7B2291E5B200AC8C7C3B925 SWAP2 ADD PUSH1 0x40 MLOAD DUP1 SWAP2 SUB SWAP1 LOG3 POP POP POP JUMP JUMPDEST PUSH1 0x72 SLOAD PUSH2 0x100 SWAP1 DIV PUSH1 0xFF AND ISZERO PUSH2 0xC15 JUMPI PUSH0 DUP1 REVERT JUMPDEST PUSH1 0x72 DUP1 SLOAD PUSH2 0xFF00 NOT AND PUSH2 0x100 OR SWAP1 SSTORE PUSH1 0x1 PUSH1 0x1 PUSH1 0xA0 SHL SUB DUP4 AND PUSH2 0xC88 JUMPI PUSH1 0x40 MLOAD PUSH3 0x461BCD PUSH1 0xE5 SHL DUP2 MSTORE PUSH1 0x20 PUSH1 0x4 DUP3 ADD MSTORE PUSH1 0x25 PUSH1 0x24 DUP3 ADD MSTORE PUSH32 0x45524332303A207472616E736665722066726F6D20746865207A65726F206164 PUSH1 0x44 DUP3 ADD MSTORE PUSH5 0x6472657373 PUSH1 0xD8 SHL PUSH1 0x64 DUP3 ADD MSTORE PUSH1 0x84 ADD PUSH2 0x5D8 JUMP JUMPDEST PUSH1 0x1 PUSH1 0x1 PUSH1 0xA0 SHL SUB DUP3 AND PUSH2 0xCEA JUMPI PUSH1 0x40 MLOAD PUSH3 0x461BCD PUSH1 0xE5 SHL DUP2 MSTORE PUSH1 0x20 PUSH1 0x4 DUP3 ADD MSTORE PUSH1 0x23 PUSH1 0x24 DUP3 ADD MSTORE PUSH32 0x45524332303A207472616E7366657220746F20746865207A65726F2061646472 PUSH1 0x44 DUP3 ADD MSTORE PUSH3 0x657373 PUSH1 0xE8 SHL PUSH1 0x64 DUP3 ADD MSTORE PUSH1 0x84 ADD PUSH2 0x5D8 JUMP JUMPDEST PUSH0 DUP2 GT PUSH2 0xD4B JUMPI PUSH1 0x40 MLOAD PUSH3 0x461BCD PUSH1 0xE5 SHL DUP2 MSTORE PUSH1 0x20 PUSH1 0x4 DUP3 ADD MSTORE PUSH1 0x29 PUSH1 0x24 DUP3 ADD MSTORE PUSH32 0x5472616E7366657220616D6F756E74206D757374206265206772656174657220 PUSH1 0x44 DUP3 ADD MSTORE PUSH9 0x7468616E207A65726F PUSH1 0xB8 SHL PUSH1 0x64 DUP3 ADD MSTORE PUSH1 0x84 ADD PUSH2 0x5D8 JUMP JUMPDEST PUSH2 0xD54 DUP4 PUSH2 0x1049 JUMP JUMPDEST ISZERO ISZERO PUSH1 0x1 EQ DUP1 ISZERO PUSH2 0xD7D JUMPI POP PUSH1 0x1 PUSH1 0x1 PUSH1 0xA0 SHL SUB DUP4 AND PUSH0 SWAP1 DUP2 MSTORE PUSH1 0x6D PUSH1 0x20 MSTORE PUSH1 0x40 SWAP1 KECCAK256 SLOAD PUSH1 0xFF AND ISZERO JUMPDEST DUP1 ISZERO PUSH2 0xDA1 JUMPI POP PUSH1 0x1 PUSH1 0x1 PUSH1 0xA0 SHL SUB DUP4 AND PUSH0 SWAP1 DUP2 MSTORE PUSH1 0x6C PUSH1 0x20 MSTORE PUSH1 0x40 SWAP1 KECCAK256 SLOAD PUSH1 0xFF AND ISZERO JUMPDEST ISZERO PUSH2 0xDB8 JUMPI PUSH2 0xDAF DUP4 PUSH2 0x10E2 JUMP JUMPDEST PUSH2 0xDB8 DUP4 PUSH2 0x116D JUMP JUMPDEST PUSH2 0xDC1 DUP3 PUSH2 0x1049 JUMP JUMPDEST ISZERO ISZERO PUSH1 0x1 EQ DUP1 ISZERO PUSH2 0xDEA JUMPI POP PUSH1 0x1 PUSH1 0x1 PUSH1 0xA0 SHL SUB DUP3 AND PUSH0 SWAP1 DUP2 MSTORE PUSH1 0x6D PUSH1 0x20 MSTORE PUSH1 0x40 SWAP1 KECCAK256 SLOAD PUSH1 0xFF AND ISZERO JUMPDEST DUP1 ISZERO PUSH2 0xE0E JUMPI POP PUSH1 0x1 PUSH1 0x1 PUSH1 0xA0 SHL SUB DUP3 AND PUSH0 SWAP1 DUP2 MSTORE PUSH1 0x6C PUSH1 0x20 MSTORE PUSH1 0x40 SWAP1 KECCAK256 SLOAD PUSH1 0xFF AND ISZERO JUMPDEST ISZERO PUSH2 0xE25 JUMPI PUSH2 0xE1C DUP3 PUSH2 0x10E2 JUMP JUMPDEST PUSH2 0xE25 DUP3 PUSH2 0x116D JUMP JUMPDEST PUSH1 0x33 SLOAD PUSH1 0x1 PUSH1 0x1 PUSH1 0xA0 SHL SUB DUP5 DUP2 AND SWAP2 AND EQ DUP1 ISZERO SWAP1 PUSH2 0xE51 JUMPI POP PUSH1 0x33 SLOAD PUSH1 0x1 PUSH1 0x1 PUSH1 0xA0 SHL SUB DUP4 DUP2 AND SWAP2 AND EQ ISZERO JUMPDEST ISZERO PUSH2 0xEBD JUMPI PUSH1 0x1 PUSH1 0x1 PUSH1 0xA0 SHL SUB DUP4 AND PUSH0 SWAP1 DUP2 MSTORE PUSH1 0x6D PUSH1 0x20 MSTORE PUSH1 0x40 SWAP1 KECCAK256 SLOAD PUSH1 0xFF AND ISZERO DUP1 ISZERO PUSH2 0xE96 JUMPI POP PUSH1 0x1 PUSH1 0x1 PUSH1 0xA0 SHL SUB DUP3 AND PUSH0 SWAP1 DUP2 MSTORE PUSH1 0x6D PUSH1 0x20 MSTORE PUSH1 0x40 SWAP1 KECCAK256 SLOAD PUSH1 0xFF AND ISZERO JUMPDEST ISZERO PUSH2 0xEBD JUMPI PUSH1 0x71 SLOAD DUP2 GT ISZERO PUSH2 0xEBD JUMPI PUSH1 0x40 MLOAD PUSH3 0x461BCD PUSH1 0xE5 SHL DUP2 MSTORE PUSH1 0x4 ADD PUSH2 0x5D8 SWAP1 PUSH2 0x1E76 JUMP JUMPDEST PUSH1 0x33 SLOAD PUSH1 0x1 PUSH1 0x1 PUSH1 0xA0 SHL SUB DUP5 DUP2 AND SWAP2 AND EQ DUP1 ISZERO SWAP1 PUSH2 0xEE9 JUMPI POP PUSH1 0x33 SLOAD PUSH1 0x1 PUSH1 0x1 PUSH1 0xA0 SHL SUB DUP4 DUP2 AND SWAP2 AND EQ ISZERO JUMPDEST ISZERO PUSH2 0xF55 JUMPI PUSH1 0x1 PUSH1 0x1 PUSH1 0xA0 SHL SUB DUP4 AND PUSH0 SWAP1 DUP2 MSTORE PUSH1 0x6D PUSH1 0x20 MSTORE PUSH1 0x40 SWAP1 KECCAK256 SLOAD PUSH1 0xFF AND ISZERO DUP1 ISZERO PUSH2 0xF2E JUMPI POP PUSH1 0x1 PUSH1 0x1 PUSH1 0xA0 SHL SUB DUP3 AND PUSH0 SWAP1 DUP2 MSTORE PUSH1 0x6D PUSH1 0x20 MSTORE PUSH1 0x40 SWAP1 KECCAK256 SLOAD PUSH1 0xFF AND ISZERO JUMPDEST ISZERO PUSH2 0xF55 JUMPI PUSH1 0x71 SLOAD DUP2 GT ISZERO PUSH2 0xF55 JUMPI PUSH1 0x40 MLOAD PUSH3 0x461BCD PUSH1 0xE5 SHL DUP2 MSTORE PUSH1 0x4 ADD PUSH2 0x5D8 SWAP1 PUSH2 0x1E76 JUMP JUMPDEST PUSH2 0xF60 DUP4 DUP4 DUP4 PUSH2 0x1279 JUMP JUMPDEST POP POP PUSH1 0x72 DUP1 SLOAD PUSH2 0xFF00 NOT AND SWAP1 SSTORE POP JUMP JUMPDEST PUSH1 0x33 SLOAD PUSH1 0x1 PUSH1 0x1 PUSH1 0xA0 SHL SUB AND CALLER EQ PUSH2 0x668 JUMPI PUSH1 0x40 MLOAD PUSH3 0x461BCD PUSH1 0xE5 SHL DUP2 MSTORE PUSH1 0x20 PUSH1 0x4 DUP3 ADD DUP2 SWAP1 MSTORE PUSH1 0x24 DUP3 ADD MSTORE PUSH32 0x4F776E61626C653A2063616C6C6572206973206E6F7420746865206F776E6572 PUSH1 0x44 DUP3 ADD MSTORE PUSH1 0x64 ADD PUSH2 0x5D8 JUMP JUMPDEST PUSH1 0x33 DUP1 SLOAD PUSH1 0x1 PUSH1 0x1 PUSH1 0xA0 SHL SUB DUP4 DUP2 AND PUSH1 0x1 PUSH1 0x1 PUSH1 0xA0 SHL SUB NOT DUP4 AND DUP2 OR SWAP1 SWAP4 SSTORE PUSH1 0x40 MLOAD SWAP2 AND SWAP2 SWAP1 DUP3 SWAP1 PUSH32 0x8BE0079C531659141344CD1FD0A4F28419497F9722A3DAAFE3B4186F6B6457E0 SWAP1 PUSH0 SWAP1 LOG3 POP POP JUMP JUMPDEST PUSH0 SLOAD PUSH2 0x100 SWAP1 DIV PUSH1 0xFF AND PUSH2 0x1041 JUMPI PUSH1 0x40 MLOAD PUSH3 0x461BCD PUSH1 0xE5 SHL DUP2 MSTORE PUSH1 0x4 ADD PUSH2 0x5D8 SWAP1 PUSH2 0x1EBE JUMP JUMPDEST PUSH2 0x668 PUSH2 0x1375 JUMP JUMPDEST PUSH1 0x40 DUP1 MLOAD PUSH1 0x4 DUP2 MSTORE PUSH1 0x24 DUP2 ADD DUP3 MSTORE PUSH1 0x20 DUP2 ADD DUP1 MLOAD PUSH1 0x1 PUSH1 0x1 PUSH1 0xE0 SHL SUB AND PUSH4 0xC45A0155 PUSH1 0xE0 SHL OR SWAP1 MSTORE SWAP1 MLOAD PUSH0 SWAP2 DUP3 SWAP2 DUP3 SWAP2 PUSH1 0x1 PUSH1 0x1 PUSH1 0xA0 SHL SUB DUP7 AND SWAP2 PUSH2 0x108E SWAP2 SWAP1 PUSH2 0x1F09 JUMP JUMPDEST PUSH0 PUSH1 0x40 MLOAD DUP1 DUP4 SUB DUP2 DUP6 GAS STATICCALL SWAP2 POP POP RETURNDATASIZE DUP1 PUSH0 DUP2 EQ PUSH2 0x10C6 JUMPI PUSH1 0x40 MLOAD SWAP2 POP PUSH1 0x1F NOT PUSH1 0x3F RETURNDATASIZE ADD AND DUP3 ADD PUSH1 0x40 MSTORE RETURNDATASIZE DUP3 MSTORE RETURNDATASIZE PUSH0 PUSH1 0x20 DUP5 ADD RETURNDATACOPY PUSH2 0x10CB JUMP JUMPDEST PUSH1 0x60 SWAP2 POP JUMPDEST POP SWAP2 POP SWAP2 POP DUP2 DUP1 ISZERO PUSH2 0x606 JUMPI POP MLOAD ISZERO ISZERO SWAP4 SWAP3 POP POP POP JUMP JUMPDEST PUSH1 0x1 PUSH1 0x1 PUSH1 0xA0 SHL SUB DUP2 AND PUSH0 SWAP1 DUP2 MSTORE PUSH1 0x6D PUSH1 0x20 MSTORE PUSH1 0x40 SWAP1 KECCAK256 SLOAD PUSH1 0xFF AND ISZERO PUSH2 0x114A JUMPI PUSH1 0x40 MLOAD PUSH3 0x461BCD PUSH1 0xE5 SHL DUP2 MSTORE PUSH1 0x20 PUSH1 0x4 DUP3 ADD MSTORE PUSH1 0x1B PUSH1 0x24 DUP3 ADD MSTORE PUSH32 0x4163636F756E7420697320616C7265616479206578636C756465640000000000 PUSH1 0x44 DUP3 ADD MSTORE PUSH1 0x64 ADD PUSH2 0x5D8 JUMP JUMPDEST PUSH1 0x1 PUSH1 0x1 PUSH1 0xA0 SHL SUB AND PUSH0 SWAP1 DUP2 MSTORE PUSH1 0x6D PUSH1 0x20 MSTORE PUSH1 0x40 SWAP1 KECCAK256 DUP1 SLOAD PUSH1 0xFF NOT AND PUSH1 0x1 OR SWAP1 SSTORE JUMP JUMPDEST PUSH1 0x1 PUSH1 0x1 PUSH1 0xA0 SHL SUB DUP2 AND PUSH0 SWAP1 DUP2 MSTORE PUSH1 0x6C PUSH1 0x20 MSTORE PUSH1 0x40 SWAP1 KECCAK256 SLOAD PUSH1 0xFF AND ISZERO PUSH2 0x11D5 JUMPI PUSH1 0x40 MLOAD PUSH3 0x461BCD PUSH1 0xE5 SHL DUP2 MSTORE PUSH1 0x20 PUSH1 0x4 DUP3 ADD MSTORE PUSH1 0x1B PUSH1 0x24 DUP3 ADD MSTORE PUSH32 0x4163636F756E7420697320616C7265616479206578636C756465640000000000 PUSH1 0x44 DUP3 ADD MSTORE PUSH1 0x64 ADD PUSH2 0x5D8 JUMP JUMPDEST PUSH1 0x1 PUSH1 0x1 PUSH1 0xA0 SHL SUB DUP2 AND PUSH0 SWAP1 DUP2 MSTORE PUSH1 0x6A PUSH1 0x20 MSTORE PUSH1 0x40 SWAP1 KECCAK256 SLOAD ISZERO PUSH2 0x1214 JUMPI PUSH2 0x11FB DUP2 PUSH2 0x55F JUMP JUMPDEST PUSH1 0x1 PUSH1 0x1 PUSH1 0xA0 SHL SUB DUP3 AND PUSH0 SWAP1 DUP2 MSTORE PUSH1 0x69 PUSH1 0x20 MSTORE PUSH1 0x40 SWAP1 KECCAK256 SSTORE JUMPDEST PUSH1 0x1 PUSH1 0x1 PUSH1 0xA0 SHL SUB AND PUSH0 DUP2 DUP2 MSTORE PUSH1 0x6C PUSH1 0x20 MSTORE PUSH1 0x40 DUP2 KECCAK256 DUP1 SLOAD PUSH1 0xFF NOT AND PUSH1 0x1 SWAP1 DUP2 OR SWAP1 SWAP2 SSTORE PUSH1 0x68 DUP1 SLOAD SWAP2 DUP3 ADD DUP2 SSTORE SWAP1 SWAP2 MSTORE PUSH32 0xA2153420D844928B4421650203C77BABC8B33D7F2E7B450E2966DB0C22097753 ADD DUP1 SLOAD PUSH1 0x1 PUSH1 0x1 PUSH1 0xA0 SHL SUB NOT AND SWAP1 SWAP2 OR SWAP1 SSTORE JUMP JUMPDEST PUSH1 0x1 PUSH1 0x1 PUSH1 0xA0 SHL SUB DUP4 AND PUSH0 SWAP1 DUP2 MSTORE PUSH1 0x6C PUSH1 0x20 MSTORE PUSH1 0x40 SWAP1 KECCAK256 SLOAD PUSH1 0xFF AND DUP1 ISZERO PUSH2 0x12B8 JUMPI POP PUSH1 0x1 PUSH1 0x1 PUSH1 0xA0 SHL SUB DUP3 AND PUSH0 SWAP1 DUP2 MSTORE PUSH1 0x6C PUSH1 0x20 MSTORE PUSH1 0x40 SWAP1 KECCAK256 SLOAD PUSH1 0xFF AND ISZERO JUMPDEST ISZERO PUSH2 0x12CD JUMPI PUSH2 0x12C8 DUP4 DUP4 DUP4 PUSH2 0x13A4 JUMP JUMPDEST POP POP POP JUMP JUMPDEST PUSH1 0x1 PUSH1 0x1 PUSH1 0xA0 SHL SUB DUP4 AND PUSH0 SWAP1 DUP2 MSTORE PUSH1 0x6C PUSH1 0x20 MSTORE PUSH1 0x40 SWAP1 KECCAK256 SLOAD PUSH1 0xFF AND ISZERO DUP1 ISZERO PUSH2 0x130C JUMPI POP PUSH1 0x1 PUSH1 0x1 PUSH1 0xA0 SHL SUB DUP3 AND PUSH0 SWAP1 DUP2 MSTORE PUSH1 0x6C PUSH1 0x20 MSTORE PUSH1 0x40 SWAP1 KECCAK256 SLOAD PUSH1 0xFF AND JUMPDEST ISZERO PUSH2 0x131C JUMPI PUSH2 0x12C8 DUP4 DUP4 DUP4 PUSH2 0x160C JUMP JUMPDEST PUSH1 0x1 PUSH1 0x1 PUSH1 0xA0 SHL SUB DUP4 AND PUSH0 SWAP1 DUP2 MSTORE PUSH1 0x6C PUSH1 0x20 MSTORE PUSH1 0x40 SWAP1 KECCAK256 SLOAD PUSH1 0xFF AND DUP1 ISZERO PUSH2 0x135A JUMPI POP PUSH1 0x1 PUSH1 0x1 PUSH1 0xA0 SHL SUB DUP3 AND PUSH0 SWAP1 DUP2 MSTORE PUSH1 0x6C PUSH1 0x20 MSTORE PUSH1 0x40 SWAP1 KECCAK256 SLOAD PUSH1 0xFF AND JUMPDEST ISZERO PUSH2 0x136A JUMPI PUSH2 0x12C8 DUP4 DUP4 DUP4 PUSH2 0x1854 JUMP JUMPDEST PUSH2 0x12C8 DUP4 DUP4 DUP4 PUSH2 0x19A8 JUMP JUMPDEST PUSH0 SLOAD PUSH2 0x100 SWAP1 DIV PUSH1 0xFF AND PUSH2 0x139B JUMPI PUSH1 0x40 MLOAD PUSH3 0x461BCD PUSH1 0xE5 SHL DUP2 MSTORE PUSH1 0x4 ADD PUSH2 0x5D8 SWAP1 PUSH2 0x1EBE JUMP JUMPDEST PUSH2 0x668 CALLER PUSH2 0xFCA JUMP JUMPDEST PUSH2 0x13AC PUSH2 0x1B02 JUMP JUMPDEST PUSH1 0x72 SLOAD PUSH1 0xFF AND ISZERO ISZERO PUSH1 0x1 SUB PUSH2 0x144E JUMPI PUSH2 0x3E8 PUSH1 0x6F SLOAD PUSH2 0x13CB SWAP2 SWAP1 PUSH2 0x1D1D JUMP JUMPDEST DUP3 GT ISZERO PUSH2 0x144E JUMPI PUSH1 0x40 MLOAD PUSH3 0x461BCD PUSH1 0xE5 SHL DUP2 MSTORE PUSH1 0x20 PUSH1 0x4 DUP3 ADD MSTORE PUSH1 0x44 PUSH1 0x24 DUP3 ADD DUP2 SWAP1 MSTORE PUSH32 0x43616E6E6F74207075726368617365206D6F7265207468616E2031306D202830 SWAP1 DUP3 ADD MSTORE PUSH32 0x2E312529206F6620737570706C7920696E2073696E676C65207472616E736163 PUSH1 0x64 DUP3 ADD MSTORE PUSH4 0x3A34B7B7 PUSH1 0xE1 SHL PUSH1 0x84 DUP3 ADD MSTORE PUSH1 0xA4 ADD PUSH2 0x5D8 JUMP JUMPDEST DUP2 DUP2 MSTORE PUSH2 0x1459 PUSH2 0x942 JUMP JUMPDEST PUSH2 0x1463 SWAP1 DUP4 PUSH2 0x1F24 JUMP JUMPDEST PUSH1 0x20 DUP3 ADD MSTORE PUSH0 PUSH1 0x40 DUP3 ADD DUP2 SWAP1 MSTORE PUSH2 0x2710 SWAP1 PUSH2 0x147E SWAP1 DUP5 PUSH2 0x1F24 JUMP JUMPDEST PUSH2 0x1488 SWAP2 SWAP1 PUSH2 0x1D1D JUMP JUMPDEST PUSH1 0x80 DUP3 ADD MSTORE PUSH2 0x1495 PUSH2 0x942 JUMP JUMPDEST DUP2 PUSH1 0x80 ADD MLOAD PUSH2 0x14A4 SWAP2 SWAP1 PUSH2 0x1F24 JUMP JUMPDEST PUSH1 0xA0 DUP3 ADD DUP2 SWAP1 MSTORE ISZERO PUSH2 0x14BC JUMPI PUSH1 0xA0 DUP2 ADD MLOAD PUSH2 0x100 DUP3 ADD MSTORE JUMPDEST DUP1 MLOAD PUSH1 0x1 PUSH1 0x1 PUSH1 0xA0 SHL SUB DUP6 AND PUSH0 SWAP1 DUP2 MSTORE PUSH1 0x69 PUSH1 0x20 MSTORE PUSH1 0x40 DUP2 KECCAK256 DUP1 SLOAD SWAP1 SWAP2 SWAP1 PUSH2 0x14E5 SWAP1 DUP5 SWAP1 PUSH2 0x1CE3 JUMP JUMPDEST SWAP1 SWAP2 SSTORE POP POP PUSH1 0x20 DUP1 DUP3 ADD MLOAD PUSH1 0x1 PUSH1 0x1 PUSH1 0xA0 SHL SUB DUP7 AND PUSH0 SWAP1 DUP2 MSTORE PUSH1 0x6A SWAP1 SWAP3 MSTORE PUSH1 0x40 DUP3 KECCAK256 DUP1 SLOAD SWAP2 SWAP3 SWAP1 SWAP2 PUSH2 0x1518 SWAP1 DUP5 SWAP1 PUSH2 0x1CE3 JUMP JUMPDEST SWAP1 SWAP2 SSTORE POP POP PUSH1 0xA0 DUP2 ADD MLOAD PUSH1 0x20 DUP3 ADD MLOAD PUSH2 0x1531 SWAP2 SWAP1 PUSH2 0x1CE3 JUMP JUMPDEST PUSH1 0x1 PUSH1 0x1 PUSH1 0xA0 SHL SUB DUP5 AND PUSH0 SWAP1 DUP2 MSTORE PUSH1 0x6A PUSH1 0x20 MSTORE PUSH1 0x40 DUP2 KECCAK256 DUP1 SLOAD SWAP1 SWAP2 SWAP1 PUSH2 0x1558 SWAP1 DUP5 SWAP1 PUSH2 0x1CF6 JUMP JUMPDEST SWAP1 SWAP2 SSTORE POP POP PUSH2 0x100 DUP2 ADD MLOAD PUSH1 0x70 DUP1 SLOAD PUSH0 SWAP1 PUSH2 0x1574 SWAP1 DUP5 SWAP1 PUSH2 0x1CE3 JUMP JUMPDEST SWAP1 SWAP2 SSTORE POP POP PUSH1 0x80 DUP2 ADD MLOAD DUP2 MLOAD PUSH1 0x1 PUSH1 0x1 PUSH1 0xA0 SHL SUB DUP1 DUP7 AND SWAP3 SWAP1 DUP8 AND SWAP2 PUSH0 DUP1 MLOAD PUSH1 0x20 PUSH2 0x1F3C DUP4 CODECOPY DUP2 MLOAD SWAP2 MSTORE SWAP2 PUSH2 0x15A8 SWAP2 PUSH2 0x1CE3 JUMP JUMPDEST PUSH1 0x40 MLOAD SWAP1 DUP2 MSTORE PUSH1 0x20 ADD PUSH1 0x40 MLOAD DUP1 SWAP2 SUB SWAP1 LOG3 DUP1 MLOAD PUSH1 0x80 DUP3 ADD MLOAD PUSH32 0xE6EF78C5A1F105FC4B9500EEB7CD09B041367BDEE35F1D85761735EE78B3FF2E SWAP2 SWAP1 PUSH2 0x15ED SWAP1 DUP3 PUSH2 0x1CE3 JUMP JUMPDEST PUSH1 0x40 DUP1 MLOAD SWAP3 DUP4 MSTORE PUSH1 0x20 DUP4 ADD SWAP2 SWAP1 SWAP2 MSTORE ADD JUMPDEST PUSH1 0x40 MLOAD DUP1 SWAP2 SUB SWAP1 LOG1 POP POP POP POP JUMP JUMPDEST PUSH2 0x1614 PUSH2 0x1B02 JUMP JUMPDEST PUSH1 0xA PUSH2 0x161F DUP6 PUSH2 0x55F JUMP JUMPDEST PUSH2 0x1629 SWAP2 SWAP1 PUSH2 0x1D1D JUMP JUMPDEST DUP3 GT ISZERO PUSH2 0x169E JUMPI PUSH1 0x40 MLOAD PUSH3 0x461BCD PUSH1 0xE5 SHL DUP2 MSTORE PUSH1 0x20 PUSH1 0x4 DUP3 ADD MSTORE PUSH1 0x3A PUSH1 0x24 DUP3 ADD MSTORE PUSH32 0x43616E6E6F742073656C6C206D6F7265207468616E20313025206F662062616C PUSH1 0x44 DUP3 ADD MSTORE PUSH32 0x616E636520696E2073696E676C65207472616E73616374696F6E000000000000 PUSH1 0x64 DUP3 ADD MSTORE PUSH1 0x84 ADD PUSH2 0x5D8 JUMP JUMPDEST DUP2 DUP2 MSTORE PUSH2 0x16A9 PUSH2 0x942 JUMP JUMPDEST PUSH2 0x16B3 SWAP1 DUP4 PUSH2 0x1F24 JUMP JUMPDEST PUSH1 0x20 DUP3 ADD MSTORE PUSH0 PUSH1 0x60 DUP3 ADD DUP2 SWAP1 MSTORE PUSH2 0x2710 SWAP1 PUSH2 0x16CE SWAP1 DUP5 PUSH2 0x1F24 JUMP JUMPDEST PUSH2 0x16D8 SWAP2 SWAP1 PUSH2 0x1D1D JUMP JUMPDEST PUSH1 0xC0 DUP3 ADD MSTORE PUSH2 0x16E5 PUSH2 0x942 JUMP JUMPDEST DUP2 PUSH1 0xC0 ADD MLOAD PUSH2 0x16F4 SWAP2 SWAP1 PUSH2 0x1F24 JUMP JUMPDEST PUSH1 0xE0 DUP3 ADD DUP2 SWAP1 MSTORE ISZERO PUSH2 0x170C JUMPI PUSH1 0xE0 DUP2 ADD MLOAD PUSH2 0x100 DUP3 ADD MSTORE JUMPDEST DUP1 PUSH1 0x20 ADD MLOAD PUSH1 0x6A PUSH0 DUP7 PUSH1 0x1 PUSH1 0x1 PUSH1 0xA0 SHL SUB AND PUSH1 0x1 PUSH1 0x1 PUSH1 0xA0 SHL SUB AND DUP2 MSTORE PUSH1 0x20 ADD SWAP1 DUP2 MSTORE PUSH1 0x20 ADD PUSH0 KECCAK256 PUSH0 DUP3 DUP3 SLOAD PUSH2 0x1742 SWAP2 SWAP1 PUSH2 0x1CE3 JUMP JUMPDEST SWAP1 SWAP2 SSTORE POP POP PUSH1 0xC0 DUP2 ADD MLOAD DUP2 MLOAD PUSH2 0x1758 SWAP2 SWAP1 PUSH2 0x1CE3 JUMP JUMPDEST PUSH1 0x1 PUSH1 0x1 PUSH1 0xA0 SHL SUB DUP5 AND PUSH0 SWAP1 DUP2 MSTORE PUSH1 0x69 PUSH1 0x20 MSTORE PUSH1 0x40 DUP2 KECCAK256 DUP1 SLOAD SWAP1 SWAP2 SWAP1 PUSH2 0x177F SWAP1 DUP5 SWAP1 PUSH2 0x1CF6 JUMP JUMPDEST SWAP1 SWAP2 SSTORE POP POP PUSH1 0xE0 DUP2 ADD MLOAD PUSH1 0x20 DUP3 ADD MLOAD PUSH2 0x1798 SWAP2 SWAP1 PUSH2 0x1CE3 JUMP JUMPDEST PUSH1 0x1 PUSH1 0x1 PUSH1 0xA0 SHL SUB DUP5 AND PUSH0 SWAP1 DUP2 MSTORE PUSH1 0x6A PUSH1 0x20 MSTORE PUSH1 0x40 DUP2 KECCAK256 DUP1 SLOAD SWAP1 SWAP2 SWAP1 PUSH2 0x17BF SWAP1 DUP5 SWAP1 PUSH2 0x1CF6 JUMP JUMPDEST SWAP1 SWAP2 SSTORE POP POP PUSH2 0x100 DUP2 ADD MLOAD PUSH1 0x70 DUP1 SLOAD PUSH0 SWAP1 PUSH2 0x17DB SWAP1 DUP5 SWAP1 PUSH2 0x1CE3 JUMP JUMPDEST SWAP1 SWAP2 SSTORE POP POP PUSH1 0xC0 DUP2 ADD MLOAD DUP2 MLOAD PUSH1 0x1 PUSH1 0x1 PUSH1 0xA0 SHL SUB DUP1 DUP7 AND SWAP3 SWAP1 DUP8 AND SWAP2 PUSH0 DUP1 MLOAD PUSH1 0x20 PUSH2 0x1F3C DUP4 CODECOPY DUP2 MLOAD SWAP2 MSTORE SWAP2 PUSH2 0x180F SWAP2 PUSH2 0x1CE3 JUMP JUMPDEST PUSH1 0x40 MLOAD SWAP1 DUP2 MSTORE PUSH1 0x20 ADD PUSH1 0x40 MLOAD DUP1 SWAP2 SUB SWAP1 LOG3 DUP1 MLOAD PUSH1 0xC0 DUP3 ADD MLOAD PUSH32 0xFF000E16C1C0D33B07404C2B2ABB9832356B5CFD57566D73C9D09611F030890D SWAP2 SWAP1 PUSH2 0x15ED SWAP1 DUP3 PUSH2 0x1CE3 JUMP JUMPDEST PUSH2 0x185C PUSH2 0x1B02 JUMP JUMPDEST DUP2 DUP2 MSTORE PUSH2 0x1867 PUSH2 0x942 JUMP JUMPDEST PUSH2 0x1871 SWAP1 DUP4 PUSH2 0x1F24 JUMP JUMPDEST PUSH1 0x20 DUP1 DUP4 ADD SWAP2 SWAP1 SWAP2 MSTORE DUP2 MLOAD PUSH1 0x1 PUSH1 0x1 PUSH1 0xA0 SHL SUB DUP7 AND PUSH0 SWAP1 DUP2 MSTORE PUSH1 0x69 SWAP1 SWAP3 MSTORE PUSH1 0x40 DUP3 KECCAK256 DUP1 SLOAD SWAP2 SWAP3 SWAP1 SWAP2 PUSH2 0x18A4 SWAP1 DUP5 SWAP1 PUSH2 0x1CE3 JUMP JUMPDEST SWAP1 SWAP2 SSTORE POP POP PUSH1 0x20 DUP1 DUP3 ADD MLOAD PUSH1 0x1 PUSH1 0x1 PUSH1 0xA0 SHL SUB DUP7 AND PUSH0 SWAP1 DUP2 MSTORE PUSH1 0x6A SWAP1 SWAP3 MSTORE PUSH1 0x40 DUP3 KECCAK256 DUP1 SLOAD SWAP2 SWAP3 SWAP1 SWAP2 PUSH2 0x18D7 SWAP1 DUP5 SWAP1 PUSH2 0x1CE3 JUMP JUMPDEST SWAP1 SWAP2 SSTORE POP POP DUP1 MLOAD PUSH1 0x1 PUSH1 0x1 PUSH1 0xA0 SHL SUB DUP5 AND PUSH0 SWAP1 DUP2 MSTORE PUSH1 0x69 PUSH1 0x20 MSTORE PUSH1 0x40 DUP2 KECCAK256 DUP1 SLOAD SWAP1 SWAP2 SWAP1 PUSH2 0x1905 SWAP1 DUP5 SWAP1 PUSH2 0x1CF6 JUMP JUMPDEST SWAP1 SWAP2 SSTORE POP POP PUSH1 0x20 DUP1 DUP3 ADD MLOAD PUSH1 0x1 PUSH1 0x1 PUSH1 0xA0 SHL SUB DUP6 AND PUSH0 SWAP1 DUP2 MSTORE PUSH1 0x6A SWAP1 SWAP3 MSTORE PUSH1 0x40 DUP3 KECCAK256 DUP1 SLOAD SWAP2 SWAP3 SWAP1 SWAP2 PUSH2 0x1938 SWAP1 DUP5 SWAP1 PUSH2 0x1CF6 JUMP JUMPDEST SWAP1 SWAP2 SSTORE POP POP DUP1 MLOAD PUSH1 0x40 MLOAD SWAP1 DUP2 MSTORE PUSH1 0x1 PUSH1 0x1 PUSH1 0xA0 SHL SUB DUP5 DUP2 AND SWAP2 SWAP1 DUP7 AND SWAP1 PUSH0 DUP1 MLOAD PUSH1 0x20 PUSH2 0x1F3C DUP4 CODECOPY DUP2 MLOAD SWAP2 MSTORE SWAP1 PUSH1 0x20 ADD PUSH1 0x40 MLOAD DUP1 SWAP2 SUB SWAP1 LOG3 DUP1 MLOAD PUSH1 0x40 DUP1 MLOAD DUP3 DUP2 MSTORE PUSH1 0x20 DUP2 ADD SWAP3 SWAP1 SWAP3 MSTORE PUSH32 0x2541109A23D530C06D62A3BF63D8D03107194870126FDDB7170C0DAEF360CD8A SWAP2 ADD PUSH2 0x15FE JUMP JUMPDEST PUSH2 0x19B0 PUSH2 0x1B02 JUMP JUMPDEST PUSH8 0xDE0B6B3A7640000 PUSH2 0x19C2 DUP6 PUSH2 0x55F JUMP JUMPDEST PUSH2 0x19CC SWAP2 SWAP1 PUSH2 0x1CE3 JUMP JUMPDEST DUP3 GT ISZERO PUSH2 0x1A1B JUMPI PUSH1 0x40 MLOAD PUSH3 0x461BCD PUSH1 0xE5 SHL DUP2 MSTORE PUSH1 0x20 PUSH1 0x4 DUP3 ADD MSTORE PUSH1 0x1D PUSH1 0x24 DUP3 ADD MSTORE PUSH32 0x596F7520676F747461206B6565702031204D45544820616C7761797321000000 PUSH1 0x44 DUP3 ADD MSTORE PUSH1 0x64 ADD PUSH2 0x5D8 JUMP JUMPDEST DUP2 DUP2 MSTORE PUSH2 0x1A26 PUSH2 0x942 JUMP JUMPDEST PUSH2 0x1A30 SWAP1 DUP4 PUSH2 0x1F24 JUMP JUMPDEST PUSH1 0x20 DUP1 DUP4 ADD DUP3 SWAP1 MSTORE PUSH1 0x1 PUSH1 0x1 PUSH1 0xA0 SHL SUB DUP7 AND PUSH0 SWAP1 DUP2 MSTORE PUSH1 0x6A SWAP1 SWAP2 MSTORE PUSH1 0x40 DUP2 KECCAK256 DUP1 SLOAD SWAP1 SWAP2 SWAP1 PUSH2 0x1A5F SWAP1 DUP5 SWAP1 PUSH2 0x1CE3 JUMP JUMPDEST SWAP1 SWAP2 SSTORE POP POP PUSH1 0x20 DUP1 DUP3 ADD MLOAD PUSH1 0x1 PUSH1 0x1 PUSH1 0xA0 SHL SUB DUP6 AND PUSH0 SWAP1 DUP2 MSTORE PUSH1 0x6A SWAP1 SWAP3 MSTORE PUSH1 0x40 DUP3 KECCAK256 DUP1 SLOAD SWAP2 SWAP3 SWAP1 SWAP2 PUSH2 0x1A92 SWAP1 DUP5 SWAP1 PUSH2 0x1CF6 JUMP JUMPDEST SWAP1 SWAP2 SSTORE POP POP DUP1 MLOAD PUSH1 0x40 MLOAD SWAP1 DUP2 MSTORE PUSH1 0x1 PUSH1 0x1 PUSH1 0xA0 SHL SUB DUP5 DUP2 AND SWAP2 SWAP1 DUP7 AND SWAP1 PUSH0 DUP1 MLOAD PUSH1 0x20 PUSH2 0x1F3C DUP4 CODECOPY DUP2 MLOAD SWAP2 MSTORE SWAP1 PUSH1 0x20 ADD PUSH1 0x40 MLOAD DUP1 SWAP2 SUB SWAP1 LOG3 DUP1 MLOAD PUSH1 0x40 DUP1 MLOAD DUP3 DUP2 MSTORE PUSH1 0x20 DUP2 ADD SWAP3 SWAP1 SWAP3 MSTORE PUSH32 0xD9923E08D9D88FF7A7E9B8460F3163DC6B887FABE315449DA3B5CD16BB5E9340 SWAP2 ADD PUSH2 0x15FE JUMP JUMPDEST PUSH1 0x40 MLOAD DUP1 PUSH2 0x120 ADD PUSH1 0x40 MSTORE DUP1 PUSH0 DUP2 MSTORE PUSH1 0x20 ADD PUSH0 DUP2 MSTORE PUSH1 0x20 ADD PUSH0 DUP2 MSTORE PUSH1 0x20 ADD PUSH0 DUP2 MSTORE PUSH1 0x20 ADD PUSH0 DUP2 MSTORE PUSH1 0x20 ADD PUSH0 DUP2 MSTORE PUSH1 0x20 ADD PUSH0 DUP2 MSTORE PUSH1 0x20 ADD PUSH0 DUP2 MSTORE PUSH1 0x20 ADD PUSH0 DUP2 MSTORE POP SWAP1 JUMP JUMPDEST PUSH0 JUMPDEST DUP4 DUP2 LT ISZERO PUSH2 0x1B5F JUMPI DUP2 DUP2 ADD MLOAD DUP4 DUP3 ADD MSTORE PUSH1 0x20 ADD PUSH2 0x1B47 JUMP JUMPDEST POP POP PUSH0 SWAP2 ADD MSTORE JUMP JUMPDEST PUSH1 0x20 DUP2 MSTORE PUSH0 DUP3 MLOAD DUP1 PUSH1 0x20 DUP5 ADD MSTORE PUSH2 0x1B85 DUP2 PUSH1 0x40 DUP6 ADD PUSH1 0x20 DUP8 ADD PUSH2 0x1B45 JUMP JUMPDEST PUSH1 0x1F ADD PUSH1 0x1F NOT AND SWAP2 SWAP1 SWAP2 ADD PUSH1 0x40 ADD SWAP3 SWAP2 POP POP JUMP JUMPDEST DUP1 CALLDATALOAD PUSH1 0x1 PUSH1 0x1 PUSH1 0xA0 SHL SUB DUP2 AND DUP2 EQ PUSH2 0x652 JUMPI PUSH0 DUP1 REVERT JUMPDEST PUSH0 DUP1 PUSH1 0x40 DUP4 DUP6 SUB SLT ISZERO PUSH2 0x1BC0 JUMPI PUSH0 DUP1 REVERT JUMPDEST PUSH2 0x1BC9 DUP4 PUSH2 0x1B99 JUMP JUMPDEST SWAP5 PUSH1 0x20 SWAP4 SWAP1 SWAP4 ADD CALLDATALOAD SWAP4 POP POP POP JUMP JUMPDEST PUSH0 DUP1 PUSH0 PUSH1 0x60 DUP5 DUP7 SUB SLT ISZERO PUSH2 0x1BE9 JUMPI PUSH0 DUP1 REVERT JUMPDEST PUSH2 0x1BF2 DUP5 PUSH2 0x1B99 JUMP JUMPDEST SWAP3 POP PUSH2 0x1C00 PUSH1 0x20 DUP6 ADD PUSH2 0x1B99 JUMP JUMPDEST SWAP2 POP PUSH1 0x40 DUP5 ADD CALLDATALOAD SWAP1 POP SWAP3 POP SWAP3 POP SWAP3 JUMP JUMPDEST PUSH0 PUSH1 0x20 DUP3 DUP5 SUB SLT ISZERO PUSH2 0x1C20 JUMPI PUSH0 DUP1 REVERT JUMPDEST POP CALLDATALOAD SWAP2 SWAP1 POP JUMP JUMPDEST PUSH0 PUSH1 0x20 DUP3 DUP5 SUB SLT ISZERO PUSH2 0x1C37 JUMPI PUSH0 DUP1 REVERT JUMPDEST PUSH2 0x1C40 DUP3 PUSH2 0x1B99 JUMP JUMPDEST SWAP4 SWAP3 POP POP POP JUMP JUMPDEST PUSH0 PUSH1 0x20 DUP3 DUP5 SUB SLT ISZERO PUSH2 0x1C57 JUMPI PUSH0 DUP1 REVERT JUMPDEST DUP2 CALLDATALOAD DUP1 ISZERO ISZERO DUP2 EQ PUSH2 0x1C40 JUMPI PUSH0 DUP1 REVERT JUMPDEST PUSH0 DUP1 PUSH1 0x40 DUP4 DUP6 SUB SLT ISZERO PUSH2 0x1C77 JUMPI PUSH0 DUP1 REVERT JUMPDEST PUSH2 0x1C80 DUP4 PUSH2 0x1B99 JUMP JUMPDEST SWAP2 POP PUSH2 0x1C8E PUSH1 0x20 DUP5 ADD PUSH2 0x1B99 JUMP JUMPDEST SWAP1 POP SWAP3 POP SWAP3 SWAP1 POP JUMP JUMPDEST PUSH1 0x1 DUP2 DUP2 SHR SWAP1 DUP3 AND DUP1 PUSH2 0x1CAB JUMPI PUSH1 0x7F DUP3 AND SWAP2 POP JUMPDEST PUSH1 0x20 DUP3 LT DUP2 SUB PUSH2 0x1CC9 JUMPI PUSH4 0x4E487B71 PUSH1 0xE0 SHL PUSH0 MSTORE PUSH1 0x22 PUSH1 0x4 MSTORE PUSH1 0x24 PUSH0 REVERT JUMPDEST POP SWAP2 SWAP1 POP JUMP JUMPDEST PUSH4 0x4E487B71 PUSH1 0xE0 SHL PUSH0 MSTORE PUSH1 0x11 PUSH1 0x4 MSTORE PUSH1 0x24 PUSH0 REVERT JUMPDEST DUP2 DUP2 SUB DUP2 DUP2 GT ISZERO PUSH2 0x4AB JUMPI PUSH2 0x4AB PUSH2 0x1CCF JUMP JUMPDEST DUP1 DUP3 ADD DUP1 DUP3 GT ISZERO PUSH2 0x4AB JUMPI PUSH2 0x4AB PUSH2 0x1CCF JUMP JUMPDEST PUSH4 0x4E487B71 PUSH1 0xE0 SHL PUSH0 MSTORE PUSH1 0x12 PUSH1 0x4 MSTORE PUSH1 0x24 PUSH0 REVERT JUMPDEST PUSH0 DUP3 PUSH2 0x1D2B JUMPI PUSH2 0x1D2B PUSH2 0x1D09 JUMP JUMPDEST POP DIV SWAP1 JUMP JUMPDEST PUSH4 0x4E487B71 PUSH1 0xE0 SHL PUSH0 MSTORE PUSH1 0x41 PUSH1 0x4 MSTORE PUSH1 0x24 PUSH0 REVERT JUMPDEST PUSH1 0x1F DUP3 GT ISZERO PUSH2 0x12C8 JUMPI DUP1 PUSH0 MSTORE PUSH1 0x20 PUSH0 KECCAK256 PUSH1 0x1F DUP5 ADD PUSH1 0x5 SHR DUP2 ADD PUSH1 0x20 DUP6 LT ISZERO PUSH2 0x1D69 JUMPI POP DUP1 JUMPDEST PUSH1 0x1F DUP5 ADD PUSH1 0x5 SHR DUP3 ADD SWAP2 POP JUMPDEST DUP2 DUP2 LT ISZERO PUSH2 0x1D88 JUMPI PUSH0 DUP2 SSTORE PUSH1 0x1 ADD PUSH2 0x1D75 JUMP JUMPDEST POP POP POP POP POP JUMP JUMPDEST DUP2 MLOAD PUSH8 0xFFFFFFFFFFFFFFFF DUP2 GT ISZERO PUSH2 0x1DA9 JUMPI PUSH2 0x1DA9 PUSH2 0x1D30 JUMP JUMPDEST PUSH2 0x1DBD DUP2 PUSH2 0x1DB7 DUP5 SLOAD PUSH2 0x1C97 JUMP JUMPDEST DUP5 PUSH2 0x1D44 JUMP JUMPDEST PUSH1 0x20 DUP1 PUSH1 0x1F DUP4 GT PUSH1 0x1 DUP2 EQ PUSH2 0x1DF0 JUMPI PUSH0 DUP5 ISZERO PUSH2 0x1DD9 JUMPI POP DUP6 DUP4 ADD MLOAD JUMPDEST PUSH0 NOT PUSH1 0x3 DUP7 SWAP1 SHL SHR NOT AND PUSH1 0x1 DUP6 SWAP1 SHL OR DUP6 SSTORE PUSH2 0x1E47 JUMP JUMPDEST PUSH0 DUP6 DUP2 MSTORE PUSH1 0x20 DUP2 KECCAK256 PUSH1 0x1F NOT DUP7 AND SWAP2 JUMPDEST DUP3 DUP2 LT ISZERO PUSH2 0x1E1E JUMPI DUP9 DUP7 ADD MLOAD DUP3 SSTORE SWAP5 DUP5 ADD SWAP5 PUSH1 0x1 SWAP1 SWAP2 ADD SWAP1 DUP5 ADD PUSH2 0x1DFF JUMP JUMPDEST POP DUP6 DUP3 LT ISZERO PUSH2 0x1E3B JUMPI DUP8 DUP6 ADD MLOAD PUSH0 NOT PUSH1 0x3 DUP9 SWAP1 SHL PUSH1 0xF8 AND SHR NOT AND DUP2 SSTORE JUMPDEST POP POP PUSH1 0x1 DUP5 PUSH1 0x1 SHL ADD DUP6 SSTORE JUMPDEST POP POP POP POP POP POP JUMP JUMPDEST PUSH0 DUP3 PUSH2 0x1E5D JUMPI PUSH2 0x1E5D PUSH2 0x1D09 JUMP JUMPDEST POP MOD SWAP1 JUMP JUMPDEST PUSH4 0x4E487B71 PUSH1 0xE0 SHL PUSH0 MSTORE PUSH1 0x32 PUSH1 0x4 MSTORE PUSH1 0x24 PUSH0 REVERT JUMPDEST PUSH1 0x20 DUP1 DUP3 MSTORE PUSH1 0x28 SWAP1 DUP3 ADD MSTORE PUSH32 0x5472616E7366657220616D6F756E74206578636565647320746865206D617854 PUSH1 0x40 DUP3 ADD MSTORE PUSH8 0x3C20B6B7BAB73A17 PUSH1 0xC1 SHL PUSH1 0x60 DUP3 ADD MSTORE PUSH1 0x80 ADD SWAP1 JUMP JUMPDEST PUSH1 0x20 DUP1 DUP3 MSTORE PUSH1 0x2B SWAP1 DUP3 ADD MSTORE PUSH32 0x496E697469616C697A61626C653A20636F6E7472616374206973206E6F742069 PUSH1 0x40 DUP3 ADD MSTORE PUSH11 0x6E697469616C697A696E67 PUSH1 0xA8 SHL PUSH1 0x60 DUP3 ADD MSTORE PUSH1 0x80 ADD SWAP1 JUMP JUMPDEST PUSH0 DUP3 MLOAD PUSH2 0x1F1A DUP2 DUP5 PUSH1 0x20 DUP8 ADD PUSH2 0x1B45 JUMP JUMPDEST SWAP2 SWAP1 SWAP2 ADD SWAP3 SWAP2 POP POP JUMP JUMPDEST DUP1 DUP3 MUL DUP2 ISZERO DUP3 DUP3 DIV DUP5 EQ OR PUSH2 0x4AB JUMPI PUSH2 0x4AB PUSH2 0x1CCF JUMP INVALID 0xDD CALLCODE MSTORE 0xAD SHL 0xE2 0xC8 SWAP12 PUSH10 0xC2B068FC378DAA952BA7 CALL PUSH4 0xC4A11628 CREATE2 GAS 0x4D CREATE2 0x23 0xB3 0xEF LOG2 PUSH5 0x6970667358 0x22 SLT KECCAK256 GASLIMIT SLOAD 0xE5 0xB0 0xF6 TIMESTAMP PUSH8 0x65178E5F7312FDFF SWAP4 JUMPI 0xD PUSH23 0x15D0349F198C19856FAF32AE4B64736F6C634300081800 CALLER "
				},
				"gasEstimates": {
					"creation": {
						"codeDepositCost": "1616200",
						"executionCost": "25910",
						"totalCost": "1642110"
					},
					"external": {
						"_excluded(uint256)": "4679",
						"_getCurrentSupply()": "infinite",
						"_getRate()": "infinite",
						"_rTotal()": "2340",
						"_tTotal()": "2338",
						"allowance(address,address)": "infinite",
						"antiWhale()": "2399",
						"approve(address,uint256)": "24639",
						"balanceOf(address)": "infinite",
						"decimals()": "2400",
						"decreaseAllowance(address,uint256)": "infinite",
						"increaseAllowance(address,uint256)": "infinite",
						"initialize()": "infinite",
						"isExcluded(address)": "2612",
						"isExcludedFromMaxTx(address)": "2613",
						"maxTxAmount()": "2339",
						"name()": "infinite",
						"owner()": "2397",
						"rBalanceOf(address)": "infinite",
						"renounceOwnership()": "infinite",
						"setAntiWhaleStatus(bool)": "26746",
						"symbol()": "infinite",
						"totalSupply()": "2348",
						"transfer(address,uint256)": "infinite",
						"transferFrom(address,address,uint256)": "infinite",
						"transferOwnership(address)": "28443",
						"viewTBalanceRBalance(address)": "4776"
					},
					"internal": {
						"_approve(address,address,uint256)": "infinite",
						"_tokenTransfer(address,address,uint256)": "infinite",
						"_transfer(address,address,uint256)": "infinite",
						"_transferBothExcluded(address,address,uint256)": "infinite",
						"_transferFromExcluded(address,address,uint256)": "infinite",
						"_transferStandard(address,address,uint256)": "infinite",
						"_transferToExcluded(address,address,uint256)": "infinite",
						"excludeAddress(address)": "infinite",
						"excludeFromMaxTx(address)": "infinite",
						"isRouter(address)": "infinite"
					}
				},
				"methodIdentifiers": {
					"_excluded(uint256)": "4d09deb3",
					"_getCurrentSupply()": "97a9d560",
					"_getRate()": "94e10784",
					"_rTotal()": "45e0b9d4",
					"_tTotal()": "af465a27",
					"allowance(address,address)": "dd62ed3e",
					"antiWhale()": "4dacf3f5",
					"approve(address,uint256)": "095ea7b3",
					"balanceOf(address)": "70a08231",
					"decimals()": "313ce567",
					"decreaseAllowance(address,uint256)": "a457c2d7",
					"increaseAllowance(address,uint256)": "39509351",
					"initialize()": "8129fc1c",
					"isExcluded(address)": "cba0e996",
					"isExcludedFromMaxTx(address)": "658c27a9",
					"maxTxAmount()": "8c0b5e22",
					"name()": "06fdde03",
					"owner()": "8da5cb5b",
					"rBalanceOf(address)": "5319e78f",
					"renounceOwnership()": "715018a6",
					"setAntiWhaleStatus(bool)": "83f24c09",
					"symbol()": "95d89b41",
					"totalSupply()": "18160ddd",
					"transfer(address,uint256)": "a9059cbb",
					"transferFrom(address,address,uint256)": "23b872dd",
					"transferOwnership(address)": "f2fde38b",
					"viewTBalanceRBalance(address)": "80da2287"
				}
			},
			"storageLayout": {
				"storage": [
					{
						"astId": 333,
						"contract": "METH.sol:METH",
						"label": "_initialized",
						"offset": 0,
						"slot": "0",
						"type": "t_uint8"
					},
					{
						"astId": 336,
						"contract": "METH.sol:METH",
						"label": "_initializing",
						"offset": 1,
						"slot": "0",
						"type": "t_bool"
					},
					{
						"astId": 541,
						"contract": "METH.sol:METH",
						"label": "__gap",
						"offset": 0,
						"slot": "1",
						"type": "t_array(t_uint256)50_storage"
					},
					{
						"astId": 549,
						"contract": "METH.sol:METH",
						"label": "_owner",
						"offset": 0,
						"slot": "51",
						"type": "t_address"
					},
					{
						"astId": 669,
						"contract": "METH.sol:METH",
						"label": "__gap",
						"offset": 0,
						"slot": "52",
						"type": "t_array(t_uint256)49_storage"
					},
					{
						"astId": 755,
						"contract": "METH.sol:METH",
						"label": "_name",
						"offset": 0,
						"slot": "101",
						"type": "t_string_storage"
					},
					{
						"astId": 757,
						"contract": "METH.sol:METH",
						"label": "_symbol",
						"offset": 0,
						"slot": "102",
						"type": "t_string_storage"
					},
					{
						"astId": 759,
						"contract": "METH.sol:METH",
						"label": "_decimals",
						"offset": 0,
						"slot": "103",
						"type": "t_uint8"
					},
					{
						"astId": 763,
						"contract": "METH.sol:METH",
						"label": "_excluded",
						"offset": 0,
						"slot": "104",
						"type": "t_array(t_address)dyn_storage"
					},
					{
						"astId": 768,
						"contract": "METH.sol:METH",
						"label": "_tOwned",
						"offset": 0,
						"slot": "105",
						"type": "t_mapping(t_address,t_uint256)"
					},
					{
						"astId": 773,
						"contract": "METH.sol:METH",
						"label": "_rOwned",
						"offset": 0,
						"slot": "106",
						"type": "t_mapping(t_address,t_uint256)"
					},
					{
						"astId": 780,
						"contract": "METH.sol:METH",
						"label": "_allowances",
						"offset": 0,
						"slot": "107",
						"type": "t_mapping(t_address,t_mapping(t_address,t_uint256))"
					},
					{
						"astId": 785,
						"contract": "METH.sol:METH",
						"label": "_isExcluded",
						"offset": 0,
						"slot": "108",
						"type": "t_mapping(t_address,t_bool)"
					},
					{
						"astId": 790,
						"contract": "METH.sol:METH",
						"label": "_isExcludedFromMaxTx",
						"offset": 0,
						"slot": "109",
						"type": "t_mapping(t_address,t_bool)"
					},
					{
						"astId": 793,
						"contract": "METH.sol:METH",
						"label": "_MAX",
						"offset": 0,
						"slot": "110",
						"type": "t_uint256"
					},
					{
						"astId": 796,
						"contract": "METH.sol:METH",
						"label": "_tTotal",
						"offset": 0,
						"slot": "111",
						"type": "t_uint256"
					},
					{
						"astId": 799,
						"contract": "METH.sol:METH",
						"label": "_rTotal",
						"offset": 0,
						"slot": "112",
						"type": "t_uint256"
					},
					{
						"astId": 802,
						"contract": "METH.sol:METH",
						"label": "maxTxAmount",
						"offset": 0,
						"slot": "113",
						"type": "t_uint256"
					},
					{
						"astId": 804,
						"contract": "METH.sol:METH",
						"label": "antiWhale",
						"offset": 0,
						"slot": "114",
						"type": "t_bool"
					},
					{
						"astId": 1417,
						"contract": "METH.sol:METH",
						"label": "mutex",
						"offset": 1,
						"slot": "114",
						"type": "t_bool"
					}
				],
				"types": {
					"t_address": {
						"encoding": "inplace",
						"label": "address",
						"numberOfBytes": "20"
					},
					"t_array(t_address)dyn_storage": {
						"base": "t_address",
						"encoding": "dynamic_array",
						"label": "address[]",
						"numberOfBytes": "32"
					},
					"t_array(t_uint256)49_storage": {
						"base": "t_uint256",
						"encoding": "inplace",
						"label": "uint256[49]",
						"numberOfBytes": "1568"
					},
					"t_array(t_uint256)50_storage": {
						"base": "t_uint256",
						"encoding": "inplace",
						"label": "uint256[50]",
						"numberOfBytes": "1600"
					},
					"t_bool": {
						"encoding": "inplace",
						"label": "bool",
						"numberOfBytes": "1"
					},
					"t_mapping(t_address,t_bool)": {
						"encoding": "mapping",
						"key": "t_address",
						"label": "mapping(address => bool)",
						"numberOfBytes": "32",
						"value": "t_bool"
					},
					"t_mapping(t_address,t_mapping(t_address,t_uint256))": {
						"encoding": "mapping",
						"key": "t_address",
						"label": "mapping(address => mapping(address => uint256))",
						"numberOfBytes": "32",
						"value": "t_mapping(t_address,t_uint256)"
					},
					"t_mapping(t_address,t_uint256)": {
						"encoding": "mapping",
						"key": "t_address",
						"label": "mapping(address => uint256)",
						"numberOfBytes": "32",
						"value": "t_uint256"
					},
					"t_string_storage": {
						"encoding": "bytes",
						"label": "string",
						"numberOfBytes": "32"
					},
					"t_uint256": {
						"encoding": "inplace",
						"label": "uint256",
						"numberOfBytes": "32"
					},
					"t_uint8": {
						"encoding": "inplace",
						"label": "uint8",
						"numberOfBytes": "1"
					}
				}
			},
			"userdoc": {
				"kind": "user",
				"methods": {
					"_excluded(uint256)": {
						"notice": "array of address which are excluded from rewards"
					},
					"_getCurrentSupply()": {
						"notice": "used by the _getRate function to return two values: rSupply and tSupply"
					},
					"_getRate()": {
						"notice": "function used by the getValues function"
					},
					"_rTotal()": {
						"notice": "/// rTotal is a calculated value - rTotal = MAX − (MAX mod tTotal) /// (Note: value will go down after each buy/sell transaction)  "
					},
					"_tTotal()": {
						"notice": "the total fixed supply of METH tokens"
					},
					"allowance(address,address)": {
						"notice": "uses \"override\" and returns the value from the _allowances function"
					},
					"approve(address,uint256)": {
						"notice": "uses \"override\" and returns the custom _approve function"
					},
					"balanceOf(address)": {
						"notice": "uses \"override\" - returns tOwned amounts for excluded addresses and rOwned amounts for all others"
					},
					"decimals()": {
						"notice": "token decimals"
					},
					"decreaseAllowance(address,uint256)": {
						"notice": "uses \"override\" and calls the _approve function"
					},
					"increaseAllowance(address,uint256)": {
						"notice": "uses \"override\" and calls the _approve function"
					},
					"isExcluded(address)": {
						"notice": "checks if address is excluded from reflection rewards"
					},
					"isExcludedFromMaxTx(address)": {
						"notice": "checks if address is excluded from Max Tx"
					},
					"maxTxAmount()": {
						"notice": "maximum transation amount"
					},
					"name()": {
						"notice": "token name"
					},
					"rBalanceOf(address)": {
						"notice": "Used by the standard ERC20 \"balanceOf()\" function /// returns the rAmount divided by the current rate value. "
					},
					"symbol()": {
						"notice": "token symbol"
					},
					"totalSupply()": {
						"notice": "uses \"override\" to return value from _tTotal (tSpace)"
					},
					"transfer(address,uint256)": {
						"notice": "uses \"override\" to call the _transfer function"
					},
					"transferFrom(address,address,uint256)": {
						"notice": "uses \"override\" and calls the  _transfer and the _approve functions"
					},
					"viewTBalanceRBalance(address)": {
						"notice": "verify account balance in both tSpace and rSpace"
					}
				},
				"notice": "Serves as a dynamic reflection token",
				"version": 1
			}
		}
	}
}