{
	"METH_unflattned.sol": {
		"METH": {
			"abi": [
				{
					"anonymous": false,
					"inputs": [
						{
							"indexed": true,
							"internalType": "address",
							"name": "owner",
							"type": "address"
						},
						{
							"indexed": true,
							"internalType": "address",
							"name": "spender",
							"type": "address"
						},
						{
							"indexed": false,
							"internalType": "uint256",
							"name": "value",
							"type": "uint256"
						}
					],
					"name": "Approval",
					"type": "event"
				},
				{
					"anonymous": false,
					"inputs": [
						{
							"indexed": false,
							"internalType": "uint8",
							"name": "version",
							"type": "uint8"
						}
					],
					"name": "Initialized",
					"type": "event"
				},
				{
					"anonymous": false,
					"inputs": [
						{
							"indexed": true,
							"internalType": "address",
							"name": "previousOwner",
							"type": "address"
						},
						{
							"indexed": true,
							"internalType": "address",
							"name": "newOwner",
							"type": "address"
						}
					],
					"name": "OwnershipTransferred",
					"type": "event"
				},
				{
					"anonymous": false,
					"inputs": [
						{
							"indexed": true,
							"internalType": "address",
							"name": "from",
							"type": "address"
						},
						{
							"indexed": true,
							"internalType": "address",
							"name": "to",
							"type": "address"
						},
						{
							"indexed": false,
							"internalType": "uint256",
							"name": "value",
							"type": "uint256"
						}
					],
					"name": "Transfer",
					"type": "event"
				},
				{
					"anonymous": false,
					"inputs": [
						{
							"indexed": false,
							"internalType": "uint256",
							"name": "amountSent",
							"type": "uint256"
						},
						{
							"indexed": false,
							"internalType": "uint256",
							"name": "amountReceived",
							"type": "uint256"
						}
					],
					"name": "TransferBothExcluded",
					"type": "event"
				},
				{
					"anonymous": false,
					"inputs": [
						{
							"indexed": false,
							"internalType": "uint256",
							"name": "amountSent",
							"type": "uint256"
						},
						{
							"indexed": false,
							"internalType": "uint256",
							"name": "amountReceived",
							"type": "uint256"
						}
					],
					"name": "TransferFromExcluded",
					"type": "event"
				},
				{
					"anonymous": false,
					"inputs": [
						{
							"indexed": false,
							"internalType": "uint256",
							"name": "amountSent",
							"type": "uint256"
						},
						{
							"indexed": false,
							"internalType": "uint256",
							"name": "amountReceived",
							"type": "uint256"
						}
					],
					"name": "TransferStandard",
					"type": "event"
				},
				{
					"anonymous": false,
					"inputs": [
						{
							"indexed": false,
							"internalType": "uint256",
							"name": "amountSent",
							"type": "uint256"
						},
						{
							"indexed": false,
							"internalType": "uint256",
							"name": "amountReceived",
							"type": "uint256"
						}
					],
					"name": "TransferToExcluded",
					"type": "event"
				},
				{
					"inputs": [
						{
							"internalType": "uint256",
							"name": "",
							"type": "uint256"
						}
					],
					"name": "_excluded",
					"outputs": [
						{
							"internalType": "address",
							"name": "",
							"type": "address"
						}
					],
					"stateMutability": "view",
					"type": "function"
				},
				{
					"inputs": [],
					"name": "_getCurrentSupply",
					"outputs": [
						{
							"internalType": "uint256",
							"name": "",
							"type": "uint256"
						},
						{
							"internalType": "uint256",
							"name": "",
							"type": "uint256"
						}
					],
					"stateMutability": "view",
					"type": "function"
				},
				{
					"inputs": [],
					"name": "_getRate",
					"outputs": [
						{
							"internalType": "uint256",
							"name": "",
							"type": "uint256"
						}
					],
					"stateMutability": "view",
					"type": "function"
				},
				{
					"inputs": [],
					"name": "_rTotal",
					"outputs": [
						{
							"internalType": "uint256",
							"name": "",
							"type": "uint256"
						}
					],
					"stateMutability": "view",
					"type": "function"
				},
				{
					"inputs": [],
					"name": "_tTotal",
					"outputs": [
						{
							"internalType": "uint256",
							"name": "",
							"type": "uint256"
						}
					],
					"stateMutability": "view",
					"type": "function"
				},
				{
					"inputs": [
						{
							"internalType": "address",
							"name": "owner",
							"type": "address"
						},
						{
							"internalType": "address",
							"name": "spender",
							"type": "address"
						}
					],
					"name": "allowance",
					"outputs": [
						{
							"internalType": "uint256",
							"name": "",
							"type": "uint256"
						}
					],
					"stateMutability": "view",
					"type": "function"
				},
				{
					"inputs": [],
					"name": "antiWhale",
					"outputs": [
						{
							"internalType": "bool",
							"name": "",
							"type": "bool"
						}
					],
					"stateMutability": "view",
					"type": "function"
				},
				{
					"inputs": [
						{
							"internalType": "address",
							"name": "spender",
							"type": "address"
						},
						{
							"internalType": "uint256",
							"name": "amount",
							"type": "uint256"
						}
					],
					"name": "approve",
					"outputs": [
						{
							"internalType": "bool",
							"name": "",
							"type": "bool"
						}
					],
					"stateMutability": "nonpayable",
					"type": "function"
				},
				{
					"inputs": [
						{
							"internalType": "address",
							"name": "account",
							"type": "address"
						}
					],
					"name": "balanceOf",
					"outputs": [
						{
							"internalType": "uint256",
							"name": "",
							"type": "uint256"
						}
					],
					"stateMutability": "view",
					"type": "function"
				},
				{
					"inputs": [],
					"name": "decimals",
					"outputs": [
						{
							"internalType": "uint8",
							"name": "",
							"type": "uint8"
						}
					],
					"stateMutability": "view",
					"type": "function"
				},
				{
					"inputs": [
						{
							"internalType": "address",
							"name": "spender",
							"type": "address"
						},
						{
							"internalType": "uint256",
							"name": "subtractedValue",
							"type": "uint256"
						}
					],
					"name": "decreaseAllowance",
					"outputs": [
						{
							"internalType": "bool",
							"name": "",
							"type": "bool"
						}
					],
					"stateMutability": "nonpayable",
					"type": "function"
				},
				{
					"inputs": [],
					"name": "getTenPercentOfBalance",
					"outputs": [
						{
							"internalType": "uint256",
							"name": "",
							"type": "uint256"
						}
					],
					"stateMutability": "view",
					"type": "function"
				},
				{
					"inputs": [
						{
							"internalType": "address",
							"name": "spender",
							"type": "address"
						},
						{
							"internalType": "uint256",
							"name": "addedValue",
							"type": "uint256"
						}
					],
					"name": "increaseAllowance",
					"outputs": [
						{
							"internalType": "bool",
							"name": "",
							"type": "bool"
						}
					],
					"stateMutability": "nonpayable",
					"type": "function"
				},
				{
					"inputs": [],
					"name": "initialize",
					"outputs": [],
					"stateMutability": "nonpayable",
					"type": "function"
				},
				{
					"inputs": [
						{
							"internalType": "address",
							"name": "account",
							"type": "address"
						}
					],
					"name": "isExcluded",
					"outputs": [
						{
							"internalType": "bool",
							"name": "",
							"type": "bool"
						}
					],
					"stateMutability": "view",
					"type": "function"
				},
				{
					"inputs": [
						{
							"internalType": "address",
							"name": "account",
							"type": "address"
						}
					],
					"name": "isExcludedFromMaxTx",
					"outputs": [
						{
							"internalType": "bool",
							"name": "",
							"type": "bool"
						}
					],
					"stateMutability": "view",
					"type": "function"
				},
				{
					"inputs": [],
					"name": "maxTxAmount",
					"outputs": [
						{
							"internalType": "uint256",
							"name": "",
							"type": "uint256"
						}
					],
					"stateMutability": "view",
					"type": "function"
				},
				{
					"inputs": [],
					"name": "name",
					"outputs": [
						{
							"internalType": "string",
							"name": "",
							"type": "string"
						}
					],
					"stateMutability": "view",
					"type": "function"
				},
				{
					"inputs": [],
					"name": "owner",
					"outputs": [
						{
							"internalType": "address",
							"name": "",
							"type": "address"
						}
					],
					"stateMutability": "view",
					"type": "function"
				},
				{
					"inputs": [
						{
							"internalType": "address",
							"name": "account",
							"type": "address"
						}
					],
					"name": "rBalanceOf",
					"outputs": [
						{
							"internalType": "uint256",
							"name": "",
							"type": "uint256"
						}
					],
					"stateMutability": "view",
					"type": "function"
				},
				{
					"inputs": [],
					"name": "renounceOwnership",
					"outputs": [],
					"stateMutability": "nonpayable",
					"type": "function"
				},
				{
					"inputs": [
						{
							"internalType": "bool",
							"name": "_status",
							"type": "bool"
						}
					],
					"name": "setAntiWhaleStatus",
					"outputs": [],
					"stateMutability": "nonpayable",
					"type": "function"
				},
				{
					"inputs": [],
					"name": "symbol",
					"outputs": [
						{
							"internalType": "string",
							"name": "",
							"type": "string"
						}
					],
					"stateMutability": "view",
					"type": "function"
				},
				{
					"inputs": [],
					"name": "totalSupply",
					"outputs": [
						{
							"internalType": "uint256",
							"name": "",
							"type": "uint256"
						}
					],
					"stateMutability": "view",
					"type": "function"
				},
				{
					"inputs": [
						{
							"internalType": "address",
							"name": "recipient",
							"type": "address"
						},
						{
							"internalType": "uint256",
							"name": "amount",
							"type": "uint256"
						}
					],
					"name": "transfer",
					"outputs": [
						{
							"internalType": "bool",
							"name": "",
							"type": "bool"
						}
					],
					"stateMutability": "nonpayable",
					"type": "function"
				},
				{
					"inputs": [
						{
							"internalType": "address",
							"name": "sender",
							"type": "address"
						},
						{
							"internalType": "address",
							"name": "recipient",
							"type": "address"
						},
						{
							"internalType": "uint256",
							"name": "amount",
							"type": "uint256"
						}
					],
					"name": "transferFrom",
					"outputs": [
						{
							"internalType": "bool",
							"name": "",
							"type": "bool"
						}
					],
					"stateMutability": "nonpayable",
					"type": "function"
				},
				{
					"inputs": [
						{
							"internalType": "address",
							"name": "newOwner",
							"type": "address"
						}
					],
					"name": "transferOwnership",
					"outputs": [],
					"stateMutability": "nonpayable",
					"type": "function"
				},
				{
					"inputs": [
						{
							"internalType": "address",
							"name": "_address",
							"type": "address"
						}
					],
					"name": "viewTBalanceRBalance",
					"outputs": [
						{
							"internalType": "uint256",
							"name": "",
							"type": "uint256"
						},
						{
							"internalType": "uint256",
							"name": "",
							"type": "uint256"
						}
					],
					"stateMutability": "view",
					"type": "function"
				}
			],
			"devdoc": {
				"author": "METH Token developer team (info@crystalmeth.xyz)",
				"details": "Inherits multiple OpenZeppelin standards ",
				"events": {
					"Approval(address,address,uint256)": {
						"details": "Emitted when the allowance of a `spender` for an `owner` is set by a call to {approve}. `value` is the new allowance."
					},
					"Initialized(uint8)": {
						"details": "Triggered when the contract has been initialized or reinitialized."
					},
					"Transfer(address,address,uint256)": {
						"details": "Emitted when `value` tokens are moved from one account (`from`) to another (`to`). Note that `value` may be zero."
					}
				},
				"kind": "dev",
				"methods": {
					"owner()": {
						"details": "Returns the address of the current owner."
					},
					"renounceOwnership()": {
						"details": "Leaves the contract without owner. It will not be possible to call `onlyOwner` functions. Can only be called by the current owner. NOTE: Renouncing ownership will leave the contract without an owner, thereby disabling any functionality that is only available to the owner."
					},
					"transferOwnership(address)": {
						"details": "Transfers ownership of the contract to a new account (`newOwner`). Can only be called by the current owner."
					}
				},
				"title": "An ERC20 contract named METH",
				"version": 1
			},
			"evm": {
				"assembly": "    /* \"METH_unflattned.sol\":3954:25611  contract METH is Initializable, IERC20Upgradeable, OwnableUpgradeable {... */\n  mstore(0x40, 0x80)\n    /* \"METH_unflattned.sol\":14379:14405  bool private mutex = false */\n  0x72\n  dup1\n  sload\n  not(0xff00)\n  and\n  swap1\n  sstore\n    /* \"METH_unflattned.sol\":3954:25611  contract METH is Initializable, IERC20Upgradeable, OwnableUpgradeable {... */\n  callvalue\n  dup1\n  iszero\n  tag_1\n  jumpi\n  0x00\n  dup1\n  revert\ntag_1:\n  pop\n  dataSize(sub_0)\n  dup1\n  dataOffset(sub_0)\n  0x00\n  codecopy\n  0x00\n  return\nstop\n\nsub_0: assembly {\n        /* \"METH_unflattned.sol\":3954:25611  contract METH is Initializable, IERC20Upgradeable, OwnableUpgradeable {... */\n      mstore(0x40, 0x80)\n      callvalue\n      dup1\n      iszero\n      tag_1\n      jumpi\n      0x00\n      dup1\n      revert\n    tag_1:\n      pop\n      jumpi(tag_2, lt(calldatasize, 0x04))\n      shr(0xe0, calldataload(0x00))\n      dup1\n      0x8129fc1c\n      gt\n      tag_31\n      jumpi\n      dup1\n      0xa457c2d7\n      gt\n      tag_32\n      jumpi\n      dup1\n      0xaf465a27\n      gt\n      tag_33\n      jumpi\n      dup1\n      0xaf465a27\n      eq\n      tag_27\n      jumpi\n      dup1\n      0xcba0e996\n      eq\n      tag_28\n      jumpi\n      dup1\n      0xdd62ed3e\n      eq\n      tag_29\n      jumpi\n      dup1\n      0xf2fde38b\n      eq\n      tag_30\n      jumpi\n      0x00\n      dup1\n      revert\n    tag_33:\n      dup1\n      0xa457c2d7\n      eq\n      tag_24\n      jumpi\n      dup1\n      0xa9059cbb\n      eq\n      tag_25\n      jumpi\n      dup1\n      0xaae5ddd2\n      eq\n      tag_26\n      jumpi\n      0x00\n      dup1\n      revert\n    tag_32:\n      dup1\n      0x8da5cb5b\n      gt\n      tag_34\n      jumpi\n      dup1\n      0x8da5cb5b\n      eq\n      tag_20\n      jumpi\n      dup1\n      0x94e10784\n      eq\n      tag_21\n      jumpi\n      dup1\n      0x95d89b41\n      eq\n      tag_22\n      jumpi\n      dup1\n      0x97a9d560\n      eq\n      tag_23\n      jumpi\n      0x00\n      dup1\n      revert\n    tag_34:\n      dup1\n      0x8129fc1c\n      eq\n      tag_17\n      jumpi\n      dup1\n      0x83f24c09\n      eq\n      tag_18\n      jumpi\n      dup1\n      0x8c0b5e22\n      eq\n      tag_19\n      jumpi\n      0x00\n      dup1\n      revert\n    tag_31:\n      dup1\n      0x4d09deb3\n      gt\n      tag_35\n      jumpi\n      dup1\n      0x658c27a9\n      gt\n      tag_36\n      jumpi\n      dup1\n      0x658c27a9\n      eq\n      tag_13\n      jumpi\n      dup1\n      0x70a08231\n      eq\n      tag_14\n      jumpi\n      dup1\n      0x715018a6\n      eq\n      tag_15\n      jumpi\n      dup1\n      0x80da2287\n      eq\n      tag_16\n      jumpi\n      0x00\n      dup1\n      revert\n    tag_36:\n      dup1\n      0x4d09deb3\n      eq\n      tag_10\n      jumpi\n      dup1\n      0x4dacf3f5\n      eq\n      tag_11\n      jumpi\n      dup1\n      0x5319e78f\n      eq\n      tag_12\n      jumpi\n      0x00\n      dup1\n      revert\n    tag_35:\n      dup1\n      0x23b872dd\n      gt\n      tag_37\n      jumpi\n      dup1\n      0x23b872dd\n      eq\n      tag_6\n      jumpi\n      dup1\n      0x313ce567\n      eq\n      tag_7\n      jumpi\n      dup1\n      0x39509351\n      eq\n      tag_8\n      jumpi\n      dup1\n      0x45e0b9d4\n      eq\n      tag_9\n      jumpi\n      0x00\n      dup1\n      revert\n    tag_37:\n      dup1\n      0x06fdde03\n      eq\n      tag_3\n      jumpi\n      dup1\n      0x095ea7b3\n      eq\n      tag_4\n      jumpi\n      dup1\n      0x18160ddd\n      eq\n      tag_5\n      jumpi\n    tag_2:\n      0x00\n      dup1\n      revert\n        /* \"METH_unflattned.sol\":7284:7367  function name() public view returns (string memory) {... */\n    tag_3:\n      tag_38\n      tag_39\n      jump\t// in\n    tag_38:\n      mload(0x40)\n      tag_40\n      swap2\n      swap1\n      tag_41\n      jump\t// in\n    tag_40:\n      mload(0x40)\n      dup1\n      swap2\n      sub\n      swap1\n      return\n        /* \"METH_unflattned.sol\":9336:9517  function approve(address spender, uint256 amount) public override (IERC20Upgradeable) returns (bool) {... */\n    tag_4:\n      tag_42\n      tag_43\n      calldatasize\n      0x04\n      tag_44\n      jump\t// in\n    tag_43:\n      tag_45\n      jump\t// in\n    tag_42:\n      mload(0x40)\n        /* \"#utility.yul\":1272:1286   */\n      swap1\n      iszero\n        /* \"#utility.yul\":1265:1287   */\n      iszero\n        /* \"#utility.yul\":1247:1288   */\n      dup2\n      mstore\n        /* \"#utility.yul\":1235:1237   */\n      0x20\n        /* \"#utility.yul\":1220:1238   */\n      add\n        /* \"METH_unflattned.sol\":9336:9517  function approve(address spender, uint256 amount) public override (IERC20Upgradeable) returns (bool) {... */\n      tag_40\n        /* \"#utility.yul\":1107:1294   */\n      jump\n        /* \"METH_unflattned.sol\":7694:7809  function totalSupply() public view override (IERC20Upgradeable) returns (uint256) {... */\n    tag_5:\n        /* \"METH_unflattned.sol\":7794:7801  _tTotal */\n      sload(0x6f)\n        /* \"METH_unflattned.sol\":7694:7809  function totalSupply() public view override (IERC20Upgradeable) returns (uint256) {... */\n    tag_48:\n      mload(0x40)\n        /* \"#utility.yul\":1445:1470   */\n      swap1\n      dup2\n      mstore\n        /* \"#utility.yul\":1433:1435   */\n      0x20\n        /* \"#utility.yul\":1418:1436   */\n      add\n        /* \"METH_unflattned.sol\":7694:7809  function totalSupply() public view override (IERC20Upgradeable) returns (uint256) {... */\n      tag_40\n        /* \"#utility.yul\":1299:1476   */\n      jump\n        /* \"METH_unflattned.sol\":8662:8998  function transferFrom(... */\n    tag_6:\n      tag_42\n      tag_53\n      calldatasize\n      0x04\n      tag_54\n      jump\t// in\n    tag_53:\n      tag_55\n      jump\t// in\n        /* \"METH_unflattned.sol\":7532:7615  function decimals() public view returns (uint8) {... */\n    tag_7:\n        /* \"METH_unflattned.sol\":7598:7607  _decimals */\n      sload(0x67)\n        /* \"METH_unflattned.sol\":7532:7615  function decimals() public view returns (uint8) {... */\n      mload(0x40)\n        /* \"METH_unflattned.sol\":7598:7607  _decimals */\n      0xff\n      swap1\n      swap2\n      and\n        /* \"#utility.yul\":1956:1992   */\n      dup2\n      mstore\n        /* \"#utility.yul\":1944:1946   */\n      0x20\n        /* \"#utility.yul\":1929:1947   */\n      add\n        /* \"METH_unflattned.sol\":7532:7615  function decimals() public view returns (uint8) {... */\n      tag_40\n        /* \"#utility.yul\":1814:1998   */\n      jump\n        /* \"METH_unflattned.sol\":9590:9805  function increaseAllowance(address spender, uint256 addedValue) public virtual returns (bool) {... */\n    tag_8:\n      tag_42\n      tag_62\n      calldatasize\n      0x04\n      tag_44\n      jump\t// in\n    tag_62:\n      tag_63\n      jump\t// in\n        /* \"METH_unflattned.sol\":5294:5316  uint256 public _rTotal */\n    tag_9:\n      tag_48\n      sload(0x70)\n      dup2\n      jump\n        /* \"METH_unflattned.sol\":4179:4205  address[] public _excluded */\n    tag_10:\n      tag_68\n      tag_69\n      calldatasize\n      0x04\n      tag_70\n      jump\t// in\n    tag_69:\n      tag_71\n      jump\t// in\n    tag_68:\n      mload(0x40)\n      sub(shl(0xa0, 0x01), 0x01)\n        /* \"#utility.yul\":2352:2384   */\n      swap1\n      swap2\n      and\n        /* \"#utility.yul\":2334:2385   */\n      dup2\n      mstore\n        /* \"#utility.yul\":2322:2324   */\n      0x20\n        /* \"#utility.yul\":2307:2325   */\n      add\n        /* \"METH_unflattned.sol\":4179:4205  address[] public _excluded */\n      tag_40\n        /* \"#utility.yul\":2188:2391   */\n      jump\n        /* \"METH_unflattned.sol\":5395:5416  bool public antiWhale */\n    tag_11:\n      sload(0x72)\n      tag_42\n      swap1\n      0xff\n      and\n      dup2\n      jump\n        /* \"METH_unflattned.sol\":12139:12715  function rBalanceOf(address account) public view returns (uint256) {... */\n    tag_12:\n      tag_48\n      tag_78\n      calldatasize\n      0x04\n      tag_79\n      jump\t// in\n    tag_78:\n      tag_80\n      jump\t// in\n        /* \"METH_unflattned.sol\":24717:24845  function isExcludedFromMaxTx(address account) public view returns (bool) {... */\n    tag_13:\n      tag_42\n      tag_83\n      calldatasize\n      0x04\n      tag_79\n      jump\t// in\n    tag_83:\n      sub(shl(0xa0, 0x01), 0x01)\n        /* \"METH_unflattned.sol\":24808:24837  _isExcludedFromMaxTx[account] */\n      and\n        /* \"METH_unflattned.sol\":24784:24788  bool */\n      0x00\n        /* \"METH_unflattned.sol\":24808:24837  _isExcludedFromMaxTx[account] */\n      swap1\n      dup2\n      mstore\n        /* \"METH_unflattned.sol\":24808:24828  _isExcludedFromMaxTx */\n      0x6d\n        /* \"METH_unflattned.sol\":24808:24837  _isExcludedFromMaxTx[account] */\n      0x20\n      mstore\n      0x40\n      swap1\n      keccak256\n      sload\n      0xff\n      and\n      swap1\n        /* \"METH_unflattned.sol\":24717:24845  function isExcludedFromMaxTx(address account) public view returns (bool) {... */\n      jump\n        /* \"METH_unflattned.sol\":7932:8310  function balanceOf(address account) public view override (IERC20Upgradeable) returns (uint256) {... */\n    tag_14:\n      tag_48\n      tag_87\n      calldatasize\n      0x04\n      tag_79\n      jump\t// in\n    tag_87:\n      tag_88\n      jump\t// in\n        /* \"https://github.com/OpenZeppelin/openzeppelin-contracts-upgradeable/blob/release-v4.9/contracts/access/OwnableUpgradeable.sol\":2085:2186  function renounceOwnership() public virtual onlyOwner {... */\n    tag_15:\n      tag_90\n      tag_91\n      jump\t// in\n    tag_90:\n      stop\n        /* \"METH_unflattned.sol\":25271:25497  function viewTBalanceRBalance(address _address) public view returns (uint256, uint256) {... */\n    tag_16:\n      tag_92\n      tag_93\n      calldatasize\n      0x04\n      tag_79\n      jump\t// in\n    tag_93:\n      sub(shl(0xa0, 0x01), 0x01)\n        /* \"METH_unflattned.sol\":25388:25405  _tOwned[_address] */\n      and\n        /* \"METH_unflattned.sol\":25340:25347  uint256 */\n      0x00\n        /* \"METH_unflattned.sol\":25388:25405  _tOwned[_address] */\n      swap1\n      dup2\n      mstore\n        /* \"METH_unflattned.sol\":25388:25395  _tOwned */\n      0x69\n        /* \"METH_unflattned.sol\":25388:25405  _tOwned[_address] */\n      0x20\n      swap1\n      dup2\n      mstore\n      0x40\n      dup1\n      dup4\n      keccak256\n      sload\n        /* \"METH_unflattned.sol\":25435:25442  _rOwned */\n      0x6a\n        /* \"METH_unflattned.sol\":25435:25452  _rOwned[_address] */\n      swap1\n      swap3\n      mstore\n      swap1\n      swap2\n      keccak256\n      sload\n        /* \"METH_unflattned.sol\":25388:25405  _tOwned[_address] */\n      swap1\n      swap2\n        /* \"METH_unflattned.sol\":25271:25497  function viewTBalanceRBalance(address _address) public view returns (uint256, uint256) {... */\n      jump\n    tag_92:\n      0x40\n      dup1\n      mload\n        /* \"#utility.yul\":2761:2786   */\n      swap3\n      dup4\n      mstore\n        /* \"#utility.yul\":2817:2819   */\n      0x20\n        /* \"#utility.yul\":2802:2820   */\n      dup4\n      add\n        /* \"#utility.yul\":2795:2829   */\n      swap2\n      swap1\n      swap2\n      mstore\n        /* \"#utility.yul\":2734:2752   */\n      add\n        /* \"METH_unflattned.sol\":25271:25497  function viewTBalanceRBalance(address _address) public view returns (uint256, uint256) {... */\n      tag_40\n        /* \"#utility.yul\":2587:2835   */\n      jump\n        /* \"METH_unflattned.sol\":5762:7195  function initialize(... */\n    tag_17:\n      tag_90\n      tag_98\n      jump\t// in\n        /* \"METH_unflattned.sol\":10292:10391  function setAntiWhaleStatus(bool _status) external onlyOwner {... */\n    tag_18:\n      tag_90\n      tag_100\n      calldatasize\n      0x04\n      tag_101\n      jump\t// in\n    tag_100:\n      tag_102\n      jump\t// in\n        /* \"METH_unflattned.sol\":5360:5386  uint256 public maxTxAmount */\n    tag_19:\n      tag_48\n      sload(0x71)\n      dup2\n      jump\n        /* \"https://github.com/OpenZeppelin/openzeppelin-contracts-upgradeable/blob/release-v4.9/contracts/access/OwnableUpgradeable.sol\":1462:1547  function owner() public view virtual returns (address) {... */\n    tag_20:\n        /* \"https://github.com/OpenZeppelin/openzeppelin-contracts-upgradeable/blob/release-v4.9/contracts/access/OwnableUpgradeable.sol\":1534:1540  _owner */\n      and(sub(shl(0xa0, 0x01), 0x01), sload(0x33))\n        /* \"https://github.com/OpenZeppelin/openzeppelin-contracts-upgradeable/blob/release-v4.9/contracts/access/OwnableUpgradeable.sol\":1462:1547  function owner() public view virtual returns (address) {... */\n      jump(tag_68)\n        /* \"METH_unflattned.sol\":12782:13043  function _getRate() public view returns (uint256) {... */\n    tag_21:\n      tag_48\n      tag_110\n      jump\t// in\n        /* \"METH_unflattned.sol\":7405:7492  function symbol() public view returns (string memory) {... */\n    tag_22:\n      tag_38\n      tag_113\n      jump\t// in\n        /* \"METH_unflattned.sol\":13140:13779  function _getCurrentSupply() public view returns (uint256, uint256) {... */\n    tag_23:\n      tag_92\n      tag_116\n      jump\t// in\n        /* \"METH_unflattned.sol\":9878:10103  function decreaseAllowance(address spender, uint256 subtractedValue) public virtual returns (bool) {... */\n    tag_24:\n      tag_42\n      tag_119\n      calldatasize\n      0x04\n      tag_44\n      jump\t// in\n    tag_119:\n      tag_120\n      jump\t// in\n        /* \"METH_unflattned.sol\":8382:8569  function transfer(address recipient, uint256 amount) public override (IERC20Upgradeable) returns (bool) {... */\n    tag_25:\n      tag_42\n      tag_123\n      calldatasize\n      0x04\n      tag_44\n      jump\t// in\n    tag_123:\n      tag_124\n      jump\t// in\n        /* \"METH_unflattned.sol\":18586:18703  function getTenPercentOfBalance() public view returns(uint256) {... */\n    tag_26:\n      tag_48\n      tag_127\n      jump\t// in\n        /* \"METH_unflattned.sol\":5102:5124  uint256 public _tTotal */\n    tag_27:\n      tag_48\n      sload(0x6f)\n      dup2\n      jump\n        /* \"METH_unflattned.sol\":24924:25034  function isExcluded(address account) public view returns (bool) {... */\n    tag_28:\n      tag_42\n      tag_133\n      calldatasize\n      0x04\n      tag_79\n      jump\t// in\n    tag_133:\n      sub(shl(0xa0, 0x01), 0x01)\n        /* \"METH_unflattned.sol\":25006:25026  _isExcluded[account] */\n      and\n        /* \"METH_unflattned.sol\":24982:24986  bool */\n      0x00\n        /* \"METH_unflattned.sol\":25006:25026  _isExcluded[account] */\n      swap1\n      dup2\n      mstore\n        /* \"METH_unflattned.sol\":25006:25017  _isExcluded */\n      0x6c\n        /* \"METH_unflattned.sol\":25006:25026  _isExcluded[account] */\n      0x20\n      mstore\n      0x40\n      swap1\n      keccak256\n      sload\n      0xff\n      and\n      swap1\n        /* \"METH_unflattned.sol\":24924:25034  function isExcluded(address account) public view returns (bool) {... */\n      jump\n        /* \"METH_unflattned.sol\":9091:9254  function allowance(address owner, address spender) public view override (IERC20Upgradeable) returns (uint256) {... */\n    tag_29:\n      tag_48\n      tag_137\n      calldatasize\n      0x04\n      tag_138\n      jump\t// in\n    tag_137:\n      sub(shl(0xa0, 0x01), 0x01)\n        /* \"METH_unflattned.sol\":9219:9237  _allowances[owner] */\n      swap2\n      dup3\n      and\n        /* \"METH_unflattned.sol\":9192:9199  uint256 */\n      0x00\n        /* \"METH_unflattned.sol\":9219:9237  _allowances[owner] */\n      swap1\n      dup2\n      mstore\n        /* \"METH_unflattned.sol\":9219:9230  _allowances */\n      0x6b\n        /* \"METH_unflattned.sol\":9219:9237  _allowances[owner] */\n      0x20\n      swap1\n      dup2\n      mstore\n      0x40\n      dup1\n      dup4\n      keccak256\n        /* \"METH_unflattned.sol\":9219:9246  _allowances[owner][spender] */\n      swap4\n      swap1\n      swap5\n      and\n      dup3\n      mstore\n      swap2\n      swap1\n      swap2\n      mstore\n      keccak256\n      sload\n      swap1\n        /* \"METH_unflattned.sol\":9091:9254  function allowance(address owner, address spender) public view override (IERC20Upgradeable) returns (uint256) {... */\n      jump\n        /* \"https://github.com/OpenZeppelin/openzeppelin-contracts-upgradeable/blob/release-v4.9/contracts/access/OwnableUpgradeable.sol\":2335:2533  function transferOwnership(address newOwner) public virtual onlyOwner {... */\n    tag_30:\n      tag_90\n      tag_142\n      calldatasize\n      0x04\n      tag_79\n      jump\t// in\n    tag_142:\n      tag_143\n      jump\t// in\n        /* \"METH_unflattned.sol\":7284:7367  function name() public view returns (string memory) {... */\n    tag_39:\n        /* \"METH_unflattned.sol\":7321:7334  string memory */\n      0x60\n        /* \"METH_unflattned.sol\":7354:7359  _name */\n      0x65\n        /* \"METH_unflattned.sol\":7347:7359  return _name */\n      dup1\n      sload\n      tag_145\n      swap1\n      tag_146\n      jump\t// in\n    tag_145:\n      dup1\n      0x1f\n      add\n      0x20\n      dup1\n      swap2\n      div\n      mul\n      0x20\n      add\n      mload(0x40)\n      swap1\n      dup2\n      add\n      0x40\n      mstore\n      dup1\n      swap3\n      swap2\n      swap1\n      dup2\n      dup2\n      mstore\n      0x20\n      add\n      dup3\n      dup1\n      sload\n      tag_147\n      swap1\n      tag_146\n      jump\t// in\n    tag_147:\n      dup1\n      iszero\n      tag_148\n      jumpi\n      dup1\n      0x1f\n      lt\n      tag_149\n      jumpi\n      0x0100\n      dup1\n      dup4\n      sload\n      div\n      mul\n      dup4\n      mstore\n      swap2\n      0x20\n      add\n      swap2\n      jump(tag_148)\n    tag_149:\n      dup3\n      add\n      swap2\n      swap1\n      0x00\n      mstore\n      keccak256(0x00, 0x20)\n      swap1\n    tag_150:\n      dup2\n      sload\n      dup2\n      mstore\n      swap1\n      0x01\n      add\n      swap1\n      0x20\n      add\n      dup1\n      dup4\n      gt\n      tag_150\n      jumpi\n      dup3\n      swap1\n      sub\n      0x1f\n      and\n      dup3\n      add\n      swap2\n    tag_148:\n      pop\n      pop\n      pop\n      pop\n      pop\n      swap1\n      pop\n        /* \"METH_unflattned.sol\":7284:7367  function name() public view returns (string memory) {... */\n      swap1\n      jump\t// out\n        /* \"METH_unflattned.sol\":9336:9517  function approve(address spender, uint256 amount) public override (IERC20Upgradeable) returns (bool) {... */\n    tag_45:\n        /* \"METH_unflattned.sol\":9431:9435  bool */\n      0x00\n        /* \"METH_unflattned.sol\":9448:9487  _approve(_msgSender(), spender, amount) */\n      tag_152\n        /* \"https://github.com/OpenZeppelin/openzeppelin-contracts-upgradeable/blob/release-v4.9/contracts/utils/ContextUpgradeable.sol\":965:975  msg.sender */\n      caller\n        /* \"METH_unflattned.sol\":9471:9478  spender */\n      dup5\n        /* \"METH_unflattned.sol\":9480:9486  amount */\n      dup5\n        /* \"METH_unflattned.sol\":9448:9456  _approve */\n      tag_155\n        /* \"METH_unflattned.sol\":9448:9487  _approve(_msgSender(), spender, amount) */\n      jump\t// in\n    tag_152:\n      pop\n        /* \"METH_unflattned.sol\":9505:9509  true */\n      0x01\n        /* \"METH_unflattned.sol\":9336:9517  function approve(address spender, uint256 amount) public override (IERC20Upgradeable) returns (bool) {... */\n    tag_151:\n      swap3\n      swap2\n      pop\n      pop\n      jump\t// out\n        /* \"METH_unflattned.sol\":8662:8998  function transferFrom(... */\n    tag_55:\n        /* \"METH_unflattned.sol\":8830:8834  bool */\n      0x00\n        /* \"METH_unflattned.sol\":8847:8883  _transfer(sender, recipient, amount) */\n      tag_158\n        /* \"METH_unflattned.sol\":8857:8863  sender */\n      dup5\n        /* \"METH_unflattned.sol\":8865:8874  recipient */\n      dup5\n        /* \"METH_unflattned.sol\":8876:8882  amount */\n      dup5\n        /* \"METH_unflattned.sol\":8847:8856  _transfer */\n      tag_159\n        /* \"METH_unflattned.sol\":8847:8883  _transfer(sender, recipient, amount) */\n      jump\t// in\n    tag_158:\n      sub(shl(0xa0, 0x01), 0x01)\n        /* \"METH_unflattned.sol\":8925:8944  _allowances[sender] */\n      dup5\n      and\n      0x00\n      swap1\n      dup2\n      mstore\n        /* \"METH_unflattned.sol\":8925:8936  _allowances */\n      0x6b\n        /* \"METH_unflattned.sol\":8925:8944  _allowances[sender] */\n      0x20\n      swap1\n      dup2\n      mstore\n      0x40\n      dup1\n      dup4\n      keccak256\n        /* \"https://github.com/OpenZeppelin/openzeppelin-contracts-upgradeable/blob/release-v4.9/contracts/utils/ContextUpgradeable.sol\":965:975  msg.sender */\n      caller\n        /* \"METH_unflattned.sol\":8925:8958  _allowances[sender][_msgSender()] */\n      dup1\n      dup6\n      mstore\n      swap3\n      mstore\n      swap1\n      swap2\n      keccak256\n      sload\n        /* \"METH_unflattned.sol\":8894:8968  _approve(sender, _msgSender(), _allowances[sender][_msgSender()] - amount) */\n      tag_160\n      swap2\n        /* \"METH_unflattned.sol\":8903:8909  sender */\n      dup7\n      swap2\n        /* \"METH_unflattned.sol\":8925:8967  _allowances[sender][_msgSender()] - amount */\n      tag_163\n      swap1\n        /* \"METH_unflattned.sol\":8961:8967  amount */\n      dup7\n      swap1\n        /* \"METH_unflattned.sol\":8925:8967  _allowances[sender][_msgSender()] - amount */\n      tag_164\n      jump\t// in\n    tag_163:\n        /* \"METH_unflattned.sol\":8894:8902  _approve */\n      tag_155\n        /* \"METH_unflattned.sol\":8894:8968  _approve(sender, _msgSender(), _allowances[sender][_msgSender()] - amount) */\n      jump\t// in\n    tag_160:\n      pop\n        /* \"METH_unflattned.sol\":8986:8990  true */\n      0x01\n        /* \"METH_unflattned.sol\":8662:8998  function transferFrom(... */\n      swap4\n      swap3\n      pop\n      pop\n      pop\n      jump\t// out\n        /* \"METH_unflattned.sol\":9590:9805  function increaseAllowance(address spender, uint256 addedValue) public virtual returns (bool) {... */\n    tag_63:\n        /* \"https://github.com/OpenZeppelin/openzeppelin-contracts-upgradeable/blob/release-v4.9/contracts/utils/ContextUpgradeable.sol\":965:975  msg.sender */\n      caller\n        /* \"METH_unflattned.sol\":9678:9682  bool */\n      0x00\n        /* \"METH_unflattned.sol\":9727:9752  _allowances[_msgSender()] */\n      dup2\n      dup2\n      mstore\n        /* \"METH_unflattned.sol\":9727:9738  _allowances */\n      0x6b\n        /* \"METH_unflattned.sol\":9727:9752  _allowances[_msgSender()] */\n      0x20\n      swap1\n      dup2\n      mstore\n      0x40\n      dup1\n      dup4\n      keccak256\n      sub(shl(0xa0, 0x01), 0x01)\n        /* \"METH_unflattned.sol\":9727:9761  _allowances[_msgSender()][spender] */\n      dup8\n      and\n      dup5\n      mstore\n      swap1\n      swap2\n      mstore\n      dup2\n      keccak256\n      sload\n        /* \"METH_unflattned.sol\":9678:9682  bool */\n      swap1\n      swap2\n        /* \"METH_unflattned.sol\":9695:9775  _approve(_msgSender(), spender, _allowances[_msgSender()][spender] + addedValue) */\n      tag_152\n      swap2\n        /* \"METH_unflattned.sol\":9718:9725  spender */\n      dup6\n      swap1\n        /* \"METH_unflattned.sol\":9727:9774  _allowances[_msgSender()][spender] + addedValue */\n      tag_163\n      swap1\n        /* \"METH_unflattned.sol\":9764:9774  addedValue */\n      dup7\n      swap1\n        /* \"METH_unflattned.sol\":9727:9774  _allowances[_msgSender()][spender] + addedValue */\n      tag_171\n      jump\t// in\n        /* \"METH_unflattned.sol\":4179:4205  address[] public _excluded */\n    tag_71:\n      0x68\n      dup2\n      dup2\n      sload\n      dup2\n      lt\n      tag_172\n      jumpi\n      0x00\n      dup1\n      revert\n    tag_172:\n      0x00\n      swap2\n      dup3\n      mstore\n      0x20\n      swap1\n      swap2\n      keccak256\n      add\n      sload\n      sub(shl(0xa0, 0x01), 0x01)\n      and\n      swap1\n      pop\n      dup2\n      jump\t// out\n        /* \"METH_unflattned.sol\":12139:12715  function rBalanceOf(address account) public view returns (uint256) {... */\n    tag_80:\n      sub(shl(0xa0, 0x01), 0x01)\n        /* \"METH_unflattned.sol\":12234:12250  _rOwned[account] */\n      dup2\n      and\n        /* \"METH_unflattned.sol\":12197:12204  uint256 */\n      0x00\n        /* \"METH_unflattned.sol\":12234:12250  _rOwned[account] */\n      swap1\n      dup2\n      mstore\n        /* \"METH_unflattned.sol\":12234:12241  _rOwned */\n      0x6a\n        /* \"METH_unflattned.sol\":12234:12250  _rOwned[account] */\n      0x20\n      mstore\n      0x40\n      dup2\n      keccak256\n      sload\n        /* \"METH_unflattned.sol\":12358:12365  _rTotal */\n      sload(0x70)\n        /* \"METH_unflattned.sol\":12348:12365  rOwned <= _rTotal */\n      dup2\n      gt\n      iszero\n        /* \"METH_unflattned.sol\":12340:12412  require(rOwned <= _rTotal, \"Amount must be less than total reflections\") */\n      tag_175\n      jumpi\n      mload(0x40)\n      shl(0xe5, 0x461bcd)\n      dup2\n      mstore\n        /* \"#utility.yul\":4365:4367   */\n      0x20\n        /* \"METH_unflattned.sol\":12340:12412  require(rOwned <= _rTotal, \"Amount must be less than total reflections\") */\n      0x04\n      dup3\n      add\n        /* \"#utility.yul\":4347:4368   */\n      mstore\n        /* \"#utility.yul\":4404:4406   */\n      0x2a\n        /* \"#utility.yul\":4384:4402   */\n      0x24\n      dup3\n      add\n        /* \"#utility.yul\":4377:4407   */\n      mstore\n        /* \"#utility.yul\":4443:4477   */\n      0x416d6f756e74206d757374206265206c657373207468616e20746f74616c2072\n        /* \"#utility.yul\":4423:4441   */\n      0x44\n      dup3\n      add\n        /* \"#utility.yul\":4416:4478   */\n      mstore\n      shl(0xb0, 0x65666c656374696f6e73)\n        /* \"#utility.yul\":4494:4512   */\n      0x64\n      dup3\n      add\n        /* \"#utility.yul\":4487:4527   */\n      mstore\n        /* \"#utility.yul\":4544:4563   */\n      0x84\n      add\n        /* \"METH_unflattned.sol\":12340:12412  require(rOwned <= _rTotal, \"Amount must be less than total reflections\") */\n    tag_176:\n      mload(0x40)\n      dup1\n      swap2\n      sub\n      swap1\n      revert\n    tag_175:\n        /* \"METH_unflattned.sol\":12489:12508  uint256 currentRate */\n      0x00\n        /* \"METH_unflattned.sol\":12511:12521  _getRate() */\n      tag_178\n        /* \"METH_unflattned.sol\":12511:12519  _getRate */\n      tag_110\n        /* \"METH_unflattned.sol\":12511:12521  _getRate() */\n      jump\t// in\n    tag_178:\n        /* \"METH_unflattned.sol\":12489:12521  uint256 currentRate = _getRate() */\n      swap1\n      pop\n        /* \"METH_unflattned.sol\":12536:12542  rOwned */\n      dup2\n        /* \"METH_unflattned.sol\":12546:12547  0 */\n      0x00\n        /* \"METH_unflattned.sol\":12536:12547  rOwned == 0 */\n      sub\n        /* \"METH_unflattned.sol\":12532:12708  if (rOwned == 0) {... */\n      tag_179\n      jumpi\n      pop\n        /* \"METH_unflattned.sol\":12571:12572  0 */\n      0x00\n      swap4\n        /* \"METH_unflattned.sol\":12139:12715  function rBalanceOf(address account) public view returns (uint256) {... */\n      swap3\n      pop\n      pop\n      pop\n      jump\t// out\n        /* \"METH_unflattned.sol\":12532:12708  if (rOwned == 0) {... */\n    tag_179:\n        /* \"METH_unflattned.sol\":12676:12696  rOwned / currentRate */\n      tag_181\n        /* \"METH_unflattned.sol\":12685:12696  currentRate */\n      dup2\n        /* \"METH_unflattned.sol\":12676:12682  rOwned */\n      dup4\n        /* \"METH_unflattned.sol\":12676:12696  rOwned / currentRate */\n      tag_182\n      jump\t// in\n    tag_181:\n        /* \"METH_unflattned.sol\":12669:12696  return rOwned / currentRate */\n      swap5\n        /* \"METH_unflattned.sol\":12139:12715  function rBalanceOf(address account) public view returns (uint256) {... */\n      swap4\n      pop\n      pop\n      pop\n      pop\n      jump\t// out\n        /* \"METH_unflattned.sol\":7932:8310  function balanceOf(address account) public view override (IERC20Upgradeable) returns (uint256) {... */\n    tag_88:\n      sub(shl(0xa0, 0x01), 0x01)\n        /* \"METH_unflattned.sol\":8103:8123  _isExcluded[account] */\n      dup2\n      and\n        /* \"METH_unflattned.sol\":8018:8025  uint256 */\n      0x00\n        /* \"METH_unflattned.sol\":8103:8123  _isExcluded[account] */\n      swap1\n      dup2\n      mstore\n        /* \"METH_unflattned.sol\":8103:8114  _isExcluded */\n      0x6c\n        /* \"METH_unflattned.sol\":8103:8123  _isExcluded[account] */\n      0x20\n      mstore\n      0x40\n      dup2\n      keccak256\n      sload\n      0xff\n      and\n        /* \"METH_unflattned.sol\":8099:8303  if (_isExcluded[account]) {... */\n      iszero\n      tag_185\n      jumpi\n      pop\n      sub(shl(0xa0, 0x01), 0x01)\n        /* \"METH_unflattned.sol\":8147:8163  _tOwned[account] */\n      and\n      0x00\n      swap1\n      dup2\n      mstore\n        /* \"METH_unflattned.sol\":8147:8154  _tOwned */\n      0x69\n        /* \"METH_unflattned.sol\":8147:8163  _tOwned[account] */\n      0x20\n      mstore\n      0x40\n      swap1\n      keccak256\n      sload\n      swap1\n        /* \"METH_unflattned.sol\":7932:8310  function balanceOf(address account) public view override (IERC20Upgradeable) returns (uint256) {... */\n      jump\t// out\n        /* \"METH_unflattned.sol\":8099:8303  if (_isExcluded[account]) {... */\n    tag_185:\n        /* \"METH_unflattned.sol\":8272:8291  rBalanceOf(account) */\n      tag_151\n        /* \"METH_unflattned.sol\":8283:8290  account */\n      dup3\n        /* \"METH_unflattned.sol\":8272:8282  rBalanceOf */\n      tag_80\n        /* \"METH_unflattned.sol\":8272:8291  rBalanceOf(account) */\n      jump\t// in\n        /* \"METH_unflattned.sol\":8099:8303  if (_isExcluded[account]) {... */\n    tag_186:\n        /* \"METH_unflattned.sol\":7932:8310  function balanceOf(address account) public view override (IERC20Upgradeable) returns (uint256) {... */\n      swap2\n      swap1\n      pop\n      jump\t// out\n        /* \"https://github.com/OpenZeppelin/openzeppelin-contracts-upgradeable/blob/release-v4.9/contracts/access/OwnableUpgradeable.sol\":2085:2186  function renounceOwnership() public virtual onlyOwner {... */\n    tag_91:\n        /* \"https://github.com/OpenZeppelin/openzeppelin-contracts-upgradeable/blob/release-v4.9/contracts/access/OwnableUpgradeable.sol\":1355:1368  _checkOwner() */\n      tag_189\n        /* \"https://github.com/OpenZeppelin/openzeppelin-contracts-upgradeable/blob/release-v4.9/contracts/access/OwnableUpgradeable.sol\":1355:1366  _checkOwner */\n      tag_190\n        /* \"https://github.com/OpenZeppelin/openzeppelin-contracts-upgradeable/blob/release-v4.9/contracts/access/OwnableUpgradeable.sol\":1355:1368  _checkOwner() */\n      jump\t// in\n    tag_189:\n        /* \"https://github.com/OpenZeppelin/openzeppelin-contracts-upgradeable/blob/release-v4.9/contracts/access/OwnableUpgradeable.sol\":2149:2179  _transferOwnership(address(0)) */\n      tag_192\n        /* \"https://github.com/OpenZeppelin/openzeppelin-contracts-upgradeable/blob/release-v4.9/contracts/access/OwnableUpgradeable.sol\":2176:2177  0 */\n      0x00\n        /* \"https://github.com/OpenZeppelin/openzeppelin-contracts-upgradeable/blob/release-v4.9/contracts/access/OwnableUpgradeable.sol\":2149:2167  _transferOwnership */\n      tag_193\n        /* \"https://github.com/OpenZeppelin/openzeppelin-contracts-upgradeable/blob/release-v4.9/contracts/access/OwnableUpgradeable.sol\":2149:2179  _transferOwnership(address(0)) */\n      jump\t// in\n    tag_192:\n        /* \"https://github.com/OpenZeppelin/openzeppelin-contracts-upgradeable/blob/release-v4.9/contracts/access/OwnableUpgradeable.sol\":2085:2186  function renounceOwnership() public virtual onlyOwner {... */\n      jump\t// out\n        /* \"METH_unflattned.sol\":5762:7195  function initialize(... */\n    tag_98:\n        /* \"https://github.com/OpenZeppelin/openzeppelin-contracts-upgradeable/blob/release-v4.9/contracts/proxy/utils/Initializable.sol\":3279:3298  bool isTopLevelCall */\n      0x00\n        /* \"https://github.com/OpenZeppelin/openzeppelin-contracts-upgradeable/blob/release-v4.9/contracts/proxy/utils/Initializable.sol\":3302:3315  _initializing */\n      sload\n      0x0100\n      swap1\n      div\n      0xff\n      and\n        /* \"https://github.com/OpenZeppelin/openzeppelin-contracts-upgradeable/blob/release-v4.9/contracts/proxy/utils/Initializable.sol\":3301:3315  !_initializing */\n      iszero\n      dup1\n        /* \"https://github.com/OpenZeppelin/openzeppelin-contracts-upgradeable/blob/release-v4.9/contracts/proxy/utils/Initializable.sol\":3347:3381  isTopLevelCall && _initialized < 1 */\n      dup1\n      iszero\n      tag_196\n      jumpi\n      pop\n        /* \"https://github.com/OpenZeppelin/openzeppelin-contracts-upgradeable/blob/release-v4.9/contracts/proxy/utils/Initializable.sol\":3365:3377  _initialized */\n      sload(0x00)\n        /* \"https://github.com/OpenZeppelin/openzeppelin-contracts-upgradeable/blob/release-v4.9/contracts/proxy/utils/Initializable.sol\":3380:3381  1 */\n      0x01\n        /* \"https://github.com/OpenZeppelin/openzeppelin-contracts-upgradeable/blob/release-v4.9/contracts/proxy/utils/Initializable.sol\":3365:3377  _initialized */\n      0xff\n      swap1\n      swap2\n      and\n        /* \"https://github.com/OpenZeppelin/openzeppelin-contracts-upgradeable/blob/release-v4.9/contracts/proxy/utils/Initializable.sol\":3365:3381  _initialized < 1 */\n      lt\n        /* \"https://github.com/OpenZeppelin/openzeppelin-contracts-upgradeable/blob/release-v4.9/contracts/proxy/utils/Initializable.sol\":3347:3381  isTopLevelCall && _initialized < 1 */\n    tag_196:\n        /* \"https://github.com/OpenZeppelin/openzeppelin-contracts-upgradeable/blob/release-v4.9/contracts/proxy/utils/Initializable.sol\":3346:3454  (isTopLevelCall && _initialized < 1) || (!AddressUpgradeable.isContract(address(this)) && _initialized == 1) */\n      dup1\n      tag_200\n      jumpi\n      pop\n        /* \"https://github.com/OpenZeppelin/openzeppelin-contracts-upgradeable/blob/release-v4.9/contracts/proxy/utils/Initializable.sol\":3426:3430  this */\n      address\n        /* \"https://github.com/OpenZeppelin/openzeppelin-contracts-upgradeable/blob/release-v4.9/contracts/utils/AddressUpgradeable.sol\":1713:1732  account.code.length */\n      extcodesize\n        /* \"https://github.com/OpenZeppelin/openzeppelin-contracts-upgradeable/blob/release-v4.9/contracts/utils/AddressUpgradeable.sol\":1713:1736  account.code.length > 0 */\n      iszero\n      dup1\n      iszero\n        /* \"https://github.com/OpenZeppelin/openzeppelin-contracts-upgradeable/blob/release-v4.9/contracts/proxy/utils/Initializable.sol\":3387:3453  !AddressUpgradeable.isContract(address(this)) && _initialized == 1 */\n      tag_200\n      jumpi\n      pop\n        /* \"https://github.com/OpenZeppelin/openzeppelin-contracts-upgradeable/blob/release-v4.9/contracts/proxy/utils/Initializable.sol\":3436:3448  _initialized */\n      and(0xff, sload(0x00))\n      0x01\n        /* \"https://github.com/OpenZeppelin/openzeppelin-contracts-upgradeable/blob/release-v4.9/contracts/proxy/utils/Initializable.sol\":3436:3453  _initialized == 1 */\n      eq\n        /* \"https://github.com/OpenZeppelin/openzeppelin-contracts-upgradeable/blob/release-v4.9/contracts/proxy/utils/Initializable.sol\":3387:3453  !AddressUpgradeable.isContract(address(this)) && _initialized == 1 */\n    tag_200:\n        /* \"https://github.com/OpenZeppelin/openzeppelin-contracts-upgradeable/blob/release-v4.9/contracts/proxy/utils/Initializable.sol\":3325:3526  require(... */\n      tag_201\n      jumpi\n      mload(0x40)\n      shl(0xe5, 0x461bcd)\n      dup2\n      mstore\n        /* \"#utility.yul\":5033:5035   */\n      0x20\n        /* \"https://github.com/OpenZeppelin/openzeppelin-contracts-upgradeable/blob/release-v4.9/contracts/proxy/utils/Initializable.sol\":3325:3526  require(... */\n      0x04\n      dup3\n      add\n        /* \"#utility.yul\":5015:5036   */\n      mstore\n        /* \"#utility.yul\":5072:5074   */\n      0x2e\n        /* \"#utility.yul\":5052:5070   */\n      0x24\n      dup3\n      add\n        /* \"#utility.yul\":5045:5075   */\n      mstore\n        /* \"#utility.yul\":5111:5145   */\n      0x496e697469616c697a61626c653a20636f6e747261637420697320616c726561\n        /* \"#utility.yul\":5091:5109   */\n      0x44\n      dup3\n      add\n        /* \"#utility.yul\":5084:5146   */\n      mstore\n      shl(0x92, 0x191e481a5b9a5d1a585b1a5e9959)\n        /* \"#utility.yul\":5162:5180   */\n      0x64\n      dup3\n      add\n        /* \"#utility.yul\":5155:5199   */\n      mstore\n        /* \"#utility.yul\":5216:5235   */\n      0x84\n      add\n        /* \"https://github.com/OpenZeppelin/openzeppelin-contracts-upgradeable/blob/release-v4.9/contracts/proxy/utils/Initializable.sol\":3325:3526  require(... */\n      tag_176\n        /* \"#utility.yul\":4831:5241   */\n      jump\n        /* \"https://github.com/OpenZeppelin/openzeppelin-contracts-upgradeable/blob/release-v4.9/contracts/proxy/utils/Initializable.sol\":3325:3526  require(... */\n    tag_201:\n        /* \"https://github.com/OpenZeppelin/openzeppelin-contracts-upgradeable/blob/release-v4.9/contracts/proxy/utils/Initializable.sol\":3536:3548  _initialized */\n      0x00\n        /* \"https://github.com/OpenZeppelin/openzeppelin-contracts-upgradeable/blob/release-v4.9/contracts/proxy/utils/Initializable.sol\":3536:3552  _initialized = 1 */\n      dup1\n      sload\n      not(0xff)\n      and\n        /* \"https://github.com/OpenZeppelin/openzeppelin-contracts-upgradeable/blob/release-v4.9/contracts/proxy/utils/Initializable.sol\":3551:3552  1 */\n      0x01\n        /* \"https://github.com/OpenZeppelin/openzeppelin-contracts-upgradeable/blob/release-v4.9/contracts/proxy/utils/Initializable.sol\":3536:3552  _initialized = 1 */\n      or\n      swap1\n      sstore\n        /* \"https://github.com/OpenZeppelin/openzeppelin-contracts-upgradeable/blob/release-v4.9/contracts/proxy/utils/Initializable.sol\":3562:3627  if (isTopLevelCall) {... */\n      dup1\n      iszero\n      tag_204\n      jumpi\n        /* \"https://github.com/OpenZeppelin/openzeppelin-contracts-upgradeable/blob/release-v4.9/contracts/proxy/utils/Initializable.sol\":3596:3609  _initializing */\n      0x00\n        /* \"https://github.com/OpenZeppelin/openzeppelin-contracts-upgradeable/blob/release-v4.9/contracts/proxy/utils/Initializable.sol\":3596:3616  _initializing = true */\n      dup1\n      sload\n      not(0xff00)\n      and\n      0x0100\n      or\n      swap1\n      sstore\n        /* \"https://github.com/OpenZeppelin/openzeppelin-contracts-upgradeable/blob/release-v4.9/contracts/proxy/utils/Initializable.sol\":3562:3627  if (isTopLevelCall) {... */\n    tag_204:\n        /* \"METH_unflattned.sol\":5940:5975  OwnableUpgradeable.__Ownable_init() */\n      tag_206\n        /* \"METH_unflattned.sol\":5940:5973  OwnableUpgradeable.__Ownable_init */\n      tag_207\n        /* \"METH_unflattned.sol\":5940:5975  OwnableUpgradeable.__Ownable_init() */\n      jump\t// in\n    tag_206:\n        /* \"METH_unflattned.sol\":6020:6036  _name = \"MTESTF\" */\n      0x40\n      dup1\n      mload\n      dup1\n      dup3\n      add\n      swap1\n      swap2\n      mstore\n      0x06\n      dup2\n      mstore\n      shl(0xd1, 0x26aa22a9aa23)\n      0x20\n      dup3\n      add\n      mstore\n        /* \"METH_unflattned.sol\":6020:6025  _name */\n      0x65\n      swap1\n        /* \"METH_unflattned.sol\":6020:6036  _name = \"MTESTF\" */\n      tag_208\n      swap1\n        /* \"METH_unflattned.sol\":6020:6025  _name */\n      dup3\n        /* \"METH_unflattned.sol\":6020:6036  _name = \"MTESTF\" */\n      tag_209\n      jump\t// in\n    tag_208:\n      pop\n        /* \"METH_unflattned.sol\":6047:6065  _symbol = \"MTESTF\" */\n      0x40\n      dup1\n      mload\n      dup1\n      dup3\n      add\n      swap1\n      swap2\n      mstore\n      0x06\n      dup2\n      mstore\n      shl(0xd1, 0x26aa22a9aa23)\n      0x20\n      dup3\n      add\n      mstore\n        /* \"METH_unflattned.sol\":6047:6054  _symbol */\n      0x66\n      swap1\n        /* \"METH_unflattned.sol\":6047:6065  _symbol = \"MTESTF\" */\n      tag_210\n      swap1\n        /* \"METH_unflattned.sol\":6047:6054  _symbol */\n      dup3\n        /* \"METH_unflattned.sol\":6047:6065  _symbol = \"MTESTF\" */\n      tag_209\n      jump\t// in\n    tag_210:\n      pop\n        /* \"METH_unflattned.sol\":6076:6085  _decimals */\n      0x67\n        /* \"METH_unflattned.sol\":6076:6090  _decimals = 18 */\n      dup1\n      sload\n      not(0xff)\n      and\n        /* \"METH_unflattned.sol\":6088:6090  18 */\n      0x12\n        /* \"METH_unflattned.sol\":6076:6090  _decimals = 18 */\n      or\n      swap1\n      sstore\n        /* \"METH_unflattned.sol\":6199:6228  10000000000000000000000000000 */\n      0x204fce5e3e25026110000000\n        /* \"METH_unflattned.sol\":6189:6196  _tTotal */\n      0x6f\n        /* \"METH_unflattned.sol\":6189:6228  _tTotal = 10000000000000000000000000000 */\n      dup2\n      swap1\n      sstore\n      not(0x00)\n        /* \"METH_unflattned.sol\":6273:6277  _MAX */\n      0x6e\n        /* \"METH_unflattned.sol\":6273:6291  _MAX = ~uint256(0) */\n      dup2\n      swap1\n      sstore\n        /* \"METH_unflattned.sol\":6370:6384  _MAX % _tTotal */\n      tag_211\n      swap2\n        /* \"METH_unflattned.sol\":6199:6228  10000000000000000000000000000 */\n      swap1\n        /* \"METH_unflattned.sol\":6370:6384  _MAX % _tTotal */\n      tag_212\n      jump\t// in\n    tag_211:\n        /* \"METH_unflattned.sol\":6362:6366  _MAX */\n      sload(0x6e)\n        /* \"METH_unflattned.sol\":6362:6385  _MAX - (_MAX % _tTotal) */\n      tag_213\n      swap2\n      swap1\n      tag_164\n      jump\t// in\n    tag_213:\n        /* \"METH_unflattned.sol\":6351:6358  _rTotal */\n      0x70\n        /* \"METH_unflattned.sol\":6351:6386  _rTotal = (_MAX - (_MAX % _tTotal)) */\n      dup2\n      swap1\n      sstore\n        /* \"METH_unflattned.sol\":6502:6509  _rOwned */\n      0x6a\n        /* \"METH_unflattned.sol\":6502:6518  _rOwned[owner()] */\n      0x00\n        /* \"METH_unflattned.sol\":6510:6517  owner() */\n      tag_214\n        /* \"https://github.com/OpenZeppelin/openzeppelin-contracts-upgradeable/blob/release-v4.9/contracts/access/OwnableUpgradeable.sol\":1534:1540  _owner */\n      and(sub(shl(0xa0, 0x01), 0x01), sload(0x33))\n      swap1\n        /* \"https://github.com/OpenZeppelin/openzeppelin-contracts-upgradeable/blob/release-v4.9/contracts/access/OwnableUpgradeable.sol\":1462:1547  function owner() public view virtual returns (address) {... */\n      jump\n        /* \"METH_unflattned.sol\":6510:6517  owner() */\n    tag_214:\n      sub(shl(0xa0, 0x01), 0x01)\n        /* \"METH_unflattned.sol\":6502:6518  _rOwned[owner()] */\n      and\n      dup2\n      mstore\n      0x20\n      dup1\n      dup3\n      add\n      swap3\n      swap1\n      swap3\n      mstore\n      0x40\n      add\n      0x00\n      swap1\n      dup2\n      keccak256\n        /* \"METH_unflattned.sol\":6502:6528  _rOwned[owner()] = _rTotal */\n      swap3\n      swap1\n      swap3\n      sstore\n        /* \"METH_unflattned.sol\":6556:6563  _tTotal */\n      sload(0x6f)\n        /* \"METH_unflattned.sol\":6542:6553  maxTxAmount */\n      0x71\n        /* \"METH_unflattned.sol\":6542:6563  maxTxAmount = _tTotal */\n      sstore\n        /* \"METH_unflattned.sol\":6637:6648  _isExcluded */\n      0x6c\n        /* \"METH_unflattned.sol\":6637:6660  _isExcluded[address(0)] */\n      swap1\n      mstore\n      0x7febd347df14ea35c529e50fb2dd629d4a6226f5ccc893710fb466f8b83823fc\n        /* \"METH_unflattned.sol\":6637:6667  _isExcluded[address(0)] = true */\n      dup1\n      sload\n      not(0xff)\n      swap1\n      dup2\n      and\n        /* \"METH_unflattned.sol\":6663:6667  true */\n      0x01\n        /* \"METH_unflattned.sol\":6637:6667  _isExcluded[address(0)] = true */\n      swap1\n      dup2\n      or\n      swap1\n      swap3\n      sstore\n        /* \"METH_unflattned.sol\":6678:6742  _isExcluded[address(0x000000000000000000000000000000000000dEaD)] */\n      0x8c482e007f935c93984ddf7a647e33ef99566883ffae3563aa616dc14d1632f7\n        /* \"METH_unflattned.sol\":6678:6749  _isExcluded[address(0x000000000000000000000000000000000000dEaD)] = true */\n      dup1\n      sload\n      dup3\n      and\n      dup4\n      or\n      swap1\n      sstore\n        /* \"METH_unflattned.sol\":6760:6824  _isExcluded[address(0x0000000000000000000000000000000000000369)] */\n      0xb6e99d88b536ae7728c4b89ca5a6073cf06fd2059e0aff5b1a4de2c799d9cb96\n        /* \"METH_unflattned.sol\":6760:6831  _isExcluded[address(0x0000000000000000000000000000000000000369)] = true */\n      dup1\n      sload\n      dup3\n      and\n      dup4\n      or\n      swap1\n      sstore\n        /* \"METH_unflattned.sol\":6780:6822  0x0000000000000000000000000000000000000369 */\n      0x0369\n        /* \"METH_unflattned.sol\":7021:7085  _isExcluded[address(0x0000000000000000000000000000000000000369)] */\n      swap1\n      swap3\n      mstore\n        /* \"METH_unflattned.sol\":7105:7114  antiWhale */\n      0x72\n        /* \"METH_unflattned.sol\":7105:7121  antiWhale = true */\n      dup1\n      sload\n      swap1\n      swap3\n      and\n      or\n      swap1\n      sstore\n        /* \"METH_unflattned.sol\":7160:7167  owner() */\n      tag_215\n        /* \"https://github.com/OpenZeppelin/openzeppelin-contracts-upgradeable/blob/release-v4.9/contracts/access/OwnableUpgradeable.sol\":1534:1540  _owner */\n      and(sub(shl(0xa0, 0x01), 0x01), sload(0x33))\n      swap1\n        /* \"https://github.com/OpenZeppelin/openzeppelin-contracts-upgradeable/blob/release-v4.9/contracts/access/OwnableUpgradeable.sol\":1462:1547  function owner() public view virtual returns (address) {... */\n      jump\n        /* \"METH_unflattned.sol\":7160:7167  owner() */\n    tag_215:\n      sub(shl(0xa0, 0x01), 0x01)\n        /* \"METH_unflattned.sol\":7139:7177  Transfer(address(0), owner(), _tTotal) */\n      and\n        /* \"METH_unflattned.sol\":7156:7157  0 */\n      0x00\n      sub(shl(0xa0, 0x01), 0x01)\n        /* \"METH_unflattned.sol\":7139:7177  Transfer(address(0), owner(), _tTotal) */\n      and\n      0x00\n      dup1\n      mload\n      0x20\n      data_ada389e1fc24a8587c776340efb91b36e675792ab631816100d55df0b5cf3cbc\n      dup4\n      codecopy\n      dup2\n      mload\n      swap2\n      mstore\n        /* \"METH_unflattned.sol\":7169:7176  _tTotal */\n      sload(0x6f)\n        /* \"METH_unflattned.sol\":7139:7177  Transfer(address(0), owner(), _tTotal) */\n      mload(0x40)\n      tag_216\n      swap2\n        /* \"#utility.yul\":1445:1470   */\n      dup2\n      mstore\n        /* \"#utility.yul\":1433:1435   */\n      0x20\n        /* \"#utility.yul\":1418:1436   */\n      add\n      swap1\n        /* \"#utility.yul\":1299:1476   */\n      jump\n        /* \"METH_unflattned.sol\":7139:7177  Transfer(address(0), owner(), _tTotal) */\n    tag_216:\n      mload(0x40)\n      dup1\n      swap2\n      sub\n      swap1\n      log3\n        /* \"https://github.com/OpenZeppelin/openzeppelin-contracts-upgradeable/blob/release-v4.9/contracts/proxy/utils/Initializable.sol\":3651:3665  isTopLevelCall */\n      dup1\n        /* \"https://github.com/OpenZeppelin/openzeppelin-contracts-upgradeable/blob/release-v4.9/contracts/proxy/utils/Initializable.sol\":3647:3746  if (isTopLevelCall) {... */\n      iszero\n      tag_217\n      jumpi\n        /* \"https://github.com/OpenZeppelin/openzeppelin-contracts-upgradeable/blob/release-v4.9/contracts/proxy/utils/Initializable.sol\":3697:3702  false */\n      0x00\n        /* \"https://github.com/OpenZeppelin/openzeppelin-contracts-upgradeable/blob/release-v4.9/contracts/proxy/utils/Initializable.sol\":3681:3702  _initializing = false */\n      dup1\n      sload\n      not(0xff00)\n      and\n      swap1\n      sstore\n        /* \"https://github.com/OpenZeppelin/openzeppelin-contracts-upgradeable/blob/release-v4.9/contracts/proxy/utils/Initializable.sol\":3721:3735  Initialized(1) */\n      mload(0x40)\n      0x01\n        /* \"#utility.yul\":1956:1992   */\n      dup2\n      mstore\n        /* \"https://github.com/OpenZeppelin/openzeppelin-contracts-upgradeable/blob/release-v4.9/contracts/proxy/utils/Initializable.sol\":3721:3735  Initialized(1) */\n      0x7f26b83ff96e1f2b6a682f133852f6798a09c465da95921460cefb3847402498\n      swap1\n        /* \"#utility.yul\":1944:1946   */\n      0x20\n        /* \"#utility.yul\":1929:1947   */\n      add\n        /* \"https://github.com/OpenZeppelin/openzeppelin-contracts-upgradeable/blob/release-v4.9/contracts/proxy/utils/Initializable.sol\":3721:3735  Initialized(1) */\n      mload(0x40)\n      dup1\n      swap2\n      sub\n      swap1\n      log1\n        /* \"https://github.com/OpenZeppelin/openzeppelin-contracts-upgradeable/blob/release-v4.9/contracts/proxy/utils/Initializable.sol\":3647:3746  if (isTopLevelCall) {... */\n    tag_217:\n        /* \"https://github.com/OpenZeppelin/openzeppelin-contracts-upgradeable/blob/release-v4.9/contracts/proxy/utils/Initializable.sol\":3269:3752  {... */\n      pop\n        /* \"METH_unflattned.sol\":5762:7195  function initialize(... */\n      jump\t// out\n        /* \"METH_unflattned.sol\":10292:10391  function setAntiWhaleStatus(bool _status) external onlyOwner {... */\n    tag_102:\n        /* \"https://github.com/OpenZeppelin/openzeppelin-contracts-upgradeable/blob/release-v4.9/contracts/access/OwnableUpgradeable.sol\":1355:1368  _checkOwner() */\n      tag_221\n        /* \"https://github.com/OpenZeppelin/openzeppelin-contracts-upgradeable/blob/release-v4.9/contracts/access/OwnableUpgradeable.sol\":1355:1366  _checkOwner */\n      tag_190\n        /* \"https://github.com/OpenZeppelin/openzeppelin-contracts-upgradeable/blob/release-v4.9/contracts/access/OwnableUpgradeable.sol\":1355:1368  _checkOwner() */\n      jump\t// in\n    tag_221:\n        /* \"METH_unflattned.sol\":10364:10373  antiWhale */\n      0x72\n        /* \"METH_unflattned.sol\":10364:10383  antiWhale = _status */\n      dup1\n      sload\n      not(0xff)\n      and\n      swap2\n      iszero\n      iszero\n      swap2\n      swap1\n      swap2\n      or\n      swap1\n      sstore\n        /* \"METH_unflattned.sol\":10292:10391  function setAntiWhaleStatus(bool _status) external onlyOwner {... */\n      jump\t// out\n        /* \"METH_unflattned.sol\":12782:13043  function _getRate() public view returns (uint256) {... */\n    tag_110:\n        /* \"METH_unflattned.sol\":12823:12830  uint256 */\n      0x00\n        /* \"METH_unflattned.sol\":12905:12920  uint256 rSupply */\n      dup1\n        /* \"METH_unflattned.sol\":12922:12937  uint256 tSupply */\n      0x00\n        /* \"METH_unflattned.sol\":12941:12960  _getCurrentSupply() */\n      tag_225\n        /* \"METH_unflattned.sol\":12941:12958  _getCurrentSupply */\n      tag_116\n        /* \"METH_unflattned.sol\":12941:12960  _getCurrentSupply() */\n      jump\t// in\n    tag_225:\n        /* \"METH_unflattned.sol\":12904:12960  (uint256 rSupply, uint256 tSupply) = _getCurrentSupply() */\n      swap1\n      swap3\n      pop\n      swap1\n      pop\n        /* \"METH_unflattned.sol\":13018:13035  rSupply / tSupply */\n      tag_226\n        /* \"METH_unflattned.sol\":12904:12960  (uint256 rSupply, uint256 tSupply) = _getCurrentSupply() */\n      dup2\n      dup4\n        /* \"METH_unflattned.sol\":13018:13035  rSupply / tSupply */\n      tag_182\n      jump\t// in\n    tag_226:\n        /* \"METH_unflattned.sol\":13011:13035  return rSupply / tSupply */\n      swap3\n      pop\n      pop\n      pop\n        /* \"METH_unflattned.sol\":12782:13043  function _getRate() public view returns (uint256) {... */\n      swap1\n      jump\t// out\n        /* \"METH_unflattned.sol\":7405:7492  function symbol() public view returns (string memory) {... */\n    tag_113:\n        /* \"METH_unflattned.sol\":7444:7457  string memory */\n      0x60\n        /* \"METH_unflattned.sol\":7477:7484  _symbol */\n      0x66\n        /* \"METH_unflattned.sol\":7470:7484  return _symbol */\n      dup1\n      sload\n      tag_145\n      swap1\n      tag_146\n      jump\t// in\n        /* \"METH_unflattned.sol\":13140:13779  function _getCurrentSupply() public view returns (uint256, uint256) {... */\n    tag_116:\n        /* \"METH_unflattned.sol\":13296:13303  _rTotal */\n      sload(0x70)\n        /* \"METH_unflattned.sol\":13332:13339  _tTotal */\n      sload(0x6f)\n        /* \"METH_unflattned.sol\":13190:13197  uint256 */\n      0x00\n      swap2\n      dup3\n      swap2\n      dup3\n        /* \"METH_unflattned.sol\":13407:13734  for (uint256 i = 0; i < _excluded.length; i++) {... */\n    tag_234:\n        /* \"METH_unflattned.sol\":13431:13440  _excluded */\n      0x68\n        /* \"METH_unflattned.sol\":13431:13447  _excluded.length */\n      sload\n        /* \"METH_unflattned.sol\":13427:13447  i < _excluded.length */\n      dup2\n      lt\n        /* \"METH_unflattned.sol\":13407:13734  for (uint256 i = 0; i < _excluded.length; i++) {... */\n      iszero\n      tag_235\n      jumpi\n        /* \"METH_unflattned.sol\":13569:13576  _rOwned */\n      0x6a\n        /* \"METH_unflattned.sol\":13569:13590  _rOwned[_excluded[i]] */\n      0x00\n        /* \"METH_unflattned.sol\":13577:13586  _excluded */\n      0x68\n        /* \"METH_unflattned.sol\":13587:13588  i */\n      dup4\n        /* \"METH_unflattned.sol\":13577:13589  _excluded[i] */\n      dup2\n      sload\n      dup2\n      lt\n      tag_238\n      jumpi\n      tag_238\n      tag_239\n      jump\t// in\n    tag_238:\n      0x00\n      swap2\n      dup3\n      mstore\n      0x20\n      dup1\n      dup4\n      keccak256\n      swap1\n      swap2\n      add\n      sload\n      sub(shl(0xa0, 0x01), 0x01)\n      and\n        /* \"METH_unflattned.sol\":13569:13590  _rOwned[_excluded[i]] */\n      dup4\n      mstore\n      dup3\n      add\n      swap3\n      swap1\n      swap3\n      mstore\n      0x40\n      add\n      swap1\n      keccak256\n      sload\n        /* \"METH_unflattned.sol\":13559:13590  rSupply - _rOwned[_excluded[i]] */\n      tag_241\n      swap1\n        /* \"METH_unflattned.sol\":13559:13566  rSupply */\n      dup5\n        /* \"METH_unflattned.sol\":13559:13590  rSupply - _rOwned[_excluded[i]] */\n      tag_164\n      jump\t// in\n    tag_241:\n        /* \"METH_unflattned.sol\":13549:13590  rSupply = rSupply - _rOwned[_excluded[i]] */\n      swap3\n      pop\n        /* \"METH_unflattned.sol\":13701:13708  _tOwned */\n      0x69\n        /* \"METH_unflattned.sol\":13701:13722  _tOwned[_excluded[i]] */\n      0x00\n        /* \"METH_unflattned.sol\":13709:13718  _excluded */\n      0x68\n        /* \"METH_unflattned.sol\":13719:13720  i */\n      dup4\n        /* \"METH_unflattned.sol\":13709:13721  _excluded[i] */\n      dup2\n      sload\n      dup2\n      lt\n      tag_243\n      jumpi\n      tag_243\n      tag_239\n      jump\t// in\n    tag_243:\n      0x00\n      swap2\n      dup3\n      mstore\n      0x20\n      dup1\n      dup4\n      keccak256\n      swap1\n      swap2\n      add\n      sload\n      sub(shl(0xa0, 0x01), 0x01)\n      and\n        /* \"METH_unflattned.sol\":13701:13722  _tOwned[_excluded[i]] */\n      dup4\n      mstore\n      dup3\n      add\n      swap3\n      swap1\n      swap3\n      mstore\n      0x40\n      add\n      swap1\n      keccak256\n      sload\n        /* \"METH_unflattned.sol\":13691:13722  tSupply - _tOwned[_excluded[i]] */\n      tag_245\n      swap1\n        /* \"METH_unflattned.sol\":13691:13698  tSupply */\n      dup4\n        /* \"METH_unflattned.sol\":13691:13722  tSupply - _tOwned[_excluded[i]] */\n      tag_164\n      jump\t// in\n    tag_245:\n        /* \"METH_unflattned.sol\":13681:13722  tSupply = tSupply - _tOwned[_excluded[i]] */\n      swap2\n      pop\n        /* \"METH_unflattned.sol\":13449:13452  i++ */\n      0x01\n      add\n        /* \"METH_unflattned.sol\":13407:13734  for (uint256 i = 0; i < _excluded.length; i++) {... */\n      jump(tag_234)\n    tag_235:\n      pop\n        /* \"METH_unflattned.sol\":13754:13761  rSupply */\n      swap1\n      swap4\n        /* \"METH_unflattned.sol\":13763:13770  tSupply */\n      swap1\n      swap3\n      pop\n        /* \"METH_unflattned.sol\":13140:13779  function _getCurrentSupply() public view returns (uint256, uint256) {... */\n      swap1\n      pop\n      jump\t// out\n        /* \"METH_unflattned.sol\":9878:10103  function decreaseAllowance(address spender, uint256 subtractedValue) public virtual returns (bool) {... */\n    tag_120:\n        /* \"https://github.com/OpenZeppelin/openzeppelin-contracts-upgradeable/blob/release-v4.9/contracts/utils/ContextUpgradeable.sol\":965:975  msg.sender */\n      caller\n        /* \"METH_unflattned.sol\":9971:9975  bool */\n      0x00\n        /* \"METH_unflattned.sol\":10020:10045  _allowances[_msgSender()] */\n      dup2\n      dup2\n      mstore\n        /* \"METH_unflattned.sol\":10020:10031  _allowances */\n      0x6b\n        /* \"METH_unflattned.sol\":10020:10045  _allowances[_msgSender()] */\n      0x20\n      swap1\n      dup2\n      mstore\n      0x40\n      dup1\n      dup4\n      keccak256\n      sub(shl(0xa0, 0x01), 0x01)\n        /* \"METH_unflattned.sol\":10020:10054  _allowances[_msgSender()][spender] */\n      dup8\n      and\n      dup5\n      mstore\n      swap1\n      swap2\n      mstore\n      dup2\n      keccak256\n      sload\n        /* \"METH_unflattned.sol\":9971:9975  bool */\n      swap1\n      swap2\n        /* \"METH_unflattned.sol\":9988:10073  _approve(_msgSender(), spender, _allowances[_msgSender()][spender] - subtractedValue) */\n      tag_152\n      swap2\n        /* \"METH_unflattned.sol\":10011:10018  spender */\n      dup6\n      swap1\n        /* \"METH_unflattned.sol\":10020:10072  _allowances[_msgSender()][spender] - subtractedValue */\n      tag_163\n      swap1\n        /* \"METH_unflattned.sol\":10057:10072  subtractedValue */\n      dup7\n      swap1\n        /* \"METH_unflattned.sol\":10020:10072  _allowances[_msgSender()][spender] - subtractedValue */\n      tag_164\n      jump\t// in\n        /* \"METH_unflattned.sol\":8382:8569  function transfer(address recipient, uint256 amount) public override (IERC20Upgradeable) returns (bool) {... */\n    tag_124:\n        /* \"METH_unflattned.sol\":8480:8484  bool */\n      0x00\n        /* \"METH_unflattned.sol\":8497:8539  _transfer(_msgSender(), recipient, amount) */\n      tag_152\n        /* \"https://github.com/OpenZeppelin/openzeppelin-contracts-upgradeable/blob/release-v4.9/contracts/utils/ContextUpgradeable.sol\":965:975  msg.sender */\n      caller\n        /* \"METH_unflattned.sol\":8521:8530  recipient */\n      dup5\n        /* \"METH_unflattned.sol\":8532:8538  amount */\n      dup5\n        /* \"METH_unflattned.sol\":8497:8506  _transfer */\n      tag_159\n        /* \"METH_unflattned.sol\":8497:8539  _transfer(_msgSender(), recipient, amount) */\n      jump\t// in\n        /* \"METH_unflattned.sol\":18586:18703  function getTenPercentOfBalance() public view returns(uint256) {... */\n    tag_127:\n        /* \"METH_unflattned.sol\":18640:18647  uint256 */\n      0x00\n        /* \"METH_unflattned.sol\":18692:18694  10 */\n      0x0a\n        /* \"METH_unflattned.sol\":18668:18689  balanceOf(msg.sender) */\n      tag_255\n        /* \"METH_unflattned.sol\":18678:18688  msg.sender */\n      caller\n        /* \"METH_unflattned.sol\":18668:18677  balanceOf */\n      tag_88\n        /* \"METH_unflattned.sol\":18668:18689  balanceOf(msg.sender) */\n      jump\t// in\n    tag_255:\n        /* \"METH_unflattned.sol\":18668:18694  balanceOf(msg.sender) / 10 */\n      tag_256\n      swap2\n      swap1\n      tag_182\n      jump\t// in\n    tag_256:\n        /* \"METH_unflattned.sol\":18660:18695  return (balanceOf(msg.sender) / 10) */\n      swap1\n      pop\n        /* \"METH_unflattned.sol\":18586:18703  function getTenPercentOfBalance() public view returns(uint256) {... */\n      swap1\n      jump\t// out\n        /* \"https://github.com/OpenZeppelin/openzeppelin-contracts-upgradeable/blob/release-v4.9/contracts/access/OwnableUpgradeable.sol\":2335:2533  function transferOwnership(address newOwner) public virtual onlyOwner {... */\n    tag_143:\n        /* \"https://github.com/OpenZeppelin/openzeppelin-contracts-upgradeable/blob/release-v4.9/contracts/access/OwnableUpgradeable.sol\":1355:1368  _checkOwner() */\n      tag_260\n        /* \"https://github.com/OpenZeppelin/openzeppelin-contracts-upgradeable/blob/release-v4.9/contracts/access/OwnableUpgradeable.sol\":1355:1366  _checkOwner */\n      tag_190\n        /* \"https://github.com/OpenZeppelin/openzeppelin-contracts-upgradeable/blob/release-v4.9/contracts/access/OwnableUpgradeable.sol\":1355:1368  _checkOwner() */\n      jump\t// in\n    tag_260:\n      sub(shl(0xa0, 0x01), 0x01)\n        /* \"https://github.com/OpenZeppelin/openzeppelin-contracts-upgradeable/blob/release-v4.9/contracts/access/OwnableUpgradeable.sol\":2423:2445  newOwner != address(0) */\n      dup2\n      and\n        /* \"https://github.com/OpenZeppelin/openzeppelin-contracts-upgradeable/blob/release-v4.9/contracts/access/OwnableUpgradeable.sol\":2415:2488  require(newOwner != address(0), \"Ownable: new owner is the zero address\") */\n      tag_262\n      jumpi\n      mload(0x40)\n      shl(0xe5, 0x461bcd)\n      dup2\n      mstore\n        /* \"#utility.yul\":8198:8200   */\n      0x20\n        /* \"https://github.com/OpenZeppelin/openzeppelin-contracts-upgradeable/blob/release-v4.9/contracts/access/OwnableUpgradeable.sol\":2415:2488  require(newOwner != address(0), \"Ownable: new owner is the zero address\") */\n      0x04\n      dup3\n      add\n        /* \"#utility.yul\":8180:8201   */\n      mstore\n        /* \"#utility.yul\":8237:8239   */\n      0x26\n        /* \"#utility.yul\":8217:8235   */\n      0x24\n      dup3\n      add\n        /* \"#utility.yul\":8210:8240   */\n      mstore\n        /* \"#utility.yul\":8276:8310   */\n      0x4f776e61626c653a206e6577206f776e657220697320746865207a65726f2061\n        /* \"#utility.yul\":8256:8274   */\n      0x44\n      dup3\n      add\n        /* \"#utility.yul\":8249:8311   */\n      mstore\n      shl(0xd0, 0x646472657373)\n        /* \"#utility.yul\":8327:8345   */\n      0x64\n      dup3\n      add\n        /* \"#utility.yul\":8320:8356   */\n      mstore\n        /* \"#utility.yul\":8373:8392   */\n      0x84\n      add\n        /* \"https://github.com/OpenZeppelin/openzeppelin-contracts-upgradeable/blob/release-v4.9/contracts/access/OwnableUpgradeable.sol\":2415:2488  require(newOwner != address(0), \"Ownable: new owner is the zero address\") */\n      tag_176\n        /* \"#utility.yul\":7996:8398   */\n      jump\n        /* \"https://github.com/OpenZeppelin/openzeppelin-contracts-upgradeable/blob/release-v4.9/contracts/access/OwnableUpgradeable.sol\":2415:2488  require(newOwner != address(0), \"Ownable: new owner is the zero address\") */\n    tag_262:\n        /* \"https://github.com/OpenZeppelin/openzeppelin-contracts-upgradeable/blob/release-v4.9/contracts/access/OwnableUpgradeable.sol\":2498:2526  _transferOwnership(newOwner) */\n      tag_217\n        /* \"https://github.com/OpenZeppelin/openzeppelin-contracts-upgradeable/blob/release-v4.9/contracts/access/OwnableUpgradeable.sol\":2517:2525  newOwner */\n      dup2\n        /* \"https://github.com/OpenZeppelin/openzeppelin-contracts-upgradeable/blob/release-v4.9/contracts/access/OwnableUpgradeable.sol\":2498:2516  _transferOwnership */\n      tag_193\n        /* \"https://github.com/OpenZeppelin/openzeppelin-contracts-upgradeable/blob/release-v4.9/contracts/access/OwnableUpgradeable.sol\":2498:2526  _transferOwnership(newOwner) */\n      jump\t// in\n        /* \"METH_unflattned.sol\":13863:14369  function _approve(... */\n    tag_155:\n      sub(shl(0xa0, 0x01), 0x01)\n        /* \"METH_unflattned.sol\":14054:14073  owner != address(0) */\n      dup4\n      and\n        /* \"METH_unflattned.sol\":14046:14114  require(owner != address(0), \"ERC20: approve from the zero address\") */\n      tag_268\n      jumpi\n      mload(0x40)\n      shl(0xe5, 0x461bcd)\n      dup2\n      mstore\n        /* \"#utility.yul\":8605:8607   */\n      0x20\n        /* \"METH_unflattned.sol\":14046:14114  require(owner != address(0), \"ERC20: approve from the zero address\") */\n      0x04\n      dup3\n      add\n        /* \"#utility.yul\":8587:8608   */\n      mstore\n        /* \"#utility.yul\":8644:8646   */\n      0x24\n        /* \"#utility.yul\":8624:8642   */\n      dup1\n      dup3\n      add\n        /* \"#utility.yul\":8617:8647   */\n      mstore\n        /* \"#utility.yul\":8683:8717   */\n      0x45524332303a20617070726f76652066726f6d20746865207a65726f20616464\n        /* \"#utility.yul\":8663:8681   */\n      0x44\n      dup3\n      add\n        /* \"#utility.yul\":8656:8718   */\n      mstore\n      shl(0xe0, 0x72657373)\n        /* \"#utility.yul\":8734:8752   */\n      0x64\n      dup3\n      add\n        /* \"#utility.yul\":8727:8761   */\n      mstore\n        /* \"#utility.yul\":8778:8797   */\n      0x84\n      add\n        /* \"METH_unflattned.sol\":14046:14114  require(owner != address(0), \"ERC20: approve from the zero address\") */\n      tag_176\n        /* \"#utility.yul\":8403:8803   */\n      jump\n        /* \"METH_unflattned.sol\":14046:14114  require(owner != address(0), \"ERC20: approve from the zero address\") */\n    tag_268:\n      sub(shl(0xa0, 0x01), 0x01)\n        /* \"METH_unflattned.sol\":14133:14154  spender != address(0) */\n      dup3\n      and\n        /* \"METH_unflattned.sol\":14125:14193  require(spender != address(0), \"ERC20: approve to the zero address\") */\n      tag_271\n      jumpi\n      mload(0x40)\n      shl(0xe5, 0x461bcd)\n      dup2\n      mstore\n        /* \"#utility.yul\":9010:9012   */\n      0x20\n        /* \"METH_unflattned.sol\":14125:14193  require(spender != address(0), \"ERC20: approve to the zero address\") */\n      0x04\n      dup3\n      add\n        /* \"#utility.yul\":8992:9013   */\n      mstore\n        /* \"#utility.yul\":9049:9051   */\n      0x22\n        /* \"#utility.yul\":9029:9047   */\n      0x24\n      dup3\n      add\n        /* \"#utility.yul\":9022:9052   */\n      mstore\n        /* \"#utility.yul\":9088:9122   */\n      0x45524332303a20617070726f766520746f20746865207a65726f206164647265\n        /* \"#utility.yul\":9068:9086   */\n      0x44\n      dup3\n      add\n        /* \"#utility.yul\":9061:9123   */\n      mstore\n      shl(0xf0, 0x7373)\n        /* \"#utility.yul\":9139:9157   */\n      0x64\n      dup3\n      add\n        /* \"#utility.yul\":9132:9164   */\n      mstore\n        /* \"#utility.yul\":9181:9200   */\n      0x84\n      add\n        /* \"METH_unflattned.sol\":14125:14193  require(spender != address(0), \"ERC20: approve to the zero address\") */\n      tag_176\n        /* \"#utility.yul\":8808:9206   */\n      jump\n        /* \"METH_unflattned.sol\":14125:14193  require(spender != address(0), \"ERC20: approve to the zero address\") */\n    tag_271:\n      sub(shl(0xa0, 0x01), 0x01)\n        /* \"METH_unflattned.sol\":14277:14295  _allowances[owner] */\n      dup4\n      dup2\n      and\n      0x00\n      dup2\n      dup2\n      mstore\n        /* \"METH_unflattned.sol\":14277:14288  _allowances */\n      0x6b\n        /* \"METH_unflattned.sol\":14277:14295  _allowances[owner] */\n      0x20\n      swap1\n      dup2\n      mstore\n      0x40\n      dup1\n      dup4\n      keccak256\n        /* \"METH_unflattned.sol\":14277:14304  _allowances[owner][spender] */\n      swap5\n      dup8\n      and\n      dup1\n      dup5\n      mstore\n      swap5\n      dup3\n      mstore\n      swap2\n      dup3\n      swap1\n      keccak256\n        /* \"METH_unflattned.sol\":14277:14313  _allowances[owner][spender] = amount */\n      dup6\n      swap1\n      sstore\n        /* \"METH_unflattned.sol\":14329:14361  Approval(owner, spender, amount) */\n      swap1\n      mload\n        /* \"#utility.yul\":1445:1470   */\n      dup5\n      dup2\n      mstore\n        /* \"METH_unflattned.sol\":14329:14361  Approval(owner, spender, amount) */\n      0x8c5be1e5ebec7d5bd14f71427d1e84f3dd0314c0f7b2291e5b200ac8c7c3b925\n      swap2\n        /* \"#utility.yul\":1418:1436   */\n      add\n        /* \"METH_unflattned.sol\":14329:14361  Approval(owner, spender, amount) */\n      mload(0x40)\n      dup1\n      swap2\n      sub\n      swap1\n      log3\n        /* \"METH_unflattned.sol\":13863:14369  function _approve(... */\n      pop\n      pop\n      pop\n      jump\t// out\n        /* \"METH_unflattned.sol\":14492:16997  function _transfer(... */\n    tag_159:\n        /* \"METH_unflattned.sol\":14651:14656  mutex */\n      sload(0x72)\n      0x0100\n      swap1\n      div\n      0xff\n      and\n        /* \"METH_unflattned.sol\":14651:14665  mutex == false */\n      iszero\n        /* \"METH_unflattned.sol\":14643:14666  require(mutex == false) */\n      tag_276\n      jumpi\n      0x00\n      dup1\n      revert\n    tag_276:\n        /* \"METH_unflattned.sol\":14677:14682  mutex */\n      0x72\n        /* \"METH_unflattned.sol\":14677:14689  mutex = true */\n      dup1\n      sload\n      not(0xff00)\n      and\n      0x0100\n      or\n      swap1\n      sstore\n      sub(shl(0xa0, 0x01), 0x01)\n        /* \"METH_unflattned.sol\":14760:14778  from != address(0) */\n      dup4\n      and\n        /* \"METH_unflattned.sol\":14752:14820  require(from != address(0), \"ERC20: transfer from the zero address\") */\n      tag_277\n      jumpi\n      mload(0x40)\n      shl(0xe5, 0x461bcd)\n      dup2\n      mstore\n        /* \"#utility.yul\":9413:9415   */\n      0x20\n        /* \"METH_unflattned.sol\":14752:14820  require(from != address(0), \"ERC20: transfer from the zero address\") */\n      0x04\n      dup3\n      add\n        /* \"#utility.yul\":9395:9416   */\n      mstore\n        /* \"#utility.yul\":9452:9454   */\n      0x25\n        /* \"#utility.yul\":9432:9450   */\n      0x24\n      dup3\n      add\n        /* \"#utility.yul\":9425:9455   */\n      mstore\n        /* \"#utility.yul\":9491:9525   */\n      0x45524332303a207472616e736665722066726f6d20746865207a65726f206164\n        /* \"#utility.yul\":9471:9489   */\n      0x44\n      dup3\n      add\n        /* \"#utility.yul\":9464:9526   */\n      mstore\n      shl(0xd8, 0x6472657373)\n        /* \"#utility.yul\":9542:9560   */\n      0x64\n      dup3\n      add\n        /* \"#utility.yul\":9535:9570   */\n      mstore\n        /* \"#utility.yul\":9587:9606   */\n      0x84\n      add\n        /* \"METH_unflattned.sol\":14752:14820  require(from != address(0), \"ERC20: transfer from the zero address\") */\n      tag_176\n        /* \"#utility.yul\":9211:9612   */\n      jump\n        /* \"METH_unflattned.sol\":14752:14820  require(from != address(0), \"ERC20: transfer from the zero address\") */\n    tag_277:\n      sub(shl(0xa0, 0x01), 0x01)\n        /* \"METH_unflattned.sol\":14839:14855  to != address(0) */\n      dup3\n      and\n        /* \"METH_unflattned.sol\":14831:14895  require(to != address(0), \"ERC20: transfer to the zero address\") */\n      tag_280\n      jumpi\n      mload(0x40)\n      shl(0xe5, 0x461bcd)\n      dup2\n      mstore\n        /* \"#utility.yul\":9819:9821   */\n      0x20\n        /* \"METH_unflattned.sol\":14831:14895  require(to != address(0), \"ERC20: transfer to the zero address\") */\n      0x04\n      dup3\n      add\n        /* \"#utility.yul\":9801:9822   */\n      mstore\n        /* \"#utility.yul\":9858:9860   */\n      0x23\n        /* \"#utility.yul\":9838:9856   */\n      0x24\n      dup3\n      add\n        /* \"#utility.yul\":9831:9861   */\n      mstore\n        /* \"#utility.yul\":9897:9931   */\n      0x45524332303a207472616e7366657220746f20746865207a65726f2061646472\n        /* \"#utility.yul\":9877:9895   */\n      0x44\n      dup3\n      add\n        /* \"#utility.yul\":9870:9932   */\n      mstore\n      shl(0xe8, 0x657373)\n        /* \"#utility.yul\":9948:9966   */\n      0x64\n      dup3\n      add\n        /* \"#utility.yul\":9941:9974   */\n      mstore\n        /* \"#utility.yul\":9991:10010   */\n      0x84\n      add\n        /* \"METH_unflattned.sol\":14831:14895  require(to != address(0), \"ERC20: transfer to the zero address\") */\n      tag_176\n        /* \"#utility.yul\":9617:10016   */\n      jump\n        /* \"METH_unflattned.sol\":14831:14895  require(to != address(0), \"ERC20: transfer to the zero address\") */\n    tag_280:\n        /* \"METH_unflattned.sol\":14923:14924  0 */\n      0x00\n        /* \"METH_unflattned.sol\":14914:14920  amount */\n      dup2\n        /* \"METH_unflattned.sol\":14914:14924  amount > 0 */\n      gt\n        /* \"METH_unflattned.sol\":14906:14970  require(amount > 0, \"Transfer amount must be greater than zero\") */\n      tag_283\n      jumpi\n      mload(0x40)\n      shl(0xe5, 0x461bcd)\n      dup2\n      mstore\n        /* \"#utility.yul\":10223:10225   */\n      0x20\n        /* \"METH_unflattned.sol\":14906:14970  require(amount > 0, \"Transfer amount must be greater than zero\") */\n      0x04\n      dup3\n      add\n        /* \"#utility.yul\":10205:10226   */\n      mstore\n        /* \"#utility.yul\":10262:10264   */\n      0x29\n        /* \"#utility.yul\":10242:10260   */\n      0x24\n      dup3\n      add\n        /* \"#utility.yul\":10235:10265   */\n      mstore\n        /* \"#utility.yul\":10301:10335   */\n      0x5472616e7366657220616d6f756e74206d757374206265206772656174657220\n        /* \"#utility.yul\":10281:10299   */\n      0x44\n      dup3\n      add\n        /* \"#utility.yul\":10274:10336   */\n      mstore\n      shl(0xb8, 0x7468616e207a65726f)\n        /* \"#utility.yul\":10352:10370   */\n      0x64\n      dup3\n      add\n        /* \"#utility.yul\":10345:10384   */\n      mstore\n        /* \"#utility.yul\":10401:10420   */\n      0x84\n      add\n        /* \"METH_unflattned.sol\":14906:14970  require(amount > 0, \"Transfer amount must be greater than zero\") */\n      tag_176\n        /* \"#utility.yul\":10021:10426   */\n      jump\n        /* \"METH_unflattned.sol\":14906:14970  require(amount > 0, \"Transfer amount must be greater than zero\") */\n    tag_283:\n        /* \"METH_unflattned.sol\":15215:15229  isRouter(from) */\n      tag_286\n        /* \"METH_unflattned.sol\":15224:15228  from */\n      dup4\n        /* \"METH_unflattned.sol\":15215:15223  isRouter */\n      tag_287\n        /* \"METH_unflattned.sol\":15215:15229  isRouter(from) */\n      jump\t// in\n    tag_286:\n        /* \"METH_unflattned.sol\":15215:15237  isRouter(from) == true */\n      iszero\n      iszero\n        /* \"METH_unflattned.sol\":15233:15237  true */\n      0x01\n        /* \"METH_unflattned.sol\":15215:15237  isRouter(from) == true */\n      eq\n        /* \"METH_unflattned.sol\":15215:15282  isRouter(from) == true && ... */\n      dup1\n      iszero\n      tag_288\n      jumpi\n      pop\n      sub(shl(0xa0, 0x01), 0x01)\n        /* \"METH_unflattned.sol\":15256:15282  _isExcludedFromMaxTx[from] */\n      dup4\n      and\n      0x00\n      swap1\n      dup2\n      mstore\n        /* \"METH_unflattned.sol\":15256:15276  _isExcludedFromMaxTx */\n      0x6d\n        /* \"METH_unflattned.sol\":15256:15282  _isExcludedFromMaxTx[from] */\n      0x20\n      mstore\n      0x40\n      swap1\n      keccak256\n      sload\n      0xff\n      and\n        /* \"METH_unflattned.sol\":15255:15282  !_isExcludedFromMaxTx[from] */\n      iszero\n        /* \"METH_unflattned.sol\":15215:15282  isRouter(from) == true && ... */\n    tag_288:\n        /* \"METH_unflattned.sol\":15215:15317  isRouter(from) == true && ... */\n      dup1\n      iszero\n      tag_289\n      jumpi\n      pop\n      sub(shl(0xa0, 0x01), 0x01)\n        /* \"METH_unflattned.sol\":15300:15317  _isExcluded[from] */\n      dup4\n      and\n      0x00\n      swap1\n      dup2\n      mstore\n        /* \"METH_unflattned.sol\":15300:15311  _isExcluded */\n      0x6c\n        /* \"METH_unflattned.sol\":15300:15317  _isExcluded[from] */\n      0x20\n      mstore\n      0x40\n      swap1\n      keccak256\n      sload\n      0xff\n      and\n        /* \"METH_unflattned.sol\":15299:15317  !_isExcluded[from] */\n      iszero\n        /* \"METH_unflattned.sol\":15215:15317  isRouter(from) == true && ... */\n    tag_289:\n        /* \"METH_unflattned.sol\":15197:15425  if (... */\n      iszero\n      tag_293\n      jumpi\n        /* \"METH_unflattned.sol\":15352:15374  excludeFromMaxTx(from) */\n      tag_291\n        /* \"METH_unflattned.sol\":15369:15373  from */\n      dup4\n        /* \"METH_unflattned.sol\":15352:15368  excludeFromMaxTx */\n      tag_292\n        /* \"METH_unflattned.sol\":15352:15374  excludeFromMaxTx(from) */\n      jump\t// in\n    tag_291:\n        /* \"METH_unflattned.sol\":15393:15413  excludeAddress(from) */\n      tag_293\n        /* \"METH_unflattned.sol\":15408:15412  from */\n      dup4\n        /* \"METH_unflattned.sol\":15393:15407  excludeAddress */\n      tag_294\n        /* \"METH_unflattned.sol\":15393:15413  excludeAddress(from) */\n      jump\t// in\n    tag_293:\n        /* \"METH_unflattned.sol\":15455:15467  isRouter(to) */\n      tag_295\n        /* \"METH_unflattned.sol\":15464:15466  to */\n      dup3\n        /* \"METH_unflattned.sol\":15455:15463  isRouter */\n      tag_287\n        /* \"METH_unflattned.sol\":15455:15467  isRouter(to) */\n      jump\t// in\n    tag_295:\n        /* \"METH_unflattned.sol\":15455:15475  isRouter(to) == true */\n      iszero\n      iszero\n        /* \"METH_unflattned.sol\":15471:15475  true */\n      0x01\n        /* \"METH_unflattned.sol\":15455:15475  isRouter(to) == true */\n      eq\n        /* \"METH_unflattned.sol\":15455:15518  isRouter(to) == true && ... */\n      dup1\n      iszero\n      tag_296\n      jumpi\n      pop\n      sub(shl(0xa0, 0x01), 0x01)\n        /* \"METH_unflattned.sol\":15494:15518  _isExcludedFromMaxTx[to] */\n      dup3\n      and\n      0x00\n      swap1\n      dup2\n      mstore\n        /* \"METH_unflattned.sol\":15494:15514  _isExcludedFromMaxTx */\n      0x6d\n        /* \"METH_unflattned.sol\":15494:15518  _isExcludedFromMaxTx[to] */\n      0x20\n      mstore\n      0x40\n      swap1\n      keccak256\n      sload\n      0xff\n      and\n        /* \"METH_unflattned.sol\":15493:15518  !_isExcludedFromMaxTx[to] */\n      iszero\n        /* \"METH_unflattned.sol\":15455:15518  isRouter(to) == true && ... */\n    tag_296:\n        /* \"METH_unflattned.sol\":15455:15551  isRouter(to) == true && ... */\n      dup1\n      iszero\n      tag_297\n      jumpi\n      pop\n      sub(shl(0xa0, 0x01), 0x01)\n        /* \"METH_unflattned.sol\":15536:15551  _isExcluded[to] */\n      dup3\n      and\n      0x00\n      swap1\n      dup2\n      mstore\n        /* \"METH_unflattned.sol\":15536:15547  _isExcluded */\n      0x6c\n        /* \"METH_unflattned.sol\":15536:15551  _isExcluded[to] */\n      0x20\n      mstore\n      0x40\n      swap1\n      keccak256\n      sload\n      0xff\n      and\n        /* \"METH_unflattned.sol\":15535:15551  !_isExcluded[to] */\n      iszero\n        /* \"METH_unflattned.sol\":15455:15551  isRouter(to) == true && ... */\n    tag_297:\n        /* \"METH_unflattned.sol\":15437:15655  if (... */\n      iszero\n      tag_300\n      jumpi\n        /* \"METH_unflattned.sol\":15586:15606  excludeFromMaxTx(to) */\n      tag_299\n        /* \"METH_unflattned.sol\":15603:15605  to */\n      dup3\n        /* \"METH_unflattned.sol\":15586:15602  excludeFromMaxTx */\n      tag_292\n        /* \"METH_unflattned.sol\":15586:15606  excludeFromMaxTx(to) */\n      jump\t// in\n    tag_299:\n        /* \"METH_unflattned.sol\":15625:15643  excludeAddress(to) */\n      tag_300\n        /* \"METH_unflattned.sol\":15640:15642  to */\n      dup3\n        /* \"METH_unflattned.sol\":15625:15639  excludeAddress */\n      tag_294\n        /* \"METH_unflattned.sol\":15625:15643  excludeAddress(to) */\n      jump\t// in\n    tag_300:\n        /* \"https://github.com/OpenZeppelin/openzeppelin-contracts-upgradeable/blob/release-v4.9/contracts/access/OwnableUpgradeable.sol\":1534:1540  _owner */\n      sload(0x33)\n      sub(shl(0xa0, 0x01), 0x01)\n        /* \"METH_unflattned.sol\":15750:15765  from != owner() */\n      dup5\n      dup2\n      and\n        /* \"https://github.com/OpenZeppelin/openzeppelin-contracts-upgradeable/blob/release-v4.9/contracts/access/OwnableUpgradeable.sol\":1534:1540  _owner */\n      swap2\n      and\n        /* \"METH_unflattned.sol\":15750:15765  from != owner() */\n      eq\n      dup1\n      iszero\n      swap1\n        /* \"METH_unflattned.sol\":15750:15782  from != owner() && to != owner() */\n      tag_302\n      jumpi\n      pop\n        /* \"https://github.com/OpenZeppelin/openzeppelin-contracts-upgradeable/blob/release-v4.9/contracts/access/OwnableUpgradeable.sol\":1534:1540  _owner */\n      sload(0x33)\n      sub(shl(0xa0, 0x01), 0x01)\n        /* \"METH_unflattned.sol\":15769:15782  to != owner() */\n      dup4\n      dup2\n      and\n        /* \"https://github.com/OpenZeppelin/openzeppelin-contracts-upgradeable/blob/release-v4.9/contracts/access/OwnableUpgradeable.sol\":1534:1540  _owner */\n      swap2\n      and\n        /* \"METH_unflattned.sol\":15769:15782  to != owner() */\n      eq\n      iszero\n        /* \"METH_unflattned.sol\":15750:15782  from != owner() && to != owner() */\n    tag_302:\n        /* \"METH_unflattned.sol\":15746:16209  if (from != owner() && to != owner()) {... */\n      iszero\n      tag_307\n      jumpi\n      sub(shl(0xa0, 0x01), 0x01)\n        /* \"METH_unflattned.sol\":15973:15999  _isExcludedFromMaxTx[from] */\n      dup4\n      and\n      0x00\n      swap1\n      dup2\n      mstore\n        /* \"METH_unflattned.sol\":15973:15993  _isExcludedFromMaxTx */\n      0x6d\n        /* \"METH_unflattned.sol\":15973:15999  _isExcludedFromMaxTx[from] */\n      0x20\n      mstore\n      0x40\n      swap1\n      keccak256\n      sload\n      0xff\n      and\n        /* \"METH_unflattned.sol\":15972:15999  !_isExcludedFromMaxTx[from] */\n      iszero\n        /* \"METH_unflattned.sol\":15972:16028  !_isExcludedFromMaxTx[from] && !_isExcludedFromMaxTx[to] */\n      dup1\n      iszero\n      tag_305\n      jumpi\n      pop\n      sub(shl(0xa0, 0x01), 0x01)\n        /* \"METH_unflattned.sol\":16004:16028  _isExcludedFromMaxTx[to] */\n      dup3\n      and\n      0x00\n      swap1\n      dup2\n      mstore\n        /* \"METH_unflattned.sol\":16004:16024  _isExcludedFromMaxTx */\n      0x6d\n        /* \"METH_unflattned.sol\":16004:16028  _isExcludedFromMaxTx[to] */\n      0x20\n      mstore\n      0x40\n      swap1\n      keccak256\n      sload\n      0xff\n      and\n        /* \"METH_unflattned.sol\":16003:16028  !_isExcludedFromMaxTx[to] */\n      iszero\n        /* \"METH_unflattned.sol\":15972:16028  !_isExcludedFromMaxTx[from] && !_isExcludedFromMaxTx[to] */\n    tag_305:\n        /* \"METH_unflattned.sol\":15968:16198  if (!_isExcludedFromMaxTx[from] && !_isExcludedFromMaxTx[to]) {... */\n      iszero\n      tag_307\n      jumpi\n        /* \"METH_unflattned.sol\":16126:16137  maxTxAmount */\n      sload(0x71)\n        /* \"METH_unflattned.sol\":16116:16122  amount */\n      dup2\n        /* \"METH_unflattned.sol\":16116:16137  amount <= maxTxAmount */\n      gt\n      iszero\n        /* \"METH_unflattned.sol\":16108:16182  require(amount <= maxTxAmount, \"Transfer amount exceeds the maxTxAmount.\") */\n      tag_307\n      jumpi\n      mload(0x40)\n      shl(0xe5, 0x461bcd)\n      dup2\n      mstore\n      0x04\n      add\n      tag_176\n      swap1\n      tag_309\n      jump\t// in\n    tag_307:\n        /* \"https://github.com/OpenZeppelin/openzeppelin-contracts-upgradeable/blob/release-v4.9/contracts/access/OwnableUpgradeable.sol\":1534:1540  _owner */\n      sload(0x33)\n      sub(shl(0xa0, 0x01), 0x01)\n        /* \"METH_unflattned.sol\":16284:16299  from != owner() */\n      dup5\n      dup2\n      and\n        /* \"https://github.com/OpenZeppelin/openzeppelin-contracts-upgradeable/blob/release-v4.9/contracts/access/OwnableUpgradeable.sol\":1534:1540  _owner */\n      swap2\n      and\n        /* \"METH_unflattned.sol\":16284:16299  from != owner() */\n      eq\n      dup1\n      iszero\n      swap1\n        /* \"METH_unflattned.sol\":16284:16316  from != owner() && to != owner() */\n      tag_311\n      jumpi\n      pop\n        /* \"https://github.com/OpenZeppelin/openzeppelin-contracts-upgradeable/blob/release-v4.9/contracts/access/OwnableUpgradeable.sol\":1534:1540  _owner */\n      sload(0x33)\n      sub(shl(0xa0, 0x01), 0x01)\n        /* \"METH_unflattned.sol\":16303:16316  to != owner() */\n      dup4\n      dup2\n      and\n        /* \"https://github.com/OpenZeppelin/openzeppelin-contracts-upgradeable/blob/release-v4.9/contracts/access/OwnableUpgradeable.sol\":1534:1540  _owner */\n      swap2\n      and\n        /* \"METH_unflattned.sol\":16303:16316  to != owner() */\n      eq\n      iszero\n        /* \"METH_unflattned.sol\":16284:16316  from != owner() && to != owner() */\n    tag_311:\n        /* \"METH_unflattned.sol\":16280:16732  if (from != owner() && to != owner()) {... */\n      iszero\n      tag_316\n      jumpi\n      sub(shl(0xa0, 0x01), 0x01)\n        /* \"METH_unflattned.sol\":16496:16522  _isExcludedFromMaxTx[from] */\n      dup4\n      and\n      0x00\n      swap1\n      dup2\n      mstore\n        /* \"METH_unflattned.sol\":16496:16516  _isExcludedFromMaxTx */\n      0x6d\n        /* \"METH_unflattned.sol\":16496:16522  _isExcludedFromMaxTx[from] */\n      0x20\n      mstore\n      0x40\n      swap1\n      keccak256\n      sload\n      0xff\n      and\n        /* \"METH_unflattned.sol\":16495:16522  !_isExcludedFromMaxTx[from] */\n      iszero\n        /* \"METH_unflattned.sol\":16495:16551  !_isExcludedFromMaxTx[from] && !_isExcludedFromMaxTx[to] */\n      dup1\n      iszero\n      tag_314\n      jumpi\n      pop\n      sub(shl(0xa0, 0x01), 0x01)\n        /* \"METH_unflattned.sol\":16527:16551  _isExcludedFromMaxTx[to] */\n      dup3\n      and\n      0x00\n      swap1\n      dup2\n      mstore\n        /* \"METH_unflattned.sol\":16527:16547  _isExcludedFromMaxTx */\n      0x6d\n        /* \"METH_unflattned.sol\":16527:16551  _isExcludedFromMaxTx[to] */\n      0x20\n      mstore\n      0x40\n      swap1\n      keccak256\n      sload\n      0xff\n      and\n        /* \"METH_unflattned.sol\":16526:16551  !_isExcludedFromMaxTx[to] */\n      iszero\n        /* \"METH_unflattned.sol\":16495:16551  !_isExcludedFromMaxTx[from] && !_isExcludedFromMaxTx[to] */\n    tag_314:\n        /* \"METH_unflattned.sol\":16491:16721  if (!_isExcludedFromMaxTx[from] && !_isExcludedFromMaxTx[to]) {... */\n      iszero\n      tag_316\n      jumpi\n        /* \"METH_unflattned.sol\":16649:16660  maxTxAmount */\n      sload(0x71)\n        /* \"METH_unflattned.sol\":16639:16645  amount */\n      dup2\n        /* \"METH_unflattned.sol\":16639:16660  amount <= maxTxAmount */\n      gt\n      iszero\n        /* \"METH_unflattned.sol\":16631:16705  require(amount <= maxTxAmount, \"Transfer amount exceeds the maxTxAmount.\") */\n      tag_316\n      jumpi\n      mload(0x40)\n      shl(0xe5, 0x461bcd)\n      dup2\n      mstore\n      0x04\n      add\n      tag_176\n      swap1\n      tag_309\n      jump\t// in\n    tag_316:\n        /* \"METH_unflattned.sol\":16931:16963  _tokenTransfer(from, to, amount) */\n      tag_318\n        /* \"METH_unflattned.sol\":16946:16950  from */\n      dup4\n        /* \"METH_unflattned.sol\":16952:16954  to */\n      dup4\n        /* \"METH_unflattned.sol\":16956:16962  amount */\n      dup4\n        /* \"METH_unflattned.sol\":16931:16945  _tokenTransfer */\n      tag_319\n        /* \"METH_unflattned.sol\":16931:16963  _tokenTransfer(from, to, amount) */\n      jump\t// in\n    tag_318:\n      pop\n      pop\n        /* \"METH_unflattned.sol\":16976:16981  mutex */\n      0x72\n        /* \"METH_unflattned.sol\":16976:16989  mutex = false */\n      dup1\n      sload\n      not(0xff00)\n      and\n      swap1\n      sstore\n      pop\n        /* \"METH_unflattned.sol\":14492:16997  function _transfer(... */\n      jump\t// out\n        /* \"https://github.com/OpenZeppelin/openzeppelin-contracts-upgradeable/blob/release-v4.9/contracts/access/OwnableUpgradeable.sol\":1620:1750  function _checkOwner() internal view virtual {... */\n    tag_190:\n        /* \"https://github.com/OpenZeppelin/openzeppelin-contracts-upgradeable/blob/release-v4.9/contracts/access/OwnableUpgradeable.sol\":1534:1540  _owner */\n      and(sub(shl(0xa0, 0x01), 0x01), sload(0x33))\n        /* \"https://github.com/OpenZeppelin/openzeppelin-contracts-upgradeable/blob/release-v4.9/contracts/utils/ContextUpgradeable.sol\":965:975  msg.sender */\n      caller\n        /* \"https://github.com/OpenZeppelin/openzeppelin-contracts-upgradeable/blob/release-v4.9/contracts/access/OwnableUpgradeable.sol\":1683:1706  owner() == _msgSender() */\n      eq\n        /* \"https://github.com/OpenZeppelin/openzeppelin-contracts-upgradeable/blob/release-v4.9/contracts/access/OwnableUpgradeable.sol\":1675:1743  require(owner() == _msgSender(), \"Ownable: caller is not the owner\") */\n      tag_192\n      jumpi\n      mload(0x40)\n      shl(0xe5, 0x461bcd)\n      dup2\n      mstore\n        /* \"#utility.yul\":11042:11044   */\n      0x20\n        /* \"https://github.com/OpenZeppelin/openzeppelin-contracts-upgradeable/blob/release-v4.9/contracts/access/OwnableUpgradeable.sol\":1675:1743  require(owner() == _msgSender(), \"Ownable: caller is not the owner\") */\n      0x04\n      dup3\n      add\n        /* \"#utility.yul\":11024:11045   */\n      dup2\n      swap1\n      mstore\n        /* \"#utility.yul\":11061:11079   */\n      0x24\n      dup3\n      add\n        /* \"#utility.yul\":11054:11084   */\n      mstore\n        /* \"#utility.yul\":11120:11154   */\n      0x4f776e61626c653a2063616c6c6572206973206e6f7420746865206f776e6572\n        /* \"#utility.yul\":11100:11118   */\n      0x44\n      dup3\n      add\n        /* \"#utility.yul\":11093:11155   */\n      mstore\n        /* \"#utility.yul\":11172:11190   */\n      0x64\n      add\n        /* \"https://github.com/OpenZeppelin/openzeppelin-contracts-upgradeable/blob/release-v4.9/contracts/access/OwnableUpgradeable.sol\":1675:1743  require(owner() == _msgSender(), \"Ownable: caller is not the owner\") */\n      tag_176\n        /* \"#utility.yul\":10840:11196   */\n      jump\n        /* \"https://github.com/OpenZeppelin/openzeppelin-contracts-upgradeable/blob/release-v4.9/contracts/access/OwnableUpgradeable.sol\":2687:2874  function _transferOwnership(address newOwner) internal virtual {... */\n    tag_193:\n        /* \"https://github.com/OpenZeppelin/openzeppelin-contracts-upgradeable/blob/release-v4.9/contracts/access/OwnableUpgradeable.sol\":2779:2785  _owner */\n      0x33\n      dup1\n      sload\n      sub(shl(0xa0, 0x01), 0x01)\n        /* \"https://github.com/OpenZeppelin/openzeppelin-contracts-upgradeable/blob/release-v4.9/contracts/access/OwnableUpgradeable.sol\":2795:2812  _owner = newOwner */\n      dup4\n      dup2\n      and\n      not(sub(shl(0xa0, 0x01), 0x01))\n      dup4\n      and\n      dup2\n      or\n      swap1\n      swap4\n      sstore\n        /* \"https://github.com/OpenZeppelin/openzeppelin-contracts-upgradeable/blob/release-v4.9/contracts/access/OwnableUpgradeable.sol\":2827:2867  OwnershipTransferred(oldOwner, newOwner) */\n      mload(0x40)\n        /* \"https://github.com/OpenZeppelin/openzeppelin-contracts-upgradeable/blob/release-v4.9/contracts/access/OwnableUpgradeable.sol\":2779:2785  _owner */\n      swap2\n      and\n      swap2\n        /* \"https://github.com/OpenZeppelin/openzeppelin-contracts-upgradeable/blob/release-v4.9/contracts/access/OwnableUpgradeable.sol\":2795:2812  _owner = newOwner */\n      swap1\n        /* \"https://github.com/OpenZeppelin/openzeppelin-contracts-upgradeable/blob/release-v4.9/contracts/access/OwnableUpgradeable.sol\":2779:2785  _owner */\n      dup3\n      swap1\n        /* \"https://github.com/OpenZeppelin/openzeppelin-contracts-upgradeable/blob/release-v4.9/contracts/access/OwnableUpgradeable.sol\":2827:2867  OwnershipTransferred(oldOwner, newOwner) */\n      0x8be0079c531659141344cd1fd0a4f28419497f9722a3daafe3b4186f6b6457e0\n      swap1\n        /* \"https://github.com/OpenZeppelin/openzeppelin-contracts-upgradeable/blob/release-v4.9/contracts/access/OwnableUpgradeable.sol\":2760:2776  address oldOwner */\n      0x00\n      swap1\n        /* \"https://github.com/OpenZeppelin/openzeppelin-contracts-upgradeable/blob/release-v4.9/contracts/access/OwnableUpgradeable.sol\":2827:2867  OwnershipTransferred(oldOwner, newOwner) */\n      log3\n        /* \"https://github.com/OpenZeppelin/openzeppelin-contracts-upgradeable/blob/release-v4.9/contracts/access/OwnableUpgradeable.sol\":2750:2874  {... */\n      pop\n        /* \"https://github.com/OpenZeppelin/openzeppelin-contracts-upgradeable/blob/release-v4.9/contracts/access/OwnableUpgradeable.sol\":2687:2874  function _transferOwnership(address newOwner) internal virtual {... */\n      pop\n      jump\t// out\n        /* \"https://github.com/OpenZeppelin/openzeppelin-contracts-upgradeable/blob/release-v4.9/contracts/access/OwnableUpgradeable.sol\":1024:1119  function __Ownable_init() internal onlyInitializing {... */\n    tag_207:\n        /* \"https://github.com/OpenZeppelin/openzeppelin-contracts-upgradeable/blob/release-v4.9/contracts/proxy/utils/Initializable.sol\":5374:5387  _initializing */\n      sload(0x00)\n      0x0100\n      swap1\n      div\n      0xff\n      and\n        /* \"https://github.com/OpenZeppelin/openzeppelin-contracts-upgradeable/blob/release-v4.9/contracts/proxy/utils/Initializable.sol\":5366:5435  require(_initializing, \"Initializable: contract is not initializing\") */\n      tag_329\n      jumpi\n      mload(0x40)\n      shl(0xe5, 0x461bcd)\n      dup2\n      mstore\n      0x04\n      add\n      tag_176\n      swap1\n      tag_331\n      jump\t// in\n    tag_329:\n        /* \"https://github.com/OpenZeppelin/openzeppelin-contracts-upgradeable/blob/release-v4.9/contracts/access/OwnableUpgradeable.sol\":1086:1112  __Ownable_init_unchained() */\n      tag_192\n        /* \"https://github.com/OpenZeppelin/openzeppelin-contracts-upgradeable/blob/release-v4.9/contracts/access/OwnableUpgradeable.sol\":1086:1110  __Ownable_init_unchained */\n      tag_334\n        /* \"https://github.com/OpenZeppelin/openzeppelin-contracts-upgradeable/blob/release-v4.9/contracts/access/OwnableUpgradeable.sol\":1086:1112  __Ownable_init_unchained() */\n      jump\t// in\n        /* \"METH_unflattned.sol\":10557:10774  function isRouter(address _address) internal view returns (bool) {... */\n    tag_287:\n        /* \"METH_unflattned.sol\":10689:10721  abi.encodeWithSelector(SELECTOR) */\n      0x40\n      dup1\n      mload\n      0x04\n      dup2\n      mstore\n      0x24\n      dup2\n      add\n      dup3\n      mstore\n      0x20\n      dup2\n      add\n      dup1\n      mload\n      sub(shl(0xe0, 0x01), 0x01)\n      and\n      shl(0xe0, 0xc45a0155)\n      or\n      swap1\n      mstore\n        /* \"METH_unflattned.sol\":10669:10722  _address.staticcall(abi.encodeWithSelector(SELECTOR)) */\n      swap1\n      mload\n        /* \"METH_unflattned.sol\":10616:10620  bool */\n      0x00\n      swap2\n      dup3\n      swap2\n      dup3\n      swap2\n      sub(shl(0xa0, 0x01), 0x01)\n        /* \"METH_unflattned.sol\":10669:10688  _address.staticcall */\n      dup7\n      and\n      swap2\n        /* \"METH_unflattned.sol\":10669:10722  _address.staticcall(abi.encodeWithSelector(SELECTOR)) */\n      tag_336\n      swap2\n        /* \"METH_unflattned.sol\":10689:10721  abi.encodeWithSelector(SELECTOR) */\n      swap1\n        /* \"METH_unflattned.sol\":10669:10722  _address.staticcall(abi.encodeWithSelector(SELECTOR)) */\n      tag_337\n      jump\t// in\n    tag_336:\n      0x00\n      mload(0x40)\n      dup1\n      dup4\n      sub\n      dup2\n      dup6\n      gas\n      staticcall\n      swap2\n      pop\n      pop\n      returndatasize\n      dup1\n      0x00\n      dup2\n      eq\n      tag_340\n      jumpi\n      mload(0x40)\n      swap2\n      pop\n      and(add(returndatasize, 0x3f), not(0x1f))\n      dup3\n      add\n      0x40\n      mstore\n      returndatasize\n      dup3\n      mstore\n      returndatasize\n      0x00\n      0x20\n      dup5\n      add\n      returndatacopy\n      jump(tag_339)\n    tag_340:\n      0x60\n      swap2\n      pop\n    tag_339:\n      pop\n        /* \"METH_unflattned.sol\":10633:10722  (bool success, bytes memory data) = _address.staticcall(abi.encodeWithSelector(SELECTOR)) */\n      swap2\n      pop\n      swap2\n      pop\n        /* \"METH_unflattned.sol\":10740:10747  success */\n      dup2\n        /* \"METH_unflattned.sol\":10740:10766  success && data.length > 0 */\n      dup1\n      iszero\n      tag_181\n      jumpi\n      pop\n        /* \"METH_unflattned.sol\":10751:10762  data.length */\n      mload\n        /* \"METH_unflattned.sol\":10751:10766  data.length > 0 */\n      iszero\n      iszero\n      swap4\n        /* \"METH_unflattned.sol\":10733:10766  return success && data.length > 0 */\n      swap3\n      pop\n      pop\n      pop\n        /* \"METH_unflattned.sol\":10557:10774  function isRouter(address _address) internal view returns (bool) {... */\n      jump\t// out\n        /* \"METH_unflattned.sol\":10958:11145  function excludeFromMaxTx(address account) private {... */\n    tag_292:\n      sub(shl(0xa0, 0x01), 0x01)\n        /* \"METH_unflattned.sol\":11029:11058  _isExcludedFromMaxTx[account] */\n      dup2\n      and\n      0x00\n      swap1\n      dup2\n      mstore\n        /* \"METH_unflattned.sol\":11029:11049  _isExcludedFromMaxTx */\n      0x6d\n        /* \"METH_unflattned.sol\":11029:11058  _isExcludedFromMaxTx[account] */\n      0x20\n      mstore\n      0x40\n      swap1\n      keccak256\n      sload\n      0xff\n      and\n        /* \"METH_unflattned.sol\":11028:11058  !_isExcludedFromMaxTx[account] */\n      iszero\n        /* \"METH_unflattned.sol\":11020:11090  require(!_isExcludedFromMaxTx[account], \"Account is already excluded\") */\n      tag_343\n      jumpi\n      mload(0x40)\n      shl(0xe5, 0x461bcd)\n      dup2\n      mstore\n        /* \"#utility.yul\":12107:12109   */\n      0x20\n        /* \"METH_unflattned.sol\":11020:11090  require(!_isExcludedFromMaxTx[account], \"Account is already excluded\") */\n      0x04\n      dup3\n      add\n        /* \"#utility.yul\":12089:12110   */\n      mstore\n        /* \"#utility.yul\":12146:12148   */\n      0x1b\n        /* \"#utility.yul\":12126:12144   */\n      0x24\n      dup3\n      add\n        /* \"#utility.yul\":12119:12149   */\n      mstore\n        /* \"#utility.yul\":12185:12214   */\n      0x4163636f756e7420697320616c7265616479206578636c756465640000000000\n        /* \"#utility.yul\":12165:12183   */\n      0x44\n      dup3\n      add\n        /* \"#utility.yul\":12158:12215   */\n      mstore\n        /* \"#utility.yul\":12232:12250   */\n      0x64\n      add\n        /* \"METH_unflattned.sol\":11020:11090  require(!_isExcludedFromMaxTx[account], \"Account is already excluded\") */\n      tag_176\n        /* \"#utility.yul\":11905:12256   */\n      jump\n        /* \"METH_unflattned.sol\":11020:11090  require(!_isExcludedFromMaxTx[account], \"Account is already excluded\") */\n    tag_343:\n      sub(shl(0xa0, 0x01), 0x01)\n        /* \"METH_unflattned.sol\":11101:11130  _isExcludedFromMaxTx[account] */\n      and\n      0x00\n      swap1\n      dup2\n      mstore\n        /* \"METH_unflattned.sol\":11101:11121  _isExcludedFromMaxTx */\n      0x6d\n        /* \"METH_unflattned.sol\":11101:11130  _isExcludedFromMaxTx[account] */\n      0x20\n      mstore\n      0x40\n      swap1\n      keccak256\n        /* \"METH_unflattned.sol\":11101:11137  _isExcludedFromMaxTx[account] = true */\n      dup1\n      sload\n      not(0xff)\n      and\n        /* \"METH_unflattned.sol\":11133:11137  true */\n      0x01\n        /* \"METH_unflattned.sol\":11101:11137  _isExcludedFromMaxTx[account] = true */\n      or\n      swap1\n      sstore\n        /* \"METH_unflattned.sol\":10958:11145  function excludeFromMaxTx(address account) private {... */\n      jump\t// out\n        /* \"METH_unflattned.sol\":11398:11982  function excludeAddress(address account) private {... */\n    tag_294:\n      sub(shl(0xa0, 0x01), 0x01)\n        /* \"METH_unflattned.sol\":11467:11487  _isExcluded[account] */\n      dup2\n      and\n      0x00\n      swap1\n      dup2\n      mstore\n        /* \"METH_unflattned.sol\":11467:11478  _isExcluded */\n      0x6c\n        /* \"METH_unflattned.sol\":11467:11487  _isExcluded[account] */\n      0x20\n      mstore\n      0x40\n      swap1\n      keccak256\n      sload\n      0xff\n      and\n        /* \"METH_unflattned.sol\":11466:11487  !_isExcluded[account] */\n      iszero\n        /* \"METH_unflattned.sol\":11458:11519  require(!_isExcluded[account], \"Account is already excluded\") */\n      tag_347\n      jumpi\n      mload(0x40)\n      shl(0xe5, 0x461bcd)\n      dup2\n      mstore\n        /* \"#utility.yul\":12107:12109   */\n      0x20\n        /* \"METH_unflattned.sol\":11458:11519  require(!_isExcluded[account], \"Account is already excluded\") */\n      0x04\n      dup3\n      add\n        /* \"#utility.yul\":12089:12110   */\n      mstore\n        /* \"#utility.yul\":12146:12148   */\n      0x1b\n        /* \"#utility.yul\":12126:12144   */\n      0x24\n      dup3\n      add\n        /* \"#utility.yul\":12119:12149   */\n      mstore\n        /* \"#utility.yul\":12185:12214   */\n      0x4163636f756e7420697320616c7265616479206578636c756465640000000000\n        /* \"#utility.yul\":12165:12183   */\n      0x44\n      dup3\n      add\n        /* \"#utility.yul\":12158:12215   */\n      mstore\n        /* \"#utility.yul\":12232:12250   */\n      0x64\n      add\n        /* \"METH_unflattned.sol\":11458:11519  require(!_isExcluded[account], \"Account is already excluded\") */\n      tag_176\n        /* \"#utility.yul\":11905:12256   */\n      jump\n        /* \"METH_unflattned.sol\":11458:11519  require(!_isExcluded[account], \"Account is already excluded\") */\n    tag_347:\n      sub(shl(0xa0, 0x01), 0x01)\n        /* \"METH_unflattned.sol\":11584:11600  _rOwned[account] */\n      dup2\n      and\n        /* \"METH_unflattned.sol\":11603:11604  0 */\n      0x00\n        /* \"METH_unflattned.sol\":11584:11600  _rOwned[account] */\n      swap1\n      dup2\n      mstore\n        /* \"METH_unflattned.sol\":11584:11591  _rOwned */\n      0x6a\n        /* \"METH_unflattned.sol\":11584:11600  _rOwned[account] */\n      0x20\n      mstore\n      0x40\n      swap1\n      keccak256\n      sload\n        /* \"METH_unflattned.sol\":11584:11604  _rOwned[account] > 0 */\n      iszero\n        /* \"METH_unflattned.sol\":11580:11794  if (_rOwned[account] > 0) {... */\n      tag_349\n      jumpi\n        /* \"METH_unflattned.sol\":11763:11782  rBalanceOf(account) */\n      tag_350\n        /* \"METH_unflattned.sol\":11774:11781  account */\n      dup2\n        /* \"METH_unflattned.sol\":11763:11773  rBalanceOf */\n      tag_80\n        /* \"METH_unflattned.sol\":11763:11782  rBalanceOf(account) */\n      jump\t// in\n    tag_350:\n      sub(shl(0xa0, 0x01), 0x01)\n        /* \"METH_unflattned.sol\":11744:11760  _tOwned[account] */\n      dup3\n      and\n      0x00\n      swap1\n      dup2\n      mstore\n        /* \"METH_unflattned.sol\":11744:11751  _tOwned */\n      0x69\n        /* \"METH_unflattned.sol\":11744:11760  _tOwned[account] */\n      0x20\n      mstore\n      0x40\n      swap1\n      keccak256\n        /* \"METH_unflattned.sol\":11744:11782  _tOwned[account] = rBalanceOf(account) */\n      sstore\n        /* \"METH_unflattned.sol\":11580:11794  if (_rOwned[account] > 0) {... */\n    tag_349:\n      sub(shl(0xa0, 0x01), 0x01)\n        /* \"METH_unflattned.sol\":11848:11868  _isExcluded[account] */\n      and\n      0x00\n      dup2\n      dup2\n      mstore\n        /* \"METH_unflattned.sol\":11848:11859  _isExcluded */\n      0x6c\n        /* \"METH_unflattned.sol\":11848:11868  _isExcluded[account] */\n      0x20\n      mstore\n      0x40\n      dup2\n      keccak256\n        /* \"METH_unflattned.sol\":11848:11875  _isExcluded[account] = true */\n      dup1\n      sload\n      not(0xff)\n      and\n        /* \"METH_unflattned.sol\":11871:11875  true */\n      0x01\n        /* \"METH_unflattned.sol\":11848:11875  _isExcluded[account] = true */\n      swap1\n      dup2\n      or\n      swap1\n      swap2\n      sstore\n        /* \"METH_unflattned.sol\":11951:11960  _excluded */\n      0x68\n        /* \"METH_unflattned.sol\":11951:11974  _excluded.push(account) */\n      dup1\n      sload\n      swap2\n      dup3\n      add\n      dup2\n      sstore\n      swap1\n      swap2\n      mstore\n      0xa2153420d844928b4421650203c77babc8b33d7f2e7b450e2966db0c22097753\n      add\n      dup1\n      sload\n      not(sub(shl(0xa0, 0x01), 0x01))\n      and\n      swap1\n      swap2\n      or\n      swap1\n      sstore\n        /* \"METH_unflattned.sol\":11398:11982  function excludeAddress(address account) private {... */\n      jump\t// out\n        /* \"METH_unflattned.sol\":17077:18032  function _tokenTransfer(address sender, address recipient, uint256 amount) private {... */\n    tag_319:\n      sub(shl(0xa0, 0x01), 0x01)\n        /* \"METH_unflattned.sol\":17228:17247  _isExcluded[sender] */\n      dup4\n      and\n      0x00\n      swap1\n      dup2\n      mstore\n        /* \"METH_unflattned.sol\":17228:17239  _isExcluded */\n      0x6c\n        /* \"METH_unflattned.sol\":17228:17247  _isExcluded[sender] */\n      0x20\n      mstore\n      0x40\n      swap1\n      keccak256\n      sload\n      0xff\n      and\n        /* \"METH_unflattned.sol\":17228:17274  _isExcluded[sender] && !_isExcluded[recipient] */\n      dup1\n      iszero\n      tag_353\n      jumpi\n      pop\n      sub(shl(0xa0, 0x01), 0x01)\n        /* \"METH_unflattned.sol\":17252:17274  _isExcluded[recipient] */\n      dup3\n      and\n      0x00\n      swap1\n      dup2\n      mstore\n        /* \"METH_unflattned.sol\":17252:17263  _isExcluded */\n      0x6c\n        /* \"METH_unflattned.sol\":17252:17274  _isExcluded[recipient] */\n      0x20\n      mstore\n      0x40\n      swap1\n      keccak256\n      sload\n      0xff\n      and\n        /* \"METH_unflattned.sol\":17251:17274  !_isExcluded[recipient] */\n      iszero\n        /* \"METH_unflattned.sol\":17228:17274  _isExcluded[sender] && !_isExcluded[recipient] */\n    tag_353:\n        /* \"METH_unflattned.sol\":17224:18025  if (_isExcluded[sender] && !_isExcluded[recipient]) {... */\n      iszero\n      tag_354\n      jumpi\n        /* \"METH_unflattned.sol\":17292:17340  _transferFromExcluded(sender, recipient, amount) */\n      tag_355\n        /* \"METH_unflattned.sol\":17314:17320  sender */\n      dup4\n        /* \"METH_unflattned.sol\":17322:17331  recipient */\n      dup4\n        /* \"METH_unflattned.sol\":17333:17339  amount */\n      dup4\n        /* \"METH_unflattned.sol\":17292:17313  _transferFromExcluded */\n      tag_356\n        /* \"METH_unflattned.sol\":17292:17340  _transferFromExcluded(sender, recipient, amount) */\n      jump\t// in\n    tag_355:\n        /* \"METH_unflattned.sol\":17077:18032  function _tokenTransfer(address sender, address recipient, uint256 amount) private {... */\n      pop\n      pop\n      pop\n      jump\t// out\n        /* \"METH_unflattned.sol\":17224:18025  if (_isExcluded[sender] && !_isExcluded[recipient]) {... */\n    tag_354:\n      sub(shl(0xa0, 0x01), 0x01)\n        /* \"METH_unflattned.sol\":17498:17517  _isExcluded[sender] */\n      dup4\n      and\n      0x00\n      swap1\n      dup2\n      mstore\n        /* \"METH_unflattned.sol\":17498:17509  _isExcluded */\n      0x6c\n        /* \"METH_unflattned.sol\":17498:17517  _isExcluded[sender] */\n      0x20\n      mstore\n      0x40\n      swap1\n      keccak256\n      sload\n      0xff\n      and\n        /* \"METH_unflattned.sol\":17497:17517  !_isExcluded[sender] */\n      iszero\n        /* \"METH_unflattned.sol\":17497:17543  !_isExcluded[sender] && _isExcluded[recipient] */\n      dup1\n      iszero\n      tag_358\n      jumpi\n      pop\n      sub(shl(0xa0, 0x01), 0x01)\n        /* \"METH_unflattned.sol\":17521:17543  _isExcluded[recipient] */\n      dup3\n      and\n      0x00\n      swap1\n      dup2\n      mstore\n        /* \"METH_unflattned.sol\":17521:17532  _isExcluded */\n      0x6c\n        /* \"METH_unflattned.sol\":17521:17543  _isExcluded[recipient] */\n      0x20\n      mstore\n      0x40\n      swap1\n      keccak256\n      sload\n      0xff\n      and\n        /* \"METH_unflattned.sol\":17497:17543  !_isExcluded[sender] && _isExcluded[recipient] */\n    tag_358:\n        /* \"METH_unflattned.sol\":17493:18025  if (!_isExcluded[sender] && _isExcluded[recipient]) {... */\n      iszero\n      tag_359\n      jumpi\n        /* \"METH_unflattned.sol\":17560:17606  _transferToExcluded(sender, recipient, amount) */\n      tag_355\n        /* \"METH_unflattned.sol\":17580:17586  sender */\n      dup4\n        /* \"METH_unflattned.sol\":17588:17597  recipient */\n      dup4\n        /* \"METH_unflattned.sol\":17599:17605  amount */\n      dup4\n        /* \"METH_unflattned.sol\":17560:17579  _transferToExcluded */\n      tag_361\n        /* \"METH_unflattned.sol\":17560:17606  _transferToExcluded(sender, recipient, amount) */\n      jump\t// in\n        /* \"METH_unflattned.sol\":17493:18025  if (!_isExcluded[sender] && _isExcluded[recipient]) {... */\n    tag_359:\n      sub(shl(0xa0, 0x01), 0x01)\n        /* \"METH_unflattned.sol\":17770:17789  _isExcluded[sender] */\n      dup4\n      and\n      0x00\n      swap1\n      dup2\n      mstore\n        /* \"METH_unflattned.sol\":17770:17781  _isExcluded */\n      0x6c\n        /* \"METH_unflattned.sol\":17770:17789  _isExcluded[sender] */\n      0x20\n      mstore\n      0x40\n      swap1\n      keccak256\n      sload\n      0xff\n      and\n        /* \"METH_unflattned.sol\":17770:17815  _isExcluded[sender] && _isExcluded[recipient] */\n      dup1\n      iszero\n      tag_363\n      jumpi\n      pop\n      sub(shl(0xa0, 0x01), 0x01)\n        /* \"METH_unflattned.sol\":17793:17815  _isExcluded[recipient] */\n      dup3\n      and\n      0x00\n      swap1\n      dup2\n      mstore\n        /* \"METH_unflattned.sol\":17793:17804  _isExcluded */\n      0x6c\n        /* \"METH_unflattned.sol\":17793:17815  _isExcluded[recipient] */\n      0x20\n      mstore\n      0x40\n      swap1\n      keccak256\n      sload\n      0xff\n      and\n        /* \"METH_unflattned.sol\":17770:17815  _isExcluded[sender] && _isExcluded[recipient] */\n    tag_363:\n        /* \"METH_unflattned.sol\":17766:18025  if (_isExcluded[sender] && _isExcluded[recipient]) {... */\n      iszero\n      tag_364\n      jumpi\n        /* \"METH_unflattned.sol\":17833:17881  _transferBothExcluded(sender, recipient, amount) */\n      tag_355\n        /* \"METH_unflattned.sol\":17855:17861  sender */\n      dup4\n        /* \"METH_unflattned.sol\":17863:17872  recipient */\n      dup4\n        /* \"METH_unflattned.sol\":17874:17880  amount */\n      dup4\n        /* \"METH_unflattned.sol\":17833:17854  _transferBothExcluded */\n      tag_366\n        /* \"METH_unflattned.sol\":17833:17881  _transferBothExcluded(sender, recipient, amount) */\n      jump\t// in\n        /* \"METH_unflattned.sol\":17766:18025  if (_isExcluded[sender] && _isExcluded[recipient]) {... */\n    tag_364:\n        /* \"METH_unflattned.sol\":17969:18013  _transferStandard(sender, recipient, amount) */\n      tag_355\n        /* \"METH_unflattned.sol\":17987:17993  sender */\n      dup4\n        /* \"METH_unflattned.sol\":17995:18004  recipient */\n      dup4\n        /* \"METH_unflattned.sol\":18006:18012  amount */\n      dup4\n        /* \"METH_unflattned.sol\":17969:17986  _transferStandard */\n      tag_369\n        /* \"METH_unflattned.sol\":17969:18013  _transferStandard(sender, recipient, amount) */\n      jump\t// in\n        /* \"https://github.com/OpenZeppelin/openzeppelin-contracts-upgradeable/blob/release-v4.9/contracts/access/OwnableUpgradeable.sol\":1125:1236  function __Ownable_init_unchained() internal onlyInitializing {... */\n    tag_334:\n        /* \"https://github.com/OpenZeppelin/openzeppelin-contracts-upgradeable/blob/release-v4.9/contracts/proxy/utils/Initializable.sol\":5374:5387  _initializing */\n      sload(0x00)\n      0x0100\n      swap1\n      div\n      0xff\n      and\n        /* \"https://github.com/OpenZeppelin/openzeppelin-contracts-upgradeable/blob/release-v4.9/contracts/proxy/utils/Initializable.sol\":5366:5435  require(_initializing, \"Initializable: contract is not initializing\") */\n      tag_371\n      jumpi\n      mload(0x40)\n      shl(0xe5, 0x461bcd)\n      dup2\n      mstore\n      0x04\n      add\n      tag_176\n      swap1\n      tag_331\n      jump\t// in\n    tag_371:\n        /* \"https://github.com/OpenZeppelin/openzeppelin-contracts-upgradeable/blob/release-v4.9/contracts/access/OwnableUpgradeable.sol\":1197:1229  _transferOwnership(_msgSender()) */\n      tag_192\n        /* \"https://github.com/OpenZeppelin/openzeppelin-contracts-upgradeable/blob/release-v4.9/contracts/utils/ContextUpgradeable.sol\":965:975  msg.sender */\n      caller\n        /* \"https://github.com/OpenZeppelin/openzeppelin-contracts-upgradeable/blob/release-v4.9/contracts/access/OwnableUpgradeable.sol\":1197:1215  _transferOwnership */\n      tag_193\n        /* \"https://github.com/OpenZeppelin/openzeppelin-contracts-upgradeable/blob/release-v4.9/contracts/access/OwnableUpgradeable.sol\":1197:1229  _transferOwnership(_msgSender()) */\n      jump\t// in\n        /* \"METH_unflattned.sol\":20674:22471  function _transferFromExcluded(address sender, address recipient, uint256 tAmount) private {... */\n    tag_356:\n        /* \"METH_unflattned.sol\":20776:20800  TransferData memory data */\n      tag_377\n      tag_378\n      jump\t// in\n    tag_377:\n        /* \"METH_unflattned.sol\":20878:20887  antiWhale */\n      and(0xff, sload(0x72))\n        /* \"METH_unflattned.sol\":20878:20895  antiWhale == true */\n      iszero\n      iszero\n        /* \"METH_unflattned.sol\":20878:20887  antiWhale */\n      0x01\n        /* \"METH_unflattned.sol\":20878:20895  antiWhale == true */\n      sub\n        /* \"METH_unflattned.sol\":20875:21032  if(antiWhale == true) {... */\n      tag_381\n      jumpi\n        /* \"METH_unflattned.sol\":20942:20946  1000 */\n      0x03e8\n        /* \"METH_unflattned.sol\":20932:20939  _tTotal */\n      sload(0x6f)\n        /* \"METH_unflattned.sol\":20932:20946  _tTotal / 1000 */\n      tag_380\n      swap2\n      swap1\n      tag_182\n      jump\t// in\n    tag_380:\n        /* \"METH_unflattned.sol\":20920:20927  tAmount */\n      dup3\n        /* \"METH_unflattned.sol\":20920:20947  tAmount <= (_tTotal / 1000) */\n      gt\n      iszero\n        /* \"METH_unflattned.sol\":20912:21020  require(tAmount <= (_tTotal / 1000), \"Cannot purchase more than 10m (0.1%) of supply in single transaction\") */\n      tag_381\n      jumpi\n      mload(0x40)\n      shl(0xe5, 0x461bcd)\n      dup2\n      mstore\n        /* \"#utility.yul\":12463:12465   */\n      0x20\n        /* \"METH_unflattned.sol\":20912:21020  require(tAmount <= (_tTotal / 1000), \"Cannot purchase more than 10m (0.1%) of supply in single transaction\") */\n      0x04\n      dup3\n      add\n        /* \"#utility.yul\":12445:12466   */\n      mstore\n        /* \"#utility.yul\":12502:12504   */\n      0x44\n        /* \"#utility.yul\":12482:12500   */\n      0x24\n      dup3\n      add\n        /* \"#utility.yul\":12475:12505   */\n      dup2\n      swap1\n      mstore\n        /* \"#utility.yul\":12541:12575   */\n      0x43616e6e6f74207075726368617365206d6f7265207468616e2031306d202830\n        /* \"#utility.yul\":12521:12539   */\n      swap1\n      dup3\n      add\n        /* \"#utility.yul\":12514:12576   */\n      mstore\n        /* \"#utility.yul\":12612:12646   */\n      0x2e312529206f6620737570706c7920696e2073696e676c65207472616e736163\n        /* \"#utility.yul\":12592:12610   */\n      0x64\n      dup3\n      add\n        /* \"#utility.yul\":12585:12647   */\n      mstore\n      shl(0xe1, 0x3a34b7b7)\n        /* \"#utility.yul\":12663:12682   */\n      0x84\n      dup3\n      add\n        /* \"#utility.yul\":12656:12691   */\n      mstore\n        /* \"#utility.yul\":12708:12727   */\n      0xa4\n      add\n        /* \"METH_unflattned.sol\":20912:21020  require(tAmount <= (_tTotal / 1000), \"Cannot purchase more than 10m (0.1%) of supply in single transaction\") */\n      tag_176\n        /* \"#utility.yul\":12261:12733   */\n      jump\n        /* \"METH_unflattned.sol\":20912:21020  require(tAmount <= (_tTotal / 1000), \"Cannot purchase more than 10m (0.1%) of supply in single transaction\") */\n    tag_381:\n        /* \"METH_unflattned.sol\":21090:21116  data.tAmountSent = tAmount */\n      dup2\n      dup2\n      mstore\n        /* \"METH_unflattned.sol\":21156:21166  _getRate() */\n      tag_384\n        /* \"METH_unflattned.sol\":21156:21164  _getRate */\n      tag_110\n        /* \"METH_unflattned.sol\":21156:21166  _getRate() */\n      jump\t// in\n    tag_384:\n        /* \"METH_unflattned.sol\":21146:21166  tAmount * _getRate() */\n      tag_385\n      swap1\n        /* \"METH_unflattned.sol\":21146:21153  tAmount */\n      dup4\n        /* \"METH_unflattned.sol\":21146:21166  tAmount * _getRate() */\n      tag_386\n      jump\t// in\n    tag_385:\n        /* \"METH_unflattned.sol\":21127:21143  data.rAmountSent */\n      0x20\n      dup3\n      add\n        /* \"METH_unflattned.sol\":21127:21166  data.rAmountSent = tAmount * _getRate() */\n      mstore\n        /* \"METH_unflattned.sol\":21256:21257  0 */\n      0x00\n        /* \"METH_unflattned.sol\":21234:21253  data.totalBuyTaxBps */\n      0x40\n      dup3\n      add\n        /* \"METH_unflattned.sol\":21234:21257  data.totalBuyTaxBps = 0 */\n      dup2\n      swap1\n      mstore\n        /* \"METH_unflattned.sol\":21379:21384  10000 */\n      0x2710\n      swap1\n        /* \"METH_unflattned.sol\":21346:21375  tAmount * data.totalBuyTaxBps */\n      tag_387\n      swap1\n        /* \"METH_unflattned.sol\":21346:21353  tAmount */\n      dup5\n        /* \"METH_unflattned.sol\":21346:21375  tAmount * data.totalBuyTaxBps */\n      tag_386\n      jump\t// in\n    tag_387:\n        /* \"METH_unflattned.sol\":21345:21384  (tAmount * data.totalBuyTaxBps) / 10000 */\n      tag_388\n      swap2\n      swap1\n      tag_182\n      jump\t// in\n    tag_388:\n        /* \"METH_unflattned.sol\":21325:21342  data.tBuyFeeTotal */\n      0x80\n      dup3\n      add\n        /* \"METH_unflattned.sol\":21325:21384  data.tBuyFeeTotal = (tAmount * data.totalBuyTaxBps) / 10000 */\n      mstore\n        /* \"METH_unflattned.sol\":21435:21445  _getRate() */\n      tag_389\n        /* \"METH_unflattned.sol\":21435:21443  _getRate */\n      tag_110\n        /* \"METH_unflattned.sol\":21435:21445  _getRate() */\n      jump\t// in\n    tag_389:\n        /* \"METH_unflattned.sol\":21415:21419  data */\n      dup2\n        /* \"METH_unflattned.sol\":21415:21432  data.tBuyFeeTotal */\n      0x80\n      add\n      mload\n        /* \"METH_unflattned.sol\":21415:21445  data.tBuyFeeTotal * _getRate() */\n      tag_390\n      swap2\n      swap1\n      tag_386\n      jump\t// in\n    tag_390:\n        /* \"METH_unflattned.sol\":21395:21412  data.rBuyFeeTotal */\n      0xa0\n      dup3\n      add\n        /* \"METH_unflattned.sol\":21395:21445  data.rBuyFeeTotal = data.tBuyFeeTotal * _getRate() */\n      dup2\n      swap1\n      mstore\n        /* \"METH_unflattned.sol\":21545:21566  data.rBuyFeeTotal > 0 */\n      iszero\n        /* \"METH_unflattned.sol\":21527:21635  if (... */\n      tag_391\n      jumpi\n        /* \"METH_unflattned.sol\":21606:21623  data.rBuyFeeTotal */\n      0xa0\n      dup2\n      add\n      mload\n        /* \"METH_unflattned.sol\":21583:21603  data.reflectedAmount */\n      0x0100\n      dup3\n      add\n        /* \"METH_unflattned.sol\":21583:21623  data.reflectedAmount = data.rBuyFeeTotal */\n      mstore\n        /* \"METH_unflattned.sol\":21527:21635  if (... */\n    tag_391:\n        /* \"METH_unflattned.sol\":21800:21816  data.tAmountSent */\n      dup1\n      mload\n      sub(shl(0xa0, 0x01), 0x01)\n        /* \"METH_unflattned.sol\":21781:21796  _tOwned[sender] */\n      dup6\n      and\n        /* \"METH_unflattned.sol\":21800:21816  data.tAmountSent */\n      0x00\n        /* \"METH_unflattned.sol\":21781:21796  _tOwned[sender] */\n      swap1\n      dup2\n      mstore\n        /* \"METH_unflattned.sol\":21781:21788  _tOwned */\n      0x69\n        /* \"METH_unflattned.sol\":21781:21796  _tOwned[sender] */\n      0x20\n      mstore\n      0x40\n      dup2\n      keccak256\n        /* \"METH_unflattned.sol\":21781:21816  _tOwned[sender] -= data.tAmountSent */\n      dup1\n      sload\n        /* \"METH_unflattned.sol\":21781:21796  _tOwned[sender] */\n      swap1\n      swap2\n        /* \"METH_unflattned.sol\":21800:21816  data.tAmountSent */\n      swap1\n        /* \"METH_unflattned.sol\":21781:21816  _tOwned[sender] -= data.tAmountSent */\n      tag_392\n      swap1\n        /* \"METH_unflattned.sol\":21800:21816  data.tAmountSent */\n      dup5\n      swap1\n        /* \"METH_unflattned.sol\":21781:21816  _tOwned[sender] -= data.tAmountSent */\n      tag_164\n      jump\t// in\n    tag_392:\n      swap1\n      swap2\n      sstore\n      pop\n      pop\n        /* \"METH_unflattned.sol\":21846:21862  data.rAmountSent */\n      0x20\n      dup1\n      dup3\n      add\n      mload\n      sub(shl(0xa0, 0x01), 0x01)\n        /* \"METH_unflattned.sol\":21827:21842  _rOwned[sender] */\n      dup7\n      and\n      0x00\n      swap1\n      dup2\n      mstore\n        /* \"METH_unflattned.sol\":21827:21834  _rOwned */\n      0x6a\n        /* \"METH_unflattned.sol\":21827:21842  _rOwned[sender] */\n      swap1\n      swap3\n      mstore\n      0x40\n      dup3\n      keccak256\n        /* \"METH_unflattned.sol\":21827:21862  _rOwned[sender] -= data.rAmountSent */\n      dup1\n      sload\n        /* \"METH_unflattned.sol\":21846:21862  data.rAmountSent */\n      swap2\n      swap3\n        /* \"METH_unflattned.sol\":21827:21842  _rOwned[sender] */\n      swap1\n      swap2\n        /* \"METH_unflattned.sol\":21827:21862  _rOwned[sender] -= data.rAmountSent */\n      tag_393\n      swap1\n        /* \"METH_unflattned.sol\":21846:21862  data.rAmountSent */\n      dup5\n      swap1\n        /* \"METH_unflattned.sol\":21827:21862  _rOwned[sender] -= data.rAmountSent */\n      tag_164\n      jump\t// in\n    tag_393:\n      swap1\n      swap2\n      sstore\n      pop\n      pop\n        /* \"METH_unflattned.sol\":22030:22047  data.rBuyFeeTotal */\n      0xa0\n      dup2\n      add\n      mload\n        /* \"METH_unflattned.sol\":22011:22027  data.rAmountSent */\n      0x20\n      dup3\n      add\n      mload\n        /* \"METH_unflattned.sol\":22011:22047  data.rAmountSent - data.rBuyFeeTotal */\n      tag_394\n      swap2\n        /* \"METH_unflattned.sol\":22030:22047  data.rBuyFeeTotal */\n      swap1\n        /* \"METH_unflattned.sol\":22011:22047  data.rAmountSent - data.rBuyFeeTotal */\n      tag_164\n      jump\t// in\n    tag_394:\n      sub(shl(0xa0, 0x01), 0x01)\n        /* \"METH_unflattned.sol\":21988:22006  _rOwned[recipient] */\n      dup5\n      and\n      0x00\n      swap1\n      dup2\n      mstore\n        /* \"METH_unflattned.sol\":21988:21995  _rOwned */\n      0x6a\n        /* \"METH_unflattned.sol\":21988:22006  _rOwned[recipient] */\n      0x20\n      mstore\n      0x40\n      dup2\n      keccak256\n        /* \"METH_unflattned.sol\":21988:22048  _rOwned[recipient] += (data.rAmountSent - data.rBuyFeeTotal) */\n      dup1\n      sload\n        /* \"METH_unflattned.sol\":21988:22006  _rOwned[recipient] */\n      swap1\n      swap2\n      swap1\n        /* \"METH_unflattned.sol\":21988:22048  _rOwned[recipient] += (data.rAmountSent - data.rBuyFeeTotal) */\n      tag_395\n      swap1\n      dup5\n      swap1\n      tag_171\n      jump\t// in\n    tag_395:\n      swap1\n      swap2\n      sstore\n      pop\n      pop\n        /* \"METH_unflattned.sol\":22154:22174  data.reflectedAmount */\n      0x0100\n      dup2\n      add\n      mload\n        /* \"METH_unflattned.sol\":22143:22150  _rTotal */\n      0x70\n        /* \"METH_unflattned.sol\":22143:22174  _rTotal -= data.reflectedAmount */\n      dup1\n      sload\n        /* \"METH_unflattned.sol\":22143:22150  _rTotal */\n      0x00\n      swap1\n        /* \"METH_unflattned.sol\":22143:22174  _rTotal -= data.reflectedAmount */\n      tag_396\n      swap1\n        /* \"METH_unflattned.sol\":22154:22174  data.reflectedAmount */\n      dup5\n      swap1\n        /* \"METH_unflattned.sol\":22143:22174  _rTotal -= data.reflectedAmount */\n      tag_164\n      jump\t// in\n    tag_396:\n      swap1\n      swap2\n      sstore\n      pop\n      pop\n        /* \"METH_unflattned.sol\":22299:22316  data.tBuyFeeTotal */\n      0x80\n      dup2\n      add\n      mload\n        /* \"METH_unflattned.sol\":22280:22296  data.tAmountSent */\n      dup2\n      mload\n      sub(shl(0xa0, 0x01), 0x01)\n        /* \"METH_unflattned.sol\":22251:22318  Transfer(sender, recipient, (data.tAmountSent - data.tBuyFeeTotal)) */\n      dup1\n      dup7\n      and\n      swap3\n      swap1\n      dup8\n      and\n      swap2\n      0x00\n      dup1\n      mload\n      0x20\n      data_ada389e1fc24a8587c776340efb91b36e675792ab631816100d55df0b5cf3cbc\n      dup4\n      codecopy\n      dup2\n      mload\n      swap2\n      mstore\n      swap2\n        /* \"METH_unflattned.sol\":22280:22316  data.tAmountSent - data.tBuyFeeTotal */\n      tag_397\n      swap2\n      tag_164\n      jump\t// in\n    tag_397:\n        /* \"METH_unflattned.sol\":22251:22318  Transfer(sender, recipient, (data.tAmountSent - data.tBuyFeeTotal)) */\n      mload(0x40)\n        /* \"#utility.yul\":1445:1470   */\n      swap1\n      dup2\n      mstore\n        /* \"#utility.yul\":1433:1435   */\n      0x20\n        /* \"#utility.yul\":1418:1436   */\n      add\n        /* \"METH_unflattned.sol\":22251:22318  Transfer(sender, recipient, (data.tAmountSent - data.tBuyFeeTotal)) */\n      mload(0x40)\n      dup1\n      swap2\n      sub\n      swap1\n      log3\n        /* \"METH_unflattned.sol\":22379:22395  data.tAmountSent */\n      dup1\n      mload\n        /* \"METH_unflattned.sol\":22430:22447  data.tBuyFeeTotal */\n      0x80\n      dup3\n      add\n      mload\n        /* \"METH_unflattned.sol\":22344:22463  TransferFromExcluded(... */\n      0xe6ef78c5a1f105fc4b9500eeb7cd09b041367bdee35f1d85761735ee78b3ff2e\n      swap2\n        /* \"METH_unflattned.sol\":22379:22395  data.tAmountSent */\n      swap1\n        /* \"METH_unflattned.sol\":22411:22447  data.tAmountSent - data.tBuyFeeTotal */\n      tag_399\n      swap1\n        /* \"METH_unflattned.sol\":22379:22395  data.tAmountSent */\n      dup3\n        /* \"METH_unflattned.sol\":22411:22447  data.tAmountSent - data.tBuyFeeTotal */\n      tag_164\n      jump\t// in\n    tag_399:\n        /* \"METH_unflattned.sol\":22344:22463  TransferFromExcluded(... */\n      0x40\n      dup1\n      mload\n        /* \"#utility.yul\":2761:2786   */\n      swap3\n      dup4\n      mstore\n        /* \"#utility.yul\":2817:2819   */\n      0x20\n        /* \"#utility.yul\":2802:2820   */\n      dup4\n      add\n        /* \"#utility.yul\":2795:2829   */\n      swap2\n      swap1\n      swap2\n      mstore\n        /* \"#utility.yul\":2734:2752   */\n      add\n        /* \"METH_unflattned.sol\":22344:22463  TransferFromExcluded(... */\n    tag_400:\n      mload(0x40)\n      dup1\n      swap2\n      sub\n      swap1\n      log1\n        /* \"METH_unflattned.sol\":20765:22471  {... */\n      pop\n        /* \"METH_unflattned.sol\":20674:22471  function _transferFromExcluded(address sender, address recipient, uint256 tAmount) private {... */\n      pop\n      pop\n      pop\n      jump\t// out\n        /* \"METH_unflattned.sol\":18772:20532  function _transferToExcluded(address sender, address recipient, uint256 tAmount) private {... */\n    tag_361:\n        /* \"METH_unflattned.sol\":18872:18896  TransferData memory data */\n      tag_402\n      tag_378\n      jump\t// in\n    tag_402:\n        /* \"METH_unflattned.sol\":19070:19072  10 */\n      0x0a\n        /* \"METH_unflattned.sol\":19049:19067  rBalanceOf(sender) */\n      tag_403\n        /* \"METH_unflattned.sol\":19060:19066  sender */\n      dup6\n        /* \"METH_unflattned.sol\":19049:19059  rBalanceOf */\n      tag_80\n        /* \"METH_unflattned.sol\":19049:19067  rBalanceOf(sender) */\n      jump\t// in\n    tag_403:\n        /* \"METH_unflattned.sol\":19049:19072  rBalanceOf(sender) / 10 */\n      tag_404\n      swap2\n      swap1\n      tag_182\n      jump\t// in\n    tag_404:\n        /* \"METH_unflattned.sol\":19038:19045  tAmount */\n      dup3\n        /* \"METH_unflattned.sol\":19038:19072  tAmount <= rBalanceOf(sender) / 10 */\n      gt\n      iszero\n        /* \"METH_unflattned.sol\":19030:19135  require(tAmount <= rBalanceOf(sender) / 10, \"Cannot sell more than 10% of balance in single transaction\") */\n      tag_405\n      jumpi\n      mload(0x40)\n      shl(0xe5, 0x461bcd)\n      dup2\n      mstore\n        /* \"#utility.yul\":13113:13115   */\n      0x20\n        /* \"METH_unflattned.sol\":19030:19135  require(tAmount <= rBalanceOf(sender) / 10, \"Cannot sell more than 10% of balance in single transaction\") */\n      0x04\n      dup3\n      add\n        /* \"#utility.yul\":13095:13116   */\n      mstore\n        /* \"#utility.yul\":13152:13154   */\n      0x3a\n        /* \"#utility.yul\":13132:13150   */\n      0x24\n      dup3\n      add\n        /* \"#utility.yul\":13125:13155   */\n      mstore\n        /* \"#utility.yul\":13191:13225   */\n      0x43616e6e6f742073656c6c206d6f7265207468616e20313025206f662062616c\n        /* \"#utility.yul\":13171:13189   */\n      0x44\n      dup3\n      add\n        /* \"#utility.yul\":13164:13226   */\n      mstore\n        /* \"#utility.yul\":13262:13290   */\n      0x616e636520696e2073696e676c65207472616e73616374696f6e000000000000\n        /* \"#utility.yul\":13242:13260   */\n      0x64\n      dup3\n      add\n        /* \"#utility.yul\":13235:13291   */\n      mstore\n        /* \"#utility.yul\":13308:13327   */\n      0x84\n      add\n        /* \"METH_unflattned.sol\":19030:19135  require(tAmount <= rBalanceOf(sender) / 10, \"Cannot sell more than 10% of balance in single transaction\") */\n      tag_176\n        /* \"#utility.yul\":12911:13333   */\n      jump\n        /* \"METH_unflattned.sol\":19030:19135  require(tAmount <= rBalanceOf(sender) / 10, \"Cannot sell more than 10% of balance in single transaction\") */\n    tag_405:\n        /* \"METH_unflattned.sol\":19196:19222  data.tAmountSent = tAmount */\n      dup2\n      dup2\n      mstore\n        /* \"METH_unflattned.sol\":19262:19272  _getRate() */\n      tag_408\n        /* \"METH_unflattned.sol\":19262:19270  _getRate */\n      tag_110\n        /* \"METH_unflattned.sol\":19262:19272  _getRate() */\n      jump\t// in\n    tag_408:\n        /* \"METH_unflattned.sol\":19252:19272  tAmount * _getRate() */\n      tag_409\n      swap1\n        /* \"METH_unflattned.sol\":19252:19259  tAmount */\n      dup4\n        /* \"METH_unflattned.sol\":19252:19272  tAmount * _getRate() */\n      tag_386\n      jump\t// in\n    tag_409:\n        /* \"METH_unflattned.sol\":19233:19249  data.rAmountSent */\n      0x20\n      dup3\n      add\n        /* \"METH_unflattned.sol\":19233:19272  data.rAmountSent = tAmount * _getRate() */\n      mstore\n        /* \"METH_unflattned.sol\":19308:19309  0 */\n      0x00\n        /* \"METH_unflattned.sol\":19285:19305  data.totalSellTaxBps */\n      0x60\n      dup3\n      add\n        /* \"METH_unflattned.sol\":19285:19309  data.totalSellTaxBps = 0 */\n      dup2\n      swap1\n      mstore\n        /* \"METH_unflattned.sol\":19433:19438  10000 */\n      0x2710\n      swap1\n        /* \"METH_unflattned.sol\":19399:19429  tAmount * data.totalSellTaxBps */\n      tag_410\n      swap1\n        /* \"METH_unflattned.sol\":19399:19406  tAmount */\n      dup5\n        /* \"METH_unflattned.sol\":19399:19429  tAmount * data.totalSellTaxBps */\n      tag_386\n      jump\t// in\n    tag_410:\n        /* \"METH_unflattned.sol\":19398:19438  (tAmount * data.totalSellTaxBps) / 10000 */\n      tag_411\n      swap2\n      swap1\n      tag_182\n      jump\t// in\n    tag_411:\n        /* \"METH_unflattned.sol\":19377:19395  data.tSellFeeTotal */\n      0xc0\n      dup3\n      add\n        /* \"METH_unflattned.sol\":19377:19438  data.tSellFeeTotal = (tAmount * data.totalSellTaxBps) / 10000 */\n      mstore\n        /* \"METH_unflattned.sol\":19491:19501  _getRate() */\n      tag_412\n        /* \"METH_unflattned.sol\":19491:19499  _getRate */\n      tag_110\n        /* \"METH_unflattned.sol\":19491:19501  _getRate() */\n      jump\t// in\n    tag_412:\n        /* \"METH_unflattned.sol\":19470:19474  data */\n      dup2\n        /* \"METH_unflattned.sol\":19470:19488  data.tSellFeeTotal */\n      0xc0\n      add\n      mload\n        /* \"METH_unflattned.sol\":19470:19501  data.tSellFeeTotal * _getRate() */\n      tag_413\n      swap2\n      swap1\n      tag_386\n      jump\t// in\n    tag_413:\n        /* \"METH_unflattned.sol\":19449:19467  data.rSellFeeTotal */\n      0xe0\n      dup3\n      add\n        /* \"METH_unflattned.sol\":19449:19501  data.rSellFeeTotal = data.tSellFeeTotal * _getRate() */\n      dup2\n      swap1\n      mstore\n        /* \"METH_unflattned.sol\":19587:19609  data.rSellFeeTotal > 0 */\n      iszero\n        /* \"METH_unflattned.sol\":19583:19680  if (data.rSellFeeTotal > 0 ) {... */\n      tag_414\n      jumpi\n        /* \"METH_unflattned.sol\":19650:19668  data.rSellFeeTotal */\n      0xe0\n      dup2\n      add\n      mload\n        /* \"METH_unflattned.sol\":19627:19647  data.reflectedAmount */\n      0x0100\n      dup3\n      add\n        /* \"METH_unflattned.sol\":19627:19668  data.reflectedAmount = data.rSellFeeTotal */\n      mstore\n        /* \"METH_unflattned.sol\":19583:19680  if (data.rSellFeeTotal > 0 ) {... */\n    tag_414:\n        /* \"METH_unflattned.sol\":19831:19835  data */\n      dup1\n        /* \"METH_unflattned.sol\":19831:19847  data.rAmountSent */\n      0x20\n      add\n      mload\n        /* \"METH_unflattned.sol\":19812:19819  _rOwned */\n      0x6a\n        /* \"METH_unflattned.sol\":19812:19827  _rOwned[sender] */\n      0x00\n        /* \"METH_unflattned.sol\":19820:19826  sender */\n      dup7\n      sub(shl(0xa0, 0x01), 0x01)\n        /* \"METH_unflattned.sol\":19812:19827  _rOwned[sender] */\n      and\n      sub(shl(0xa0, 0x01), 0x01)\n      and\n      dup2\n      mstore\n      0x20\n      add\n      swap1\n      dup2\n      mstore\n      0x20\n      add\n      0x00\n      keccak256\n      0x00\n        /* \"METH_unflattned.sol\":19812:19847  _rOwned[sender] -= data.rAmountSent */\n      dup3\n      dup3\n      sload\n      tag_415\n      swap2\n      swap1\n      tag_164\n      jump\t// in\n    tag_415:\n      swap1\n      swap2\n      sstore\n      pop\n      pop\n        /* \"METH_unflattned.sol\":20026:20044  data.tSellFeeTotal */\n      0xc0\n      dup2\n      add\n      mload\n        /* \"METH_unflattned.sol\":20007:20023  data.tAmountSent */\n      dup2\n      mload\n        /* \"METH_unflattned.sol\":20007:20044  data.tAmountSent - data.tSellFeeTotal */\n      tag_416\n      swap2\n        /* \"METH_unflattned.sol\":20026:20044  data.tSellFeeTotal */\n      swap1\n        /* \"METH_unflattned.sol\":20007:20044  data.tAmountSent - data.tSellFeeTotal */\n      tag_164\n      jump\t// in\n    tag_416:\n      sub(shl(0xa0, 0x01), 0x01)\n        /* \"METH_unflattned.sol\":19984:20002  _tOwned[recipient] */\n      dup5\n      and\n      0x00\n      swap1\n      dup2\n      mstore\n        /* \"METH_unflattned.sol\":19984:19991  _tOwned */\n      0x69\n        /* \"METH_unflattned.sol\":19984:20002  _tOwned[recipient] */\n      0x20\n      mstore\n      0x40\n      dup2\n      keccak256\n        /* \"METH_unflattned.sol\":19984:20045  _tOwned[recipient] += (data.tAmountSent - data.tSellFeeTotal) */\n      dup1\n      sload\n        /* \"METH_unflattned.sol\":19984:20002  _tOwned[recipient] */\n      swap1\n      swap2\n      swap1\n        /* \"METH_unflattned.sol\":19984:20045  _tOwned[recipient] += (data.tAmountSent - data.tSellFeeTotal) */\n      tag_417\n      swap1\n      dup5\n      swap1\n      tag_171\n      jump\t// in\n    tag_417:\n      swap1\n      swap2\n      sstore\n      pop\n      pop\n        /* \"METH_unflattned.sol\":20098:20116  data.rSellFeeTotal */\n      0xe0\n      dup2\n      add\n      mload\n        /* \"METH_unflattned.sol\":20079:20095  data.rAmountSent */\n      0x20\n      dup3\n      add\n      mload\n        /* \"METH_unflattned.sol\":20079:20116  data.rAmountSent - data.rSellFeeTotal */\n      tag_418\n      swap2\n        /* \"METH_unflattned.sol\":20098:20116  data.rSellFeeTotal */\n      swap1\n        /* \"METH_unflattned.sol\":20079:20116  data.rAmountSent - data.rSellFeeTotal */\n      tag_164\n      jump\t// in\n    tag_418:\n      sub(shl(0xa0, 0x01), 0x01)\n        /* \"METH_unflattned.sol\":20056:20074  _rOwned[recipient] */\n      dup5\n      and\n      0x00\n      swap1\n      dup2\n      mstore\n        /* \"METH_unflattned.sol\":20056:20063  _rOwned */\n      0x6a\n        /* \"METH_unflattned.sol\":20056:20074  _rOwned[recipient] */\n      0x20\n      mstore\n      0x40\n      dup2\n      keccak256\n        /* \"METH_unflattned.sol\":20056:20117  _rOwned[recipient] += (data.rAmountSent - data.rSellFeeTotal) */\n      dup1\n      sload\n        /* \"METH_unflattned.sol\":20056:20074  _rOwned[recipient] */\n      swap1\n      swap2\n      swap1\n        /* \"METH_unflattned.sol\":20056:20117  _rOwned[recipient] += (data.rAmountSent - data.rSellFeeTotal) */\n      tag_419\n      swap1\n      dup5\n      swap1\n      tag_171\n      jump\t// in\n    tag_419:\n      swap1\n      swap2\n      sstore\n      pop\n      pop\n        /* \"METH_unflattned.sol\":20223:20243  data.reflectedAmount */\n      0x0100\n      dup2\n      add\n      mload\n        /* \"METH_unflattned.sol\":20212:20219  _rTotal */\n      0x70\n        /* \"METH_unflattned.sol\":20212:20243  _rTotal -= data.reflectedAmount */\n      dup1\n      sload\n        /* \"METH_unflattned.sol\":20212:20219  _rTotal */\n      0x00\n      swap1\n        /* \"METH_unflattned.sol\":20212:20243  _rTotal -= data.reflectedAmount */\n      tag_420\n      swap1\n        /* \"METH_unflattned.sol\":20223:20243  data.reflectedAmount */\n      dup5\n      swap1\n        /* \"METH_unflattned.sol\":20212:20243  _rTotal -= data.reflectedAmount */\n      tag_164\n      jump\t// in\n    tag_420:\n      swap1\n      swap2\n      sstore\n      pop\n      pop\n        /* \"METH_unflattned.sol\":20368:20386  data.tSellFeeTotal */\n      0xc0\n      dup2\n      add\n      mload\n        /* \"METH_unflattned.sol\":20349:20365  data.tAmountSent */\n      dup2\n      mload\n      sub(shl(0xa0, 0x01), 0x01)\n        /* \"METH_unflattned.sol\":20320:20388  Transfer(sender, recipient, (data.tAmountSent - data.tSellFeeTotal)) */\n      dup1\n      dup7\n      and\n      swap3\n      swap1\n      dup8\n      and\n      swap2\n      0x00\n      dup1\n      mload\n      0x20\n      data_ada389e1fc24a8587c776340efb91b36e675792ab631816100d55df0b5cf3cbc\n      dup4\n      codecopy\n      dup2\n      mload\n      swap2\n      mstore\n      swap2\n        /* \"METH_unflattned.sol\":20349:20386  data.tAmountSent - data.tSellFeeTotal */\n      tag_421\n      swap2\n      tag_164\n      jump\t// in\n    tag_421:\n        /* \"METH_unflattned.sol\":20320:20388  Transfer(sender, recipient, (data.tAmountSent - data.tSellFeeTotal)) */\n      mload(0x40)\n        /* \"#utility.yul\":1445:1470   */\n      swap1\n      dup2\n      mstore\n        /* \"#utility.yul\":1433:1435   */\n      0x20\n        /* \"#utility.yul\":1418:1436   */\n      add\n        /* \"METH_unflattned.sol\":20320:20388  Transfer(sender, recipient, (data.tAmountSent - data.tSellFeeTotal)) */\n      mload(0x40)\n      dup1\n      swap2\n      sub\n      swap1\n      log3\n        /* \"METH_unflattned.sol\":20439:20455  data.tAmountSent */\n      dup1\n      mload\n        /* \"METH_unflattned.sol\":20490:20508  data.tSellFeeTotal */\n      0xc0\n      dup3\n      add\n      mload\n        /* \"METH_unflattned.sol\":20406:20524  TransferToExcluded(... */\n      0xff000e16c1c0d33b07404c2b2abb9832356b5cfd57566d73c9d09611f030890d\n      swap2\n        /* \"METH_unflattned.sol\":20439:20455  data.tAmountSent */\n      swap1\n        /* \"METH_unflattned.sol\":20471:20508  data.tAmountSent - data.tSellFeeTotal */\n      tag_399\n      swap1\n        /* \"METH_unflattned.sol\":20439:20455  data.tAmountSent */\n      dup3\n        /* \"METH_unflattned.sol\":20471:20508  data.tAmountSent - data.tSellFeeTotal */\n      tag_164\n      jump\t// in\n        /* \"METH_unflattned.sol\":22644:23580  function _transferBothExcluded(address sender, address recipient, uint256 tAmount) private {... */\n    tag_366:\n        /* \"METH_unflattned.sol\":22746:22770  TransferData memory data */\n      tag_426\n      tag_378\n      jump\t// in\n    tag_426:\n        /* \"METH_unflattned.sol\":22884:22910  data.tAmountSent = tAmount */\n      dup2\n      dup2\n      mstore\n        /* \"METH_unflattned.sol\":22950:22960  _getRate() */\n      tag_427\n        /* \"METH_unflattned.sol\":22950:22958  _getRate */\n      tag_110\n        /* \"METH_unflattned.sol\":22950:22960  _getRate() */\n      jump\t// in\n    tag_427:\n        /* \"METH_unflattned.sol\":22940:22960  tAmount * _getRate() */\n      tag_428\n      swap1\n        /* \"METH_unflattned.sol\":22940:22947  tAmount */\n      dup4\n        /* \"METH_unflattned.sol\":22940:22960  tAmount * _getRate() */\n      tag_386\n      jump\t// in\n    tag_428:\n        /* \"METH_unflattned.sol\":22921:22937  data.rAmountSent */\n      0x20\n      dup1\n      dup4\n      add\n        /* \"METH_unflattned.sol\":22921:22960  data.rAmountSent = tAmount * _getRate() */\n      swap2\n      swap1\n      swap2\n      mstore\n        /* \"METH_unflattned.sol\":23077:23093  data.tAmountSent */\n      dup2\n      mload\n      sub(shl(0xa0, 0x01), 0x01)\n        /* \"METH_unflattned.sol\":23058:23073  _tOwned[sender] */\n      dup7\n      and\n        /* \"METH_unflattned.sol\":23077:23093  data.tAmountSent */\n      0x00\n        /* \"METH_unflattned.sol\":23058:23073  _tOwned[sender] */\n      swap1\n      dup2\n      mstore\n        /* \"METH_unflattned.sol\":23058:23065  _tOwned */\n      0x69\n        /* \"METH_unflattned.sol\":23058:23073  _tOwned[sender] */\n      swap1\n      swap3\n      mstore\n      0x40\n      dup3\n      keccak256\n        /* \"METH_unflattned.sol\":23058:23093  _tOwned[sender] -= data.tAmountSent */\n      dup1\n      sload\n        /* \"METH_unflattned.sol\":23077:23093  data.tAmountSent */\n      swap2\n      swap3\n        /* \"METH_unflattned.sol\":23058:23073  _tOwned[sender] */\n      swap1\n      swap2\n        /* \"METH_unflattned.sol\":23058:23093  _tOwned[sender] -= data.tAmountSent */\n      tag_429\n      swap1\n        /* \"METH_unflattned.sol\":23077:23093  data.tAmountSent */\n      dup5\n      swap1\n        /* \"METH_unflattned.sol\":23058:23093  _tOwned[sender] -= data.tAmountSent */\n      tag_164\n      jump\t// in\n    tag_429:\n      swap1\n      swap2\n      sstore\n      pop\n      pop\n        /* \"METH_unflattned.sol\":23123:23139  data.rAmountSent */\n      0x20\n      dup1\n      dup3\n      add\n      mload\n      sub(shl(0xa0, 0x01), 0x01)\n        /* \"METH_unflattned.sol\":23104:23119  _rOwned[sender] */\n      dup7\n      and\n      0x00\n      swap1\n      dup2\n      mstore\n        /* \"METH_unflattned.sol\":23104:23111  _rOwned */\n      0x6a\n        /* \"METH_unflattned.sol\":23104:23119  _rOwned[sender] */\n      swap1\n      swap3\n      mstore\n      0x40\n      dup3\n      keccak256\n        /* \"METH_unflattned.sol\":23104:23139  _rOwned[sender] -= data.rAmountSent */\n      dup1\n      sload\n        /* \"METH_unflattned.sol\":23123:23139  data.rAmountSent */\n      swap2\n      swap3\n        /* \"METH_unflattned.sol\":23104:23119  _rOwned[sender] */\n      swap1\n      swap2\n        /* \"METH_unflattned.sol\":23104:23139  _rOwned[sender] -= data.rAmountSent */\n      tag_430\n      swap1\n        /* \"METH_unflattned.sol\":23123:23139  data.rAmountSent */\n      dup5\n      swap1\n        /* \"METH_unflattned.sol\":23104:23139  _rOwned[sender] -= data.rAmountSent */\n      tag_164\n      jump\t// in\n    tag_430:\n      swap1\n      swap2\n      sstore\n      pop\n      pop\n        /* \"METH_unflattned.sol\":23243:23259  data.tAmountSent */\n      dup1\n      mload\n      sub(shl(0xa0, 0x01), 0x01)\n        /* \"METH_unflattned.sol\":23221:23239  _tOwned[recipient] */\n      dup5\n      and\n        /* \"METH_unflattned.sol\":23243:23259  data.tAmountSent */\n      0x00\n        /* \"METH_unflattned.sol\":23221:23239  _tOwned[recipient] */\n      swap1\n      dup2\n      mstore\n        /* \"METH_unflattned.sol\":23221:23228  _tOwned */\n      0x69\n        /* \"METH_unflattned.sol\":23221:23239  _tOwned[recipient] */\n      0x20\n      mstore\n      0x40\n      dup2\n      keccak256\n        /* \"METH_unflattned.sol\":23221:23259  _tOwned[recipient] += data.tAmountSent */\n      dup1\n      sload\n        /* \"METH_unflattned.sol\":23221:23239  _tOwned[recipient] */\n      swap1\n      swap2\n        /* \"METH_unflattned.sol\":23243:23259  data.tAmountSent */\n      swap1\n        /* \"METH_unflattned.sol\":23221:23259  _tOwned[recipient] += data.tAmountSent */\n      tag_431\n      swap1\n        /* \"METH_unflattned.sol\":23243:23259  data.tAmountSent */\n      dup5\n      swap1\n        /* \"METH_unflattned.sol\":23221:23259  _tOwned[recipient] += data.tAmountSent */\n      tag_171\n      jump\t// in\n    tag_431:\n      swap1\n      swap2\n      sstore\n      pop\n      pop\n        /* \"METH_unflattned.sol\":23292:23308  data.rAmountSent */\n      0x20\n      dup1\n      dup3\n      add\n      mload\n      sub(shl(0xa0, 0x01), 0x01)\n        /* \"METH_unflattned.sol\":23270:23288  _rOwned[recipient] */\n      dup6\n      and\n      0x00\n      swap1\n      dup2\n      mstore\n        /* \"METH_unflattned.sol\":23270:23277  _rOwned */\n      0x6a\n        /* \"METH_unflattned.sol\":23270:23288  _rOwned[recipient] */\n      swap1\n      swap3\n      mstore\n      0x40\n      dup3\n      keccak256\n        /* \"METH_unflattned.sol\":23270:23308  _rOwned[recipient] += data.rAmountSent */\n      dup1\n      sload\n        /* \"METH_unflattned.sol\":23292:23308  data.rAmountSent */\n      swap2\n      swap3\n        /* \"METH_unflattned.sol\":23270:23288  _rOwned[recipient] */\n      swap1\n      swap2\n        /* \"METH_unflattned.sol\":23270:23308  _rOwned[recipient] += data.rAmountSent */\n      tag_432\n      swap1\n        /* \"METH_unflattned.sol\":23292:23308  data.rAmountSent */\n      dup5\n      swap1\n        /* \"METH_unflattned.sol\":23270:23308  _rOwned[recipient] += data.rAmountSent */\n      tag_171\n      jump\t// in\n    tag_432:\n      swap1\n      swap2\n      sstore\n      pop\n      pop\n        /* \"METH_unflattned.sol\":23413:23429  data.tAmountSent */\n      dup1\n      mload\n        /* \"METH_unflattned.sol\":23385:23430  Transfer(sender, recipient, data.tAmountSent) */\n      mload(0x40)\n        /* \"#utility.yul\":1445:1470   */\n      swap1\n      dup2\n      mstore\n      sub(shl(0xa0, 0x01), 0x01)\n        /* \"METH_unflattned.sol\":23385:23430  Transfer(sender, recipient, data.tAmountSent) */\n      dup5\n      dup2\n      and\n      swap2\n      swap1\n      dup7\n      and\n      swap1\n      0x00\n      dup1\n      mload\n      0x20\n      data_ada389e1fc24a8587c776340efb91b36e675792ab631816100d55df0b5cf3cbc\n      dup4\n      codecopy\n      dup2\n      mload\n      swap2\n      mstore\n      swap1\n        /* \"#utility.yul\":1433:1435   */\n      0x20\n        /* \"#utility.yul\":1418:1436   */\n      add\n        /* \"METH_unflattned.sol\":23385:23430  Transfer(sender, recipient, data.tAmountSent) */\n      mload(0x40)\n      dup1\n      swap2\n      sub\n      swap1\n      log3\n        /* \"METH_unflattned.sol\":23483:23499  data.tAmountSent */\n      dup1\n      mload\n        /* \"METH_unflattned.sol\":23448:23572  TransferBothExcluded(... */\n      0x40\n      dup1\n      mload\n        /* \"#utility.yul\":2761:2786   */\n      dup3\n      dup2\n      mstore\n        /* \"#utility.yul\":2817:2819   */\n      0x20\n        /* \"#utility.yul\":2802:2820   */\n      dup2\n      add\n        /* \"#utility.yul\":2795:2829   */\n      swap3\n      swap1\n      swap3\n      mstore\n        /* \"METH_unflattned.sol\":23448:23572  TransferBothExcluded(... */\n      0x2541109a23d530c06d62a3bf63d8d03107194870126fddb7170c0daef360cd8a\n      swap2\n        /* \"#utility.yul\":2734:2752   */\n      add\n        /* \"METH_unflattned.sol\":23448:23572  TransferBothExcluded(... */\n      tag_400\n        /* \"#utility.yul\":2587:2835   */\n      jump\n        /* \"METH_unflattned.sol\":23721:24648  function _transferStandard(address sender, address recipient, uint256 tAmount) private {... */\n    tag_369:\n        /* \"METH_unflattned.sol\":23819:23843  TransferData memory data */\n      tag_436\n      tag_378\n      jump\t// in\n    tag_436:\n        /* \"METH_unflattned.sol\":23989:24008  1000000000000000000 */\n      0x0de0b6b3a7640000\n        /* \"METH_unflattned.sol\":23968:23986  rBalanceOf(sender) */\n      tag_437\n        /* \"METH_unflattned.sol\":23979:23985  sender */\n      dup6\n        /* \"METH_unflattned.sol\":23968:23978  rBalanceOf */\n      tag_80\n        /* \"METH_unflattned.sol\":23968:23986  rBalanceOf(sender) */\n      jump\t// in\n    tag_437:\n        /* \"METH_unflattned.sol\":23968:24008  rBalanceOf(sender) - 1000000000000000000 */\n      tag_438\n      swap2\n      swap1\n      tag_164\n      jump\t// in\n    tag_438:\n        /* \"METH_unflattned.sol\":23957:23964  tAmount */\n      dup3\n        /* \"METH_unflattned.sol\":23957:24008  tAmount <= rBalanceOf(sender) - 1000000000000000000 */\n      gt\n      iszero\n        /* \"METH_unflattned.sol\":23949:24042  require(tAmount <= rBalanceOf(sender) - 1000000000000000000, \"You gotta keep 1 METH always!\") */\n      tag_439\n      jumpi\n      mload(0x40)\n      shl(0xe5, 0x461bcd)\n      dup2\n      mstore\n        /* \"#utility.yul\":13540:13542   */\n      0x20\n        /* \"METH_unflattned.sol\":23949:24042  require(tAmount <= rBalanceOf(sender) - 1000000000000000000, \"You gotta keep 1 METH always!\") */\n      0x04\n      dup3\n      add\n        /* \"#utility.yul\":13522:13543   */\n      mstore\n        /* \"#utility.yul\":13579:13581   */\n      0x1d\n        /* \"#utility.yul\":13559:13577   */\n      0x24\n      dup3\n      add\n        /* \"#utility.yul\":13552:13582   */\n      mstore\n        /* \"#utility.yul\":13618:13649   */\n      0x596f7520676f747461206b6565702031204d45544820616c7761797321000000\n        /* \"#utility.yul\":13598:13616   */\n      0x44\n      dup3\n      add\n        /* \"#utility.yul\":13591:13650   */\n      mstore\n        /* \"#utility.yul\":13667:13685   */\n      0x64\n      add\n        /* \"METH_unflattned.sol\":23949:24042  require(tAmount <= rBalanceOf(sender) - 1000000000000000000, \"You gotta keep 1 METH always!\") */\n      tag_176\n        /* \"#utility.yul\":13338:13691   */\n      jump\n        /* \"METH_unflattned.sol\":23949:24042  require(tAmount <= rBalanceOf(sender) - 1000000000000000000, \"You gotta keep 1 METH always!\") */\n    tag_439:\n        /* \"METH_unflattned.sol\":24101:24127  data.tAmountSent = tAmount */\n      dup2\n      dup2\n      mstore\n        /* \"METH_unflattned.sol\":24167:24177  _getRate() */\n      tag_442\n        /* \"METH_unflattned.sol\":24167:24175  _getRate */\n      tag_110\n        /* \"METH_unflattned.sol\":24167:24177  _getRate() */\n      jump\t// in\n    tag_442:\n        /* \"METH_unflattned.sol\":24157:24177  tAmount * _getRate() */\n      tag_443\n      swap1\n        /* \"METH_unflattned.sol\":24157:24164  tAmount */\n      dup4\n        /* \"METH_unflattned.sol\":24157:24177  tAmount * _getRate() */\n      tag_386\n      jump\t// in\n    tag_443:\n        /* \"METH_unflattned.sol\":24138:24154  data.rAmountSent */\n      0x20\n      dup1\n      dup4\n      add\n        /* \"METH_unflattned.sol\":24138:24177  data.rAmountSent = tAmount * _getRate() */\n      dup3\n      swap1\n      mstore\n      sub(shl(0xa0, 0x01), 0x01)\n        /* \"METH_unflattned.sol\":24294:24309  _rOwned[sender] */\n      dup7\n      and\n      0x00\n      swap1\n      dup2\n      mstore\n        /* \"METH_unflattned.sol\":24294:24301  _rOwned */\n      0x6a\n        /* \"METH_unflattned.sol\":24294:24309  _rOwned[sender] */\n      swap1\n      swap2\n      mstore\n      0x40\n      dup2\n      keccak256\n        /* \"METH_unflattned.sol\":24294:24329  _rOwned[sender] -= data.rAmountSent */\n      dup1\n      sload\n        /* \"METH_unflattned.sol\":24294:24309  _rOwned[sender] */\n      swap1\n      swap2\n      swap1\n        /* \"METH_unflattned.sol\":24294:24329  _rOwned[sender] -= data.rAmountSent */\n      tag_444\n      swap1\n        /* \"METH_unflattned.sol\":24138:24177  data.rAmountSent = tAmount * _getRate() */\n      dup5\n      swap1\n        /* \"METH_unflattned.sol\":24294:24329  _rOwned[sender] -= data.rAmountSent */\n      tag_164\n      jump\t// in\n    tag_444:\n      swap1\n      swap2\n      sstore\n      pop\n      pop\n        /* \"METH_unflattned.sol\":24448:24464  data.rAmountSent */\n      0x20\n      dup1\n      dup3\n      add\n      mload\n      sub(shl(0xa0, 0x01), 0x01)\n        /* \"METH_unflattned.sol\":24426:24444  _rOwned[recipient] */\n      dup6\n      and\n      0x00\n      swap1\n      dup2\n      mstore\n        /* \"METH_unflattned.sol\":24426:24433  _rOwned */\n      0x6a\n        /* \"METH_unflattned.sol\":24426:24444  _rOwned[recipient] */\n      swap1\n      swap3\n      mstore\n      0x40\n      dup3\n      keccak256\n        /* \"METH_unflattned.sol\":24426:24464  _rOwned[recipient] += data.rAmountSent */\n      dup1\n      sload\n        /* \"METH_unflattned.sol\":24448:24464  data.rAmountSent */\n      swap2\n      swap3\n        /* \"METH_unflattned.sol\":24426:24444  _rOwned[recipient] */\n      swap1\n      swap2\n        /* \"METH_unflattned.sol\":24426:24464  _rOwned[recipient] += data.rAmountSent */\n      tag_445\n      swap1\n        /* \"METH_unflattned.sol\":24448:24464  data.rAmountSent */\n      dup5\n      swap1\n        /* \"METH_unflattned.sol\":24426:24464  _rOwned[recipient] += data.rAmountSent */\n      tag_171\n      jump\t// in\n    tag_445:\n      swap1\n      swap2\n      sstore\n      pop\n      pop\n        /* \"METH_unflattned.sol\":24511:24527  data.tAmountSent */\n      dup1\n      mload\n        /* \"METH_unflattned.sol\":24482:24529  Transfer(sender, recipient, (data.tAmountSent)) */\n      mload(0x40)\n        /* \"#utility.yul\":1445:1470   */\n      swap1\n      dup2\n      mstore\n      sub(shl(0xa0, 0x01), 0x01)\n        /* \"METH_unflattned.sol\":24482:24529  Transfer(sender, recipient, (data.tAmountSent)) */\n      dup5\n      dup2\n      and\n      swap2\n      swap1\n      dup7\n      and\n      swap1\n      0x00\n      dup1\n      mload\n      0x20\n      data_ada389e1fc24a8587c776340efb91b36e675792ab631816100d55df0b5cf3cbc\n      dup4\n      codecopy\n      dup2\n      mload\n      swap2\n      mstore\n      swap1\n        /* \"#utility.yul\":1433:1435   */\n      0x20\n        /* \"#utility.yul\":1418:1436   */\n      add\n        /* \"METH_unflattned.sol\":24482:24529  Transfer(sender, recipient, (data.tAmountSent)) */\n      mload(0x40)\n      dup1\n      swap2\n      sub\n      swap1\n      log3\n        /* \"METH_unflattned.sol\":24578:24594  data.tAmountSent */\n      dup1\n      mload\n        /* \"METH_unflattned.sol\":24547:24640  TransferStandard(... */\n      0x40\n      dup1\n      mload\n        /* \"#utility.yul\":2761:2786   */\n      dup3\n      dup2\n      mstore\n        /* \"#utility.yul\":2817:2819   */\n      0x20\n        /* \"#utility.yul\":2802:2820   */\n      dup2\n      add\n        /* \"#utility.yul\":2795:2829   */\n      swap3\n      swap1\n      swap3\n      mstore\n        /* \"METH_unflattned.sol\":24547:24640  TransferStandard(... */\n      0xd9923e08d9d88ff7a7e9b8460f3163dc6b887fabe315449da3b5cd16bb5e9340\n      swap2\n        /* \"#utility.yul\":2734:2752   */\n      add\n        /* \"METH_unflattned.sol\":24547:24640  TransferStandard(... */\n      tag_400\n        /* \"#utility.yul\":2587:2835   */\n      jump\n    tag_378:\n      mload(0x40)\n      dup1\n      0x0120\n      add\n      0x40\n      mstore\n      dup1\n      0x00\n      dup2\n      mstore\n      0x20\n      add\n      0x00\n      dup2\n      mstore\n      0x20\n      add\n      0x00\n      dup2\n      mstore\n      0x20\n      add\n      0x00\n      dup2\n      mstore\n      0x20\n      add\n      0x00\n      dup2\n      mstore\n      0x20\n      add\n      0x00\n      dup2\n      mstore\n      0x20\n      add\n      0x00\n      dup2\n      mstore\n      0x20\n      add\n      0x00\n      dup2\n      mstore\n      0x20\n      add\n      0x00\n      dup2\n      mstore\n      pop\n      swap1\n      jump\t// out\n        /* \"#utility.yul\":14:264   */\n    tag_448:\n        /* \"#utility.yul\":99:100   */\n      0x00\n        /* \"#utility.yul\":109:222   */\n    tag_458:\n        /* \"#utility.yul\":123:129   */\n      dup4\n        /* \"#utility.yul\":120:121   */\n      dup2\n        /* \"#utility.yul\":117:130   */\n      lt\n        /* \"#utility.yul\":109:222   */\n      iszero\n      tag_460\n      jumpi\n        /* \"#utility.yul\":199:210   */\n      dup2\n      dup2\n      add\n        /* \"#utility.yul\":193:211   */\n      mload\n        /* \"#utility.yul\":180:191   */\n      dup4\n      dup3\n      add\n        /* \"#utility.yul\":173:212   */\n      mstore\n        /* \"#utility.yul\":145:147   */\n      0x20\n        /* \"#utility.yul\":138:148   */\n      add\n        /* \"#utility.yul\":109:222   */\n      jump(tag_458)\n    tag_460:\n      pop\n      pop\n        /* \"#utility.yul\":256:257   */\n      0x00\n        /* \"#utility.yul\":238:254   */\n      swap2\n      add\n        /* \"#utility.yul\":231:258   */\n      mstore\n        /* \"#utility.yul\":14:264   */\n      jump\t// out\n        /* \"#utility.yul\":269:665   */\n    tag_41:\n        /* \"#utility.yul\":418:420   */\n      0x20\n        /* \"#utility.yul\":407:416   */\n      dup2\n        /* \"#utility.yul\":400:421   */\n      mstore\n        /* \"#utility.yul\":381:385   */\n      0x00\n        /* \"#utility.yul\":450:456   */\n      dup3\n        /* \"#utility.yul\":444:457   */\n      mload\n        /* \"#utility.yul\":493:499   */\n      dup1\n        /* \"#utility.yul\":488:490   */\n      0x20\n        /* \"#utility.yul\":477:486   */\n      dup5\n        /* \"#utility.yul\":473:491   */\n      add\n        /* \"#utility.yul\":466:500   */\n      mstore\n        /* \"#utility.yul\":509:588   */\n      tag_462\n        /* \"#utility.yul\":581:587   */\n      dup2\n        /* \"#utility.yul\":576:578   */\n      0x40\n        /* \"#utility.yul\":565:574   */\n      dup6\n        /* \"#utility.yul\":561:579   */\n      add\n        /* \"#utility.yul\":556:558   */\n      0x20\n        /* \"#utility.yul\":548:554   */\n      dup8\n        /* \"#utility.yul\":544:559   */\n      add\n        /* \"#utility.yul\":509:588   */\n      tag_448\n      jump\t// in\n    tag_462:\n        /* \"#utility.yul\":649:651   */\n      0x1f\n        /* \"#utility.yul\":628:643   */\n      add\n      not(0x1f)\n        /* \"#utility.yul\":624:653   */\n      and\n        /* \"#utility.yul\":609:654   */\n      swap2\n      swap1\n      swap2\n      add\n        /* \"#utility.yul\":656:658   */\n      0x40\n        /* \"#utility.yul\":605:659   */\n      add\n      swap3\n        /* \"#utility.yul\":269:665   */\n      swap2\n      pop\n      pop\n      jump\t// out\n        /* \"#utility.yul\":670:843   */\n    tag_449:\n        /* \"#utility.yul\":738:758   */\n      dup1\n      calldataload\n      sub(shl(0xa0, 0x01), 0x01)\n        /* \"#utility.yul\":787:818   */\n      dup2\n      and\n        /* \"#utility.yul\":777:819   */\n      dup2\n      eq\n        /* \"#utility.yul\":767:837   */\n      tag_186\n      jumpi\n        /* \"#utility.yul\":833:834   */\n      0x00\n        /* \"#utility.yul\":830:831   */\n      dup1\n        /* \"#utility.yul\":823:835   */\n      revert\n        /* \"#utility.yul\":848:1102   */\n    tag_44:\n        /* \"#utility.yul\":916:922   */\n      0x00\n        /* \"#utility.yul\":924:930   */\n      dup1\n        /* \"#utility.yul\":977:979   */\n      0x40\n        /* \"#utility.yul\":965:974   */\n      dup4\n        /* \"#utility.yul\":956:963   */\n      dup6\n        /* \"#utility.yul\":952:975   */\n      sub\n        /* \"#utility.yul\":948:980   */\n      slt\n        /* \"#utility.yul\":945:997   */\n      iszero\n      tag_466\n      jumpi\n        /* \"#utility.yul\":993:994   */\n      0x00\n        /* \"#utility.yul\":990:991   */\n      dup1\n        /* \"#utility.yul\":983:995   */\n      revert\n        /* \"#utility.yul\":945:997   */\n    tag_466:\n        /* \"#utility.yul\":1016:1045   */\n      tag_467\n        /* \"#utility.yul\":1035:1044   */\n      dup4\n        /* \"#utility.yul\":1016:1045   */\n      tag_449\n      jump\t// in\n    tag_467:\n        /* \"#utility.yul\":1006:1045   */\n      swap5\n        /* \"#utility.yul\":1092:1094   */\n      0x20\n        /* \"#utility.yul\":1077:1095   */\n      swap4\n      swap1\n      swap4\n      add\n        /* \"#utility.yul\":1064:1096   */\n      calldataload\n      swap4\n      pop\n      pop\n      pop\n        /* \"#utility.yul\":848:1102   */\n      jump\t// out\n        /* \"#utility.yul\":1481:1809   */\n    tag_54:\n        /* \"#utility.yul\":1558:1564   */\n      0x00\n        /* \"#utility.yul\":1566:1572   */\n      dup1\n        /* \"#utility.yul\":1574:1580   */\n      0x00\n        /* \"#utility.yul\":1627:1629   */\n      0x60\n        /* \"#utility.yul\":1615:1624   */\n      dup5\n        /* \"#utility.yul\":1606:1613   */\n      dup7\n        /* \"#utility.yul\":1602:1625   */\n      sub\n        /* \"#utility.yul\":1598:1630   */\n      slt\n        /* \"#utility.yul\":1595:1647   */\n      iszero\n      tag_471\n      jumpi\n        /* \"#utility.yul\":1643:1644   */\n      0x00\n        /* \"#utility.yul\":1640:1641   */\n      dup1\n        /* \"#utility.yul\":1633:1645   */\n      revert\n        /* \"#utility.yul\":1595:1647   */\n    tag_471:\n        /* \"#utility.yul\":1666:1695   */\n      tag_472\n        /* \"#utility.yul\":1685:1694   */\n      dup5\n        /* \"#utility.yul\":1666:1695   */\n      tag_449\n      jump\t// in\n    tag_472:\n        /* \"#utility.yul\":1656:1695   */\n      swap3\n      pop\n        /* \"#utility.yul\":1714:1752   */\n      tag_473\n        /* \"#utility.yul\":1748:1750   */\n      0x20\n        /* \"#utility.yul\":1737:1746   */\n      dup6\n        /* \"#utility.yul\":1733:1751   */\n      add\n        /* \"#utility.yul\":1714:1752   */\n      tag_449\n      jump\t// in\n    tag_473:\n        /* \"#utility.yul\":1704:1752   */\n      swap2\n      pop\n        /* \"#utility.yul\":1799:1801   */\n      0x40\n        /* \"#utility.yul\":1788:1797   */\n      dup5\n        /* \"#utility.yul\":1784:1802   */\n      add\n        /* \"#utility.yul\":1771:1803   */\n      calldataload\n        /* \"#utility.yul\":1761:1803   */\n      swap1\n      pop\n        /* \"#utility.yul\":1481:1809   */\n      swap3\n      pop\n      swap3\n      pop\n      swap3\n      jump\t// out\n        /* \"#utility.yul\":2003:2183   */\n    tag_70:\n        /* \"#utility.yul\":2062:2068   */\n      0x00\n        /* \"#utility.yul\":2115:2117   */\n      0x20\n        /* \"#utility.yul\":2103:2112   */\n      dup3\n        /* \"#utility.yul\":2094:2101   */\n      dup5\n        /* \"#utility.yul\":2090:2113   */\n      sub\n        /* \"#utility.yul\":2086:2118   */\n      slt\n        /* \"#utility.yul\":2083:2135   */\n      iszero\n      tag_476\n      jumpi\n        /* \"#utility.yul\":2131:2132   */\n      0x00\n        /* \"#utility.yul\":2128:2129   */\n      dup1\n        /* \"#utility.yul\":2121:2133   */\n      revert\n        /* \"#utility.yul\":2083:2135   */\n    tag_476:\n      pop\n        /* \"#utility.yul\":2154:2177   */\n      calldataload\n      swap2\n        /* \"#utility.yul\":2003:2183   */\n      swap1\n      pop\n      jump\t// out\n        /* \"#utility.yul\":2396:2582   */\n    tag_79:\n        /* \"#utility.yul\":2455:2461   */\n      0x00\n        /* \"#utility.yul\":2508:2510   */\n      0x20\n        /* \"#utility.yul\":2496:2505   */\n      dup3\n        /* \"#utility.yul\":2487:2494   */\n      dup5\n        /* \"#utility.yul\":2483:2506   */\n      sub\n        /* \"#utility.yul\":2479:2511   */\n      slt\n        /* \"#utility.yul\":2476:2528   */\n      iszero\n      tag_479\n      jumpi\n        /* \"#utility.yul\":2524:2525   */\n      0x00\n        /* \"#utility.yul\":2521:2522   */\n      dup1\n        /* \"#utility.yul\":2514:2526   */\n      revert\n        /* \"#utility.yul\":2476:2528   */\n    tag_479:\n        /* \"#utility.yul\":2547:2576   */\n      tag_480\n        /* \"#utility.yul\":2566:2575   */\n      dup3\n        /* \"#utility.yul\":2547:2576   */\n      tag_449\n      jump\t// in\n    tag_480:\n        /* \"#utility.yul\":2537:2576   */\n      swap4\n        /* \"#utility.yul\":2396:2582   */\n      swap3\n      pop\n      pop\n      pop\n      jump\t// out\n        /* \"#utility.yul\":2840:3113   */\n    tag_101:\n        /* \"#utility.yul\":2896:2902   */\n      0x00\n        /* \"#utility.yul\":2949:2951   */\n      0x20\n        /* \"#utility.yul\":2937:2946   */\n      dup3\n        /* \"#utility.yul\":2928:2935   */\n      dup5\n        /* \"#utility.yul\":2924:2947   */\n      sub\n        /* \"#utility.yul\":2920:2952   */\n      slt\n        /* \"#utility.yul\":2917:2969   */\n      iszero\n      tag_483\n      jumpi\n        /* \"#utility.yul\":2965:2966   */\n      0x00\n        /* \"#utility.yul\":2962:2963   */\n      dup1\n        /* \"#utility.yul\":2955:2967   */\n      revert\n        /* \"#utility.yul\":2917:2969   */\n    tag_483:\n        /* \"#utility.yul\":3004:3013   */\n      dup2\n        /* \"#utility.yul\":2991:3014   */\n      calldataload\n        /* \"#utility.yul\":3057:3062   */\n      dup1\n        /* \"#utility.yul\":3050:3063   */\n      iszero\n        /* \"#utility.yul\":3043:3064   */\n      iszero\n        /* \"#utility.yul\":3036:3041   */\n      dup2\n        /* \"#utility.yul\":3033:3065   */\n      eq\n        /* \"#utility.yul\":3023:3083   */\n      tag_480\n      jumpi\n        /* \"#utility.yul\":3079:3080   */\n      0x00\n        /* \"#utility.yul\":3076:3077   */\n      dup1\n        /* \"#utility.yul\":3069:3081   */\n      revert\n        /* \"#utility.yul\":3118:3378   */\n    tag_138:\n        /* \"#utility.yul\":3186:3192   */\n      0x00\n        /* \"#utility.yul\":3194:3200   */\n      dup1\n        /* \"#utility.yul\":3247:3249   */\n      0x40\n        /* \"#utility.yul\":3235:3244   */\n      dup4\n        /* \"#utility.yul\":3226:3233   */\n      dup6\n        /* \"#utility.yul\":3222:3245   */\n      sub\n        /* \"#utility.yul\":3218:3250   */\n      slt\n        /* \"#utility.yul\":3215:3267   */\n      iszero\n      tag_486\n      jumpi\n        /* \"#utility.yul\":3263:3264   */\n      0x00\n        /* \"#utility.yul\":3260:3261   */\n      dup1\n        /* \"#utility.yul\":3253:3265   */\n      revert\n        /* \"#utility.yul\":3215:3267   */\n    tag_486:\n        /* \"#utility.yul\":3286:3315   */\n      tag_487\n        /* \"#utility.yul\":3305:3314   */\n      dup4\n        /* \"#utility.yul\":3286:3315   */\n      tag_449\n      jump\t// in\n    tag_487:\n        /* \"#utility.yul\":3276:3315   */\n      swap2\n      pop\n        /* \"#utility.yul\":3334:3372   */\n      tag_488\n        /* \"#utility.yul\":3368:3370   */\n      0x20\n        /* \"#utility.yul\":3357:3366   */\n      dup5\n        /* \"#utility.yul\":3353:3371   */\n      add\n        /* \"#utility.yul\":3334:3372   */\n      tag_449\n      jump\t// in\n    tag_488:\n        /* \"#utility.yul\":3324:3372   */\n      swap1\n      pop\n        /* \"#utility.yul\":3118:3378   */\n      swap3\n      pop\n      swap3\n      swap1\n      pop\n      jump\t// out\n        /* \"#utility.yul\":3383:3763   */\n    tag_146:\n        /* \"#utility.yul\":3462:3463   */\n      0x01\n        /* \"#utility.yul\":3458:3470   */\n      dup2\n      dup2\n      shr\n      swap1\n        /* \"#utility.yul\":3505:3517   */\n      dup3\n      and\n      dup1\n        /* \"#utility.yul\":3526:3587   */\n      tag_490\n      jumpi\n        /* \"#utility.yul\":3580:3584   */\n      0x7f\n        /* \"#utility.yul\":3572:3578   */\n      dup3\n        /* \"#utility.yul\":3568:3585   */\n      and\n        /* \"#utility.yul\":3558:3585   */\n      swap2\n      pop\n        /* \"#utility.yul\":3526:3587   */\n    tag_490:\n        /* \"#utility.yul\":3633:3635   */\n      0x20\n        /* \"#utility.yul\":3625:3631   */\n      dup3\n        /* \"#utility.yul\":3622:3636   */\n      lt\n        /* \"#utility.yul\":3602:3620   */\n      dup2\n        /* \"#utility.yul\":3599:3637   */\n      sub\n        /* \"#utility.yul\":3596:3757   */\n      tag_491\n      jumpi\n        /* \"#utility.yul\":3679:3689   */\n      0x4e487b71\n        /* \"#utility.yul\":3674:3677   */\n      0xe0\n        /* \"#utility.yul\":3670:3690   */\n      shl\n        /* \"#utility.yul\":3667:3668   */\n      0x00\n        /* \"#utility.yul\":3660:3691   */\n      mstore\n        /* \"#utility.yul\":3714:3718   */\n      0x22\n        /* \"#utility.yul\":3711:3712   */\n      0x04\n        /* \"#utility.yul\":3704:3719   */\n      mstore\n        /* \"#utility.yul\":3742:3746   */\n      0x24\n        /* \"#utility.yul\":3739:3740   */\n      0x00\n        /* \"#utility.yul\":3732:3747   */\n      revert\n        /* \"#utility.yul\":3596:3757   */\n    tag_491:\n      pop\n        /* \"#utility.yul\":3383:3763   */\n      swap2\n      swap1\n      pop\n      jump\t// out\n        /* \"#utility.yul\":3768:3895   */\n    tag_450:\n        /* \"#utility.yul\":3829:3839   */\n      0x4e487b71\n        /* \"#utility.yul\":3824:3827   */\n      0xe0\n        /* \"#utility.yul\":3820:3840   */\n      shl\n        /* \"#utility.yul\":3817:3818   */\n      0x00\n        /* \"#utility.yul\":3810:3841   */\n      mstore\n        /* \"#utility.yul\":3860:3864   */\n      0x11\n        /* \"#utility.yul\":3857:3858   */\n      0x04\n        /* \"#utility.yul\":3850:3865   */\n      mstore\n        /* \"#utility.yul\":3884:3888   */\n      0x24\n        /* \"#utility.yul\":3881:3882   */\n      0x00\n        /* \"#utility.yul\":3874:3889   */\n      revert\n        /* \"#utility.yul\":3900:4028   */\n    tag_164:\n        /* \"#utility.yul\":3967:3976   */\n      dup2\n      dup2\n      sub\n        /* \"#utility.yul\":3988:3999   */\n      dup2\n      dup2\n      gt\n        /* \"#utility.yul\":3985:4022   */\n      iszero\n      tag_151\n      jumpi\n        /* \"#utility.yul\":4002:4020   */\n      tag_151\n      tag_450\n      jump\t// in\n        /* \"#utility.yul\":4033:4158   */\n    tag_171:\n        /* \"#utility.yul\":4098:4107   */\n      dup1\n      dup3\n      add\n        /* \"#utility.yul\":4119:4129   */\n      dup1\n      dup3\n      gt\n        /* \"#utility.yul\":4116:4152   */\n      iszero\n      tag_151\n      jumpi\n        /* \"#utility.yul\":4132:4150   */\n      tag_151\n      tag_450\n      jump\t// in\n        /* \"#utility.yul\":4574:4701   */\n    tag_451:\n        /* \"#utility.yul\":4635:4645   */\n      0x4e487b71\n        /* \"#utility.yul\":4630:4633   */\n      0xe0\n        /* \"#utility.yul\":4626:4646   */\n      shl\n        /* \"#utility.yul\":4623:4624   */\n      0x00\n        /* \"#utility.yul\":4616:4647   */\n      mstore\n        /* \"#utility.yul\":4666:4670   */\n      0x12\n        /* \"#utility.yul\":4663:4664   */\n      0x04\n        /* \"#utility.yul\":4656:4671   */\n      mstore\n        /* \"#utility.yul\":4690:4694   */\n      0x24\n        /* \"#utility.yul\":4687:4688   */\n      0x00\n        /* \"#utility.yul\":4680:4695   */\n      revert\n        /* \"#utility.yul\":4706:4826   */\n    tag_182:\n        /* \"#utility.yul\":4746:4747   */\n      0x00\n        /* \"#utility.yul\":4772:4773   */\n      dup3\n        /* \"#utility.yul\":4762:4797   */\n      tag_503\n      jumpi\n        /* \"#utility.yul\":4777:4795   */\n      tag_503\n      tag_451\n      jump\t// in\n    tag_503:\n      pop\n        /* \"#utility.yul\":4811:4820   */\n      div\n      swap1\n        /* \"#utility.yul\":4706:4826   */\n      jump\t// out\n        /* \"#utility.yul\":5246:5373   */\n    tag_452:\n        /* \"#utility.yul\":5307:5317   */\n      0x4e487b71\n        /* \"#utility.yul\":5302:5305   */\n      0xe0\n        /* \"#utility.yul\":5298:5318   */\n      shl\n        /* \"#utility.yul\":5295:5296   */\n      0x00\n        /* \"#utility.yul\":5288:5319   */\n      mstore\n        /* \"#utility.yul\":5338:5342   */\n      0x41\n        /* \"#utility.yul\":5335:5336   */\n      0x04\n        /* \"#utility.yul\":5328:5343   */\n      mstore\n        /* \"#utility.yul\":5362:5366   */\n      0x24\n        /* \"#utility.yul\":5359:5360   */\n      0x00\n        /* \"#utility.yul\":5352:5367   */\n      revert\n        /* \"#utility.yul\":5504:6022   */\n    tag_454:\n        /* \"#utility.yul\":5606:5608   */\n      0x1f\n        /* \"#utility.yul\":5601:5604   */\n      dup3\n        /* \"#utility.yul\":5598:5609   */\n      gt\n        /* \"#utility.yul\":5595:6016   */\n      iszero\n      tag_355\n      jumpi\n        /* \"#utility.yul\":5642:5647   */\n      dup1\n        /* \"#utility.yul\":5639:5640   */\n      0x00\n        /* \"#utility.yul\":5632:5648   */\n      mstore\n        /* \"#utility.yul\":5686:5690   */\n      0x20\n        /* \"#utility.yul\":5683:5684   */\n      0x00\n        /* \"#utility.yul\":5673:5691   */\n      keccak256\n        /* \"#utility.yul\":5756:5758   */\n      0x1f\n        /* \"#utility.yul\":5744:5754   */\n      dup5\n        /* \"#utility.yul\":5740:5759   */\n      add\n        /* \"#utility.yul\":5737:5738   */\n      0x05\n        /* \"#utility.yul\":5733:5760   */\n      shr\n        /* \"#utility.yul\":5727:5731   */\n      dup2\n        /* \"#utility.yul\":5723:5761   */\n      add\n        /* \"#utility.yul\":5792:5796   */\n      0x20\n        /* \"#utility.yul\":5780:5790   */\n      dup6\n        /* \"#utility.yul\":5777:5797   */\n      lt\n        /* \"#utility.yul\":5774:5821   */\n      iszero\n      tag_509\n      jumpi\n      pop\n        /* \"#utility.yul\":5815:5819   */\n      dup1\n        /* \"#utility.yul\":5774:5821   */\n    tag_509:\n        /* \"#utility.yul\":5870:5872   */\n      0x1f\n        /* \"#utility.yul\":5865:5868   */\n      dup5\n        /* \"#utility.yul\":5861:5873   */\n      add\n        /* \"#utility.yul\":5858:5859   */\n      0x05\n        /* \"#utility.yul\":5854:5874   */\n      shr\n        /* \"#utility.yul\":5848:5852   */\n      dup3\n        /* \"#utility.yul\":5844:5875   */\n      add\n        /* \"#utility.yul\":5834:5875   */\n      swap2\n      pop\n        /* \"#utility.yul\":5925:6006   */\n    tag_510:\n        /* \"#utility.yul\":5943:5945   */\n      dup2\n        /* \"#utility.yul\":5936:5941   */\n      dup2\n        /* \"#utility.yul\":5933:5946   */\n      lt\n        /* \"#utility.yul\":5925:6006   */\n      iszero\n      tag_512\n      jumpi\n        /* \"#utility.yul\":6002:6003   */\n      0x00\n        /* \"#utility.yul\":5988:6004   */\n      dup2\n      sstore\n        /* \"#utility.yul\":5969:5970   */\n      0x01\n        /* \"#utility.yul\":5958:5971   */\n      add\n        /* \"#utility.yul\":5925:6006   */\n      jump(tag_510)\n    tag_512:\n        /* \"#utility.yul\":5929:5932   */\n      pop\n      pop\n        /* \"#utility.yul\":5504:6022   */\n      pop\n      pop\n      pop\n      jump\t// out\n        /* \"#utility.yul\":6198:7543   */\n    tag_209:\n        /* \"#utility.yul\":6324:6327   */\n      dup2\n        /* \"#utility.yul\":6318:6328   */\n      mload\n        /* \"#utility.yul\":6351:6369   */\n      0xffffffffffffffff\n        /* \"#utility.yul\":6343:6349   */\n      dup2\n        /* \"#utility.yul\":6340:6370   */\n      gt\n        /* \"#utility.yul\":6337:6393   */\n      iszero\n      tag_516\n      jumpi\n        /* \"#utility.yul\":6373:6391   */\n      tag_516\n      tag_452\n      jump\t// in\n    tag_516:\n        /* \"#utility.yul\":6402:6499   */\n      tag_517\n        /* \"#utility.yul\":6492:6498   */\n      dup2\n        /* \"#utility.yul\":6452:6490   */\n      tag_518\n        /* \"#utility.yul\":6484:6488   */\n      dup5\n        /* \"#utility.yul\":6478:6489   */\n      sload\n        /* \"#utility.yul\":6452:6490   */\n      tag_146\n      jump\t// in\n    tag_518:\n        /* \"#utility.yul\":6446:6450   */\n      dup5\n        /* \"#utility.yul\":6402:6499   */\n      tag_454\n      jump\t// in\n    tag_517:\n        /* \"#utility.yul\":6554:6558   */\n      0x20\n      dup1\n        /* \"#utility.yul\":6611:6613   */\n      0x1f\n        /* \"#utility.yul\":6600:6614   */\n      dup4\n      gt\n        /* \"#utility.yul\":6628:6629   */\n      0x01\n        /* \"#utility.yul\":6623:7286   */\n      dup2\n      eq\n      tag_520\n      jumpi\n        /* \"#utility.yul\":7330:7331   */\n      0x00\n        /* \"#utility.yul\":7347:7353   */\n      dup5\n        /* \"#utility.yul\":7344:7433   */\n      iszero\n      tag_521\n      jumpi\n      pop\n        /* \"#utility.yul\":7399:7418   */\n      dup6\n      dup4\n      add\n        /* \"#utility.yul\":7393:7419   */\n      mload\n        /* \"#utility.yul\":7344:7433   */\n    tag_521:\n      not(0x00)\n        /* \"#utility.yul\":6155:6156   */\n      0x03\n        /* \"#utility.yul\":6151:6162   */\n      dup7\n      swap1\n      shl\n        /* \"#utility.yul\":6147:6171   */\n      shr\n        /* \"#utility.yul\":6143:6172   */\n      not\n        /* \"#utility.yul\":6133:6173   */\n      and\n        /* \"#utility.yul\":6179:6180   */\n      0x01\n        /* \"#utility.yul\":6175:6186   */\n      dup6\n      swap1\n      shl\n        /* \"#utility.yul\":6130:6187   */\n      or\n        /* \"#utility.yul\":7446:7527   */\n      dup6\n      sstore\n        /* \"#utility.yul\":6593:7537   */\n      jump(tag_519)\n        /* \"#utility.yul\":6623:7286   */\n    tag_520:\n        /* \"#utility.yul\":5451:5452   */\n      0x00\n        /* \"#utility.yul\":5444:5458   */\n      dup6\n      dup2\n      mstore\n        /* \"#utility.yul\":5488:5492   */\n      0x20\n        /* \"#utility.yul\":5475:5493   */\n      dup2\n      keccak256\n      not(0x1f)\n        /* \"#utility.yul\":6659:6679   */\n      dup7\n      and\n      swap2\n        /* \"#utility.yul\":6777:7013   */\n    tag_524:\n        /* \"#utility.yul\":6791:6798   */\n      dup3\n        /* \"#utility.yul\":6788:6789   */\n      dup2\n        /* \"#utility.yul\":6785:6799   */\n      lt\n        /* \"#utility.yul\":6777:7013   */\n      iszero\n      tag_526\n      jumpi\n        /* \"#utility.yul\":6880:6899   */\n      dup9\n      dup7\n      add\n        /* \"#utility.yul\":6874:6900   */\n      mload\n        /* \"#utility.yul\":6859:6901   */\n      dup3\n      sstore\n        /* \"#utility.yul\":6972:6999   */\n      swap5\n      dup5\n      add\n      swap5\n        /* \"#utility.yul\":6940:6941   */\n      0x01\n        /* \"#utility.yul\":6928:6942   */\n      swap1\n      swap2\n      add\n      swap1\n        /* \"#utility.yul\":6807:6826   */\n      dup5\n      add\n        /* \"#utility.yul\":6777:7013   */\n      jump(tag_524)\n    tag_526:\n        /* \"#utility.yul\":6781:6784   */\n      pop\n        /* \"#utility.yul\":7041:7047   */\n      dup6\n        /* \"#utility.yul\":7032:7039   */\n      dup3\n        /* \"#utility.yul\":7029:7048   */\n      lt\n        /* \"#utility.yul\":7026:7227   */\n      iszero\n      tag_527\n      jumpi\n        /* \"#utility.yul\":7102:7121   */\n      dup8\n      dup6\n      add\n        /* \"#utility.yul\":7096:7122   */\n      mload\n      not(0x00)\n        /* \"#utility.yul\":7185:7186   */\n      0x03\n        /* \"#utility.yul\":7181:7195   */\n      dup9\n      swap1\n      shl\n        /* \"#utility.yul\":7197:7200   */\n      0xf8\n        /* \"#utility.yul\":7177:7201   */\n      and\n        /* \"#utility.yul\":7173:7210   */\n      shr\n        /* \"#utility.yul\":7169:7211   */\n      not\n        /* \"#utility.yul\":7154:7212   */\n      and\n        /* \"#utility.yul\":7139:7213   */\n      dup2\n      sstore\n        /* \"#utility.yul\":7026:7227   */\n    tag_527:\n      pop\n      pop\n        /* \"#utility.yul\":7273:7274   */\n      0x01\n        /* \"#utility.yul\":7264:7270   */\n      dup5\n        /* \"#utility.yul\":7261:7262   */\n      0x01\n        /* \"#utility.yul\":7257:7271   */\n      shl\n        /* \"#utility.yul\":7253:7275   */\n      add\n        /* \"#utility.yul\":7247:7251   */\n      dup6\n        /* \"#utility.yul\":7240:7276   */\n      sstore\n        /* \"#utility.yul\":6593:7537   */\n    tag_519:\n      pop\n      pop\n      pop\n      pop\n        /* \"#utility.yul\":6198:7543   */\n      pop\n      pop\n      jump\t// out\n        /* \"#utility.yul\":7548:7660   */\n    tag_212:\n        /* \"#utility.yul\":7580:7581   */\n      0x00\n        /* \"#utility.yul\":7606:7607   */\n      dup3\n        /* \"#utility.yul\":7596:7631   */\n      tag_530\n      jumpi\n        /* \"#utility.yul\":7611:7629   */\n      tag_530\n      tag_451\n      jump\t// in\n    tag_530:\n      pop\n        /* \"#utility.yul\":7645:7654   */\n      mod\n      swap1\n        /* \"#utility.yul\":7548:7660   */\n      jump\t// out\n        /* \"#utility.yul\":7864:7991   */\n    tag_239:\n        /* \"#utility.yul\":7925:7935   */\n      0x4e487b71\n        /* \"#utility.yul\":7920:7923   */\n      0xe0\n        /* \"#utility.yul\":7916:7936   */\n      shl\n        /* \"#utility.yul\":7913:7914   */\n      0x00\n        /* \"#utility.yul\":7906:7937   */\n      mstore\n        /* \"#utility.yul\":7956:7960   */\n      0x32\n        /* \"#utility.yul\":7953:7954   */\n      0x04\n        /* \"#utility.yul\":7946:7961   */\n      mstore\n        /* \"#utility.yul\":7980:7984   */\n      0x24\n        /* \"#utility.yul\":7977:7978   */\n      0x00\n        /* \"#utility.yul\":7970:7985   */\n      revert\n        /* \"#utility.yul\":10431:10835   */\n    tag_309:\n        /* \"#utility.yul\":10633:10635   */\n      0x20\n        /* \"#utility.yul\":10615:10636   */\n      dup1\n      dup3\n      mstore\n        /* \"#utility.yul\":10672:10674   */\n      0x28\n        /* \"#utility.yul\":10652:10670   */\n      swap1\n      dup3\n      add\n        /* \"#utility.yul\":10645:10675   */\n      mstore\n        /* \"#utility.yul\":10711:10745   */\n      0x5472616e7366657220616d6f756e74206578636565647320746865206d617854\n        /* \"#utility.yul\":10706:10708   */\n      0x40\n        /* \"#utility.yul\":10691:10709   */\n      dup3\n      add\n        /* \"#utility.yul\":10684:10746   */\n      mstore\n      shl(0xc1, 0x3c20b6b7bab73a17)\n        /* \"#utility.yul\":10777:10779   */\n      0x60\n        /* \"#utility.yul\":10762:10780   */\n      dup3\n      add\n        /* \"#utility.yul\":10755:10793   */\n      mstore\n        /* \"#utility.yul\":10825:10828   */\n      0x80\n        /* \"#utility.yul\":10810:10829   */\n      add\n      swap1\n        /* \"#utility.yul\":10431:10835   */\n      jump\t// out\n        /* \"#utility.yul\":11201:11608   */\n    tag_331:\n        /* \"#utility.yul\":11403:11405   */\n      0x20\n        /* \"#utility.yul\":11385:11406   */\n      dup1\n      dup3\n      mstore\n        /* \"#utility.yul\":11442:11444   */\n      0x2b\n        /* \"#utility.yul\":11422:11440   */\n      swap1\n      dup3\n      add\n        /* \"#utility.yul\":11415:11445   */\n      mstore\n        /* \"#utility.yul\":11481:11515   */\n      0x496e697469616c697a61626c653a20636f6e7472616374206973206e6f742069\n        /* \"#utility.yul\":11476:11478   */\n      0x40\n        /* \"#utility.yul\":11461:11479   */\n      dup3\n      add\n        /* \"#utility.yul\":11454:11516   */\n      mstore\n      shl(0xa8, 0x6e697469616c697a696e67)\n        /* \"#utility.yul\":11547:11549   */\n      0x60\n        /* \"#utility.yul\":11532:11550   */\n      dup3\n      add\n        /* \"#utility.yul\":11525:11566   */\n      mstore\n        /* \"#utility.yul\":11598:11601   */\n      0x80\n        /* \"#utility.yul\":11583:11602   */\n      add\n      swap1\n        /* \"#utility.yul\":11201:11608   */\n      jump\t// out\n        /* \"#utility.yul\":11613:11900   */\n    tag_337:\n        /* \"#utility.yul\":11742:11745   */\n      0x00\n        /* \"#utility.yul\":11780:11786   */\n      dup3\n        /* \"#utility.yul\":11774:11787   */\n      mload\n        /* \"#utility.yul\":11796:11862   */\n      tag_543\n        /* \"#utility.yul\":11855:11861   */\n      dup2\n        /* \"#utility.yul\":11850:11853   */\n      dup5\n        /* \"#utility.yul\":11843:11847   */\n      0x20\n        /* \"#utility.yul\":11835:11841   */\n      dup8\n        /* \"#utility.yul\":11831:11848   */\n      add\n        /* \"#utility.yul\":11796:11862   */\n      tag_448\n      jump\t// in\n    tag_543:\n        /* \"#utility.yul\":11878:11894   */\n      swap2\n      swap1\n      swap2\n      add\n      swap3\n        /* \"#utility.yul\":11613:11900   */\n      swap2\n      pop\n      pop\n      jump\t// out\n        /* \"#utility.yul\":12738:12906   */\n    tag_386:\n        /* \"#utility.yul\":12811:12820   */\n      dup1\n      dup3\n      mul\n        /* \"#utility.yul\":12842:12851   */\n      dup2\n      iszero\n        /* \"#utility.yul\":12859:12874   */\n      dup3\n      dup3\n      div\n        /* \"#utility.yul\":12853:12875   */\n      dup5\n      eq\n        /* \"#utility.yul\":12839:12876   */\n      or\n        /* \"#utility.yul\":12829:12900   */\n      tag_151\n      jumpi\n        /* \"#utility.yul\":12880:12898   */\n      tag_151\n      tag_450\n      jump\t// in\n    stop\n    data_ada389e1fc24a8587c776340efb91b36e675792ab631816100d55df0b5cf3cbc ddf252ad1be2c89b69c2b068fc378daa952ba7f163c4a11628f55a4df523b3ef\n\n    auxdata: 0xa2646970667358221220607425d2163f166c2eb888682e1a778ebca45eaea882550e8f989d032ff94c4164736f6c63430008180033\n}\n",
				"bytecode": {
					"linkReferences": {},
					"object": "60806040526072805461ff001916905534801561001a575f80fd5b50611fd2806100285f395ff3fe608060405234801561000f575f80fd5b50600436106101bb575f3560e01c80638129fc1c116100f3578063a457c2d711610093578063af465a271161006e578063af465a27146103ae578063cba0e996146103b7578063dd62ed3e146103e2578063f2fde38b1461041a575f80fd5b8063a457c2d714610380578063a9059cbb14610393578063aae5ddd2146103a6575f80fd5b80638da5cb5b116100ce5780638da5cb5b1461035757806394e107841461036857806395d89b411461037057806397a9d56014610378575f80fd5b80638129fc1c1461033357806383f24c091461033b5780638c0b5e221461034e575f80fd5b80634d09deb31161015e578063658c27a911610139578063658c27a9146102a157806370a08231146102cc578063715018a6146102df57806380da2287146102e9575f80fd5b80634d09deb3146102565780634dacf3f5146102815780635319e78f1461028e575f80fd5b806323b872dd1161019957806323b872dd14610212578063313ce56714610225578063395093511461023a57806345e0b9d41461024d575f80fd5b806306fdde03146101bf578063095ea7b3146101dd57806318160ddd14610200575b5f80fd5b6101c761042d565b6040516101d49190611ba8565b60405180910390f35b6101f06101eb366004611bf0565b6104bd565b60405190151581526020016101d4565b606f545b6040519081526020016101d4565b6101f0610220366004611c18565b6104d3565b60675460405160ff90911681526020016101d4565b6101f0610248366004611bf0565b610523565b61020460705481565b610269610264366004611c51565b610559565b6040516001600160a01b0390911681526020016101d4565b6072546101f09060ff1681565b61020461029c366004611c68565b610581565b6101f06102af366004611c68565b6001600160a01b03165f908152606d602052604090205460ff1690565b6102046102da366004611c68565b610630565b6102e7610679565b005b61031e6102f7366004611c68565b6001600160a01b03165f90815260696020908152604080832054606a909252909120549091565b604080519283526020830191909152016101d4565b6102e761068c565b6102e7610349366004611c88565b61094d565b61020460715481565b6033546001600160a01b0316610269565b610204610968565b6101c7610989565b61031e610998565b6101f061038e366004611bf0565b610a4c565b6101f06103a1366004611bf0565b610a82565b610204610a8e565b610204606f5481565b6101f06103c5366004611c68565b6001600160a01b03165f908152606c602052604090205460ff1690565b6102046103f0366004611ca7565b6001600160a01b039182165f908152606b6020908152604080832093909416825291909152205490565b6102e7610428366004611c68565b610aa9565b60606065805461043c90611cd8565b80601f016020809104026020016040519081016040528092919081815260200182805461046890611cd8565b80156104b35780601f1061048a576101008083540402835291602001916104b3565b820191905f5260205f20905b81548152906001019060200180831161049657829003601f168201915b5050505050905090565b5f6104c9338484610b1f565b5060015b92915050565b5f6104df848484610c42565b6001600160a01b0384165f908152606b6020908152604080832033808552925290912054610519918691610514908690611d24565b610b1f565b5060019392505050565b335f818152606b602090815260408083206001600160a01b038716845290915281205490916104c9918590610514908690611d37565b60688181548110610568575f80fd5b5f918252602090912001546001600160a01b0316905081565b6001600160a01b0381165f908152606a60205260408120546070548111156106035760405162461bcd60e51b815260206004820152602a60248201527f416d6f756e74206d757374206265206c657373207468616e20746f74616c207260448201526965666c656374696f6e7360b01b60648201526084015b60405180910390fd5b5f61060c610968565b9050815f0361061e57505f9392505050565b6106288183611d5e565b949350505050565b6001600160a01b0381165f908152606c602052604081205460ff161561066b57506001600160a01b03165f9081526069602052604090205490565b6104cd82610581565b919050565b610681610fb1565b61068a5f61100b565b565b5f54610100900460ff16158080156106aa57505f54600160ff909116105b806106c35750303b1580156106c357505f5460ff166001145b6107265760405162461bcd60e51b815260206004820152602e60248201527f496e697469616c697a61626c653a20636f6e747261637420697320616c72656160448201526d191e481a5b9a5d1a585b1a5e995960921b60648201526084016105fa565b5f805460ff191660011790558015610747575f805461ff0019166101001790555b61074f61105c565b60408051808201909152600681526526aa22a9aa2360d11b60208201526065906107799082611dd0565b5060408051808201909152600681526526aa22a9aa2360d11b60208201526066906107a49082611dd0565b506067805460ff191660121790556b204fce5e3e25026110000000606f8190555f19606e8190556107d59190611e90565b606e546107e29190611d24565b6070819055606a5f6107fc6033546001600160a01b031690565b6001600160a01b031681526020808201929092526040015f90812092909255606f54607155606c90527f7febd347df14ea35c529e50fb2dd629d4a6226f5ccc893710fb466f8b83823fc805460ff1990811660019081179092557f8c482e007f935c93984ddf7a647e33ef99566883ffae3563aa616dc14d1632f780548216831790557fb6e99d88b536ae7728c4b89ca5a6073cf06fd2059e0aff5b1a4de2c799d9cb968054821683179055610369909252607280549092161790556108ca6033546001600160a01b031690565b6001600160a01b03165f6001600160a01b03165f80516020611f7d833981519152606f546040516108fd91815260200190565b60405180910390a3801561094a575f805461ff0019169055604051600181527f7f26b83ff96e1f2b6a682f133852f6798a09c465da95921460cefb38474024989060200160405180910390a15b50565b610955610fb1565b6072805460ff1916911515919091179055565b5f805f610973610998565b90925090506109828183611d5e565b9250505090565b60606066805461043c90611cd8565b607054606f545f918291825b606854811015610a4257606a5f606883815481106109c4576109c4611ea3565b5f9182526020808320909101546001600160a01b031683528201929092526040019020546109f29084611d24565b925060695f60688381548110610a0a57610a0a611ea3565b5f9182526020808320909101546001600160a01b03168352820192909252604001902054610a389083611d24565b91506001016109a4565b5090939092509050565b335f818152606b602090815260408083206001600160a01b038716845290915281205490916104c9918590610514908690611d24565b5f6104c9338484610c42565b5f600a610a9a33610630565b610aa49190611d5e565b905090565b610ab1610fb1565b6001600160a01b038116610b165760405162461bcd60e51b815260206004820152602660248201527f4f776e61626c653a206e6577206f776e657220697320746865207a65726f206160448201526564647265737360d01b60648201526084016105fa565b61094a8161100b565b6001600160a01b038316610b815760405162461bcd60e51b8152602060048201526024808201527f45524332303a20617070726f76652066726f6d20746865207a65726f206164646044820152637265737360e01b60648201526084016105fa565b6001600160a01b038216610be25760405162461bcd60e51b815260206004820152602260248201527f45524332303a20617070726f766520746f20746865207a65726f206164647265604482015261737360f01b60648201526084016105fa565b6001600160a01b038381165f818152606b602090815260408083209487168084529482529182902085905590518481527f8c5be1e5ebec7d5bd14f71427d1e84f3dd0314c0f7b2291e5b200ac8c7c3b925910160405180910390a3505050565b607254610100900460ff1615610c56575f80fd5b6072805461ff0019166101001790556001600160a01b038316610cc95760405162461bcd60e51b815260206004820152602560248201527f45524332303a207472616e736665722066726f6d20746865207a65726f206164604482015264647265737360d81b60648201526084016105fa565b6001600160a01b038216610d2b5760405162461bcd60e51b815260206004820152602360248201527f45524332303a207472616e7366657220746f20746865207a65726f206164647260448201526265737360e81b60648201526084016105fa565b5f8111610d8c5760405162461bcd60e51b815260206004820152602960248201527f5472616e7366657220616d6f756e74206d7573742062652067726561746572206044820152687468616e207a65726f60b81b60648201526084016105fa565b610d958361108a565b15156001148015610dbe57506001600160a01b0383165f908152606d602052604090205460ff16155b8015610de257506001600160a01b0383165f908152606c602052604090205460ff16155b15610df957610df083611123565b610df9836111ae565b610e028261108a565b15156001148015610e2b57506001600160a01b0382165f908152606d602052604090205460ff16155b8015610e4f57506001600160a01b0382165f908152606c602052604090205460ff16155b15610e6657610e5d82611123565b610e66826111ae565b6033546001600160a01b03848116911614801590610e9257506033546001600160a01b03838116911614155b15610efe576001600160a01b0383165f908152606d602052604090205460ff16158015610ed757506001600160a01b0382165f908152606d602052604090205460ff16155b15610efe57607154811115610efe5760405162461bcd60e51b81526004016105fa90611eb7565b6033546001600160a01b03848116911614801590610f2a57506033546001600160a01b03838116911614155b15610f96576001600160a01b0383165f908152606d602052604090205460ff16158015610f6f57506001600160a01b0382165f908152606d602052604090205460ff16155b15610f9657607154811115610f965760405162461bcd60e51b81526004016105fa90611eb7565b610fa18383836112ba565b50506072805461ff001916905550565b6033546001600160a01b0316331461068a5760405162461bcd60e51b815260206004820181905260248201527f4f776e61626c653a2063616c6c6572206973206e6f7420746865206f776e657260448201526064016105fa565b603380546001600160a01b038381166001600160a01b0319831681179093556040519116919082907f8be0079c531659141344cd1fd0a4f28419497f9722a3daafe3b4186f6b6457e0905f90a35050565b5f54610100900460ff166110825760405162461bcd60e51b81526004016105fa90611eff565b61068a6113b6565b60408051600481526024810182526020810180516001600160e01b031663c45a015560e01b17905290515f91829182916001600160a01b038616916110cf9190611f4a565b5f60405180830381855afa9150503d805f8114611107576040519150601f19603f3d011682016040523d82523d5f602084013e61110c565b606091505b509150915081801561062857505115159392505050565b6001600160a01b0381165f908152606d602052604090205460ff161561118b5760405162461bcd60e51b815260206004820152601b60248201527f4163636f756e7420697320616c7265616479206578636c75646564000000000060448201526064016105fa565b6001600160a01b03165f908152606d60205260409020805460ff19166001179055565b6001600160a01b0381165f908152606c602052604090205460ff16156112165760405162461bcd60e51b815260206004820152601b60248201527f4163636f756e7420697320616c7265616479206578636c75646564000000000060448201526064016105fa565b6001600160a01b0381165f908152606a6020526040902054156112555761123c81610581565b6001600160a01b0382165f908152606960205260409020555b6001600160a01b03165f818152606c60205260408120805460ff191660019081179091556068805491820181559091527fa2153420d844928b4421650203c77babc8b33d7f2e7b450e2966db0c220977530180546001600160a01b0319169091179055565b6001600160a01b0383165f908152606c602052604090205460ff1680156112f957506001600160a01b0382165f908152606c602052604090205460ff16155b1561130e576113098383836113e5565b505050565b6001600160a01b0383165f908152606c602052604090205460ff1615801561134d57506001600160a01b0382165f908152606c602052604090205460ff165b1561135d5761130983838361164d565b6001600160a01b0383165f908152606c602052604090205460ff16801561139b57506001600160a01b0382165f908152606c602052604090205460ff165b156113ab57611309838383611895565b6113098383836119e9565b5f54610100900460ff166113dc5760405162461bcd60e51b81526004016105fa90611eff565b61068a3361100b565b6113ed611b43565b60725460ff16151560010361148f576103e8606f5461140c9190611d5e565b82111561148f5760405162461bcd60e51b8152602060048201526044602482018190527f43616e6e6f74207075726368617365206d6f7265207468616e2031306d202830908201527f2e312529206f6620737570706c7920696e2073696e676c65207472616e7361636064820152633a34b7b760e11b608482015260a4016105fa565b81815261149a610968565b6114a49083611f65565b60208201525f60408201819052612710906114bf9084611f65565b6114c99190611d5e565b60808201526114d6610968565b81608001516114e59190611f65565b60a08201819052156114fd5760a08101516101008201525b80516001600160a01b0385165f9081526069602052604081208054909190611526908490611d24565b90915550506020808201516001600160a01b0386165f908152606a90925260408220805491929091611559908490611d24565b909155505060a081015160208201516115729190611d24565b6001600160a01b0384165f908152606a602052604081208054909190611599908490611d37565b9091555050610100810151607080545f906115b5908490611d24565b9091555050608081015181516001600160a01b0380861692908716915f80516020611f7d833981519152916115e991611d24565b60405190815260200160405180910390a3805160808201517fe6ef78c5a1f105fc4b9500eeb7cd09b041367bdee35f1d85761735ee78b3ff2e919061162e9082611d24565b604080519283526020830191909152015b60405180910390a150505050565b611655611b43565b600a61166085610581565b61166a9190611d5e565b8211156116df5760405162461bcd60e51b815260206004820152603a60248201527f43616e6e6f742073656c6c206d6f7265207468616e20313025206f662062616c60448201527f616e636520696e2073696e676c65207472616e73616374696f6e00000000000060648201526084016105fa565b8181526116ea610968565b6116f49083611f65565b60208201525f606082018190526127109061170f9084611f65565b6117199190611d5e565b60c0820152611726610968565b8160c001516117359190611f65565b60e082018190521561174d5760e08101516101008201525b8060200151606a5f866001600160a01b03166001600160a01b031681526020019081526020015f205f8282546117839190611d24565b909155505060c081015181516117999190611d24565b6001600160a01b0384165f90815260696020526040812080549091906117c0908490611d37565b909155505060e081015160208201516117d99190611d24565b6001600160a01b0384165f908152606a602052604081208054909190611800908490611d37565b9091555050610100810151607080545f9061181c908490611d24565b909155505060c081015181516001600160a01b0380861692908716915f80516020611f7d8339815191529161185091611d24565b60405190815260200160405180910390a3805160c08201517fff000e16c1c0d33b07404c2b2abb9832356b5cfd57566d73c9d09611f030890d919061162e9082611d24565b61189d611b43565b8181526118a8610968565b6118b29083611f65565b60208083019190915281516001600160a01b0386165f9081526069909252604082208054919290916118e5908490611d24565b90915550506020808201516001600160a01b0386165f908152606a90925260408220805491929091611918908490611d24565b909155505080516001600160a01b0384165f9081526069602052604081208054909190611946908490611d37565b90915550506020808201516001600160a01b0385165f908152606a90925260408220805491929091611979908490611d37565b909155505080516040519081526001600160a01b0384811691908616905f80516020611f7d8339815191529060200160405180910390a380516040805182815260208101929092527f2541109a23d530c06d62a3bf63d8d03107194870126fddb7170c0daef360cd8a910161163f565b6119f1611b43565b670de0b6b3a7640000611a0385610581565b611a0d9190611d24565b821115611a5c5760405162461bcd60e51b815260206004820152601d60248201527f596f7520676f747461206b6565702031204d45544820616c776179732100000060448201526064016105fa565b818152611a67610968565b611a719083611f65565b60208083018290526001600160a01b0386165f908152606a909152604081208054909190611aa0908490611d24565b90915550506020808201516001600160a01b0385165f908152606a90925260408220805491929091611ad3908490611d37565b909155505080516040519081526001600160a01b0384811691908616905f80516020611f7d8339815191529060200160405180910390a380516040805182815260208101929092527fd9923e08d9d88ff7a7e9b8460f3163dc6b887fabe315449da3b5cd16bb5e9340910161163f565b6040518061012001604052805f81526020015f81526020015f81526020015f81526020015f81526020015f81526020015f81526020015f81526020015f81525090565b5f5b83811015611ba0578181015183820152602001611b88565b50505f910152565b602081525f8251806020840152611bc6816040850160208701611b86565b601f01601f19169190910160400192915050565b80356001600160a01b0381168114610674575f80fd5b5f8060408385031215611c01575f80fd5b611c0a83611bda565b946020939093013593505050565b5f805f60608486031215611c2a575f80fd5b611c3384611bda565b9250611c4160208501611bda565b9150604084013590509250925092565b5f60208284031215611c61575f80fd5b5035919050565b5f60208284031215611c78575f80fd5b611c8182611bda565b9392505050565b5f60208284031215611c98575f80fd5b81358015158114611c81575f80fd5b5f8060408385031215611cb8575f80fd5b611cc183611bda565b9150611ccf60208401611bda565b90509250929050565b600181811c90821680611cec57607f821691505b602082108103611d0a57634e487b7160e01b5f52602260045260245ffd5b50919050565b634e487b7160e01b5f52601160045260245ffd5b818103818111156104cd576104cd611d10565b808201808211156104cd576104cd611d10565b634e487b7160e01b5f52601260045260245ffd5b5f82611d6c57611d6c611d4a565b500490565b634e487b7160e01b5f52604160045260245ffd5b601f82111561130957805f5260205f20601f840160051c81016020851015611daa5750805b601f840160051c820191505b81811015611dc9575f8155600101611db6565b5050505050565b815167ffffffffffffffff811115611dea57611dea611d71565b611dfe81611df88454611cd8565b84611d85565b602080601f831160018114611e31575f8415611e1a5750858301515b5f19600386901b1c1916600185901b178555611e88565b5f85815260208120601f198616915b82811015611e5f57888601518255948401946001909101908401611e40565b5085821015611e7c57878501515f19600388901b60f8161c191681555b505060018460011b0185555b505050505050565b5f82611e9e57611e9e611d4a565b500690565b634e487b7160e01b5f52603260045260245ffd5b60208082526028908201527f5472616e7366657220616d6f756e74206578636565647320746865206d6178546040820152673c20b6b7bab73a1760c11b606082015260800190565b6020808252602b908201527f496e697469616c697a61626c653a20636f6e7472616374206973206e6f74206960408201526a6e697469616c697a696e6760a81b606082015260800190565b5f8251611f5b818460208701611b86565b9190910192915050565b80820281158282048414176104cd576104cd611d1056feddf252ad1be2c89b69c2b068fc378daa952ba7f163c4a11628f55a4df523b3efa2646970667358221220607425d2163f166c2eb888682e1a778ebca45eaea882550e8f989d032ff94c4164736f6c63430008180033",
					"opcodes": "PUSH1 0x80 PUSH1 0x40 MSTORE PUSH1 0x72 DUP1 SLOAD PUSH2 0xFF00 NOT AND SWAP1 SSTORE CALLVALUE DUP1 ISZERO PUSH2 0x1A JUMPI PUSH0 DUP1 REVERT JUMPDEST POP PUSH2 0x1FD2 DUP1 PUSH2 0x28 PUSH0 CODECOPY PUSH0 RETURN INVALID PUSH1 0x80 PUSH1 0x40 MSTORE CALLVALUE DUP1 ISZERO PUSH2 0xF JUMPI PUSH0 DUP1 REVERT JUMPDEST POP PUSH1 0x4 CALLDATASIZE LT PUSH2 0x1BB JUMPI PUSH0 CALLDATALOAD PUSH1 0xE0 SHR DUP1 PUSH4 0x8129FC1C GT PUSH2 0xF3 JUMPI DUP1 PUSH4 0xA457C2D7 GT PUSH2 0x93 JUMPI DUP1 PUSH4 0xAF465A27 GT PUSH2 0x6E JUMPI DUP1 PUSH4 0xAF465A27 EQ PUSH2 0x3AE JUMPI DUP1 PUSH4 0xCBA0E996 EQ PUSH2 0x3B7 JUMPI DUP1 PUSH4 0xDD62ED3E EQ PUSH2 0x3E2 JUMPI DUP1 PUSH4 0xF2FDE38B EQ PUSH2 0x41A JUMPI PUSH0 DUP1 REVERT JUMPDEST DUP1 PUSH4 0xA457C2D7 EQ PUSH2 0x380 JUMPI DUP1 PUSH4 0xA9059CBB EQ PUSH2 0x393 JUMPI DUP1 PUSH4 0xAAE5DDD2 EQ PUSH2 0x3A6 JUMPI PUSH0 DUP1 REVERT JUMPDEST DUP1 PUSH4 0x8DA5CB5B GT PUSH2 0xCE JUMPI DUP1 PUSH4 0x8DA5CB5B EQ PUSH2 0x357 JUMPI DUP1 PUSH4 0x94E10784 EQ PUSH2 0x368 JUMPI DUP1 PUSH4 0x95D89B41 EQ PUSH2 0x370 JUMPI DUP1 PUSH4 0x97A9D560 EQ PUSH2 0x378 JUMPI PUSH0 DUP1 REVERT JUMPDEST DUP1 PUSH4 0x8129FC1C EQ PUSH2 0x333 JUMPI DUP1 PUSH4 0x83F24C09 EQ PUSH2 0x33B JUMPI DUP1 PUSH4 0x8C0B5E22 EQ PUSH2 0x34E JUMPI PUSH0 DUP1 REVERT JUMPDEST DUP1 PUSH4 0x4D09DEB3 GT PUSH2 0x15E JUMPI DUP1 PUSH4 0x658C27A9 GT PUSH2 0x139 JUMPI DUP1 PUSH4 0x658C27A9 EQ PUSH2 0x2A1 JUMPI DUP1 PUSH4 0x70A08231 EQ PUSH2 0x2CC JUMPI DUP1 PUSH4 0x715018A6 EQ PUSH2 0x2DF JUMPI DUP1 PUSH4 0x80DA2287 EQ PUSH2 0x2E9 JUMPI PUSH0 DUP1 REVERT JUMPDEST DUP1 PUSH4 0x4D09DEB3 EQ PUSH2 0x256 JUMPI DUP1 PUSH4 0x4DACF3F5 EQ PUSH2 0x281 JUMPI DUP1 PUSH4 0x5319E78F EQ PUSH2 0x28E JUMPI PUSH0 DUP1 REVERT JUMPDEST DUP1 PUSH4 0x23B872DD GT PUSH2 0x199 JUMPI DUP1 PUSH4 0x23B872DD EQ PUSH2 0x212 JUMPI DUP1 PUSH4 0x313CE567 EQ PUSH2 0x225 JUMPI DUP1 PUSH4 0x39509351 EQ PUSH2 0x23A JUMPI DUP1 PUSH4 0x45E0B9D4 EQ PUSH2 0x24D JUMPI PUSH0 DUP1 REVERT JUMPDEST DUP1 PUSH4 0x6FDDE03 EQ PUSH2 0x1BF JUMPI DUP1 PUSH4 0x95EA7B3 EQ PUSH2 0x1DD JUMPI DUP1 PUSH4 0x18160DDD EQ PUSH2 0x200 JUMPI JUMPDEST PUSH0 DUP1 REVERT JUMPDEST PUSH2 0x1C7 PUSH2 0x42D JUMP JUMPDEST PUSH1 0x40 MLOAD PUSH2 0x1D4 SWAP2 SWAP1 PUSH2 0x1BA8 JUMP JUMPDEST PUSH1 0x40 MLOAD DUP1 SWAP2 SUB SWAP1 RETURN JUMPDEST PUSH2 0x1F0 PUSH2 0x1EB CALLDATASIZE PUSH1 0x4 PUSH2 0x1BF0 JUMP JUMPDEST PUSH2 0x4BD JUMP JUMPDEST PUSH1 0x40 MLOAD SWAP1 ISZERO ISZERO DUP2 MSTORE PUSH1 0x20 ADD PUSH2 0x1D4 JUMP JUMPDEST PUSH1 0x6F SLOAD JUMPDEST PUSH1 0x40 MLOAD SWAP1 DUP2 MSTORE PUSH1 0x20 ADD PUSH2 0x1D4 JUMP JUMPDEST PUSH2 0x1F0 PUSH2 0x220 CALLDATASIZE PUSH1 0x4 PUSH2 0x1C18 JUMP JUMPDEST PUSH2 0x4D3 JUMP JUMPDEST PUSH1 0x67 SLOAD PUSH1 0x40 MLOAD PUSH1 0xFF SWAP1 SWAP2 AND DUP2 MSTORE PUSH1 0x20 ADD PUSH2 0x1D4 JUMP JUMPDEST PUSH2 0x1F0 PUSH2 0x248 CALLDATASIZE PUSH1 0x4 PUSH2 0x1BF0 JUMP JUMPDEST PUSH2 0x523 JUMP JUMPDEST PUSH2 0x204 PUSH1 0x70 SLOAD DUP2 JUMP JUMPDEST PUSH2 0x269 PUSH2 0x264 CALLDATASIZE PUSH1 0x4 PUSH2 0x1C51 JUMP JUMPDEST PUSH2 0x559 JUMP JUMPDEST PUSH1 0x40 MLOAD PUSH1 0x1 PUSH1 0x1 PUSH1 0xA0 SHL SUB SWAP1 SWAP2 AND DUP2 MSTORE PUSH1 0x20 ADD PUSH2 0x1D4 JUMP JUMPDEST PUSH1 0x72 SLOAD PUSH2 0x1F0 SWAP1 PUSH1 0xFF AND DUP2 JUMP JUMPDEST PUSH2 0x204 PUSH2 0x29C CALLDATASIZE PUSH1 0x4 PUSH2 0x1C68 JUMP JUMPDEST PUSH2 0x581 JUMP JUMPDEST PUSH2 0x1F0 PUSH2 0x2AF CALLDATASIZE PUSH1 0x4 PUSH2 0x1C68 JUMP JUMPDEST PUSH1 0x1 PUSH1 0x1 PUSH1 0xA0 SHL SUB AND PUSH0 SWAP1 DUP2 MSTORE PUSH1 0x6D PUSH1 0x20 MSTORE PUSH1 0x40 SWAP1 KECCAK256 SLOAD PUSH1 0xFF AND SWAP1 JUMP JUMPDEST PUSH2 0x204 PUSH2 0x2DA CALLDATASIZE PUSH1 0x4 PUSH2 0x1C68 JUMP JUMPDEST PUSH2 0x630 JUMP JUMPDEST PUSH2 0x2E7 PUSH2 0x679 JUMP JUMPDEST STOP JUMPDEST PUSH2 0x31E PUSH2 0x2F7 CALLDATASIZE PUSH1 0x4 PUSH2 0x1C68 JUMP JUMPDEST PUSH1 0x1 PUSH1 0x1 PUSH1 0xA0 SHL SUB AND PUSH0 SWAP1 DUP2 MSTORE PUSH1 0x69 PUSH1 0x20 SWAP1 DUP2 MSTORE PUSH1 0x40 DUP1 DUP4 KECCAK256 SLOAD PUSH1 0x6A SWAP1 SWAP3 MSTORE SWAP1 SWAP2 KECCAK256 SLOAD SWAP1 SWAP2 JUMP JUMPDEST PUSH1 0x40 DUP1 MLOAD SWAP3 DUP4 MSTORE PUSH1 0x20 DUP4 ADD SWAP2 SWAP1 SWAP2 MSTORE ADD PUSH2 0x1D4 JUMP JUMPDEST PUSH2 0x2E7 PUSH2 0x68C JUMP JUMPDEST PUSH2 0x2E7 PUSH2 0x349 CALLDATASIZE PUSH1 0x4 PUSH2 0x1C88 JUMP JUMPDEST PUSH2 0x94D JUMP JUMPDEST PUSH2 0x204 PUSH1 0x71 SLOAD DUP2 JUMP JUMPDEST PUSH1 0x33 SLOAD PUSH1 0x1 PUSH1 0x1 PUSH1 0xA0 SHL SUB AND PUSH2 0x269 JUMP JUMPDEST PUSH2 0x204 PUSH2 0x968 JUMP JUMPDEST PUSH2 0x1C7 PUSH2 0x989 JUMP JUMPDEST PUSH2 0x31E PUSH2 0x998 JUMP JUMPDEST PUSH2 0x1F0 PUSH2 0x38E CALLDATASIZE PUSH1 0x4 PUSH2 0x1BF0 JUMP JUMPDEST PUSH2 0xA4C JUMP JUMPDEST PUSH2 0x1F0 PUSH2 0x3A1 CALLDATASIZE PUSH1 0x4 PUSH2 0x1BF0 JUMP JUMPDEST PUSH2 0xA82 JUMP JUMPDEST PUSH2 0x204 PUSH2 0xA8E JUMP JUMPDEST PUSH2 0x204 PUSH1 0x6F SLOAD DUP2 JUMP JUMPDEST PUSH2 0x1F0 PUSH2 0x3C5 CALLDATASIZE PUSH1 0x4 PUSH2 0x1C68 JUMP JUMPDEST PUSH1 0x1 PUSH1 0x1 PUSH1 0xA0 SHL SUB AND PUSH0 SWAP1 DUP2 MSTORE PUSH1 0x6C PUSH1 0x20 MSTORE PUSH1 0x40 SWAP1 KECCAK256 SLOAD PUSH1 0xFF AND SWAP1 JUMP JUMPDEST PUSH2 0x204 PUSH2 0x3F0 CALLDATASIZE PUSH1 0x4 PUSH2 0x1CA7 JUMP JUMPDEST PUSH1 0x1 PUSH1 0x1 PUSH1 0xA0 SHL SUB SWAP2 DUP3 AND PUSH0 SWAP1 DUP2 MSTORE PUSH1 0x6B PUSH1 0x20 SWAP1 DUP2 MSTORE PUSH1 0x40 DUP1 DUP4 KECCAK256 SWAP4 SWAP1 SWAP5 AND DUP3 MSTORE SWAP2 SWAP1 SWAP2 MSTORE KECCAK256 SLOAD SWAP1 JUMP JUMPDEST PUSH2 0x2E7 PUSH2 0x428 CALLDATASIZE PUSH1 0x4 PUSH2 0x1C68 JUMP JUMPDEST PUSH2 0xAA9 JUMP JUMPDEST PUSH1 0x60 PUSH1 0x65 DUP1 SLOAD PUSH2 0x43C SWAP1 PUSH2 0x1CD8 JUMP JUMPDEST DUP1 PUSH1 0x1F ADD PUSH1 0x20 DUP1 SWAP2 DIV MUL PUSH1 0x20 ADD PUSH1 0x40 MLOAD SWAP1 DUP2 ADD PUSH1 0x40 MSTORE DUP1 SWAP3 SWAP2 SWAP1 DUP2 DUP2 MSTORE PUSH1 0x20 ADD DUP3 DUP1 SLOAD PUSH2 0x468 SWAP1 PUSH2 0x1CD8 JUMP JUMPDEST DUP1 ISZERO PUSH2 0x4B3 JUMPI DUP1 PUSH1 0x1F LT PUSH2 0x48A JUMPI PUSH2 0x100 DUP1 DUP4 SLOAD DIV MUL DUP4 MSTORE SWAP2 PUSH1 0x20 ADD SWAP2 PUSH2 0x4B3 JUMP JUMPDEST DUP3 ADD SWAP2 SWAP1 PUSH0 MSTORE PUSH1 0x20 PUSH0 KECCAK256 SWAP1 JUMPDEST DUP2 SLOAD DUP2 MSTORE SWAP1 PUSH1 0x1 ADD SWAP1 PUSH1 0x20 ADD DUP1 DUP4 GT PUSH2 0x496 JUMPI DUP3 SWAP1 SUB PUSH1 0x1F AND DUP3 ADD SWAP2 JUMPDEST POP POP POP POP POP SWAP1 POP SWAP1 JUMP JUMPDEST PUSH0 PUSH2 0x4C9 CALLER DUP5 DUP5 PUSH2 0xB1F JUMP JUMPDEST POP PUSH1 0x1 JUMPDEST SWAP3 SWAP2 POP POP JUMP JUMPDEST PUSH0 PUSH2 0x4DF DUP5 DUP5 DUP5 PUSH2 0xC42 JUMP JUMPDEST PUSH1 0x1 PUSH1 0x1 PUSH1 0xA0 SHL SUB DUP5 AND PUSH0 SWAP1 DUP2 MSTORE PUSH1 0x6B PUSH1 0x20 SWAP1 DUP2 MSTORE PUSH1 0x40 DUP1 DUP4 KECCAK256 CALLER DUP1 DUP6 MSTORE SWAP3 MSTORE SWAP1 SWAP2 KECCAK256 SLOAD PUSH2 0x519 SWAP2 DUP7 SWAP2 PUSH2 0x514 SWAP1 DUP7 SWAP1 PUSH2 0x1D24 JUMP JUMPDEST PUSH2 0xB1F JUMP JUMPDEST POP PUSH1 0x1 SWAP4 SWAP3 POP POP POP JUMP JUMPDEST CALLER PUSH0 DUP2 DUP2 MSTORE PUSH1 0x6B PUSH1 0x20 SWAP1 DUP2 MSTORE PUSH1 0x40 DUP1 DUP4 KECCAK256 PUSH1 0x1 PUSH1 0x1 PUSH1 0xA0 SHL SUB DUP8 AND DUP5 MSTORE SWAP1 SWAP2 MSTORE DUP2 KECCAK256 SLOAD SWAP1 SWAP2 PUSH2 0x4C9 SWAP2 DUP6 SWAP1 PUSH2 0x514 SWAP1 DUP7 SWAP1 PUSH2 0x1D37 JUMP JUMPDEST PUSH1 0x68 DUP2 DUP2 SLOAD DUP2 LT PUSH2 0x568 JUMPI PUSH0 DUP1 REVERT JUMPDEST PUSH0 SWAP2 DUP3 MSTORE PUSH1 0x20 SWAP1 SWAP2 KECCAK256 ADD SLOAD PUSH1 0x1 PUSH1 0x1 PUSH1 0xA0 SHL SUB AND SWAP1 POP DUP2 JUMP JUMPDEST PUSH1 0x1 PUSH1 0x1 PUSH1 0xA0 SHL SUB DUP2 AND PUSH0 SWAP1 DUP2 MSTORE PUSH1 0x6A PUSH1 0x20 MSTORE PUSH1 0x40 DUP2 KECCAK256 SLOAD PUSH1 0x70 SLOAD DUP2 GT ISZERO PUSH2 0x603 JUMPI PUSH1 0x40 MLOAD PUSH3 0x461BCD PUSH1 0xE5 SHL DUP2 MSTORE PUSH1 0x20 PUSH1 0x4 DUP3 ADD MSTORE PUSH1 0x2A PUSH1 0x24 DUP3 ADD MSTORE PUSH32 0x416D6F756E74206D757374206265206C657373207468616E20746F74616C2072 PUSH1 0x44 DUP3 ADD MSTORE PUSH10 0x65666C656374696F6E73 PUSH1 0xB0 SHL PUSH1 0x64 DUP3 ADD MSTORE PUSH1 0x84 ADD JUMPDEST PUSH1 0x40 MLOAD DUP1 SWAP2 SUB SWAP1 REVERT JUMPDEST PUSH0 PUSH2 0x60C PUSH2 0x968 JUMP JUMPDEST SWAP1 POP DUP2 PUSH0 SUB PUSH2 0x61E JUMPI POP PUSH0 SWAP4 SWAP3 POP POP POP JUMP JUMPDEST PUSH2 0x628 DUP2 DUP4 PUSH2 0x1D5E JUMP JUMPDEST SWAP5 SWAP4 POP POP POP POP JUMP JUMPDEST PUSH1 0x1 PUSH1 0x1 PUSH1 0xA0 SHL SUB DUP2 AND PUSH0 SWAP1 DUP2 MSTORE PUSH1 0x6C PUSH1 0x20 MSTORE PUSH1 0x40 DUP2 KECCAK256 SLOAD PUSH1 0xFF AND ISZERO PUSH2 0x66B JUMPI POP PUSH1 0x1 PUSH1 0x1 PUSH1 0xA0 SHL SUB AND PUSH0 SWAP1 DUP2 MSTORE PUSH1 0x69 PUSH1 0x20 MSTORE PUSH1 0x40 SWAP1 KECCAK256 SLOAD SWAP1 JUMP JUMPDEST PUSH2 0x4CD DUP3 PUSH2 0x581 JUMP JUMPDEST SWAP2 SWAP1 POP JUMP JUMPDEST PUSH2 0x681 PUSH2 0xFB1 JUMP JUMPDEST PUSH2 0x68A PUSH0 PUSH2 0x100B JUMP JUMPDEST JUMP JUMPDEST PUSH0 SLOAD PUSH2 0x100 SWAP1 DIV PUSH1 0xFF AND ISZERO DUP1 DUP1 ISZERO PUSH2 0x6AA JUMPI POP PUSH0 SLOAD PUSH1 0x1 PUSH1 0xFF SWAP1 SWAP2 AND LT JUMPDEST DUP1 PUSH2 0x6C3 JUMPI POP ADDRESS EXTCODESIZE ISZERO DUP1 ISZERO PUSH2 0x6C3 JUMPI POP PUSH0 SLOAD PUSH1 0xFF AND PUSH1 0x1 EQ JUMPDEST PUSH2 0x726 JUMPI PUSH1 0x40 MLOAD PUSH3 0x461BCD PUSH1 0xE5 SHL DUP2 MSTORE PUSH1 0x20 PUSH1 0x4 DUP3 ADD MSTORE PUSH1 0x2E PUSH1 0x24 DUP3 ADD MSTORE PUSH32 0x496E697469616C697A61626C653A20636F6E747261637420697320616C726561 PUSH1 0x44 DUP3 ADD MSTORE PUSH14 0x191E481A5B9A5D1A585B1A5E9959 PUSH1 0x92 SHL PUSH1 0x64 DUP3 ADD MSTORE PUSH1 0x84 ADD PUSH2 0x5FA JUMP JUMPDEST PUSH0 DUP1 SLOAD PUSH1 0xFF NOT AND PUSH1 0x1 OR SWAP1 SSTORE DUP1 ISZERO PUSH2 0x747 JUMPI PUSH0 DUP1 SLOAD PUSH2 0xFF00 NOT AND PUSH2 0x100 OR SWAP1 SSTORE JUMPDEST PUSH2 0x74F PUSH2 0x105C JUMP JUMPDEST PUSH1 0x40 DUP1 MLOAD DUP1 DUP3 ADD SWAP1 SWAP2 MSTORE PUSH1 0x6 DUP2 MSTORE PUSH6 0x26AA22A9AA23 PUSH1 0xD1 SHL PUSH1 0x20 DUP3 ADD MSTORE PUSH1 0x65 SWAP1 PUSH2 0x779 SWAP1 DUP3 PUSH2 0x1DD0 JUMP JUMPDEST POP PUSH1 0x40 DUP1 MLOAD DUP1 DUP3 ADD SWAP1 SWAP2 MSTORE PUSH1 0x6 DUP2 MSTORE PUSH6 0x26AA22A9AA23 PUSH1 0xD1 SHL PUSH1 0x20 DUP3 ADD MSTORE PUSH1 0x66 SWAP1 PUSH2 0x7A4 SWAP1 DUP3 PUSH2 0x1DD0 JUMP JUMPDEST POP PUSH1 0x67 DUP1 SLOAD PUSH1 0xFF NOT AND PUSH1 0x12 OR SWAP1 SSTORE PUSH12 0x204FCE5E3E25026110000000 PUSH1 0x6F DUP2 SWAP1 SSTORE PUSH0 NOT PUSH1 0x6E DUP2 SWAP1 SSTORE PUSH2 0x7D5 SWAP2 SWAP1 PUSH2 0x1E90 JUMP JUMPDEST PUSH1 0x6E SLOAD PUSH2 0x7E2 SWAP2 SWAP1 PUSH2 0x1D24 JUMP JUMPDEST PUSH1 0x70 DUP2 SWAP1 SSTORE PUSH1 0x6A PUSH0 PUSH2 0x7FC PUSH1 0x33 SLOAD PUSH1 0x1 PUSH1 0x1 PUSH1 0xA0 SHL SUB AND SWAP1 JUMP JUMPDEST PUSH1 0x1 PUSH1 0x1 PUSH1 0xA0 SHL SUB AND DUP2 MSTORE PUSH1 0x20 DUP1 DUP3 ADD SWAP3 SWAP1 SWAP3 MSTORE PUSH1 0x40 ADD PUSH0 SWAP1 DUP2 KECCAK256 SWAP3 SWAP1 SWAP3 SSTORE PUSH1 0x6F SLOAD PUSH1 0x71 SSTORE PUSH1 0x6C SWAP1 MSTORE PUSH32 0x7FEBD347DF14EA35C529E50FB2DD629D4A6226F5CCC893710FB466F8B83823FC DUP1 SLOAD PUSH1 0xFF NOT SWAP1 DUP2 AND PUSH1 0x1 SWAP1 DUP2 OR SWAP1 SWAP3 SSTORE PUSH32 0x8C482E007F935C93984DDF7A647E33EF99566883FFAE3563AA616DC14D1632F7 DUP1 SLOAD DUP3 AND DUP4 OR SWAP1 SSTORE PUSH32 0xB6E99D88B536AE7728C4B89CA5A6073CF06FD2059E0AFF5B1A4DE2C799D9CB96 DUP1 SLOAD DUP3 AND DUP4 OR SWAP1 SSTORE PUSH2 0x369 SWAP1 SWAP3 MSTORE PUSH1 0x72 DUP1 SLOAD SWAP1 SWAP3 AND OR SWAP1 SSTORE PUSH2 0x8CA PUSH1 0x33 SLOAD PUSH1 0x1 PUSH1 0x1 PUSH1 0xA0 SHL SUB AND SWAP1 JUMP JUMPDEST PUSH1 0x1 PUSH1 0x1 PUSH1 0xA0 SHL SUB AND PUSH0 PUSH1 0x1 PUSH1 0x1 PUSH1 0xA0 SHL SUB AND PUSH0 DUP1 MLOAD PUSH1 0x20 PUSH2 0x1F7D DUP4 CODECOPY DUP2 MLOAD SWAP2 MSTORE PUSH1 0x6F SLOAD PUSH1 0x40 MLOAD PUSH2 0x8FD SWAP2 DUP2 MSTORE PUSH1 0x20 ADD SWAP1 JUMP JUMPDEST PUSH1 0x40 MLOAD DUP1 SWAP2 SUB SWAP1 LOG3 DUP1 ISZERO PUSH2 0x94A JUMPI PUSH0 DUP1 SLOAD PUSH2 0xFF00 NOT AND SWAP1 SSTORE PUSH1 0x40 MLOAD PUSH1 0x1 DUP2 MSTORE PUSH32 0x7F26B83FF96E1F2B6A682F133852F6798A09C465DA95921460CEFB3847402498 SWAP1 PUSH1 0x20 ADD PUSH1 0x40 MLOAD DUP1 SWAP2 SUB SWAP1 LOG1 JUMPDEST POP JUMP JUMPDEST PUSH2 0x955 PUSH2 0xFB1 JUMP JUMPDEST PUSH1 0x72 DUP1 SLOAD PUSH1 0xFF NOT AND SWAP2 ISZERO ISZERO SWAP2 SWAP1 SWAP2 OR SWAP1 SSTORE JUMP JUMPDEST PUSH0 DUP1 PUSH0 PUSH2 0x973 PUSH2 0x998 JUMP JUMPDEST SWAP1 SWAP3 POP SWAP1 POP PUSH2 0x982 DUP2 DUP4 PUSH2 0x1D5E JUMP JUMPDEST SWAP3 POP POP POP SWAP1 JUMP JUMPDEST PUSH1 0x60 PUSH1 0x66 DUP1 SLOAD PUSH2 0x43C SWAP1 PUSH2 0x1CD8 JUMP JUMPDEST PUSH1 0x70 SLOAD PUSH1 0x6F SLOAD PUSH0 SWAP2 DUP3 SWAP2 DUP3 JUMPDEST PUSH1 0x68 SLOAD DUP2 LT ISZERO PUSH2 0xA42 JUMPI PUSH1 0x6A PUSH0 PUSH1 0x68 DUP4 DUP2 SLOAD DUP2 LT PUSH2 0x9C4 JUMPI PUSH2 0x9C4 PUSH2 0x1EA3 JUMP JUMPDEST PUSH0 SWAP2 DUP3 MSTORE PUSH1 0x20 DUP1 DUP4 KECCAK256 SWAP1 SWAP2 ADD SLOAD PUSH1 0x1 PUSH1 0x1 PUSH1 0xA0 SHL SUB AND DUP4 MSTORE DUP3 ADD SWAP3 SWAP1 SWAP3 MSTORE PUSH1 0x40 ADD SWAP1 KECCAK256 SLOAD PUSH2 0x9F2 SWAP1 DUP5 PUSH2 0x1D24 JUMP JUMPDEST SWAP3 POP PUSH1 0x69 PUSH0 PUSH1 0x68 DUP4 DUP2 SLOAD DUP2 LT PUSH2 0xA0A JUMPI PUSH2 0xA0A PUSH2 0x1EA3 JUMP JUMPDEST PUSH0 SWAP2 DUP3 MSTORE PUSH1 0x20 DUP1 DUP4 KECCAK256 SWAP1 SWAP2 ADD SLOAD PUSH1 0x1 PUSH1 0x1 PUSH1 0xA0 SHL SUB AND DUP4 MSTORE DUP3 ADD SWAP3 SWAP1 SWAP3 MSTORE PUSH1 0x40 ADD SWAP1 KECCAK256 SLOAD PUSH2 0xA38 SWAP1 DUP4 PUSH2 0x1D24 JUMP JUMPDEST SWAP2 POP PUSH1 0x1 ADD PUSH2 0x9A4 JUMP JUMPDEST POP SWAP1 SWAP4 SWAP1 SWAP3 POP SWAP1 POP JUMP JUMPDEST CALLER PUSH0 DUP2 DUP2 MSTORE PUSH1 0x6B PUSH1 0x20 SWAP1 DUP2 MSTORE PUSH1 0x40 DUP1 DUP4 KECCAK256 PUSH1 0x1 PUSH1 0x1 PUSH1 0xA0 SHL SUB DUP8 AND DUP5 MSTORE SWAP1 SWAP2 MSTORE DUP2 KECCAK256 SLOAD SWAP1 SWAP2 PUSH2 0x4C9 SWAP2 DUP6 SWAP1 PUSH2 0x514 SWAP1 DUP7 SWAP1 PUSH2 0x1D24 JUMP JUMPDEST PUSH0 PUSH2 0x4C9 CALLER DUP5 DUP5 PUSH2 0xC42 JUMP JUMPDEST PUSH0 PUSH1 0xA PUSH2 0xA9A CALLER PUSH2 0x630 JUMP JUMPDEST PUSH2 0xAA4 SWAP2 SWAP1 PUSH2 0x1D5E JUMP JUMPDEST SWAP1 POP SWAP1 JUMP JUMPDEST PUSH2 0xAB1 PUSH2 0xFB1 JUMP JUMPDEST PUSH1 0x1 PUSH1 0x1 PUSH1 0xA0 SHL SUB DUP2 AND PUSH2 0xB16 JUMPI PUSH1 0x40 MLOAD PUSH3 0x461BCD PUSH1 0xE5 SHL DUP2 MSTORE PUSH1 0x20 PUSH1 0x4 DUP3 ADD MSTORE PUSH1 0x26 PUSH1 0x24 DUP3 ADD MSTORE PUSH32 0x4F776E61626C653A206E6577206F776E657220697320746865207A65726F2061 PUSH1 0x44 DUP3 ADD MSTORE PUSH6 0x646472657373 PUSH1 0xD0 SHL PUSH1 0x64 DUP3 ADD MSTORE PUSH1 0x84 ADD PUSH2 0x5FA JUMP JUMPDEST PUSH2 0x94A DUP2 PUSH2 0x100B JUMP JUMPDEST PUSH1 0x1 PUSH1 0x1 PUSH1 0xA0 SHL SUB DUP4 AND PUSH2 0xB81 JUMPI PUSH1 0x40 MLOAD PUSH3 0x461BCD PUSH1 0xE5 SHL DUP2 MSTORE PUSH1 0x20 PUSH1 0x4 DUP3 ADD MSTORE PUSH1 0x24 DUP1 DUP3 ADD MSTORE PUSH32 0x45524332303A20617070726F76652066726F6D20746865207A65726F20616464 PUSH1 0x44 DUP3 ADD MSTORE PUSH4 0x72657373 PUSH1 0xE0 SHL PUSH1 0x64 DUP3 ADD MSTORE PUSH1 0x84 ADD PUSH2 0x5FA JUMP JUMPDEST PUSH1 0x1 PUSH1 0x1 PUSH1 0xA0 SHL SUB DUP3 AND PUSH2 0xBE2 JUMPI PUSH1 0x40 MLOAD PUSH3 0x461BCD PUSH1 0xE5 SHL DUP2 MSTORE PUSH1 0x20 PUSH1 0x4 DUP3 ADD MSTORE PUSH1 0x22 PUSH1 0x24 DUP3 ADD MSTORE PUSH32 0x45524332303A20617070726F766520746F20746865207A65726F206164647265 PUSH1 0x44 DUP3 ADD MSTORE PUSH2 0x7373 PUSH1 0xF0 SHL PUSH1 0x64 DUP3 ADD MSTORE PUSH1 0x84 ADD PUSH2 0x5FA JUMP JUMPDEST PUSH1 0x1 PUSH1 0x1 PUSH1 0xA0 SHL SUB DUP4 DUP2 AND PUSH0 DUP2 DUP2 MSTORE PUSH1 0x6B PUSH1 0x20 SWAP1 DUP2 MSTORE PUSH1 0x40 DUP1 DUP4 KECCAK256 SWAP5 DUP8 AND DUP1 DUP5 MSTORE SWAP5 DUP3 MSTORE SWAP2 DUP3 SWAP1 KECCAK256 DUP6 SWAP1 SSTORE SWAP1 MLOAD DUP5 DUP2 MSTORE PUSH32 0x8C5BE1E5EBEC7D5BD14F71427D1E84F3DD0314C0F7B2291E5B200AC8C7C3B925 SWAP2 ADD PUSH1 0x40 MLOAD DUP1 SWAP2 SUB SWAP1 LOG3 POP POP POP JUMP JUMPDEST PUSH1 0x72 SLOAD PUSH2 0x100 SWAP1 DIV PUSH1 0xFF AND ISZERO PUSH2 0xC56 JUMPI PUSH0 DUP1 REVERT JUMPDEST PUSH1 0x72 DUP1 SLOAD PUSH2 0xFF00 NOT AND PUSH2 0x100 OR SWAP1 SSTORE PUSH1 0x1 PUSH1 0x1 PUSH1 0xA0 SHL SUB DUP4 AND PUSH2 0xCC9 JUMPI PUSH1 0x40 MLOAD PUSH3 0x461BCD PUSH1 0xE5 SHL DUP2 MSTORE PUSH1 0x20 PUSH1 0x4 DUP3 ADD MSTORE PUSH1 0x25 PUSH1 0x24 DUP3 ADD MSTORE PUSH32 0x45524332303A207472616E736665722066726F6D20746865207A65726F206164 PUSH1 0x44 DUP3 ADD MSTORE PUSH5 0x6472657373 PUSH1 0xD8 SHL PUSH1 0x64 DUP3 ADD MSTORE PUSH1 0x84 ADD PUSH2 0x5FA JUMP JUMPDEST PUSH1 0x1 PUSH1 0x1 PUSH1 0xA0 SHL SUB DUP3 AND PUSH2 0xD2B JUMPI PUSH1 0x40 MLOAD PUSH3 0x461BCD PUSH1 0xE5 SHL DUP2 MSTORE PUSH1 0x20 PUSH1 0x4 DUP3 ADD MSTORE PUSH1 0x23 PUSH1 0x24 DUP3 ADD MSTORE PUSH32 0x45524332303A207472616E7366657220746F20746865207A65726F2061646472 PUSH1 0x44 DUP3 ADD MSTORE PUSH3 0x657373 PUSH1 0xE8 SHL PUSH1 0x64 DUP3 ADD MSTORE PUSH1 0x84 ADD PUSH2 0x5FA JUMP JUMPDEST PUSH0 DUP2 GT PUSH2 0xD8C JUMPI PUSH1 0x40 MLOAD PUSH3 0x461BCD PUSH1 0xE5 SHL DUP2 MSTORE PUSH1 0x20 PUSH1 0x4 DUP3 ADD MSTORE PUSH1 0x29 PUSH1 0x24 DUP3 ADD MSTORE PUSH32 0x5472616E7366657220616D6F756E74206D757374206265206772656174657220 PUSH1 0x44 DUP3 ADD MSTORE PUSH9 0x7468616E207A65726F PUSH1 0xB8 SHL PUSH1 0x64 DUP3 ADD MSTORE PUSH1 0x84 ADD PUSH2 0x5FA JUMP JUMPDEST PUSH2 0xD95 DUP4 PUSH2 0x108A JUMP JUMPDEST ISZERO ISZERO PUSH1 0x1 EQ DUP1 ISZERO PUSH2 0xDBE JUMPI POP PUSH1 0x1 PUSH1 0x1 PUSH1 0xA0 SHL SUB DUP4 AND PUSH0 SWAP1 DUP2 MSTORE PUSH1 0x6D PUSH1 0x20 MSTORE PUSH1 0x40 SWAP1 KECCAK256 SLOAD PUSH1 0xFF AND ISZERO JUMPDEST DUP1 ISZERO PUSH2 0xDE2 JUMPI POP PUSH1 0x1 PUSH1 0x1 PUSH1 0xA0 SHL SUB DUP4 AND PUSH0 SWAP1 DUP2 MSTORE PUSH1 0x6C PUSH1 0x20 MSTORE PUSH1 0x40 SWAP1 KECCAK256 SLOAD PUSH1 0xFF AND ISZERO JUMPDEST ISZERO PUSH2 0xDF9 JUMPI PUSH2 0xDF0 DUP4 PUSH2 0x1123 JUMP JUMPDEST PUSH2 0xDF9 DUP4 PUSH2 0x11AE JUMP JUMPDEST PUSH2 0xE02 DUP3 PUSH2 0x108A JUMP JUMPDEST ISZERO ISZERO PUSH1 0x1 EQ DUP1 ISZERO PUSH2 0xE2B JUMPI POP PUSH1 0x1 PUSH1 0x1 PUSH1 0xA0 SHL SUB DUP3 AND PUSH0 SWAP1 DUP2 MSTORE PUSH1 0x6D PUSH1 0x20 MSTORE PUSH1 0x40 SWAP1 KECCAK256 SLOAD PUSH1 0xFF AND ISZERO JUMPDEST DUP1 ISZERO PUSH2 0xE4F JUMPI POP PUSH1 0x1 PUSH1 0x1 PUSH1 0xA0 SHL SUB DUP3 AND PUSH0 SWAP1 DUP2 MSTORE PUSH1 0x6C PUSH1 0x20 MSTORE PUSH1 0x40 SWAP1 KECCAK256 SLOAD PUSH1 0xFF AND ISZERO JUMPDEST ISZERO PUSH2 0xE66 JUMPI PUSH2 0xE5D DUP3 PUSH2 0x1123 JUMP JUMPDEST PUSH2 0xE66 DUP3 PUSH2 0x11AE JUMP JUMPDEST PUSH1 0x33 SLOAD PUSH1 0x1 PUSH1 0x1 PUSH1 0xA0 SHL SUB DUP5 DUP2 AND SWAP2 AND EQ DUP1 ISZERO SWAP1 PUSH2 0xE92 JUMPI POP PUSH1 0x33 SLOAD PUSH1 0x1 PUSH1 0x1 PUSH1 0xA0 SHL SUB DUP4 DUP2 AND SWAP2 AND EQ ISZERO JUMPDEST ISZERO PUSH2 0xEFE JUMPI PUSH1 0x1 PUSH1 0x1 PUSH1 0xA0 SHL SUB DUP4 AND PUSH0 SWAP1 DUP2 MSTORE PUSH1 0x6D PUSH1 0x20 MSTORE PUSH1 0x40 SWAP1 KECCAK256 SLOAD PUSH1 0xFF AND ISZERO DUP1 ISZERO PUSH2 0xED7 JUMPI POP PUSH1 0x1 PUSH1 0x1 PUSH1 0xA0 SHL SUB DUP3 AND PUSH0 SWAP1 DUP2 MSTORE PUSH1 0x6D PUSH1 0x20 MSTORE PUSH1 0x40 SWAP1 KECCAK256 SLOAD PUSH1 0xFF AND ISZERO JUMPDEST ISZERO PUSH2 0xEFE JUMPI PUSH1 0x71 SLOAD DUP2 GT ISZERO PUSH2 0xEFE JUMPI PUSH1 0x40 MLOAD PUSH3 0x461BCD PUSH1 0xE5 SHL DUP2 MSTORE PUSH1 0x4 ADD PUSH2 0x5FA SWAP1 PUSH2 0x1EB7 JUMP JUMPDEST PUSH1 0x33 SLOAD PUSH1 0x1 PUSH1 0x1 PUSH1 0xA0 SHL SUB DUP5 DUP2 AND SWAP2 AND EQ DUP1 ISZERO SWAP1 PUSH2 0xF2A JUMPI POP PUSH1 0x33 SLOAD PUSH1 0x1 PUSH1 0x1 PUSH1 0xA0 SHL SUB DUP4 DUP2 AND SWAP2 AND EQ ISZERO JUMPDEST ISZERO PUSH2 0xF96 JUMPI PUSH1 0x1 PUSH1 0x1 PUSH1 0xA0 SHL SUB DUP4 AND PUSH0 SWAP1 DUP2 MSTORE PUSH1 0x6D PUSH1 0x20 MSTORE PUSH1 0x40 SWAP1 KECCAK256 SLOAD PUSH1 0xFF AND ISZERO DUP1 ISZERO PUSH2 0xF6F JUMPI POP PUSH1 0x1 PUSH1 0x1 PUSH1 0xA0 SHL SUB DUP3 AND PUSH0 SWAP1 DUP2 MSTORE PUSH1 0x6D PUSH1 0x20 MSTORE PUSH1 0x40 SWAP1 KECCAK256 SLOAD PUSH1 0xFF AND ISZERO JUMPDEST ISZERO PUSH2 0xF96 JUMPI PUSH1 0x71 SLOAD DUP2 GT ISZERO PUSH2 0xF96 JUMPI PUSH1 0x40 MLOAD PUSH3 0x461BCD PUSH1 0xE5 SHL DUP2 MSTORE PUSH1 0x4 ADD PUSH2 0x5FA SWAP1 PUSH2 0x1EB7 JUMP JUMPDEST PUSH2 0xFA1 DUP4 DUP4 DUP4 PUSH2 0x12BA JUMP JUMPDEST POP POP PUSH1 0x72 DUP1 SLOAD PUSH2 0xFF00 NOT AND SWAP1 SSTORE POP JUMP JUMPDEST PUSH1 0x33 SLOAD PUSH1 0x1 PUSH1 0x1 PUSH1 0xA0 SHL SUB AND CALLER EQ PUSH2 0x68A JUMPI PUSH1 0x40 MLOAD PUSH3 0x461BCD PUSH1 0xE5 SHL DUP2 MSTORE PUSH1 0x20 PUSH1 0x4 DUP3 ADD DUP2 SWAP1 MSTORE PUSH1 0x24 DUP3 ADD MSTORE PUSH32 0x4F776E61626C653A2063616C6C6572206973206E6F7420746865206F776E6572 PUSH1 0x44 DUP3 ADD MSTORE PUSH1 0x64 ADD PUSH2 0x5FA JUMP JUMPDEST PUSH1 0x33 DUP1 SLOAD PUSH1 0x1 PUSH1 0x1 PUSH1 0xA0 SHL SUB DUP4 DUP2 AND PUSH1 0x1 PUSH1 0x1 PUSH1 0xA0 SHL SUB NOT DUP4 AND DUP2 OR SWAP1 SWAP4 SSTORE PUSH1 0x40 MLOAD SWAP2 AND SWAP2 SWAP1 DUP3 SWAP1 PUSH32 0x8BE0079C531659141344CD1FD0A4F28419497F9722A3DAAFE3B4186F6B6457E0 SWAP1 PUSH0 SWAP1 LOG3 POP POP JUMP JUMPDEST PUSH0 SLOAD PUSH2 0x100 SWAP1 DIV PUSH1 0xFF AND PUSH2 0x1082 JUMPI PUSH1 0x40 MLOAD PUSH3 0x461BCD PUSH1 0xE5 SHL DUP2 MSTORE PUSH1 0x4 ADD PUSH2 0x5FA SWAP1 PUSH2 0x1EFF JUMP JUMPDEST PUSH2 0x68A PUSH2 0x13B6 JUMP JUMPDEST PUSH1 0x40 DUP1 MLOAD PUSH1 0x4 DUP2 MSTORE PUSH1 0x24 DUP2 ADD DUP3 MSTORE PUSH1 0x20 DUP2 ADD DUP1 MLOAD PUSH1 0x1 PUSH1 0x1 PUSH1 0xE0 SHL SUB AND PUSH4 0xC45A0155 PUSH1 0xE0 SHL OR SWAP1 MSTORE SWAP1 MLOAD PUSH0 SWAP2 DUP3 SWAP2 DUP3 SWAP2 PUSH1 0x1 PUSH1 0x1 PUSH1 0xA0 SHL SUB DUP7 AND SWAP2 PUSH2 0x10CF SWAP2 SWAP1 PUSH2 0x1F4A JUMP JUMPDEST PUSH0 PUSH1 0x40 MLOAD DUP1 DUP4 SUB DUP2 DUP6 GAS STATICCALL SWAP2 POP POP RETURNDATASIZE DUP1 PUSH0 DUP2 EQ PUSH2 0x1107 JUMPI PUSH1 0x40 MLOAD SWAP2 POP PUSH1 0x1F NOT PUSH1 0x3F RETURNDATASIZE ADD AND DUP3 ADD PUSH1 0x40 MSTORE RETURNDATASIZE DUP3 MSTORE RETURNDATASIZE PUSH0 PUSH1 0x20 DUP5 ADD RETURNDATACOPY PUSH2 0x110C JUMP JUMPDEST PUSH1 0x60 SWAP2 POP JUMPDEST POP SWAP2 POP SWAP2 POP DUP2 DUP1 ISZERO PUSH2 0x628 JUMPI POP MLOAD ISZERO ISZERO SWAP4 SWAP3 POP POP POP JUMP JUMPDEST PUSH1 0x1 PUSH1 0x1 PUSH1 0xA0 SHL SUB DUP2 AND PUSH0 SWAP1 DUP2 MSTORE PUSH1 0x6D PUSH1 0x20 MSTORE PUSH1 0x40 SWAP1 KECCAK256 SLOAD PUSH1 0xFF AND ISZERO PUSH2 0x118B JUMPI PUSH1 0x40 MLOAD PUSH3 0x461BCD PUSH1 0xE5 SHL DUP2 MSTORE PUSH1 0x20 PUSH1 0x4 DUP3 ADD MSTORE PUSH1 0x1B PUSH1 0x24 DUP3 ADD MSTORE PUSH32 0x4163636F756E7420697320616C7265616479206578636C756465640000000000 PUSH1 0x44 DUP3 ADD MSTORE PUSH1 0x64 ADD PUSH2 0x5FA JUMP JUMPDEST PUSH1 0x1 PUSH1 0x1 PUSH1 0xA0 SHL SUB AND PUSH0 SWAP1 DUP2 MSTORE PUSH1 0x6D PUSH1 0x20 MSTORE PUSH1 0x40 SWAP1 KECCAK256 DUP1 SLOAD PUSH1 0xFF NOT AND PUSH1 0x1 OR SWAP1 SSTORE JUMP JUMPDEST PUSH1 0x1 PUSH1 0x1 PUSH1 0xA0 SHL SUB DUP2 AND PUSH0 SWAP1 DUP2 MSTORE PUSH1 0x6C PUSH1 0x20 MSTORE PUSH1 0x40 SWAP1 KECCAK256 SLOAD PUSH1 0xFF AND ISZERO PUSH2 0x1216 JUMPI PUSH1 0x40 MLOAD PUSH3 0x461BCD PUSH1 0xE5 SHL DUP2 MSTORE PUSH1 0x20 PUSH1 0x4 DUP3 ADD MSTORE PUSH1 0x1B PUSH1 0x24 DUP3 ADD MSTORE PUSH32 0x4163636F756E7420697320616C7265616479206578636C756465640000000000 PUSH1 0x44 DUP3 ADD MSTORE PUSH1 0x64 ADD PUSH2 0x5FA JUMP JUMPDEST PUSH1 0x1 PUSH1 0x1 PUSH1 0xA0 SHL SUB DUP2 AND PUSH0 SWAP1 DUP2 MSTORE PUSH1 0x6A PUSH1 0x20 MSTORE PUSH1 0x40 SWAP1 KECCAK256 SLOAD ISZERO PUSH2 0x1255 JUMPI PUSH2 0x123C DUP2 PUSH2 0x581 JUMP JUMPDEST PUSH1 0x1 PUSH1 0x1 PUSH1 0xA0 SHL SUB DUP3 AND PUSH0 SWAP1 DUP2 MSTORE PUSH1 0x69 PUSH1 0x20 MSTORE PUSH1 0x40 SWAP1 KECCAK256 SSTORE JUMPDEST PUSH1 0x1 PUSH1 0x1 PUSH1 0xA0 SHL SUB AND PUSH0 DUP2 DUP2 MSTORE PUSH1 0x6C PUSH1 0x20 MSTORE PUSH1 0x40 DUP2 KECCAK256 DUP1 SLOAD PUSH1 0xFF NOT AND PUSH1 0x1 SWAP1 DUP2 OR SWAP1 SWAP2 SSTORE PUSH1 0x68 DUP1 SLOAD SWAP2 DUP3 ADD DUP2 SSTORE SWAP1 SWAP2 MSTORE PUSH32 0xA2153420D844928B4421650203C77BABC8B33D7F2E7B450E2966DB0C22097753 ADD DUP1 SLOAD PUSH1 0x1 PUSH1 0x1 PUSH1 0xA0 SHL SUB NOT AND SWAP1 SWAP2 OR SWAP1 SSTORE JUMP JUMPDEST PUSH1 0x1 PUSH1 0x1 PUSH1 0xA0 SHL SUB DUP4 AND PUSH0 SWAP1 DUP2 MSTORE PUSH1 0x6C PUSH1 0x20 MSTORE PUSH1 0x40 SWAP1 KECCAK256 SLOAD PUSH1 0xFF AND DUP1 ISZERO PUSH2 0x12F9 JUMPI POP PUSH1 0x1 PUSH1 0x1 PUSH1 0xA0 SHL SUB DUP3 AND PUSH0 SWAP1 DUP2 MSTORE PUSH1 0x6C PUSH1 0x20 MSTORE PUSH1 0x40 SWAP1 KECCAK256 SLOAD PUSH1 0xFF AND ISZERO JUMPDEST ISZERO PUSH2 0x130E JUMPI PUSH2 0x1309 DUP4 DUP4 DUP4 PUSH2 0x13E5 JUMP JUMPDEST POP POP POP JUMP JUMPDEST PUSH1 0x1 PUSH1 0x1 PUSH1 0xA0 SHL SUB DUP4 AND PUSH0 SWAP1 DUP2 MSTORE PUSH1 0x6C PUSH1 0x20 MSTORE PUSH1 0x40 SWAP1 KECCAK256 SLOAD PUSH1 0xFF AND ISZERO DUP1 ISZERO PUSH2 0x134D JUMPI POP PUSH1 0x1 PUSH1 0x1 PUSH1 0xA0 SHL SUB DUP3 AND PUSH0 SWAP1 DUP2 MSTORE PUSH1 0x6C PUSH1 0x20 MSTORE PUSH1 0x40 SWAP1 KECCAK256 SLOAD PUSH1 0xFF AND JUMPDEST ISZERO PUSH2 0x135D JUMPI PUSH2 0x1309 DUP4 DUP4 DUP4 PUSH2 0x164D JUMP JUMPDEST PUSH1 0x1 PUSH1 0x1 PUSH1 0xA0 SHL SUB DUP4 AND PUSH0 SWAP1 DUP2 MSTORE PUSH1 0x6C PUSH1 0x20 MSTORE PUSH1 0x40 SWAP1 KECCAK256 SLOAD PUSH1 0xFF AND DUP1 ISZERO PUSH2 0x139B JUMPI POP PUSH1 0x1 PUSH1 0x1 PUSH1 0xA0 SHL SUB DUP3 AND PUSH0 SWAP1 DUP2 MSTORE PUSH1 0x6C PUSH1 0x20 MSTORE PUSH1 0x40 SWAP1 KECCAK256 SLOAD PUSH1 0xFF AND JUMPDEST ISZERO PUSH2 0x13AB JUMPI PUSH2 0x1309 DUP4 DUP4 DUP4 PUSH2 0x1895 JUMP JUMPDEST PUSH2 0x1309 DUP4 DUP4 DUP4 PUSH2 0x19E9 JUMP JUMPDEST PUSH0 SLOAD PUSH2 0x100 SWAP1 DIV PUSH1 0xFF AND PUSH2 0x13DC JUMPI PUSH1 0x40 MLOAD PUSH3 0x461BCD PUSH1 0xE5 SHL DUP2 MSTORE PUSH1 0x4 ADD PUSH2 0x5FA SWAP1 PUSH2 0x1EFF JUMP JUMPDEST PUSH2 0x68A CALLER PUSH2 0x100B JUMP JUMPDEST PUSH2 0x13ED PUSH2 0x1B43 JUMP JUMPDEST PUSH1 0x72 SLOAD PUSH1 0xFF AND ISZERO ISZERO PUSH1 0x1 SUB PUSH2 0x148F JUMPI PUSH2 0x3E8 PUSH1 0x6F SLOAD PUSH2 0x140C SWAP2 SWAP1 PUSH2 0x1D5E JUMP JUMPDEST DUP3 GT ISZERO PUSH2 0x148F JUMPI PUSH1 0x40 MLOAD PUSH3 0x461BCD PUSH1 0xE5 SHL DUP2 MSTORE PUSH1 0x20 PUSH1 0x4 DUP3 ADD MSTORE PUSH1 0x44 PUSH1 0x24 DUP3 ADD DUP2 SWAP1 MSTORE PUSH32 0x43616E6E6F74207075726368617365206D6F7265207468616E2031306D202830 SWAP1 DUP3 ADD MSTORE PUSH32 0x2E312529206F6620737570706C7920696E2073696E676C65207472616E736163 PUSH1 0x64 DUP3 ADD MSTORE PUSH4 0x3A34B7B7 PUSH1 0xE1 SHL PUSH1 0x84 DUP3 ADD MSTORE PUSH1 0xA4 ADD PUSH2 0x5FA JUMP JUMPDEST DUP2 DUP2 MSTORE PUSH2 0x149A PUSH2 0x968 JUMP JUMPDEST PUSH2 0x14A4 SWAP1 DUP4 PUSH2 0x1F65 JUMP JUMPDEST PUSH1 0x20 DUP3 ADD MSTORE PUSH0 PUSH1 0x40 DUP3 ADD DUP2 SWAP1 MSTORE PUSH2 0x2710 SWAP1 PUSH2 0x14BF SWAP1 DUP5 PUSH2 0x1F65 JUMP JUMPDEST PUSH2 0x14C9 SWAP2 SWAP1 PUSH2 0x1D5E JUMP JUMPDEST PUSH1 0x80 DUP3 ADD MSTORE PUSH2 0x14D6 PUSH2 0x968 JUMP JUMPDEST DUP2 PUSH1 0x80 ADD MLOAD PUSH2 0x14E5 SWAP2 SWAP1 PUSH2 0x1F65 JUMP JUMPDEST PUSH1 0xA0 DUP3 ADD DUP2 SWAP1 MSTORE ISZERO PUSH2 0x14FD JUMPI PUSH1 0xA0 DUP2 ADD MLOAD PUSH2 0x100 DUP3 ADD MSTORE JUMPDEST DUP1 MLOAD PUSH1 0x1 PUSH1 0x1 PUSH1 0xA0 SHL SUB DUP6 AND PUSH0 SWAP1 DUP2 MSTORE PUSH1 0x69 PUSH1 0x20 MSTORE PUSH1 0x40 DUP2 KECCAK256 DUP1 SLOAD SWAP1 SWAP2 SWAP1 PUSH2 0x1526 SWAP1 DUP5 SWAP1 PUSH2 0x1D24 JUMP JUMPDEST SWAP1 SWAP2 SSTORE POP POP PUSH1 0x20 DUP1 DUP3 ADD MLOAD PUSH1 0x1 PUSH1 0x1 PUSH1 0xA0 SHL SUB DUP7 AND PUSH0 SWAP1 DUP2 MSTORE PUSH1 0x6A SWAP1 SWAP3 MSTORE PUSH1 0x40 DUP3 KECCAK256 DUP1 SLOAD SWAP2 SWAP3 SWAP1 SWAP2 PUSH2 0x1559 SWAP1 DUP5 SWAP1 PUSH2 0x1D24 JUMP JUMPDEST SWAP1 SWAP2 SSTORE POP POP PUSH1 0xA0 DUP2 ADD MLOAD PUSH1 0x20 DUP3 ADD MLOAD PUSH2 0x1572 SWAP2 SWAP1 PUSH2 0x1D24 JUMP JUMPDEST PUSH1 0x1 PUSH1 0x1 PUSH1 0xA0 SHL SUB DUP5 AND PUSH0 SWAP1 DUP2 MSTORE PUSH1 0x6A PUSH1 0x20 MSTORE PUSH1 0x40 DUP2 KECCAK256 DUP1 SLOAD SWAP1 SWAP2 SWAP1 PUSH2 0x1599 SWAP1 DUP5 SWAP1 PUSH2 0x1D37 JUMP JUMPDEST SWAP1 SWAP2 SSTORE POP POP PUSH2 0x100 DUP2 ADD MLOAD PUSH1 0x70 DUP1 SLOAD PUSH0 SWAP1 PUSH2 0x15B5 SWAP1 DUP5 SWAP1 PUSH2 0x1D24 JUMP JUMPDEST SWAP1 SWAP2 SSTORE POP POP PUSH1 0x80 DUP2 ADD MLOAD DUP2 MLOAD PUSH1 0x1 PUSH1 0x1 PUSH1 0xA0 SHL SUB DUP1 DUP7 AND SWAP3 SWAP1 DUP8 AND SWAP2 PUSH0 DUP1 MLOAD PUSH1 0x20 PUSH2 0x1F7D DUP4 CODECOPY DUP2 MLOAD SWAP2 MSTORE SWAP2 PUSH2 0x15E9 SWAP2 PUSH2 0x1D24 JUMP JUMPDEST PUSH1 0x40 MLOAD SWAP1 DUP2 MSTORE PUSH1 0x20 ADD PUSH1 0x40 MLOAD DUP1 SWAP2 SUB SWAP1 LOG3 DUP1 MLOAD PUSH1 0x80 DUP3 ADD MLOAD PUSH32 0xE6EF78C5A1F105FC4B9500EEB7CD09B041367BDEE35F1D85761735EE78B3FF2E SWAP2 SWAP1 PUSH2 0x162E SWAP1 DUP3 PUSH2 0x1D24 JUMP JUMPDEST PUSH1 0x40 DUP1 MLOAD SWAP3 DUP4 MSTORE PUSH1 0x20 DUP4 ADD SWAP2 SWAP1 SWAP2 MSTORE ADD JUMPDEST PUSH1 0x40 MLOAD DUP1 SWAP2 SUB SWAP1 LOG1 POP POP POP POP JUMP JUMPDEST PUSH2 0x1655 PUSH2 0x1B43 JUMP JUMPDEST PUSH1 0xA PUSH2 0x1660 DUP6 PUSH2 0x581 JUMP JUMPDEST PUSH2 0x166A SWAP2 SWAP1 PUSH2 0x1D5E JUMP JUMPDEST DUP3 GT ISZERO PUSH2 0x16DF JUMPI PUSH1 0x40 MLOAD PUSH3 0x461BCD PUSH1 0xE5 SHL DUP2 MSTORE PUSH1 0x20 PUSH1 0x4 DUP3 ADD MSTORE PUSH1 0x3A PUSH1 0x24 DUP3 ADD MSTORE PUSH32 0x43616E6E6F742073656C6C206D6F7265207468616E20313025206F662062616C PUSH1 0x44 DUP3 ADD MSTORE PUSH32 0x616E636520696E2073696E676C65207472616E73616374696F6E000000000000 PUSH1 0x64 DUP3 ADD MSTORE PUSH1 0x84 ADD PUSH2 0x5FA JUMP JUMPDEST DUP2 DUP2 MSTORE PUSH2 0x16EA PUSH2 0x968 JUMP JUMPDEST PUSH2 0x16F4 SWAP1 DUP4 PUSH2 0x1F65 JUMP JUMPDEST PUSH1 0x20 DUP3 ADD MSTORE PUSH0 PUSH1 0x60 DUP3 ADD DUP2 SWAP1 MSTORE PUSH2 0x2710 SWAP1 PUSH2 0x170F SWAP1 DUP5 PUSH2 0x1F65 JUMP JUMPDEST PUSH2 0x1719 SWAP2 SWAP1 PUSH2 0x1D5E JUMP JUMPDEST PUSH1 0xC0 DUP3 ADD MSTORE PUSH2 0x1726 PUSH2 0x968 JUMP JUMPDEST DUP2 PUSH1 0xC0 ADD MLOAD PUSH2 0x1735 SWAP2 SWAP1 PUSH2 0x1F65 JUMP JUMPDEST PUSH1 0xE0 DUP3 ADD DUP2 SWAP1 MSTORE ISZERO PUSH2 0x174D JUMPI PUSH1 0xE0 DUP2 ADD MLOAD PUSH2 0x100 DUP3 ADD MSTORE JUMPDEST DUP1 PUSH1 0x20 ADD MLOAD PUSH1 0x6A PUSH0 DUP7 PUSH1 0x1 PUSH1 0x1 PUSH1 0xA0 SHL SUB AND PUSH1 0x1 PUSH1 0x1 PUSH1 0xA0 SHL SUB AND DUP2 MSTORE PUSH1 0x20 ADD SWAP1 DUP2 MSTORE PUSH1 0x20 ADD PUSH0 KECCAK256 PUSH0 DUP3 DUP3 SLOAD PUSH2 0x1783 SWAP2 SWAP1 PUSH2 0x1D24 JUMP JUMPDEST SWAP1 SWAP2 SSTORE POP POP PUSH1 0xC0 DUP2 ADD MLOAD DUP2 MLOAD PUSH2 0x1799 SWAP2 SWAP1 PUSH2 0x1D24 JUMP JUMPDEST PUSH1 0x1 PUSH1 0x1 PUSH1 0xA0 SHL SUB DUP5 AND PUSH0 SWAP1 DUP2 MSTORE PUSH1 0x69 PUSH1 0x20 MSTORE PUSH1 0x40 DUP2 KECCAK256 DUP1 SLOAD SWAP1 SWAP2 SWAP1 PUSH2 0x17C0 SWAP1 DUP5 SWAP1 PUSH2 0x1D37 JUMP JUMPDEST SWAP1 SWAP2 SSTORE POP POP PUSH1 0xE0 DUP2 ADD MLOAD PUSH1 0x20 DUP3 ADD MLOAD PUSH2 0x17D9 SWAP2 SWAP1 PUSH2 0x1D24 JUMP JUMPDEST PUSH1 0x1 PUSH1 0x1 PUSH1 0xA0 SHL SUB DUP5 AND PUSH0 SWAP1 DUP2 MSTORE PUSH1 0x6A PUSH1 0x20 MSTORE PUSH1 0x40 DUP2 KECCAK256 DUP1 SLOAD SWAP1 SWAP2 SWAP1 PUSH2 0x1800 SWAP1 DUP5 SWAP1 PUSH2 0x1D37 JUMP JUMPDEST SWAP1 SWAP2 SSTORE POP POP PUSH2 0x100 DUP2 ADD MLOAD PUSH1 0x70 DUP1 SLOAD PUSH0 SWAP1 PUSH2 0x181C SWAP1 DUP5 SWAP1 PUSH2 0x1D24 JUMP JUMPDEST SWAP1 SWAP2 SSTORE POP POP PUSH1 0xC0 DUP2 ADD MLOAD DUP2 MLOAD PUSH1 0x1 PUSH1 0x1 PUSH1 0xA0 SHL SUB DUP1 DUP7 AND SWAP3 SWAP1 DUP8 AND SWAP2 PUSH0 DUP1 MLOAD PUSH1 0x20 PUSH2 0x1F7D DUP4 CODECOPY DUP2 MLOAD SWAP2 MSTORE SWAP2 PUSH2 0x1850 SWAP2 PUSH2 0x1D24 JUMP JUMPDEST PUSH1 0x40 MLOAD SWAP1 DUP2 MSTORE PUSH1 0x20 ADD PUSH1 0x40 MLOAD DUP1 SWAP2 SUB SWAP1 LOG3 DUP1 MLOAD PUSH1 0xC0 DUP3 ADD MLOAD PUSH32 0xFF000E16C1C0D33B07404C2B2ABB9832356B5CFD57566D73C9D09611F030890D SWAP2 SWAP1 PUSH2 0x162E SWAP1 DUP3 PUSH2 0x1D24 JUMP JUMPDEST PUSH2 0x189D PUSH2 0x1B43 JUMP JUMPDEST DUP2 DUP2 MSTORE PUSH2 0x18A8 PUSH2 0x968 JUMP JUMPDEST PUSH2 0x18B2 SWAP1 DUP4 PUSH2 0x1F65 JUMP JUMPDEST PUSH1 0x20 DUP1 DUP4 ADD SWAP2 SWAP1 SWAP2 MSTORE DUP2 MLOAD PUSH1 0x1 PUSH1 0x1 PUSH1 0xA0 SHL SUB DUP7 AND PUSH0 SWAP1 DUP2 MSTORE PUSH1 0x69 SWAP1 SWAP3 MSTORE PUSH1 0x40 DUP3 KECCAK256 DUP1 SLOAD SWAP2 SWAP3 SWAP1 SWAP2 PUSH2 0x18E5 SWAP1 DUP5 SWAP1 PUSH2 0x1D24 JUMP JUMPDEST SWAP1 SWAP2 SSTORE POP POP PUSH1 0x20 DUP1 DUP3 ADD MLOAD PUSH1 0x1 PUSH1 0x1 PUSH1 0xA0 SHL SUB DUP7 AND PUSH0 SWAP1 DUP2 MSTORE PUSH1 0x6A SWAP1 SWAP3 MSTORE PUSH1 0x40 DUP3 KECCAK256 DUP1 SLOAD SWAP2 SWAP3 SWAP1 SWAP2 PUSH2 0x1918 SWAP1 DUP5 SWAP1 PUSH2 0x1D24 JUMP JUMPDEST SWAP1 SWAP2 SSTORE POP POP DUP1 MLOAD PUSH1 0x1 PUSH1 0x1 PUSH1 0xA0 SHL SUB DUP5 AND PUSH0 SWAP1 DUP2 MSTORE PUSH1 0x69 PUSH1 0x20 MSTORE PUSH1 0x40 DUP2 KECCAK256 DUP1 SLOAD SWAP1 SWAP2 SWAP1 PUSH2 0x1946 SWAP1 DUP5 SWAP1 PUSH2 0x1D37 JUMP JUMPDEST SWAP1 SWAP2 SSTORE POP POP PUSH1 0x20 DUP1 DUP3 ADD MLOAD PUSH1 0x1 PUSH1 0x1 PUSH1 0xA0 SHL SUB DUP6 AND PUSH0 SWAP1 DUP2 MSTORE PUSH1 0x6A SWAP1 SWAP3 MSTORE PUSH1 0x40 DUP3 KECCAK256 DUP1 SLOAD SWAP2 SWAP3 SWAP1 SWAP2 PUSH2 0x1979 SWAP1 DUP5 SWAP1 PUSH2 0x1D37 JUMP JUMPDEST SWAP1 SWAP2 SSTORE POP POP DUP1 MLOAD PUSH1 0x40 MLOAD SWAP1 DUP2 MSTORE PUSH1 0x1 PUSH1 0x1 PUSH1 0xA0 SHL SUB DUP5 DUP2 AND SWAP2 SWAP1 DUP7 AND SWAP1 PUSH0 DUP1 MLOAD PUSH1 0x20 PUSH2 0x1F7D DUP4 CODECOPY DUP2 MLOAD SWAP2 MSTORE SWAP1 PUSH1 0x20 ADD PUSH1 0x40 MLOAD DUP1 SWAP2 SUB SWAP1 LOG3 DUP1 MLOAD PUSH1 0x40 DUP1 MLOAD DUP3 DUP2 MSTORE PUSH1 0x20 DUP2 ADD SWAP3 SWAP1 SWAP3 MSTORE PUSH32 0x2541109A23D530C06D62A3BF63D8D03107194870126FDDB7170C0DAEF360CD8A SWAP2 ADD PUSH2 0x163F JUMP JUMPDEST PUSH2 0x19F1 PUSH2 0x1B43 JUMP JUMPDEST PUSH8 0xDE0B6B3A7640000 PUSH2 0x1A03 DUP6 PUSH2 0x581 JUMP JUMPDEST PUSH2 0x1A0D SWAP2 SWAP1 PUSH2 0x1D24 JUMP JUMPDEST DUP3 GT ISZERO PUSH2 0x1A5C JUMPI PUSH1 0x40 MLOAD PUSH3 0x461BCD PUSH1 0xE5 SHL DUP2 MSTORE PUSH1 0x20 PUSH1 0x4 DUP3 ADD MSTORE PUSH1 0x1D PUSH1 0x24 DUP3 ADD MSTORE PUSH32 0x596F7520676F747461206B6565702031204D45544820616C7761797321000000 PUSH1 0x44 DUP3 ADD MSTORE PUSH1 0x64 ADD PUSH2 0x5FA JUMP JUMPDEST DUP2 DUP2 MSTORE PUSH2 0x1A67 PUSH2 0x968 JUMP JUMPDEST PUSH2 0x1A71 SWAP1 DUP4 PUSH2 0x1F65 JUMP JUMPDEST PUSH1 0x20 DUP1 DUP4 ADD DUP3 SWAP1 MSTORE PUSH1 0x1 PUSH1 0x1 PUSH1 0xA0 SHL SUB DUP7 AND PUSH0 SWAP1 DUP2 MSTORE PUSH1 0x6A SWAP1 SWAP2 MSTORE PUSH1 0x40 DUP2 KECCAK256 DUP1 SLOAD SWAP1 SWAP2 SWAP1 PUSH2 0x1AA0 SWAP1 DUP5 SWAP1 PUSH2 0x1D24 JUMP JUMPDEST SWAP1 SWAP2 SSTORE POP POP PUSH1 0x20 DUP1 DUP3 ADD MLOAD PUSH1 0x1 PUSH1 0x1 PUSH1 0xA0 SHL SUB DUP6 AND PUSH0 SWAP1 DUP2 MSTORE PUSH1 0x6A SWAP1 SWAP3 MSTORE PUSH1 0x40 DUP3 KECCAK256 DUP1 SLOAD SWAP2 SWAP3 SWAP1 SWAP2 PUSH2 0x1AD3 SWAP1 DUP5 SWAP1 PUSH2 0x1D37 JUMP JUMPDEST SWAP1 SWAP2 SSTORE POP POP DUP1 MLOAD PUSH1 0x40 MLOAD SWAP1 DUP2 MSTORE PUSH1 0x1 PUSH1 0x1 PUSH1 0xA0 SHL SUB DUP5 DUP2 AND SWAP2 SWAP1 DUP7 AND SWAP1 PUSH0 DUP1 MLOAD PUSH1 0x20 PUSH2 0x1F7D DUP4 CODECOPY DUP2 MLOAD SWAP2 MSTORE SWAP1 PUSH1 0x20 ADD PUSH1 0x40 MLOAD DUP1 SWAP2 SUB SWAP1 LOG3 DUP1 MLOAD PUSH1 0x40 DUP1 MLOAD DUP3 DUP2 MSTORE PUSH1 0x20 DUP2 ADD SWAP3 SWAP1 SWAP3 MSTORE PUSH32 0xD9923E08D9D88FF7A7E9B8460F3163DC6B887FABE315449DA3B5CD16BB5E9340 SWAP2 ADD PUSH2 0x163F JUMP JUMPDEST PUSH1 0x40 MLOAD DUP1 PUSH2 0x120 ADD PUSH1 0x40 MSTORE DUP1 PUSH0 DUP2 MSTORE PUSH1 0x20 ADD PUSH0 DUP2 MSTORE PUSH1 0x20 ADD PUSH0 DUP2 MSTORE PUSH1 0x20 ADD PUSH0 DUP2 MSTORE PUSH1 0x20 ADD PUSH0 DUP2 MSTORE PUSH1 0x20 ADD PUSH0 DUP2 MSTORE PUSH1 0x20 ADD PUSH0 DUP2 MSTORE PUSH1 0x20 ADD PUSH0 DUP2 MSTORE PUSH1 0x20 ADD PUSH0 DUP2 MSTORE POP SWAP1 JUMP JUMPDEST PUSH0 JUMPDEST DUP4 DUP2 LT ISZERO PUSH2 0x1BA0 JUMPI DUP2 DUP2 ADD MLOAD DUP4 DUP3 ADD MSTORE PUSH1 0x20 ADD PUSH2 0x1B88 JUMP JUMPDEST POP POP PUSH0 SWAP2 ADD MSTORE JUMP JUMPDEST PUSH1 0x20 DUP2 MSTORE PUSH0 DUP3 MLOAD DUP1 PUSH1 0x20 DUP5 ADD MSTORE PUSH2 0x1BC6 DUP2 PUSH1 0x40 DUP6 ADD PUSH1 0x20 DUP8 ADD PUSH2 0x1B86 JUMP JUMPDEST PUSH1 0x1F ADD PUSH1 0x1F NOT AND SWAP2 SWAP1 SWAP2 ADD PUSH1 0x40 ADD SWAP3 SWAP2 POP POP JUMP JUMPDEST DUP1 CALLDATALOAD PUSH1 0x1 PUSH1 0x1 PUSH1 0xA0 SHL SUB DUP2 AND DUP2 EQ PUSH2 0x674 JUMPI PUSH0 DUP1 REVERT JUMPDEST PUSH0 DUP1 PUSH1 0x40 DUP4 DUP6 SUB SLT ISZERO PUSH2 0x1C01 JUMPI PUSH0 DUP1 REVERT JUMPDEST PUSH2 0x1C0A DUP4 PUSH2 0x1BDA JUMP JUMPDEST SWAP5 PUSH1 0x20 SWAP4 SWAP1 SWAP4 ADD CALLDATALOAD SWAP4 POP POP POP JUMP JUMPDEST PUSH0 DUP1 PUSH0 PUSH1 0x60 DUP5 DUP7 SUB SLT ISZERO PUSH2 0x1C2A JUMPI PUSH0 DUP1 REVERT JUMPDEST PUSH2 0x1C33 DUP5 PUSH2 0x1BDA JUMP JUMPDEST SWAP3 POP PUSH2 0x1C41 PUSH1 0x20 DUP6 ADD PUSH2 0x1BDA JUMP JUMPDEST SWAP2 POP PUSH1 0x40 DUP5 ADD CALLDATALOAD SWAP1 POP SWAP3 POP SWAP3 POP SWAP3 JUMP JUMPDEST PUSH0 PUSH1 0x20 DUP3 DUP5 SUB SLT ISZERO PUSH2 0x1C61 JUMPI PUSH0 DUP1 REVERT JUMPDEST POP CALLDATALOAD SWAP2 SWAP1 POP JUMP JUMPDEST PUSH0 PUSH1 0x20 DUP3 DUP5 SUB SLT ISZERO PUSH2 0x1C78 JUMPI PUSH0 DUP1 REVERT JUMPDEST PUSH2 0x1C81 DUP3 PUSH2 0x1BDA JUMP JUMPDEST SWAP4 SWAP3 POP POP POP JUMP JUMPDEST PUSH0 PUSH1 0x20 DUP3 DUP5 SUB SLT ISZERO PUSH2 0x1C98 JUMPI PUSH0 DUP1 REVERT JUMPDEST DUP2 CALLDATALOAD DUP1 ISZERO ISZERO DUP2 EQ PUSH2 0x1C81 JUMPI PUSH0 DUP1 REVERT JUMPDEST PUSH0 DUP1 PUSH1 0x40 DUP4 DUP6 SUB SLT ISZERO PUSH2 0x1CB8 JUMPI PUSH0 DUP1 REVERT JUMPDEST PUSH2 0x1CC1 DUP4 PUSH2 0x1BDA JUMP JUMPDEST SWAP2 POP PUSH2 0x1CCF PUSH1 0x20 DUP5 ADD PUSH2 0x1BDA JUMP JUMPDEST SWAP1 POP SWAP3 POP SWAP3 SWAP1 POP JUMP JUMPDEST PUSH1 0x1 DUP2 DUP2 SHR SWAP1 DUP3 AND DUP1 PUSH2 0x1CEC JUMPI PUSH1 0x7F DUP3 AND SWAP2 POP JUMPDEST PUSH1 0x20 DUP3 LT DUP2 SUB PUSH2 0x1D0A JUMPI PUSH4 0x4E487B71 PUSH1 0xE0 SHL PUSH0 MSTORE PUSH1 0x22 PUSH1 0x4 MSTORE PUSH1 0x24 PUSH0 REVERT JUMPDEST POP SWAP2 SWAP1 POP JUMP JUMPDEST PUSH4 0x4E487B71 PUSH1 0xE0 SHL PUSH0 MSTORE PUSH1 0x11 PUSH1 0x4 MSTORE PUSH1 0x24 PUSH0 REVERT JUMPDEST DUP2 DUP2 SUB DUP2 DUP2 GT ISZERO PUSH2 0x4CD JUMPI PUSH2 0x4CD PUSH2 0x1D10 JUMP JUMPDEST DUP1 DUP3 ADD DUP1 DUP3 GT ISZERO PUSH2 0x4CD JUMPI PUSH2 0x4CD PUSH2 0x1D10 JUMP JUMPDEST PUSH4 0x4E487B71 PUSH1 0xE0 SHL PUSH0 MSTORE PUSH1 0x12 PUSH1 0x4 MSTORE PUSH1 0x24 PUSH0 REVERT JUMPDEST PUSH0 DUP3 PUSH2 0x1D6C JUMPI PUSH2 0x1D6C PUSH2 0x1D4A JUMP JUMPDEST POP DIV SWAP1 JUMP JUMPDEST PUSH4 0x4E487B71 PUSH1 0xE0 SHL PUSH0 MSTORE PUSH1 0x41 PUSH1 0x4 MSTORE PUSH1 0x24 PUSH0 REVERT JUMPDEST PUSH1 0x1F DUP3 GT ISZERO PUSH2 0x1309 JUMPI DUP1 PUSH0 MSTORE PUSH1 0x20 PUSH0 KECCAK256 PUSH1 0x1F DUP5 ADD PUSH1 0x5 SHR DUP2 ADD PUSH1 0x20 DUP6 LT ISZERO PUSH2 0x1DAA JUMPI POP DUP1 JUMPDEST PUSH1 0x1F DUP5 ADD PUSH1 0x5 SHR DUP3 ADD SWAP2 POP JUMPDEST DUP2 DUP2 LT ISZERO PUSH2 0x1DC9 JUMPI PUSH0 DUP2 SSTORE PUSH1 0x1 ADD PUSH2 0x1DB6 JUMP JUMPDEST POP POP POP POP POP JUMP JUMPDEST DUP2 MLOAD PUSH8 0xFFFFFFFFFFFFFFFF DUP2 GT ISZERO PUSH2 0x1DEA JUMPI PUSH2 0x1DEA PUSH2 0x1D71 JUMP JUMPDEST PUSH2 0x1DFE DUP2 PUSH2 0x1DF8 DUP5 SLOAD PUSH2 0x1CD8 JUMP JUMPDEST DUP5 PUSH2 0x1D85 JUMP JUMPDEST PUSH1 0x20 DUP1 PUSH1 0x1F DUP4 GT PUSH1 0x1 DUP2 EQ PUSH2 0x1E31 JUMPI PUSH0 DUP5 ISZERO PUSH2 0x1E1A JUMPI POP DUP6 DUP4 ADD MLOAD JUMPDEST PUSH0 NOT PUSH1 0x3 DUP7 SWAP1 SHL SHR NOT AND PUSH1 0x1 DUP6 SWAP1 SHL OR DUP6 SSTORE PUSH2 0x1E88 JUMP JUMPDEST PUSH0 DUP6 DUP2 MSTORE PUSH1 0x20 DUP2 KECCAK256 PUSH1 0x1F NOT DUP7 AND SWAP2 JUMPDEST DUP3 DUP2 LT ISZERO PUSH2 0x1E5F JUMPI DUP9 DUP7 ADD MLOAD DUP3 SSTORE SWAP5 DUP5 ADD SWAP5 PUSH1 0x1 SWAP1 SWAP2 ADD SWAP1 DUP5 ADD PUSH2 0x1E40 JUMP JUMPDEST POP DUP6 DUP3 LT ISZERO PUSH2 0x1E7C JUMPI DUP8 DUP6 ADD MLOAD PUSH0 NOT PUSH1 0x3 DUP9 SWAP1 SHL PUSH1 0xF8 AND SHR NOT AND DUP2 SSTORE JUMPDEST POP POP PUSH1 0x1 DUP5 PUSH1 0x1 SHL ADD DUP6 SSTORE JUMPDEST POP POP POP POP POP POP JUMP JUMPDEST PUSH0 DUP3 PUSH2 0x1E9E JUMPI PUSH2 0x1E9E PUSH2 0x1D4A JUMP JUMPDEST POP MOD SWAP1 JUMP JUMPDEST PUSH4 0x4E487B71 PUSH1 0xE0 SHL PUSH0 MSTORE PUSH1 0x32 PUSH1 0x4 MSTORE PUSH1 0x24 PUSH0 REVERT JUMPDEST PUSH1 0x20 DUP1 DUP3 MSTORE PUSH1 0x28 SWAP1 DUP3 ADD MSTORE PUSH32 0x5472616E7366657220616D6F756E74206578636565647320746865206D617854 PUSH1 0x40 DUP3 ADD MSTORE PUSH8 0x3C20B6B7BAB73A17 PUSH1 0xC1 SHL PUSH1 0x60 DUP3 ADD MSTORE PUSH1 0x80 ADD SWAP1 JUMP JUMPDEST PUSH1 0x20 DUP1 DUP3 MSTORE PUSH1 0x2B SWAP1 DUP3 ADD MSTORE PUSH32 0x496E697469616C697A61626C653A20636F6E7472616374206973206E6F742069 PUSH1 0x40 DUP3 ADD MSTORE PUSH11 0x6E697469616C697A696E67 PUSH1 0xA8 SHL PUSH1 0x60 DUP3 ADD MSTORE PUSH1 0x80 ADD SWAP1 JUMP JUMPDEST PUSH0 DUP3 MLOAD PUSH2 0x1F5B DUP2 DUP5 PUSH1 0x20 DUP8 ADD PUSH2 0x1B86 JUMP JUMPDEST SWAP2 SWAP1 SWAP2 ADD SWAP3 SWAP2 POP POP JUMP JUMPDEST DUP1 DUP3 MUL DUP2 ISZERO DUP3 DUP3 DIV DUP5 EQ OR PUSH2 0x4CD JUMPI PUSH2 0x4CD PUSH2 0x1D10 JUMP INVALID 0xDD CALLCODE MSTORE 0xAD SHL 0xE2 0xC8 SWAP12 PUSH10 0xC2B068FC378DAA952BA7 CALL PUSH4 0xC4A11628 CREATE2 GAS 0x4D CREATE2 0x23 0xB3 0xEF LOG2 PUSH5 0x6970667358 0x22 SLT KECCAK256 PUSH1 0x74 0x25 0xD2 AND EXTCODEHASH AND PUSH13 0x2EB888682E1A778EBCA45EAEA8 DUP3 SSTORE 0xE DUP16 SWAP9 SWAP14 SUB 0x2F 0xF9 0x4C COINBASE PUSH5 0x736F6C6343 STOP ADDMOD XOR STOP CALLER "
				},
				"gasEstimates": {
					"creation": {
						"codeDepositCost": "1629200",
						"executionCost": "25924",
						"totalCost": "1655124"
					},
					"external": {
						"_excluded(uint256)": "4657",
						"_getCurrentSupply()": "infinite",
						"_getRate()": "infinite",
						"_rTotal()": "2406",
						"_tTotal()": "2338",
						"allowance(address,address)": "infinite",
						"antiWhale()": "2377",
						"approve(address,uint256)": "24662",
						"balanceOf(address)": "infinite",
						"decimals()": "2356",
						"decreaseAllowance(address,uint256)": "infinite",
						"getTenPercentOfBalance()": "infinite",
						"increaseAllowance(address,uint256)": "infinite",
						"initialize()": "infinite",
						"isExcluded(address)": "2612",
						"isExcludedFromMaxTx(address)": "2591",
						"maxTxAmount()": "2384",
						"name()": "infinite",
						"owner()": "2375",
						"rBalanceOf(address)": "infinite",
						"renounceOwnership()": "infinite",
						"setAntiWhaleStatus(bool)": "26724",
						"symbol()": "infinite",
						"totalSupply()": "2371",
						"transfer(address,uint256)": "infinite",
						"transferFrom(address,address,uint256)": "infinite",
						"transferOwnership(address)": "28443",
						"viewTBalanceRBalance(address)": "4841"
					},
					"internal": {
						"_approve(address,address,uint256)": "infinite",
						"_tokenTransfer(address,address,uint256)": "infinite",
						"_transfer(address,address,uint256)": "infinite",
						"_transferBothExcluded(address,address,uint256)": "infinite",
						"_transferFromExcluded(address,address,uint256)": "infinite",
						"_transferStandard(address,address,uint256)": "infinite",
						"_transferToExcluded(address,address,uint256)": "infinite",
						"excludeAddress(address)": "infinite",
						"excludeFromMaxTx(address)": "infinite",
						"isRouter(address)": "infinite"
					}
				},
				"methodIdentifiers": {
					"_excluded(uint256)": "4d09deb3",
					"_getCurrentSupply()": "97a9d560",
					"_getRate()": "94e10784",
					"_rTotal()": "45e0b9d4",
					"_tTotal()": "af465a27",
					"allowance(address,address)": "dd62ed3e",
					"antiWhale()": "4dacf3f5",
					"approve(address,uint256)": "095ea7b3",
					"balanceOf(address)": "70a08231",
					"decimals()": "313ce567",
					"decreaseAllowance(address,uint256)": "a457c2d7",
					"getTenPercentOfBalance()": "aae5ddd2",
					"increaseAllowance(address,uint256)": "39509351",
					"initialize()": "8129fc1c",
					"isExcluded(address)": "cba0e996",
					"isExcludedFromMaxTx(address)": "658c27a9",
					"maxTxAmount()": "8c0b5e22",
					"name()": "06fdde03",
					"owner()": "8da5cb5b",
					"rBalanceOf(address)": "5319e78f",
					"renounceOwnership()": "715018a6",
					"setAntiWhaleStatus(bool)": "83f24c09",
					"symbol()": "95d89b41",
					"totalSupply()": "18160ddd",
					"transfer(address,uint256)": "a9059cbb",
					"transferFrom(address,address,uint256)": "23b872dd",
					"transferOwnership(address)": "f2fde38b",
					"viewTBalanceRBalance(address)": "80da2287"
				}
			},
			"storageLayout": {
				"storage": [
					{
						"astId": 1577,
						"contract": "METH_unflattned.sol:METH",
						"label": "_initialized",
						"offset": 0,
						"slot": "0",
						"type": "t_uint8"
					},
					{
						"astId": 1580,
						"contract": "METH_unflattned.sol:METH",
						"label": "_initializing",
						"offset": 1,
						"slot": "0",
						"type": "t_bool"
					},
					{
						"astId": 2197,
						"contract": "METH_unflattned.sol:METH",
						"label": "__gap",
						"offset": 0,
						"slot": "1",
						"type": "t_array(t_uint256)50_storage"
					},
					{
						"astId": 1449,
						"contract": "METH_unflattned.sol:METH",
						"label": "_owner",
						"offset": 0,
						"slot": "51",
						"type": "t_address"
					},
					{
						"astId": 1569,
						"contract": "METH_unflattned.sol:METH",
						"label": "__gap",
						"offset": 0,
						"slot": "52",
						"type": "t_array(t_uint256)49_storage"
					},
					{
						"astId": 13,
						"contract": "METH_unflattned.sol:METH",
						"label": "_name",
						"offset": 0,
						"slot": "101",
						"type": "t_string_storage"
					},
					{
						"astId": 15,
						"contract": "METH_unflattned.sol:METH",
						"label": "_symbol",
						"offset": 0,
						"slot": "102",
						"type": "t_string_storage"
					},
					{
						"astId": 17,
						"contract": "METH_unflattned.sol:METH",
						"label": "_decimals",
						"offset": 0,
						"slot": "103",
						"type": "t_uint8"
					},
					{
						"astId": 21,
						"contract": "METH_unflattned.sol:METH",
						"label": "_excluded",
						"offset": 0,
						"slot": "104",
						"type": "t_array(t_address)dyn_storage"
					},
					{
						"astId": 26,
						"contract": "METH_unflattned.sol:METH",
						"label": "_tOwned",
						"offset": 0,
						"slot": "105",
						"type": "t_mapping(t_address,t_uint256)"
					},
					{
						"astId": 31,
						"contract": "METH_unflattned.sol:METH",
						"label": "_rOwned",
						"offset": 0,
						"slot": "106",
						"type": "t_mapping(t_address,t_uint256)"
					},
					{
						"astId": 38,
						"contract": "METH_unflattned.sol:METH",
						"label": "_allowances",
						"offset": 0,
						"slot": "107",
						"type": "t_mapping(t_address,t_mapping(t_address,t_uint256))"
					},
					{
						"astId": 43,
						"contract": "METH_unflattned.sol:METH",
						"label": "_isExcluded",
						"offset": 0,
						"slot": "108",
						"type": "t_mapping(t_address,t_bool)"
					},
					{
						"astId": 48,
						"contract": "METH_unflattned.sol:METH",
						"label": "_isExcludedFromMaxTx",
						"offset": 0,
						"slot": "109",
						"type": "t_mapping(t_address,t_bool)"
					},
					{
						"astId": 51,
						"contract": "METH_unflattned.sol:METH",
						"label": "_MAX",
						"offset": 0,
						"slot": "110",
						"type": "t_uint256"
					},
					{
						"astId": 54,
						"contract": "METH_unflattned.sol:METH",
						"label": "_tTotal",
						"offset": 0,
						"slot": "111",
						"type": "t_uint256"
					},
					{
						"astId": 57,
						"contract": "METH_unflattned.sol:METH",
						"label": "_rTotal",
						"offset": 0,
						"slot": "112",
						"type": "t_uint256"
					},
					{
						"astId": 60,
						"contract": "METH_unflattned.sol:METH",
						"label": "maxTxAmount",
						"offset": 0,
						"slot": "113",
						"type": "t_uint256"
					},
					{
						"astId": 62,
						"contract": "METH_unflattned.sol:METH",
						"label": "antiWhale",
						"offset": 0,
						"slot": "114",
						"type": "t_bool"
					},
					{
						"astId": 675,
						"contract": "METH_unflattned.sol:METH",
						"label": "mutex",
						"offset": 1,
						"slot": "114",
						"type": "t_bool"
					}
				],
				"types": {
					"t_address": {
						"encoding": "inplace",
						"label": "address",
						"numberOfBytes": "20"
					},
					"t_array(t_address)dyn_storage": {
						"base": "t_address",
						"encoding": "dynamic_array",
						"label": "address[]",
						"numberOfBytes": "32"
					},
					"t_array(t_uint256)49_storage": {
						"base": "t_uint256",
						"encoding": "inplace",
						"label": "uint256[49]",
						"numberOfBytes": "1568"
					},
					"t_array(t_uint256)50_storage": {
						"base": "t_uint256",
						"encoding": "inplace",
						"label": "uint256[50]",
						"numberOfBytes": "1600"
					},
					"t_bool": {
						"encoding": "inplace",
						"label": "bool",
						"numberOfBytes": "1"
					},
					"t_mapping(t_address,t_bool)": {
						"encoding": "mapping",
						"key": "t_address",
						"label": "mapping(address => bool)",
						"numberOfBytes": "32",
						"value": "t_bool"
					},
					"t_mapping(t_address,t_mapping(t_address,t_uint256))": {
						"encoding": "mapping",
						"key": "t_address",
						"label": "mapping(address => mapping(address => uint256))",
						"numberOfBytes": "32",
						"value": "t_mapping(t_address,t_uint256)"
					},
					"t_mapping(t_address,t_uint256)": {
						"encoding": "mapping",
						"key": "t_address",
						"label": "mapping(address => uint256)",
						"numberOfBytes": "32",
						"value": "t_uint256"
					},
					"t_string_storage": {
						"encoding": "bytes",
						"label": "string",
						"numberOfBytes": "32"
					},
					"t_uint256": {
						"encoding": "inplace",
						"label": "uint256",
						"numberOfBytes": "32"
					},
					"t_uint8": {
						"encoding": "inplace",
						"label": "uint8",
						"numberOfBytes": "1"
					}
				}
			},
			"userdoc": {
				"kind": "user",
				"methods": {
					"_excluded(uint256)": {
						"notice": "array of address which are excluded from rewards"
					},
					"_getCurrentSupply()": {
						"notice": "used by the _getRate function to return two values: rSupply and tSupply"
					},
					"_getRate()": {
						"notice": "function used by the getValues function"
					},
					"_rTotal()": {
						"notice": "/// rTotal is a calculated value - rTotal = MAX − (MAX mod tTotal) /// (Note: value will go down after each buy/sell transaction)  "
					},
					"_tTotal()": {
						"notice": "the total fixed supply of METH tokens"
					},
					"allowance(address,address)": {
						"notice": "uses \"override\" and returns the value from the _allowances function"
					},
					"approve(address,uint256)": {
						"notice": "uses \"override\" and returns the custom _approve function"
					},
					"balanceOf(address)": {
						"notice": "uses \"override\" - returns tOwned amounts for excluded addresses and rOwned amounts for all others"
					},
					"decimals()": {
						"notice": "token decimals"
					},
					"decreaseAllowance(address,uint256)": {
						"notice": "uses \"override\" and calls the _approve function"
					},
					"getTenPercentOfBalance()": {
						"notice": "allow holder to obtain the max value they can sell in a single transaction"
					},
					"increaseAllowance(address,uint256)": {
						"notice": "uses \"override\" and calls the _approve function"
					},
					"isExcluded(address)": {
						"notice": "checks if address is excluded from reflection rewards"
					},
					"isExcludedFromMaxTx(address)": {
						"notice": "checks if address is excluded from Max Tx"
					},
					"maxTxAmount()": {
						"notice": "maximum transation amount"
					},
					"name()": {
						"notice": "token name"
					},
					"rBalanceOf(address)": {
						"notice": "Used by the standard ERC20 \"balanceOf()\" function /// returns the rAmount divided by the current rate value. "
					},
					"symbol()": {
						"notice": "token symbol"
					},
					"totalSupply()": {
						"notice": "uses \"override\" to return value from _tTotal (tSpace)"
					},
					"transfer(address,uint256)": {
						"notice": "uses \"override\" to call the _transfer function"
					},
					"transferFrom(address,address,uint256)": {
						"notice": "uses \"override\" and calls the  _transfer and the _approve functions"
					},
					"viewTBalanceRBalance(address)": {
						"notice": "verify account balance in both tSpace and rSpace"
					}
				},
				"notice": "Serves as a dynamic reflection token",
				"version": 1
			}
		}
	}
}