{
	"data": {
		"bytecode": {
			"linkReferences": {},
			"object": "60806040526072805461ff001916905534801561001a575f80fd5b50611fc4806100285f395ff3fe608060405234801561000f575f80fd5b50600436106101bb575f3560e01c80638129fc1c116100f3578063a457c2d711610093578063af465a271161006e578063af465a27146103ae578063cba0e996146103b7578063dd62ed3e146103e2578063f2fde38b1461041a575f80fd5b8063a457c2d714610380578063a9059cbb14610393578063aae5ddd2146103a6575f80fd5b80638da5cb5b116100ce5780638da5cb5b1461035757806394e107841461036857806395d89b411461037057806397a9d56014610378575f80fd5b80638129fc1c1461033357806383f24c091461033b5780638c0b5e221461034e575f80fd5b80634d09deb31161015e578063658c27a911610139578063658c27a9146102a157806370a08231146102cc578063715018a6146102df57806380da2287146102e9575f80fd5b80634d09deb3146102565780634dacf3f5146102815780635319e78f1461028e575f80fd5b806323b872dd1161019957806323b872dd14610212578063313ce56714610225578063395093511461023a57806345e0b9d41461024d575f80fd5b806306fdde03146101bf578063095ea7b3146101dd57806318160ddd14610200575b5f80fd5b6101c761042d565b6040516101d49190611b9a565b60405180910390f35b6101f06101eb366004611be2565b6104bd565b60405190151581526020016101d4565b606f545b6040519081526020016101d4565b6101f0610220366004611c0a565b6104d3565b60675460405160ff90911681526020016101d4565b6101f0610248366004611be2565b610523565b61020460705481565b610269610264366004611c43565b610559565b6040516001600160a01b0390911681526020016101d4565b6072546101f09060ff1681565b61020461029c366004611c5a565b610581565b6101f06102af366004611c5a565b6001600160a01b03165f908152606d602052604090205460ff1690565b6102046102da366004611c5a565b610630565b6102e7610679565b005b61031e6102f7366004611c5a565b6001600160a01b03165f90815260696020908152604080832054606a909252909120549091565b604080519283526020830191909152016101d4565b6102e761068c565b6102e7610349366004611c7a565b61094d565b61020460715481565b6033546001600160a01b0316610269565b610204610968565b6101c7610989565b61031e610998565b6101f061038e366004611be2565b610a4c565b6101f06103a1366004611be2565b610a82565b610204610a8e565b610204606f5481565b6101f06103c5366004611c5a565b6001600160a01b03165f908152606c602052604090205460ff1690565b6102046103f0366004611c99565b6001600160a01b039182165f908152606b6020908152604080832093909416825291909152205490565b6102e7610428366004611c5a565b610aa9565b60606065805461043c90611cca565b80601f016020809104026020016040519081016040528092919081815260200182805461046890611cca565b80156104b35780601f1061048a576101008083540402835291602001916104b3565b820191905f5260205f20905b81548152906001019060200180831161049657829003601f168201915b5050505050905090565b5f6104c9338484610b1f565b5060015b92915050565b5f6104df848484610c42565b6001600160a01b0384165f908152606b6020908152604080832033808552925290912054610519918691610514908690611d16565b610b1f565b5060019392505050565b335f818152606b602090815260408083206001600160a01b038716845290915281205490916104c9918590610514908690611d29565b60688181548110610568575f80fd5b5f918252602090912001546001600160a01b0316905081565b6001600160a01b0381165f908152606a60205260408120546070548111156106035760405162461bcd60e51b815260206004820152602a60248201527f416d6f756e74206d757374206265206c657373207468616e20746f74616c207260448201526965666c656374696f6e7360b01b60648201526084015b60405180910390fd5b5f61060c610968565b9050815f0361061e57505f9392505050565b6106288183611d50565b949350505050565b6001600160a01b0381165f908152606c602052604081205460ff161561066b57506001600160a01b03165f9081526069602052604090205490565b6104cd82610581565b919050565b610681610fb1565b61068a5f61100b565b565b5f54610100900460ff16158080156106aa57505f54600160ff909116105b806106c35750303b1580156106c357505f5460ff166001145b6107265760405162461bcd60e51b815260206004820152602e60248201527f496e697469616c697a61626c653a20636f6e747261637420697320616c72656160448201526d191e481a5b9a5d1a585b1a5e995960921b60648201526084016105fa565b5f805460ff191660011790558015610747575f805461ff0019166101001790555b61074f61105c565b60408051808201909152600681526526aa22a9aa2360d11b60208201526065906107799082611dc2565b5060408051808201909152600681526526aa22a9aa2360d11b60208201526066906107a49082611dc2565b506067805460ff191660121790556b204fce5e3e25026110000000606f8190555f19606e8190556107d59190611e82565b606e546107e29190611d16565b6070819055606a5f6107fc6033546001600160a01b031690565b6001600160a01b031681526020808201929092526040015f90812092909255606f54607155606c90527f7febd347df14ea35c529e50fb2dd629d4a6226f5ccc893710fb466f8b83823fc805460ff1990811660019081179092557f8c482e007f935c93984ddf7a647e33ef99566883ffae3563aa616dc14d1632f780548216831790557fb6e99d88b536ae7728c4b89ca5a6073cf06fd2059e0aff5b1a4de2c799d9cb968054821683179055610369909252607280549092161790556108ca6033546001600160a01b031690565b6001600160a01b03165f6001600160a01b03165f80516020611f6f833981519152606f546040516108fd91815260200190565b60405180910390a3801561094a575f805461ff0019169055604051600181527f7f26b83ff96e1f2b6a682f133852f6798a09c465da95921460cefb38474024989060200160405180910390a15b50565b610955610fb1565b6072805460ff1916911515919091179055565b5f805f610973610998565b90925090506109828183611d50565b9250505090565b60606066805461043c90611cca565b607054606f545f918291825b606854811015610a4257606a5f606883815481106109c4576109c4611e95565b5f9182526020808320909101546001600160a01b031683528201929092526040019020546109f29084611d16565b925060695f60688381548110610a0a57610a0a611e95565b5f9182526020808320909101546001600160a01b03168352820192909252604001902054610a389083611d16565b91506001016109a4565b5090939092509050565b335f818152606b602090815260408083206001600160a01b038716845290915281205490916104c9918590610514908690611d16565b5f6104c9338484610c42565b5f600a610a9a33610630565b610aa49190611d50565b905090565b610ab1610fb1565b6001600160a01b038116610b165760405162461bcd60e51b815260206004820152602660248201527f4f776e61626c653a206e6577206f776e657220697320746865207a65726f206160448201526564647265737360d01b60648201526084016105fa565b61094a8161100b565b6001600160a01b038316610b815760405162461bcd60e51b8152602060048201526024808201527f45524332303a20617070726f76652066726f6d20746865207a65726f206164646044820152637265737360e01b60648201526084016105fa565b6001600160a01b038216610be25760405162461bcd60e51b815260206004820152602260248201527f45524332303a20617070726f766520746f20746865207a65726f206164647265604482015261737360f01b60648201526084016105fa565b6001600160a01b038381165f818152606b602090815260408083209487168084529482529182902085905590518481527f8c5be1e5ebec7d5bd14f71427d1e84f3dd0314c0f7b2291e5b200ac8c7c3b925910160405180910390a3505050565b607254610100900460ff1615610c56575f80fd5b6072805461ff0019166101001790556001600160a01b038316610cc95760405162461bcd60e51b815260206004820152602560248201527f45524332303a207472616e736665722066726f6d20746865207a65726f206164604482015264647265737360d81b60648201526084016105fa565b6001600160a01b038216610d2b5760405162461bcd60e51b815260206004820152602360248201527f45524332303a207472616e7366657220746f20746865207a65726f206164647260448201526265737360e81b60648201526084016105fa565b5f8111610d8c5760405162461bcd60e51b815260206004820152602960248201527f5472616e7366657220616d6f756e74206d7573742062652067726561746572206044820152687468616e207a65726f60b81b60648201526084016105fa565b610d958361108a565b15156001148015610dbe57506001600160a01b0383165f908152606d602052604090205460ff16155b8015610de257506001600160a01b0383165f908152606c602052604090205460ff16155b15610df957610df083611123565b610df9836111ae565b610e028261108a565b15156001148015610e2b57506001600160a01b0382165f908152606d602052604090205460ff16155b8015610e4f57506001600160a01b0382165f908152606c602052604090205460ff16155b15610e6657610e5d82611123565b610e66826111ae565b6033546001600160a01b03848116911614801590610e9257506033546001600160a01b03838116911614155b15610efe576001600160a01b0383165f908152606d602052604090205460ff16158015610ed757506001600160a01b0382165f908152606d602052604090205460ff16155b15610efe57607154811115610efe5760405162461bcd60e51b81526004016105fa90611ea9565b6033546001600160a01b03848116911614801590610f2a57506033546001600160a01b03838116911614155b15610f96576001600160a01b0383165f908152606d602052604090205460ff16158015610f6f57506001600160a01b0382165f908152606d602052604090205460ff16155b15610f9657607154811115610f965760405162461bcd60e51b81526004016105fa90611ea9565b610fa18383836112ba565b50506072805461ff001916905550565b6033546001600160a01b0316331461068a5760405162461bcd60e51b815260206004820181905260248201527f4f776e61626c653a2063616c6c6572206973206e6f7420746865206f776e657260448201526064016105fa565b603380546001600160a01b038381166001600160a01b0319831681179093556040519116919082907f8be0079c531659141344cd1fd0a4f28419497f9722a3daafe3b4186f6b6457e0905f90a35050565b5f54610100900460ff166110825760405162461bcd60e51b81526004016105fa90611ef1565b61068a6113b6565b60408051600481526024810182526020810180516001600160e01b031663c45a015560e01b17905290515f91829182916001600160a01b038616916110cf9190611f3c565b5f60405180830381855afa9150503d805f8114611107576040519150601f19603f3d011682016040523d82523d5f602084013e61110c565b606091505b509150915081801561062857505115159392505050565b6001600160a01b0381165f908152606d602052604090205460ff161561118b5760405162461bcd60e51b815260206004820152601b60248201527f4163636f756e7420697320616c7265616479206578636c75646564000000000060448201526064016105fa565b6001600160a01b03165f908152606d60205260409020805460ff19166001179055565b6001600160a01b0381165f908152606c602052604090205460ff16156112165760405162461bcd60e51b815260206004820152601b60248201527f4163636f756e7420697320616c7265616479206578636c75646564000000000060448201526064016105fa565b6001600160a01b0381165f908152606a6020526040902054156112555761123c81610581565b6001600160a01b0382165f908152606960205260409020555b6001600160a01b03165f818152606c60205260408120805460ff191660019081179091556068805491820181559091527fa2153420d844928b4421650203c77babc8b33d7f2e7b450e2966db0c220977530180546001600160a01b0319169091179055565b6001600160a01b0383165f908152606c602052604090205460ff1680156112f957506001600160a01b0382165f908152606c602052604090205460ff16155b1561130e576113098383836113e5565b505050565b6001600160a01b0383165f908152606c602052604090205460ff1615801561134d57506001600160a01b0382165f908152606c602052604090205460ff165b1561135d5761130983838361163f565b6001600160a01b0383165f908152606c602052604090205460ff16801561139b57506001600160a01b0382165f908152606c602052604090205460ff165b156113ab57611309838383611887565b6113098383836119db565b5f54610100900460ff166113dc5760405162461bcd60e51b81526004016105fa90611ef1565b61068a3361100b565b6113ed611b35565b60725460ff161515600103611481576103e8606f5461140c9190611d50565b8211156114815760405162461bcd60e51b815260206004820152603e60248201527f43616e6e6f74207075726368617365206d6f7265207468616e20302e3125206f60448201527f6620737570706c7920696e2073696e676c65207472616e73616374696f6e000060648201526084016105fa565b81815261148c610968565b6114969083611f57565b60208201525f60408201819052612710906114b19084611f57565b6114bb9190611d50565b60808201526114c8610968565b81608001516114d79190611f57565b60a08201819052156114ef5760a08101516101008201525b80516001600160a01b0385165f9081526069602052604081208054909190611518908490611d16565b90915550506020808201516001600160a01b0386165f908152606a9092526040822080549192909161154b908490611d16565b909155505060a081015160208201516115649190611d16565b6001600160a01b0384165f908152606a60205260408120805490919061158b908490611d29565b9091555050610100810151607080545f906115a7908490611d16565b9091555050608081015181516001600160a01b0380861692908716915f80516020611f6f833981519152916115db91611d16565b60405190815260200160405180910390a3805160808201517fe6ef78c5a1f105fc4b9500eeb7cd09b041367bdee35f1d85761735ee78b3ff2e91906116209082611d16565b604080519283526020830191909152015b60405180910390a150505050565b611647611b35565b600a61165285610581565b61165c9190611d50565b8211156116d15760405162461bcd60e51b815260206004820152603a60248201527f43616e6e6f742073656c6c206d6f7265207468616e20313025206f662062616c60448201527f616e636520696e2073696e676c65207472616e73616374696f6e00000000000060648201526084016105fa565b8181526116dc610968565b6116e69083611f57565b60208201525f60608201819052612710906117019084611f57565b61170b9190611d50565b60c0820152611718610968565b8160c001516117279190611f57565b60e082018190521561173f5760e08101516101008201525b8060200151606a5f866001600160a01b03166001600160a01b031681526020019081526020015f205f8282546117759190611d16565b909155505060c0810151815161178b9190611d16565b6001600160a01b0384165f90815260696020526040812080549091906117b2908490611d29565b909155505060e081015160208201516117cb9190611d16565b6001600160a01b0384165f908152606a6020526040812080549091906117f2908490611d29565b9091555050610100810151607080545f9061180e908490611d16565b909155505060c081015181516001600160a01b0380861692908716915f80516020611f6f8339815191529161184291611d16565b60405190815260200160405180910390a3805160c08201517fff000e16c1c0d33b07404c2b2abb9832356b5cfd57566d73c9d09611f030890d91906116209082611d16565b61188f611b35565b81815261189a610968565b6118a49083611f57565b60208083019190915281516001600160a01b0386165f9081526069909252604082208054919290916118d7908490611d16565b90915550506020808201516001600160a01b0386165f908152606a9092526040822080549192909161190a908490611d16565b909155505080516001600160a01b0384165f9081526069602052604081208054909190611938908490611d29565b90915550506020808201516001600160a01b0385165f908152606a9092526040822080549192909161196b908490611d29565b909155505080516040519081526001600160a01b0384811691908616905f80516020611f6f8339815191529060200160405180910390a380516040805182815260208101929092527f2541109a23d530c06d62a3bf63d8d03107194870126fddb7170c0daef360cd8a9101611631565b6119e3611b35565b670de0b6b3a76400006119f585610581565b6119ff9190611d16565b821115611a4e5760405162461bcd60e51b815260206004820152601d60248201527f596f7520676f747461206b6565702031204d45544820616c776179732100000060448201526064016105fa565b818152611a59610968565b611a639083611f57565b60208083018290526001600160a01b0386165f908152606a909152604081208054909190611a92908490611d16565b90915550506020808201516001600160a01b0385165f908152606a90925260408220805491929091611ac5908490611d29565b909155505080516040519081526001600160a01b0384811691908616905f80516020611f6f8339815191529060200160405180910390a380516040805182815260208101929092527fd9923e08d9d88ff7a7e9b8460f3163dc6b887fabe315449da3b5cd16bb5e93409101611631565b6040518061012001604052805f81526020015f81526020015f81526020015f81526020015f81526020015f81526020015f81526020015f81526020015f81525090565b5f5b83811015611b92578181015183820152602001611b7a565b50505f910152565b602081525f8251806020840152611bb8816040850160208701611b78565b601f01601f19169190910160400192915050565b80356001600160a01b0381168114610674575f80fd5b5f8060408385031215611bf3575f80fd5b611bfc83611bcc565b946020939093013593505050565b5f805f60608486031215611c1c575f80fd5b611c2584611bcc565b9250611c3360208501611bcc565b9150604084013590509250925092565b5f60208284031215611c53575f80fd5b5035919050565b5f60208284031215611c6a575f80fd5b611c7382611bcc565b9392505050565b5f60208284031215611c8a575f80fd5b81358015158114611c73575f80fd5b5f8060408385031215611caa575f80fd5b611cb383611bcc565b9150611cc160208401611bcc565b90509250929050565b600181811c90821680611cde57607f821691505b602082108103611cfc57634e487b7160e01b5f52602260045260245ffd5b50919050565b634e487b7160e01b5f52601160045260245ffd5b818103818111156104cd576104cd611d02565b808201808211156104cd576104cd611d02565b634e487b7160e01b5f52601260045260245ffd5b5f82611d5e57611d5e611d3c565b500490565b634e487b7160e01b5f52604160045260245ffd5b601f82111561130957805f5260205f20601f840160051c81016020851015611d9c5750805b601f840160051c820191505b81811015611dbb575f8155600101611da8565b5050505050565b815167ffffffffffffffff811115611ddc57611ddc611d63565b611df081611dea8454611cca565b84611d77565b602080601f831160018114611e23575f8415611e0c5750858301515b5f19600386901b1c1916600185901b178555611e7a565b5f85815260208120601f198616915b82811015611e5157888601518255948401946001909101908401611e32565b5085821015611e6e57878501515f19600388901b60f8161c191681555b505060018460011b0185555b505050505050565b5f82611e9057611e90611d3c565b500690565b634e487b7160e01b5f52603260045260245ffd5b60208082526028908201527f5472616e7366657220616d6f756e74206578636565647320746865206d6178546040820152673c20b6b7bab73a1760c11b606082015260800190565b6020808252602b908201527f496e697469616c697a61626c653a20636f6e7472616374206973206e6f74206960408201526a6e697469616c697a696e6760a81b606082015260800190565b5f8251611f4d818460208701611b78565b9190910192915050565b80820281158282048414176104cd576104cd611d0256feddf252ad1be2c89b69c2b068fc378daa952ba7f163c4a11628f55a4df523b3efa2646970667358221220dd38e50ae0e0fd7a1847842ffe73356271a55488f816835419a3d1db1d76ef2a64736f6c63430008180033",
			"opcodes": "PUSH1 0x80 PUSH1 0x40 MSTORE PUSH1 0x72 DUP1 SLOAD PUSH2 0xFF00 NOT AND SWAP1 SSTORE CALLVALUE DUP1 ISZERO PUSH2 0x1A JUMPI PUSH0 DUP1 REVERT JUMPDEST POP PUSH2 0x1FC4 DUP1 PUSH2 0x28 PUSH0 CODECOPY PUSH0 RETURN INVALID PUSH1 0x80 PUSH1 0x40 MSTORE CALLVALUE DUP1 ISZERO PUSH2 0xF JUMPI PUSH0 DUP1 REVERT JUMPDEST POP PUSH1 0x4 CALLDATASIZE LT PUSH2 0x1BB JUMPI PUSH0 CALLDATALOAD PUSH1 0xE0 SHR DUP1 PUSH4 0x8129FC1C GT PUSH2 0xF3 JUMPI DUP1 PUSH4 0xA457C2D7 GT PUSH2 0x93 JUMPI DUP1 PUSH4 0xAF465A27 GT PUSH2 0x6E JUMPI DUP1 PUSH4 0xAF465A27 EQ PUSH2 0x3AE JUMPI DUP1 PUSH4 0xCBA0E996 EQ PUSH2 0x3B7 JUMPI DUP1 PUSH4 0xDD62ED3E EQ PUSH2 0x3E2 JUMPI DUP1 PUSH4 0xF2FDE38B EQ PUSH2 0x41A JUMPI PUSH0 DUP1 REVERT JUMPDEST DUP1 PUSH4 0xA457C2D7 EQ PUSH2 0x380 JUMPI DUP1 PUSH4 0xA9059CBB EQ PUSH2 0x393 JUMPI DUP1 PUSH4 0xAAE5DDD2 EQ PUSH2 0x3A6 JUMPI PUSH0 DUP1 REVERT JUMPDEST DUP1 PUSH4 0x8DA5CB5B GT PUSH2 0xCE JUMPI DUP1 PUSH4 0x8DA5CB5B EQ PUSH2 0x357 JUMPI DUP1 PUSH4 0x94E10784 EQ PUSH2 0x368 JUMPI DUP1 PUSH4 0x95D89B41 EQ PUSH2 0x370 JUMPI DUP1 PUSH4 0x97A9D560 EQ PUSH2 0x378 JUMPI PUSH0 DUP1 REVERT JUMPDEST DUP1 PUSH4 0x8129FC1C EQ PUSH2 0x333 JUMPI DUP1 PUSH4 0x83F24C09 EQ PUSH2 0x33B JUMPI DUP1 PUSH4 0x8C0B5E22 EQ PUSH2 0x34E JUMPI PUSH0 DUP1 REVERT JUMPDEST DUP1 PUSH4 0x4D09DEB3 GT PUSH2 0x15E JUMPI DUP1 PUSH4 0x658C27A9 GT PUSH2 0x139 JUMPI DUP1 PUSH4 0x658C27A9 EQ PUSH2 0x2A1 JUMPI DUP1 PUSH4 0x70A08231 EQ PUSH2 0x2CC JUMPI DUP1 PUSH4 0x715018A6 EQ PUSH2 0x2DF JUMPI DUP1 PUSH4 0x80DA2287 EQ PUSH2 0x2E9 JUMPI PUSH0 DUP1 REVERT JUMPDEST DUP1 PUSH4 0x4D09DEB3 EQ PUSH2 0x256 JUMPI DUP1 PUSH4 0x4DACF3F5 EQ PUSH2 0x281 JUMPI DUP1 PUSH4 0x5319E78F EQ PUSH2 0x28E JUMPI PUSH0 DUP1 REVERT JUMPDEST DUP1 PUSH4 0x23B872DD GT PUSH2 0x199 JUMPI DUP1 PUSH4 0x23B872DD EQ PUSH2 0x212 JUMPI DUP1 PUSH4 0x313CE567 EQ PUSH2 0x225 JUMPI DUP1 PUSH4 0x39509351 EQ PUSH2 0x23A JUMPI DUP1 PUSH4 0x45E0B9D4 EQ PUSH2 0x24D JUMPI PUSH0 DUP1 REVERT JUMPDEST DUP1 PUSH4 0x6FDDE03 EQ PUSH2 0x1BF JUMPI DUP1 PUSH4 0x95EA7B3 EQ PUSH2 0x1DD JUMPI DUP1 PUSH4 0x18160DDD EQ PUSH2 0x200 JUMPI JUMPDEST PUSH0 DUP1 REVERT JUMPDEST PUSH2 0x1C7 PUSH2 0x42D JUMP JUMPDEST PUSH1 0x40 MLOAD PUSH2 0x1D4 SWAP2 SWAP1 PUSH2 0x1B9A JUMP JUMPDEST PUSH1 0x40 MLOAD DUP1 SWAP2 SUB SWAP1 RETURN JUMPDEST PUSH2 0x1F0 PUSH2 0x1EB CALLDATASIZE PUSH1 0x4 PUSH2 0x1BE2 JUMP JUMPDEST PUSH2 0x4BD JUMP JUMPDEST PUSH1 0x40 MLOAD SWAP1 ISZERO ISZERO DUP2 MSTORE PUSH1 0x20 ADD PUSH2 0x1D4 JUMP JUMPDEST PUSH1 0x6F SLOAD JUMPDEST PUSH1 0x40 MLOAD SWAP1 DUP2 MSTORE PUSH1 0x20 ADD PUSH2 0x1D4 JUMP JUMPDEST PUSH2 0x1F0 PUSH2 0x220 CALLDATASIZE PUSH1 0x4 PUSH2 0x1C0A JUMP JUMPDEST PUSH2 0x4D3 JUMP JUMPDEST PUSH1 0x67 SLOAD PUSH1 0x40 MLOAD PUSH1 0xFF SWAP1 SWAP2 AND DUP2 MSTORE PUSH1 0x20 ADD PUSH2 0x1D4 JUMP JUMPDEST PUSH2 0x1F0 PUSH2 0x248 CALLDATASIZE PUSH1 0x4 PUSH2 0x1BE2 JUMP JUMPDEST PUSH2 0x523 JUMP JUMPDEST PUSH2 0x204 PUSH1 0x70 SLOAD DUP2 JUMP JUMPDEST PUSH2 0x269 PUSH2 0x264 CALLDATASIZE PUSH1 0x4 PUSH2 0x1C43 JUMP JUMPDEST PUSH2 0x559 JUMP JUMPDEST PUSH1 0x40 MLOAD PUSH1 0x1 PUSH1 0x1 PUSH1 0xA0 SHL SUB SWAP1 SWAP2 AND DUP2 MSTORE PUSH1 0x20 ADD PUSH2 0x1D4 JUMP JUMPDEST PUSH1 0x72 SLOAD PUSH2 0x1F0 SWAP1 PUSH1 0xFF AND DUP2 JUMP JUMPDEST PUSH2 0x204 PUSH2 0x29C CALLDATASIZE PUSH1 0x4 PUSH2 0x1C5A JUMP JUMPDEST PUSH2 0x581 JUMP JUMPDEST PUSH2 0x1F0 PUSH2 0x2AF CALLDATASIZE PUSH1 0x4 PUSH2 0x1C5A JUMP JUMPDEST PUSH1 0x1 PUSH1 0x1 PUSH1 0xA0 SHL SUB AND PUSH0 SWAP1 DUP2 MSTORE PUSH1 0x6D PUSH1 0x20 MSTORE PUSH1 0x40 SWAP1 KECCAK256 SLOAD PUSH1 0xFF AND SWAP1 JUMP JUMPDEST PUSH2 0x204 PUSH2 0x2DA CALLDATASIZE PUSH1 0x4 PUSH2 0x1C5A JUMP JUMPDEST PUSH2 0x630 JUMP JUMPDEST PUSH2 0x2E7 PUSH2 0x679 JUMP JUMPDEST STOP JUMPDEST PUSH2 0x31E PUSH2 0x2F7 CALLDATASIZE PUSH1 0x4 PUSH2 0x1C5A JUMP JUMPDEST PUSH1 0x1 PUSH1 0x1 PUSH1 0xA0 SHL SUB AND PUSH0 SWAP1 DUP2 MSTORE PUSH1 0x69 PUSH1 0x20 SWAP1 DUP2 MSTORE PUSH1 0x40 DUP1 DUP4 KECCAK256 SLOAD PUSH1 0x6A SWAP1 SWAP3 MSTORE SWAP1 SWAP2 KECCAK256 SLOAD SWAP1 SWAP2 JUMP JUMPDEST PUSH1 0x40 DUP1 MLOAD SWAP3 DUP4 MSTORE PUSH1 0x20 DUP4 ADD SWAP2 SWAP1 SWAP2 MSTORE ADD PUSH2 0x1D4 JUMP JUMPDEST PUSH2 0x2E7 PUSH2 0x68C JUMP JUMPDEST PUSH2 0x2E7 PUSH2 0x349 CALLDATASIZE PUSH1 0x4 PUSH2 0x1C7A JUMP JUMPDEST PUSH2 0x94D JUMP JUMPDEST PUSH2 0x204 PUSH1 0x71 SLOAD DUP2 JUMP JUMPDEST PUSH1 0x33 SLOAD PUSH1 0x1 PUSH1 0x1 PUSH1 0xA0 SHL SUB AND PUSH2 0x269 JUMP JUMPDEST PUSH2 0x204 PUSH2 0x968 JUMP JUMPDEST PUSH2 0x1C7 PUSH2 0x989 JUMP JUMPDEST PUSH2 0x31E PUSH2 0x998 JUMP JUMPDEST PUSH2 0x1F0 PUSH2 0x38E CALLDATASIZE PUSH1 0x4 PUSH2 0x1BE2 JUMP JUMPDEST PUSH2 0xA4C JUMP JUMPDEST PUSH2 0x1F0 PUSH2 0x3A1 CALLDATASIZE PUSH1 0x4 PUSH2 0x1BE2 JUMP JUMPDEST PUSH2 0xA82 JUMP JUMPDEST PUSH2 0x204 PUSH2 0xA8E JUMP JUMPDEST PUSH2 0x204 PUSH1 0x6F SLOAD DUP2 JUMP JUMPDEST PUSH2 0x1F0 PUSH2 0x3C5 CALLDATASIZE PUSH1 0x4 PUSH2 0x1C5A JUMP JUMPDEST PUSH1 0x1 PUSH1 0x1 PUSH1 0xA0 SHL SUB AND PUSH0 SWAP1 DUP2 MSTORE PUSH1 0x6C PUSH1 0x20 MSTORE PUSH1 0x40 SWAP1 KECCAK256 SLOAD PUSH1 0xFF AND SWAP1 JUMP JUMPDEST PUSH2 0x204 PUSH2 0x3F0 CALLDATASIZE PUSH1 0x4 PUSH2 0x1C99 JUMP JUMPDEST PUSH1 0x1 PUSH1 0x1 PUSH1 0xA0 SHL SUB SWAP2 DUP3 AND PUSH0 SWAP1 DUP2 MSTORE PUSH1 0x6B PUSH1 0x20 SWAP1 DUP2 MSTORE PUSH1 0x40 DUP1 DUP4 KECCAK256 SWAP4 SWAP1 SWAP5 AND DUP3 MSTORE SWAP2 SWAP1 SWAP2 MSTORE KECCAK256 SLOAD SWAP1 JUMP JUMPDEST PUSH2 0x2E7 PUSH2 0x428 CALLDATASIZE PUSH1 0x4 PUSH2 0x1C5A JUMP JUMPDEST PUSH2 0xAA9 JUMP JUMPDEST PUSH1 0x60 PUSH1 0x65 DUP1 SLOAD PUSH2 0x43C SWAP1 PUSH2 0x1CCA JUMP JUMPDEST DUP1 PUSH1 0x1F ADD PUSH1 0x20 DUP1 SWAP2 DIV MUL PUSH1 0x20 ADD PUSH1 0x40 MLOAD SWAP1 DUP2 ADD PUSH1 0x40 MSTORE DUP1 SWAP3 SWAP2 SWAP1 DUP2 DUP2 MSTORE PUSH1 0x20 ADD DUP3 DUP1 SLOAD PUSH2 0x468 SWAP1 PUSH2 0x1CCA JUMP JUMPDEST DUP1 ISZERO PUSH2 0x4B3 JUMPI DUP1 PUSH1 0x1F LT PUSH2 0x48A JUMPI PUSH2 0x100 DUP1 DUP4 SLOAD DIV MUL DUP4 MSTORE SWAP2 PUSH1 0x20 ADD SWAP2 PUSH2 0x4B3 JUMP JUMPDEST DUP3 ADD SWAP2 SWAP1 PUSH0 MSTORE PUSH1 0x20 PUSH0 KECCAK256 SWAP1 JUMPDEST DUP2 SLOAD DUP2 MSTORE SWAP1 PUSH1 0x1 ADD SWAP1 PUSH1 0x20 ADD DUP1 DUP4 GT PUSH2 0x496 JUMPI DUP3 SWAP1 SUB PUSH1 0x1F AND DUP3 ADD SWAP2 JUMPDEST POP POP POP POP POP SWAP1 POP SWAP1 JUMP JUMPDEST PUSH0 PUSH2 0x4C9 CALLER DUP5 DUP5 PUSH2 0xB1F JUMP JUMPDEST POP PUSH1 0x1 JUMPDEST SWAP3 SWAP2 POP POP JUMP JUMPDEST PUSH0 PUSH2 0x4DF DUP5 DUP5 DUP5 PUSH2 0xC42 JUMP JUMPDEST PUSH1 0x1 PUSH1 0x1 PUSH1 0xA0 SHL SUB DUP5 AND PUSH0 SWAP1 DUP2 MSTORE PUSH1 0x6B PUSH1 0x20 SWAP1 DUP2 MSTORE PUSH1 0x40 DUP1 DUP4 KECCAK256 CALLER DUP1 DUP6 MSTORE SWAP3 MSTORE SWAP1 SWAP2 KECCAK256 SLOAD PUSH2 0x519 SWAP2 DUP7 SWAP2 PUSH2 0x514 SWAP1 DUP7 SWAP1 PUSH2 0x1D16 JUMP JUMPDEST PUSH2 0xB1F JUMP JUMPDEST POP PUSH1 0x1 SWAP4 SWAP3 POP POP POP JUMP JUMPDEST CALLER PUSH0 DUP2 DUP2 MSTORE PUSH1 0x6B PUSH1 0x20 SWAP1 DUP2 MSTORE PUSH1 0x40 DUP1 DUP4 KECCAK256 PUSH1 0x1 PUSH1 0x1 PUSH1 0xA0 SHL SUB DUP8 AND DUP5 MSTORE SWAP1 SWAP2 MSTORE DUP2 KECCAK256 SLOAD SWAP1 SWAP2 PUSH2 0x4C9 SWAP2 DUP6 SWAP1 PUSH2 0x514 SWAP1 DUP7 SWAP1 PUSH2 0x1D29 JUMP JUMPDEST PUSH1 0x68 DUP2 DUP2 SLOAD DUP2 LT PUSH2 0x568 JUMPI PUSH0 DUP1 REVERT JUMPDEST PUSH0 SWAP2 DUP3 MSTORE PUSH1 0x20 SWAP1 SWAP2 KECCAK256 ADD SLOAD PUSH1 0x1 PUSH1 0x1 PUSH1 0xA0 SHL SUB AND SWAP1 POP DUP2 JUMP JUMPDEST PUSH1 0x1 PUSH1 0x1 PUSH1 0xA0 SHL SUB DUP2 AND PUSH0 SWAP1 DUP2 MSTORE PUSH1 0x6A PUSH1 0x20 MSTORE PUSH1 0x40 DUP2 KECCAK256 SLOAD PUSH1 0x70 SLOAD DUP2 GT ISZERO PUSH2 0x603 JUMPI PUSH1 0x40 MLOAD PUSH3 0x461BCD PUSH1 0xE5 SHL DUP2 MSTORE PUSH1 0x20 PUSH1 0x4 DUP3 ADD MSTORE PUSH1 0x2A PUSH1 0x24 DUP3 ADD MSTORE PUSH32 0x416D6F756E74206D757374206265206C657373207468616E20746F74616C2072 PUSH1 0x44 DUP3 ADD MSTORE PUSH10 0x65666C656374696F6E73 PUSH1 0xB0 SHL PUSH1 0x64 DUP3 ADD MSTORE PUSH1 0x84 ADD JUMPDEST PUSH1 0x40 MLOAD DUP1 SWAP2 SUB SWAP1 REVERT JUMPDEST PUSH0 PUSH2 0x60C PUSH2 0x968 JUMP JUMPDEST SWAP1 POP DUP2 PUSH0 SUB PUSH2 0x61E JUMPI POP PUSH0 SWAP4 SWAP3 POP POP POP JUMP JUMPDEST PUSH2 0x628 DUP2 DUP4 PUSH2 0x1D50 JUMP JUMPDEST SWAP5 SWAP4 POP POP POP POP JUMP JUMPDEST PUSH1 0x1 PUSH1 0x1 PUSH1 0xA0 SHL SUB DUP2 AND PUSH0 SWAP1 DUP2 MSTORE PUSH1 0x6C PUSH1 0x20 MSTORE PUSH1 0x40 DUP2 KECCAK256 SLOAD PUSH1 0xFF AND ISZERO PUSH2 0x66B JUMPI POP PUSH1 0x1 PUSH1 0x1 PUSH1 0xA0 SHL SUB AND PUSH0 SWAP1 DUP2 MSTORE PUSH1 0x69 PUSH1 0x20 MSTORE PUSH1 0x40 SWAP1 KECCAK256 SLOAD SWAP1 JUMP JUMPDEST PUSH2 0x4CD DUP3 PUSH2 0x581 JUMP JUMPDEST SWAP2 SWAP1 POP JUMP JUMPDEST PUSH2 0x681 PUSH2 0xFB1 JUMP JUMPDEST PUSH2 0x68A PUSH0 PUSH2 0x100B JUMP JUMPDEST JUMP JUMPDEST PUSH0 SLOAD PUSH2 0x100 SWAP1 DIV PUSH1 0xFF AND ISZERO DUP1 DUP1 ISZERO PUSH2 0x6AA JUMPI POP PUSH0 SLOAD PUSH1 0x1 PUSH1 0xFF SWAP1 SWAP2 AND LT JUMPDEST DUP1 PUSH2 0x6C3 JUMPI POP ADDRESS EXTCODESIZE ISZERO DUP1 ISZERO PUSH2 0x6C3 JUMPI POP PUSH0 SLOAD PUSH1 0xFF AND PUSH1 0x1 EQ JUMPDEST PUSH2 0x726 JUMPI PUSH1 0x40 MLOAD PUSH3 0x461BCD PUSH1 0xE5 SHL DUP2 MSTORE PUSH1 0x20 PUSH1 0x4 DUP3 ADD MSTORE PUSH1 0x2E PUSH1 0x24 DUP3 ADD MSTORE PUSH32 0x496E697469616C697A61626C653A20636F6E747261637420697320616C726561 PUSH1 0x44 DUP3 ADD MSTORE PUSH14 0x191E481A5B9A5D1A585B1A5E9959 PUSH1 0x92 SHL PUSH1 0x64 DUP3 ADD MSTORE PUSH1 0x84 ADD PUSH2 0x5FA JUMP JUMPDEST PUSH0 DUP1 SLOAD PUSH1 0xFF NOT AND PUSH1 0x1 OR SWAP1 SSTORE DUP1 ISZERO PUSH2 0x747 JUMPI PUSH0 DUP1 SLOAD PUSH2 0xFF00 NOT AND PUSH2 0x100 OR SWAP1 SSTORE JUMPDEST PUSH2 0x74F PUSH2 0x105C JUMP JUMPDEST PUSH1 0x40 DUP1 MLOAD DUP1 DUP3 ADD SWAP1 SWAP2 MSTORE PUSH1 0x6 DUP2 MSTORE PUSH6 0x26AA22A9AA23 PUSH1 0xD1 SHL PUSH1 0x20 DUP3 ADD MSTORE PUSH1 0x65 SWAP1 PUSH2 0x779 SWAP1 DUP3 PUSH2 0x1DC2 JUMP JUMPDEST POP PUSH1 0x40 DUP1 MLOAD DUP1 DUP3 ADD SWAP1 SWAP2 MSTORE PUSH1 0x6 DUP2 MSTORE PUSH6 0x26AA22A9AA23 PUSH1 0xD1 SHL PUSH1 0x20 DUP3 ADD MSTORE PUSH1 0x66 SWAP1 PUSH2 0x7A4 SWAP1 DUP3 PUSH2 0x1DC2 JUMP JUMPDEST POP PUSH1 0x67 DUP1 SLOAD PUSH1 0xFF NOT AND PUSH1 0x12 OR SWAP1 SSTORE PUSH12 0x204FCE5E3E25026110000000 PUSH1 0x6F DUP2 SWAP1 SSTORE PUSH0 NOT PUSH1 0x6E DUP2 SWAP1 SSTORE PUSH2 0x7D5 SWAP2 SWAP1 PUSH2 0x1E82 JUMP JUMPDEST PUSH1 0x6E SLOAD PUSH2 0x7E2 SWAP2 SWAP1 PUSH2 0x1D16 JUMP JUMPDEST PUSH1 0x70 DUP2 SWAP1 SSTORE PUSH1 0x6A PUSH0 PUSH2 0x7FC PUSH1 0x33 SLOAD PUSH1 0x1 PUSH1 0x1 PUSH1 0xA0 SHL SUB AND SWAP1 JUMP JUMPDEST PUSH1 0x1 PUSH1 0x1 PUSH1 0xA0 SHL SUB AND DUP2 MSTORE PUSH1 0x20 DUP1 DUP3 ADD SWAP3 SWAP1 SWAP3 MSTORE PUSH1 0x40 ADD PUSH0 SWAP1 DUP2 KECCAK256 SWAP3 SWAP1 SWAP3 SSTORE PUSH1 0x6F SLOAD PUSH1 0x71 SSTORE PUSH1 0x6C SWAP1 MSTORE PUSH32 0x7FEBD347DF14EA35C529E50FB2DD629D4A6226F5CCC893710FB466F8B83823FC DUP1 SLOAD PUSH1 0xFF NOT SWAP1 DUP2 AND PUSH1 0x1 SWAP1 DUP2 OR SWAP1 SWAP3 SSTORE PUSH32 0x8C482E007F935C93984DDF7A647E33EF99566883FFAE3563AA616DC14D1632F7 DUP1 SLOAD DUP3 AND DUP4 OR SWAP1 SSTORE PUSH32 0xB6E99D88B536AE7728C4B89CA5A6073CF06FD2059E0AFF5B1A4DE2C799D9CB96 DUP1 SLOAD DUP3 AND DUP4 OR SWAP1 SSTORE PUSH2 0x369 SWAP1 SWAP3 MSTORE PUSH1 0x72 DUP1 SLOAD SWAP1 SWAP3 AND OR SWAP1 SSTORE PUSH2 0x8CA PUSH1 0x33 SLOAD PUSH1 0x1 PUSH1 0x1 PUSH1 0xA0 SHL SUB AND SWAP1 JUMP JUMPDEST PUSH1 0x1 PUSH1 0x1 PUSH1 0xA0 SHL SUB AND PUSH0 PUSH1 0x1 PUSH1 0x1 PUSH1 0xA0 SHL SUB AND PUSH0 DUP1 MLOAD PUSH1 0x20 PUSH2 0x1F6F DUP4 CODECOPY DUP2 MLOAD SWAP2 MSTORE PUSH1 0x6F SLOAD PUSH1 0x40 MLOAD PUSH2 0x8FD SWAP2 DUP2 MSTORE PUSH1 0x20 ADD SWAP1 JUMP JUMPDEST PUSH1 0x40 MLOAD DUP1 SWAP2 SUB SWAP1 LOG3 DUP1 ISZERO PUSH2 0x94A JUMPI PUSH0 DUP1 SLOAD PUSH2 0xFF00 NOT AND SWAP1 SSTORE PUSH1 0x40 MLOAD PUSH1 0x1 DUP2 MSTORE PUSH32 0x7F26B83FF96E1F2B6A682F133852F6798A09C465DA95921460CEFB3847402498 SWAP1 PUSH1 0x20 ADD PUSH1 0x40 MLOAD DUP1 SWAP2 SUB SWAP1 LOG1 JUMPDEST POP JUMP JUMPDEST PUSH2 0x955 PUSH2 0xFB1 JUMP JUMPDEST PUSH1 0x72 DUP1 SLOAD PUSH1 0xFF NOT AND SWAP2 ISZERO ISZERO SWAP2 SWAP1 SWAP2 OR SWAP1 SSTORE JUMP JUMPDEST PUSH0 DUP1 PUSH0 PUSH2 0x973 PUSH2 0x998 JUMP JUMPDEST SWAP1 SWAP3 POP SWAP1 POP PUSH2 0x982 DUP2 DUP4 PUSH2 0x1D50 JUMP JUMPDEST SWAP3 POP POP POP SWAP1 JUMP JUMPDEST PUSH1 0x60 PUSH1 0x66 DUP1 SLOAD PUSH2 0x43C SWAP1 PUSH2 0x1CCA JUMP JUMPDEST PUSH1 0x70 SLOAD PUSH1 0x6F SLOAD PUSH0 SWAP2 DUP3 SWAP2 DUP3 JUMPDEST PUSH1 0x68 SLOAD DUP2 LT ISZERO PUSH2 0xA42 JUMPI PUSH1 0x6A PUSH0 PUSH1 0x68 DUP4 DUP2 SLOAD DUP2 LT PUSH2 0x9C4 JUMPI PUSH2 0x9C4 PUSH2 0x1E95 JUMP JUMPDEST PUSH0 SWAP2 DUP3 MSTORE PUSH1 0x20 DUP1 DUP4 KECCAK256 SWAP1 SWAP2 ADD SLOAD PUSH1 0x1 PUSH1 0x1 PUSH1 0xA0 SHL SUB AND DUP4 MSTORE DUP3 ADD SWAP3 SWAP1 SWAP3 MSTORE PUSH1 0x40 ADD SWAP1 KECCAK256 SLOAD PUSH2 0x9F2 SWAP1 DUP5 PUSH2 0x1D16 JUMP JUMPDEST SWAP3 POP PUSH1 0x69 PUSH0 PUSH1 0x68 DUP4 DUP2 SLOAD DUP2 LT PUSH2 0xA0A JUMPI PUSH2 0xA0A PUSH2 0x1E95 JUMP JUMPDEST PUSH0 SWAP2 DUP3 MSTORE PUSH1 0x20 DUP1 DUP4 KECCAK256 SWAP1 SWAP2 ADD SLOAD PUSH1 0x1 PUSH1 0x1 PUSH1 0xA0 SHL SUB AND DUP4 MSTORE DUP3 ADD SWAP3 SWAP1 SWAP3 MSTORE PUSH1 0x40 ADD SWAP1 KECCAK256 SLOAD PUSH2 0xA38 SWAP1 DUP4 PUSH2 0x1D16 JUMP JUMPDEST SWAP2 POP PUSH1 0x1 ADD PUSH2 0x9A4 JUMP JUMPDEST POP SWAP1 SWAP4 SWAP1 SWAP3 POP SWAP1 POP JUMP JUMPDEST CALLER PUSH0 DUP2 DUP2 MSTORE PUSH1 0x6B PUSH1 0x20 SWAP1 DUP2 MSTORE PUSH1 0x40 DUP1 DUP4 KECCAK256 PUSH1 0x1 PUSH1 0x1 PUSH1 0xA0 SHL SUB DUP8 AND DUP5 MSTORE SWAP1 SWAP2 MSTORE DUP2 KECCAK256 SLOAD SWAP1 SWAP2 PUSH2 0x4C9 SWAP2 DUP6 SWAP1 PUSH2 0x514 SWAP1 DUP7 SWAP1 PUSH2 0x1D16 JUMP JUMPDEST PUSH0 PUSH2 0x4C9 CALLER DUP5 DUP5 PUSH2 0xC42 JUMP JUMPDEST PUSH0 PUSH1 0xA PUSH2 0xA9A CALLER PUSH2 0x630 JUMP JUMPDEST PUSH2 0xAA4 SWAP2 SWAP1 PUSH2 0x1D50 JUMP JUMPDEST SWAP1 POP SWAP1 JUMP JUMPDEST PUSH2 0xAB1 PUSH2 0xFB1 JUMP JUMPDEST PUSH1 0x1 PUSH1 0x1 PUSH1 0xA0 SHL SUB DUP2 AND PUSH2 0xB16 JUMPI PUSH1 0x40 MLOAD PUSH3 0x461BCD PUSH1 0xE5 SHL DUP2 MSTORE PUSH1 0x20 PUSH1 0x4 DUP3 ADD MSTORE PUSH1 0x26 PUSH1 0x24 DUP3 ADD MSTORE PUSH32 0x4F776E61626C653A206E6577206F776E657220697320746865207A65726F2061 PUSH1 0x44 DUP3 ADD MSTORE PUSH6 0x646472657373 PUSH1 0xD0 SHL PUSH1 0x64 DUP3 ADD MSTORE PUSH1 0x84 ADD PUSH2 0x5FA JUMP JUMPDEST PUSH2 0x94A DUP2 PUSH2 0x100B JUMP JUMPDEST PUSH1 0x1 PUSH1 0x1 PUSH1 0xA0 SHL SUB DUP4 AND PUSH2 0xB81 JUMPI PUSH1 0x40 MLOAD PUSH3 0x461BCD PUSH1 0xE5 SHL DUP2 MSTORE PUSH1 0x20 PUSH1 0x4 DUP3 ADD MSTORE PUSH1 0x24 DUP1 DUP3 ADD MSTORE PUSH32 0x45524332303A20617070726F76652066726F6D20746865207A65726F20616464 PUSH1 0x44 DUP3 ADD MSTORE PUSH4 0x72657373 PUSH1 0xE0 SHL PUSH1 0x64 DUP3 ADD MSTORE PUSH1 0x84 ADD PUSH2 0x5FA JUMP JUMPDEST PUSH1 0x1 PUSH1 0x1 PUSH1 0xA0 SHL SUB DUP3 AND PUSH2 0xBE2 JUMPI PUSH1 0x40 MLOAD PUSH3 0x461BCD PUSH1 0xE5 SHL DUP2 MSTORE PUSH1 0x20 PUSH1 0x4 DUP3 ADD MSTORE PUSH1 0x22 PUSH1 0x24 DUP3 ADD MSTORE PUSH32 0x45524332303A20617070726F766520746F20746865207A65726F206164647265 PUSH1 0x44 DUP3 ADD MSTORE PUSH2 0x7373 PUSH1 0xF0 SHL PUSH1 0x64 DUP3 ADD MSTORE PUSH1 0x84 ADD PUSH2 0x5FA JUMP JUMPDEST PUSH1 0x1 PUSH1 0x1 PUSH1 0xA0 SHL SUB DUP4 DUP2 AND PUSH0 DUP2 DUP2 MSTORE PUSH1 0x6B PUSH1 0x20 SWAP1 DUP2 MSTORE PUSH1 0x40 DUP1 DUP4 KECCAK256 SWAP5 DUP8 AND DUP1 DUP5 MSTORE SWAP5 DUP3 MSTORE SWAP2 DUP3 SWAP1 KECCAK256 DUP6 SWAP1 SSTORE SWAP1 MLOAD DUP5 DUP2 MSTORE PUSH32 0x8C5BE1E5EBEC7D5BD14F71427D1E84F3DD0314C0F7B2291E5B200AC8C7C3B925 SWAP2 ADD PUSH1 0x40 MLOAD DUP1 SWAP2 SUB SWAP1 LOG3 POP POP POP JUMP JUMPDEST PUSH1 0x72 SLOAD PUSH2 0x100 SWAP1 DIV PUSH1 0xFF AND ISZERO PUSH2 0xC56 JUMPI PUSH0 DUP1 REVERT JUMPDEST PUSH1 0x72 DUP1 SLOAD PUSH2 0xFF00 NOT AND PUSH2 0x100 OR SWAP1 SSTORE PUSH1 0x1 PUSH1 0x1 PUSH1 0xA0 SHL SUB DUP4 AND PUSH2 0xCC9 JUMPI PUSH1 0x40 MLOAD PUSH3 0x461BCD PUSH1 0xE5 SHL DUP2 MSTORE PUSH1 0x20 PUSH1 0x4 DUP3 ADD MSTORE PUSH1 0x25 PUSH1 0x24 DUP3 ADD MSTORE PUSH32 0x45524332303A207472616E736665722066726F6D20746865207A65726F206164 PUSH1 0x44 DUP3 ADD MSTORE PUSH5 0x6472657373 PUSH1 0xD8 SHL PUSH1 0x64 DUP3 ADD MSTORE PUSH1 0x84 ADD PUSH2 0x5FA JUMP JUMPDEST PUSH1 0x1 PUSH1 0x1 PUSH1 0xA0 SHL SUB DUP3 AND PUSH2 0xD2B JUMPI PUSH1 0x40 MLOAD PUSH3 0x461BCD PUSH1 0xE5 SHL DUP2 MSTORE PUSH1 0x20 PUSH1 0x4 DUP3 ADD MSTORE PUSH1 0x23 PUSH1 0x24 DUP3 ADD MSTORE PUSH32 0x45524332303A207472616E7366657220746F20746865207A65726F2061646472 PUSH1 0x44 DUP3 ADD MSTORE PUSH3 0x657373 PUSH1 0xE8 SHL PUSH1 0x64 DUP3 ADD MSTORE PUSH1 0x84 ADD PUSH2 0x5FA JUMP JUMPDEST PUSH0 DUP2 GT PUSH2 0xD8C JUMPI PUSH1 0x40 MLOAD PUSH3 0x461BCD PUSH1 0xE5 SHL DUP2 MSTORE PUSH1 0x20 PUSH1 0x4 DUP3 ADD MSTORE PUSH1 0x29 PUSH1 0x24 DUP3 ADD MSTORE PUSH32 0x5472616E7366657220616D6F756E74206D757374206265206772656174657220 PUSH1 0x44 DUP3 ADD MSTORE PUSH9 0x7468616E207A65726F PUSH1 0xB8 SHL PUSH1 0x64 DUP3 ADD MSTORE PUSH1 0x84 ADD PUSH2 0x5FA JUMP JUMPDEST PUSH2 0xD95 DUP4 PUSH2 0x108A JUMP JUMPDEST ISZERO ISZERO PUSH1 0x1 EQ DUP1 ISZERO PUSH2 0xDBE JUMPI POP PUSH1 0x1 PUSH1 0x1 PUSH1 0xA0 SHL SUB DUP4 AND PUSH0 SWAP1 DUP2 MSTORE PUSH1 0x6D PUSH1 0x20 MSTORE PUSH1 0x40 SWAP1 KECCAK256 SLOAD PUSH1 0xFF AND ISZERO JUMPDEST DUP1 ISZERO PUSH2 0xDE2 JUMPI POP PUSH1 0x1 PUSH1 0x1 PUSH1 0xA0 SHL SUB DUP4 AND PUSH0 SWAP1 DUP2 MSTORE PUSH1 0x6C PUSH1 0x20 MSTORE PUSH1 0x40 SWAP1 KECCAK256 SLOAD PUSH1 0xFF AND ISZERO JUMPDEST ISZERO PUSH2 0xDF9 JUMPI PUSH2 0xDF0 DUP4 PUSH2 0x1123 JUMP JUMPDEST PUSH2 0xDF9 DUP4 PUSH2 0x11AE JUMP JUMPDEST PUSH2 0xE02 DUP3 PUSH2 0x108A JUMP JUMPDEST ISZERO ISZERO PUSH1 0x1 EQ DUP1 ISZERO PUSH2 0xE2B JUMPI POP PUSH1 0x1 PUSH1 0x1 PUSH1 0xA0 SHL SUB DUP3 AND PUSH0 SWAP1 DUP2 MSTORE PUSH1 0x6D PUSH1 0x20 MSTORE PUSH1 0x40 SWAP1 KECCAK256 SLOAD PUSH1 0xFF AND ISZERO JUMPDEST DUP1 ISZERO PUSH2 0xE4F JUMPI POP PUSH1 0x1 PUSH1 0x1 PUSH1 0xA0 SHL SUB DUP3 AND PUSH0 SWAP1 DUP2 MSTORE PUSH1 0x6C PUSH1 0x20 MSTORE PUSH1 0x40 SWAP1 KECCAK256 SLOAD PUSH1 0xFF AND ISZERO JUMPDEST ISZERO PUSH2 0xE66 JUMPI PUSH2 0xE5D DUP3 PUSH2 0x1123 JUMP JUMPDEST PUSH2 0xE66 DUP3 PUSH2 0x11AE JUMP JUMPDEST PUSH1 0x33 SLOAD PUSH1 0x1 PUSH1 0x1 PUSH1 0xA0 SHL SUB DUP5 DUP2 AND SWAP2 AND EQ DUP1 ISZERO SWAP1 PUSH2 0xE92 JUMPI POP PUSH1 0x33 SLOAD PUSH1 0x1 PUSH1 0x1 PUSH1 0xA0 SHL SUB DUP4 DUP2 AND SWAP2 AND EQ ISZERO JUMPDEST ISZERO PUSH2 0xEFE JUMPI PUSH1 0x1 PUSH1 0x1 PUSH1 0xA0 SHL SUB DUP4 AND PUSH0 SWAP1 DUP2 MSTORE PUSH1 0x6D PUSH1 0x20 MSTORE PUSH1 0x40 SWAP1 KECCAK256 SLOAD PUSH1 0xFF AND ISZERO DUP1 ISZERO PUSH2 0xED7 JUMPI POP PUSH1 0x1 PUSH1 0x1 PUSH1 0xA0 SHL SUB DUP3 AND PUSH0 SWAP1 DUP2 MSTORE PUSH1 0x6D PUSH1 0x20 MSTORE PUSH1 0x40 SWAP1 KECCAK256 SLOAD PUSH1 0xFF AND ISZERO JUMPDEST ISZERO PUSH2 0xEFE JUMPI PUSH1 0x71 SLOAD DUP2 GT ISZERO PUSH2 0xEFE JUMPI PUSH1 0x40 MLOAD PUSH3 0x461BCD PUSH1 0xE5 SHL DUP2 MSTORE PUSH1 0x4 ADD PUSH2 0x5FA SWAP1 PUSH2 0x1EA9 JUMP JUMPDEST PUSH1 0x33 SLOAD PUSH1 0x1 PUSH1 0x1 PUSH1 0xA0 SHL SUB DUP5 DUP2 AND SWAP2 AND EQ DUP1 ISZERO SWAP1 PUSH2 0xF2A JUMPI POP PUSH1 0x33 SLOAD PUSH1 0x1 PUSH1 0x1 PUSH1 0xA0 SHL SUB DUP4 DUP2 AND SWAP2 AND EQ ISZERO JUMPDEST ISZERO PUSH2 0xF96 JUMPI PUSH1 0x1 PUSH1 0x1 PUSH1 0xA0 SHL SUB DUP4 AND PUSH0 SWAP1 DUP2 MSTORE PUSH1 0x6D PUSH1 0x20 MSTORE PUSH1 0x40 SWAP1 KECCAK256 SLOAD PUSH1 0xFF AND ISZERO DUP1 ISZERO PUSH2 0xF6F JUMPI POP PUSH1 0x1 PUSH1 0x1 PUSH1 0xA0 SHL SUB DUP3 AND PUSH0 SWAP1 DUP2 MSTORE PUSH1 0x6D PUSH1 0x20 MSTORE PUSH1 0x40 SWAP1 KECCAK256 SLOAD PUSH1 0xFF AND ISZERO JUMPDEST ISZERO PUSH2 0xF96 JUMPI PUSH1 0x71 SLOAD DUP2 GT ISZERO PUSH2 0xF96 JUMPI PUSH1 0x40 MLOAD PUSH3 0x461BCD PUSH1 0xE5 SHL DUP2 MSTORE PUSH1 0x4 ADD PUSH2 0x5FA SWAP1 PUSH2 0x1EA9 JUMP JUMPDEST PUSH2 0xFA1 DUP4 DUP4 DUP4 PUSH2 0x12BA JUMP JUMPDEST POP POP PUSH1 0x72 DUP1 SLOAD PUSH2 0xFF00 NOT AND SWAP1 SSTORE POP JUMP JUMPDEST PUSH1 0x33 SLOAD PUSH1 0x1 PUSH1 0x1 PUSH1 0xA0 SHL SUB AND CALLER EQ PUSH2 0x68A JUMPI PUSH1 0x40 MLOAD PUSH3 0x461BCD PUSH1 0xE5 SHL DUP2 MSTORE PUSH1 0x20 PUSH1 0x4 DUP3 ADD DUP2 SWAP1 MSTORE PUSH1 0x24 DUP3 ADD MSTORE PUSH32 0x4F776E61626C653A2063616C6C6572206973206E6F7420746865206F776E6572 PUSH1 0x44 DUP3 ADD MSTORE PUSH1 0x64 ADD PUSH2 0x5FA JUMP JUMPDEST PUSH1 0x33 DUP1 SLOAD PUSH1 0x1 PUSH1 0x1 PUSH1 0xA0 SHL SUB DUP4 DUP2 AND PUSH1 0x1 PUSH1 0x1 PUSH1 0xA0 SHL SUB NOT DUP4 AND DUP2 OR SWAP1 SWAP4 SSTORE PUSH1 0x40 MLOAD SWAP2 AND SWAP2 SWAP1 DUP3 SWAP1 PUSH32 0x8BE0079C531659141344CD1FD0A4F28419497F9722A3DAAFE3B4186F6B6457E0 SWAP1 PUSH0 SWAP1 LOG3 POP POP JUMP JUMPDEST PUSH0 SLOAD PUSH2 0x100 SWAP1 DIV PUSH1 0xFF AND PUSH2 0x1082 JUMPI PUSH1 0x40 MLOAD PUSH3 0x461BCD PUSH1 0xE5 SHL DUP2 MSTORE PUSH1 0x4 ADD PUSH2 0x5FA SWAP1 PUSH2 0x1EF1 JUMP JUMPDEST PUSH2 0x68A PUSH2 0x13B6 JUMP JUMPDEST PUSH1 0x40 DUP1 MLOAD PUSH1 0x4 DUP2 MSTORE PUSH1 0x24 DUP2 ADD DUP3 MSTORE PUSH1 0x20 DUP2 ADD DUP1 MLOAD PUSH1 0x1 PUSH1 0x1 PUSH1 0xE0 SHL SUB AND PUSH4 0xC45A0155 PUSH1 0xE0 SHL OR SWAP1 MSTORE SWAP1 MLOAD PUSH0 SWAP2 DUP3 SWAP2 DUP3 SWAP2 PUSH1 0x1 PUSH1 0x1 PUSH1 0xA0 SHL SUB DUP7 AND SWAP2 PUSH2 0x10CF SWAP2 SWAP1 PUSH2 0x1F3C JUMP JUMPDEST PUSH0 PUSH1 0x40 MLOAD DUP1 DUP4 SUB DUP2 DUP6 GAS STATICCALL SWAP2 POP POP RETURNDATASIZE DUP1 PUSH0 DUP2 EQ PUSH2 0x1107 JUMPI PUSH1 0x40 MLOAD SWAP2 POP PUSH1 0x1F NOT PUSH1 0x3F RETURNDATASIZE ADD AND DUP3 ADD PUSH1 0x40 MSTORE RETURNDATASIZE DUP3 MSTORE RETURNDATASIZE PUSH0 PUSH1 0x20 DUP5 ADD RETURNDATACOPY PUSH2 0x110C JUMP JUMPDEST PUSH1 0x60 SWAP2 POP JUMPDEST POP SWAP2 POP SWAP2 POP DUP2 DUP1 ISZERO PUSH2 0x628 JUMPI POP MLOAD ISZERO ISZERO SWAP4 SWAP3 POP POP POP JUMP JUMPDEST PUSH1 0x1 PUSH1 0x1 PUSH1 0xA0 SHL SUB DUP2 AND PUSH0 SWAP1 DUP2 MSTORE PUSH1 0x6D PUSH1 0x20 MSTORE PUSH1 0x40 SWAP1 KECCAK256 SLOAD PUSH1 0xFF AND ISZERO PUSH2 0x118B JUMPI PUSH1 0x40 MLOAD PUSH3 0x461BCD PUSH1 0xE5 SHL DUP2 MSTORE PUSH1 0x20 PUSH1 0x4 DUP3 ADD MSTORE PUSH1 0x1B PUSH1 0x24 DUP3 ADD MSTORE PUSH32 0x4163636F756E7420697320616C7265616479206578636C756465640000000000 PUSH1 0x44 DUP3 ADD MSTORE PUSH1 0x64 ADD PUSH2 0x5FA JUMP JUMPDEST PUSH1 0x1 PUSH1 0x1 PUSH1 0xA0 SHL SUB AND PUSH0 SWAP1 DUP2 MSTORE PUSH1 0x6D PUSH1 0x20 MSTORE PUSH1 0x40 SWAP1 KECCAK256 DUP1 SLOAD PUSH1 0xFF NOT AND PUSH1 0x1 OR SWAP1 SSTORE JUMP JUMPDEST PUSH1 0x1 PUSH1 0x1 PUSH1 0xA0 SHL SUB DUP2 AND PUSH0 SWAP1 DUP2 MSTORE PUSH1 0x6C PUSH1 0x20 MSTORE PUSH1 0x40 SWAP1 KECCAK256 SLOAD PUSH1 0xFF AND ISZERO PUSH2 0x1216 JUMPI PUSH1 0x40 MLOAD PUSH3 0x461BCD PUSH1 0xE5 SHL DUP2 MSTORE PUSH1 0x20 PUSH1 0x4 DUP3 ADD MSTORE PUSH1 0x1B PUSH1 0x24 DUP3 ADD MSTORE PUSH32 0x4163636F756E7420697320616C7265616479206578636C756465640000000000 PUSH1 0x44 DUP3 ADD MSTORE PUSH1 0x64 ADD PUSH2 0x5FA JUMP JUMPDEST PUSH1 0x1 PUSH1 0x1 PUSH1 0xA0 SHL SUB DUP2 AND PUSH0 SWAP1 DUP2 MSTORE PUSH1 0x6A PUSH1 0x20 MSTORE PUSH1 0x40 SWAP1 KECCAK256 SLOAD ISZERO PUSH2 0x1255 JUMPI PUSH2 0x123C DUP2 PUSH2 0x581 JUMP JUMPDEST PUSH1 0x1 PUSH1 0x1 PUSH1 0xA0 SHL SUB DUP3 AND PUSH0 SWAP1 DUP2 MSTORE PUSH1 0x69 PUSH1 0x20 MSTORE PUSH1 0x40 SWAP1 KECCAK256 SSTORE JUMPDEST PUSH1 0x1 PUSH1 0x1 PUSH1 0xA0 SHL SUB AND PUSH0 DUP2 DUP2 MSTORE PUSH1 0x6C PUSH1 0x20 MSTORE PUSH1 0x40 DUP2 KECCAK256 DUP1 SLOAD PUSH1 0xFF NOT AND PUSH1 0x1 SWAP1 DUP2 OR SWAP1 SWAP2 SSTORE PUSH1 0x68 DUP1 SLOAD SWAP2 DUP3 ADD DUP2 SSTORE SWAP1 SWAP2 MSTORE PUSH32 0xA2153420D844928B4421650203C77BABC8B33D7F2E7B450E2966DB0C22097753 ADD DUP1 SLOAD PUSH1 0x1 PUSH1 0x1 PUSH1 0xA0 SHL SUB NOT AND SWAP1 SWAP2 OR SWAP1 SSTORE JUMP JUMPDEST PUSH1 0x1 PUSH1 0x1 PUSH1 0xA0 SHL SUB DUP4 AND PUSH0 SWAP1 DUP2 MSTORE PUSH1 0x6C PUSH1 0x20 MSTORE PUSH1 0x40 SWAP1 KECCAK256 SLOAD PUSH1 0xFF AND DUP1 ISZERO PUSH2 0x12F9 JUMPI POP PUSH1 0x1 PUSH1 0x1 PUSH1 0xA0 SHL SUB DUP3 AND PUSH0 SWAP1 DUP2 MSTORE PUSH1 0x6C PUSH1 0x20 MSTORE PUSH1 0x40 SWAP1 KECCAK256 SLOAD PUSH1 0xFF AND ISZERO JUMPDEST ISZERO PUSH2 0x130E JUMPI PUSH2 0x1309 DUP4 DUP4 DUP4 PUSH2 0x13E5 JUMP JUMPDEST POP POP POP JUMP JUMPDEST PUSH1 0x1 PUSH1 0x1 PUSH1 0xA0 SHL SUB DUP4 AND PUSH0 SWAP1 DUP2 MSTORE PUSH1 0x6C PUSH1 0x20 MSTORE PUSH1 0x40 SWAP1 KECCAK256 SLOAD PUSH1 0xFF AND ISZERO DUP1 ISZERO PUSH2 0x134D JUMPI POP PUSH1 0x1 PUSH1 0x1 PUSH1 0xA0 SHL SUB DUP3 AND PUSH0 SWAP1 DUP2 MSTORE PUSH1 0x6C PUSH1 0x20 MSTORE PUSH1 0x40 SWAP1 KECCAK256 SLOAD PUSH1 0xFF AND JUMPDEST ISZERO PUSH2 0x135D JUMPI PUSH2 0x1309 DUP4 DUP4 DUP4 PUSH2 0x163F JUMP JUMPDEST PUSH1 0x1 PUSH1 0x1 PUSH1 0xA0 SHL SUB DUP4 AND PUSH0 SWAP1 DUP2 MSTORE PUSH1 0x6C PUSH1 0x20 MSTORE PUSH1 0x40 SWAP1 KECCAK256 SLOAD PUSH1 0xFF AND DUP1 ISZERO PUSH2 0x139B JUMPI POP PUSH1 0x1 PUSH1 0x1 PUSH1 0xA0 SHL SUB DUP3 AND PUSH0 SWAP1 DUP2 MSTORE PUSH1 0x6C PUSH1 0x20 MSTORE PUSH1 0x40 SWAP1 KECCAK256 SLOAD PUSH1 0xFF AND JUMPDEST ISZERO PUSH2 0x13AB JUMPI PUSH2 0x1309 DUP4 DUP4 DUP4 PUSH2 0x1887 JUMP JUMPDEST PUSH2 0x1309 DUP4 DUP4 DUP4 PUSH2 0x19DB JUMP JUMPDEST PUSH0 SLOAD PUSH2 0x100 SWAP1 DIV PUSH1 0xFF AND PUSH2 0x13DC JUMPI PUSH1 0x40 MLOAD PUSH3 0x461BCD PUSH1 0xE5 SHL DUP2 MSTORE PUSH1 0x4 ADD PUSH2 0x5FA SWAP1 PUSH2 0x1EF1 JUMP JUMPDEST PUSH2 0x68A CALLER PUSH2 0x100B JUMP JUMPDEST PUSH2 0x13ED PUSH2 0x1B35 JUMP JUMPDEST PUSH1 0x72 SLOAD PUSH1 0xFF AND ISZERO ISZERO PUSH1 0x1 SUB PUSH2 0x1481 JUMPI PUSH2 0x3E8 PUSH1 0x6F SLOAD PUSH2 0x140C SWAP2 SWAP1 PUSH2 0x1D50 JUMP JUMPDEST DUP3 GT ISZERO PUSH2 0x1481 JUMPI PUSH1 0x40 MLOAD PUSH3 0x461BCD PUSH1 0xE5 SHL DUP2 MSTORE PUSH1 0x20 PUSH1 0x4 DUP3 ADD MSTORE PUSH1 0x3E PUSH1 0x24 DUP3 ADD MSTORE PUSH32 0x43616E6E6F74207075726368617365206D6F7265207468616E20302E3125206F PUSH1 0x44 DUP3 ADD MSTORE PUSH32 0x6620737570706C7920696E2073696E676C65207472616E73616374696F6E0000 PUSH1 0x64 DUP3 ADD MSTORE PUSH1 0x84 ADD PUSH2 0x5FA JUMP JUMPDEST DUP2 DUP2 MSTORE PUSH2 0x148C PUSH2 0x968 JUMP JUMPDEST PUSH2 0x1496 SWAP1 DUP4 PUSH2 0x1F57 JUMP JUMPDEST PUSH1 0x20 DUP3 ADD MSTORE PUSH0 PUSH1 0x40 DUP3 ADD DUP2 SWAP1 MSTORE PUSH2 0x2710 SWAP1 PUSH2 0x14B1 SWAP1 DUP5 PUSH2 0x1F57 JUMP JUMPDEST PUSH2 0x14BB SWAP2 SWAP1 PUSH2 0x1D50 JUMP JUMPDEST PUSH1 0x80 DUP3 ADD MSTORE PUSH2 0x14C8 PUSH2 0x968 JUMP JUMPDEST DUP2 PUSH1 0x80 ADD MLOAD PUSH2 0x14D7 SWAP2 SWAP1 PUSH2 0x1F57 JUMP JUMPDEST PUSH1 0xA0 DUP3 ADD DUP2 SWAP1 MSTORE ISZERO PUSH2 0x14EF JUMPI PUSH1 0xA0 DUP2 ADD MLOAD PUSH2 0x100 DUP3 ADD MSTORE JUMPDEST DUP1 MLOAD PUSH1 0x1 PUSH1 0x1 PUSH1 0xA0 SHL SUB DUP6 AND PUSH0 SWAP1 DUP2 MSTORE PUSH1 0x69 PUSH1 0x20 MSTORE PUSH1 0x40 DUP2 KECCAK256 DUP1 SLOAD SWAP1 SWAP2 SWAP1 PUSH2 0x1518 SWAP1 DUP5 SWAP1 PUSH2 0x1D16 JUMP JUMPDEST SWAP1 SWAP2 SSTORE POP POP PUSH1 0x20 DUP1 DUP3 ADD MLOAD PUSH1 0x1 PUSH1 0x1 PUSH1 0xA0 SHL SUB DUP7 AND PUSH0 SWAP1 DUP2 MSTORE PUSH1 0x6A SWAP1 SWAP3 MSTORE PUSH1 0x40 DUP3 KECCAK256 DUP1 SLOAD SWAP2 SWAP3 SWAP1 SWAP2 PUSH2 0x154B SWAP1 DUP5 SWAP1 PUSH2 0x1D16 JUMP JUMPDEST SWAP1 SWAP2 SSTORE POP POP PUSH1 0xA0 DUP2 ADD MLOAD PUSH1 0x20 DUP3 ADD MLOAD PUSH2 0x1564 SWAP2 SWAP1 PUSH2 0x1D16 JUMP JUMPDEST PUSH1 0x1 PUSH1 0x1 PUSH1 0xA0 SHL SUB DUP5 AND PUSH0 SWAP1 DUP2 MSTORE PUSH1 0x6A PUSH1 0x20 MSTORE PUSH1 0x40 DUP2 KECCAK256 DUP1 SLOAD SWAP1 SWAP2 SWAP1 PUSH2 0x158B SWAP1 DUP5 SWAP1 PUSH2 0x1D29 JUMP JUMPDEST SWAP1 SWAP2 SSTORE POP POP PUSH2 0x100 DUP2 ADD MLOAD PUSH1 0x70 DUP1 SLOAD PUSH0 SWAP1 PUSH2 0x15A7 SWAP1 DUP5 SWAP1 PUSH2 0x1D16 JUMP JUMPDEST SWAP1 SWAP2 SSTORE POP POP PUSH1 0x80 DUP2 ADD MLOAD DUP2 MLOAD PUSH1 0x1 PUSH1 0x1 PUSH1 0xA0 SHL SUB DUP1 DUP7 AND SWAP3 SWAP1 DUP8 AND SWAP2 PUSH0 DUP1 MLOAD PUSH1 0x20 PUSH2 0x1F6F DUP4 CODECOPY DUP2 MLOAD SWAP2 MSTORE SWAP2 PUSH2 0x15DB SWAP2 PUSH2 0x1D16 JUMP JUMPDEST PUSH1 0x40 MLOAD SWAP1 DUP2 MSTORE PUSH1 0x20 ADD PUSH1 0x40 MLOAD DUP1 SWAP2 SUB SWAP1 LOG3 DUP1 MLOAD PUSH1 0x80 DUP3 ADD MLOAD PUSH32 0xE6EF78C5A1F105FC4B9500EEB7CD09B041367BDEE35F1D85761735EE78B3FF2E SWAP2 SWAP1 PUSH2 0x1620 SWAP1 DUP3 PUSH2 0x1D16 JUMP JUMPDEST PUSH1 0x40 DUP1 MLOAD SWAP3 DUP4 MSTORE PUSH1 0x20 DUP4 ADD SWAP2 SWAP1 SWAP2 MSTORE ADD JUMPDEST PUSH1 0x40 MLOAD DUP1 SWAP2 SUB SWAP1 LOG1 POP POP POP POP JUMP JUMPDEST PUSH2 0x1647 PUSH2 0x1B35 JUMP JUMPDEST PUSH1 0xA PUSH2 0x1652 DUP6 PUSH2 0x581 JUMP JUMPDEST PUSH2 0x165C SWAP2 SWAP1 PUSH2 0x1D50 JUMP JUMPDEST DUP3 GT ISZERO PUSH2 0x16D1 JUMPI PUSH1 0x40 MLOAD PUSH3 0x461BCD PUSH1 0xE5 SHL DUP2 MSTORE PUSH1 0x20 PUSH1 0x4 DUP3 ADD MSTORE PUSH1 0x3A PUSH1 0x24 DUP3 ADD MSTORE PUSH32 0x43616E6E6F742073656C6C206D6F7265207468616E20313025206F662062616C PUSH1 0x44 DUP3 ADD MSTORE PUSH32 0x616E636520696E2073696E676C65207472616E73616374696F6E000000000000 PUSH1 0x64 DUP3 ADD MSTORE PUSH1 0x84 ADD PUSH2 0x5FA JUMP JUMPDEST DUP2 DUP2 MSTORE PUSH2 0x16DC PUSH2 0x968 JUMP JUMPDEST PUSH2 0x16E6 SWAP1 DUP4 PUSH2 0x1F57 JUMP JUMPDEST PUSH1 0x20 DUP3 ADD MSTORE PUSH0 PUSH1 0x60 DUP3 ADD DUP2 SWAP1 MSTORE PUSH2 0x2710 SWAP1 PUSH2 0x1701 SWAP1 DUP5 PUSH2 0x1F57 JUMP JUMPDEST PUSH2 0x170B SWAP2 SWAP1 PUSH2 0x1D50 JUMP JUMPDEST PUSH1 0xC0 DUP3 ADD MSTORE PUSH2 0x1718 PUSH2 0x968 JUMP JUMPDEST DUP2 PUSH1 0xC0 ADD MLOAD PUSH2 0x1727 SWAP2 SWAP1 PUSH2 0x1F57 JUMP JUMPDEST PUSH1 0xE0 DUP3 ADD DUP2 SWAP1 MSTORE ISZERO PUSH2 0x173F JUMPI PUSH1 0xE0 DUP2 ADD MLOAD PUSH2 0x100 DUP3 ADD MSTORE JUMPDEST DUP1 PUSH1 0x20 ADD MLOAD PUSH1 0x6A PUSH0 DUP7 PUSH1 0x1 PUSH1 0x1 PUSH1 0xA0 SHL SUB AND PUSH1 0x1 PUSH1 0x1 PUSH1 0xA0 SHL SUB AND DUP2 MSTORE PUSH1 0x20 ADD SWAP1 DUP2 MSTORE PUSH1 0x20 ADD PUSH0 KECCAK256 PUSH0 DUP3 DUP3 SLOAD PUSH2 0x1775 SWAP2 SWAP1 PUSH2 0x1D16 JUMP JUMPDEST SWAP1 SWAP2 SSTORE POP POP PUSH1 0xC0 DUP2 ADD MLOAD DUP2 MLOAD PUSH2 0x178B SWAP2 SWAP1 PUSH2 0x1D16 JUMP JUMPDEST PUSH1 0x1 PUSH1 0x1 PUSH1 0xA0 SHL SUB DUP5 AND PUSH0 SWAP1 DUP2 MSTORE PUSH1 0x69 PUSH1 0x20 MSTORE PUSH1 0x40 DUP2 KECCAK256 DUP1 SLOAD SWAP1 SWAP2 SWAP1 PUSH2 0x17B2 SWAP1 DUP5 SWAP1 PUSH2 0x1D29 JUMP JUMPDEST SWAP1 SWAP2 SSTORE POP POP PUSH1 0xE0 DUP2 ADD MLOAD PUSH1 0x20 DUP3 ADD MLOAD PUSH2 0x17CB SWAP2 SWAP1 PUSH2 0x1D16 JUMP JUMPDEST PUSH1 0x1 PUSH1 0x1 PUSH1 0xA0 SHL SUB DUP5 AND PUSH0 SWAP1 DUP2 MSTORE PUSH1 0x6A PUSH1 0x20 MSTORE PUSH1 0x40 DUP2 KECCAK256 DUP1 SLOAD SWAP1 SWAP2 SWAP1 PUSH2 0x17F2 SWAP1 DUP5 SWAP1 PUSH2 0x1D29 JUMP JUMPDEST SWAP1 SWAP2 SSTORE POP POP PUSH2 0x100 DUP2 ADD MLOAD PUSH1 0x70 DUP1 SLOAD PUSH0 SWAP1 PUSH2 0x180E SWAP1 DUP5 SWAP1 PUSH2 0x1D16 JUMP JUMPDEST SWAP1 SWAP2 SSTORE POP POP PUSH1 0xC0 DUP2 ADD MLOAD DUP2 MLOAD PUSH1 0x1 PUSH1 0x1 PUSH1 0xA0 SHL SUB DUP1 DUP7 AND SWAP3 SWAP1 DUP8 AND SWAP2 PUSH0 DUP1 MLOAD PUSH1 0x20 PUSH2 0x1F6F DUP4 CODECOPY DUP2 MLOAD SWAP2 MSTORE SWAP2 PUSH2 0x1842 SWAP2 PUSH2 0x1D16 JUMP JUMPDEST PUSH1 0x40 MLOAD SWAP1 DUP2 MSTORE PUSH1 0x20 ADD PUSH1 0x40 MLOAD DUP1 SWAP2 SUB SWAP1 LOG3 DUP1 MLOAD PUSH1 0xC0 DUP3 ADD MLOAD PUSH32 0xFF000E16C1C0D33B07404C2B2ABB9832356B5CFD57566D73C9D09611F030890D SWAP2 SWAP1 PUSH2 0x1620 SWAP1 DUP3 PUSH2 0x1D16 JUMP JUMPDEST PUSH2 0x188F PUSH2 0x1B35 JUMP JUMPDEST DUP2 DUP2 MSTORE PUSH2 0x189A PUSH2 0x968 JUMP JUMPDEST PUSH2 0x18A4 SWAP1 DUP4 PUSH2 0x1F57 JUMP JUMPDEST PUSH1 0x20 DUP1 DUP4 ADD SWAP2 SWAP1 SWAP2 MSTORE DUP2 MLOAD PUSH1 0x1 PUSH1 0x1 PUSH1 0xA0 SHL SUB DUP7 AND PUSH0 SWAP1 DUP2 MSTORE PUSH1 0x69 SWAP1 SWAP3 MSTORE PUSH1 0x40 DUP3 KECCAK256 DUP1 SLOAD SWAP2 SWAP3 SWAP1 SWAP2 PUSH2 0x18D7 SWAP1 DUP5 SWAP1 PUSH2 0x1D16 JUMP JUMPDEST SWAP1 SWAP2 SSTORE POP POP PUSH1 0x20 DUP1 DUP3 ADD MLOAD PUSH1 0x1 PUSH1 0x1 PUSH1 0xA0 SHL SUB DUP7 AND PUSH0 SWAP1 DUP2 MSTORE PUSH1 0x6A SWAP1 SWAP3 MSTORE PUSH1 0x40 DUP3 KECCAK256 DUP1 SLOAD SWAP2 SWAP3 SWAP1 SWAP2 PUSH2 0x190A SWAP1 DUP5 SWAP1 PUSH2 0x1D16 JUMP JUMPDEST SWAP1 SWAP2 SSTORE POP POP DUP1 MLOAD PUSH1 0x1 PUSH1 0x1 PUSH1 0xA0 SHL SUB DUP5 AND PUSH0 SWAP1 DUP2 MSTORE PUSH1 0x69 PUSH1 0x20 MSTORE PUSH1 0x40 DUP2 KECCAK256 DUP1 SLOAD SWAP1 SWAP2 SWAP1 PUSH2 0x1938 SWAP1 DUP5 SWAP1 PUSH2 0x1D29 JUMP JUMPDEST SWAP1 SWAP2 SSTORE POP POP PUSH1 0x20 DUP1 DUP3 ADD MLOAD PUSH1 0x1 PUSH1 0x1 PUSH1 0xA0 SHL SUB DUP6 AND PUSH0 SWAP1 DUP2 MSTORE PUSH1 0x6A SWAP1 SWAP3 MSTORE PUSH1 0x40 DUP3 KECCAK256 DUP1 SLOAD SWAP2 SWAP3 SWAP1 SWAP2 PUSH2 0x196B SWAP1 DUP5 SWAP1 PUSH2 0x1D29 JUMP JUMPDEST SWAP1 SWAP2 SSTORE POP POP DUP1 MLOAD PUSH1 0x40 MLOAD SWAP1 DUP2 MSTORE PUSH1 0x1 PUSH1 0x1 PUSH1 0xA0 SHL SUB DUP5 DUP2 AND SWAP2 SWAP1 DUP7 AND SWAP1 PUSH0 DUP1 MLOAD PUSH1 0x20 PUSH2 0x1F6F DUP4 CODECOPY DUP2 MLOAD SWAP2 MSTORE SWAP1 PUSH1 0x20 ADD PUSH1 0x40 MLOAD DUP1 SWAP2 SUB SWAP1 LOG3 DUP1 MLOAD PUSH1 0x40 DUP1 MLOAD DUP3 DUP2 MSTORE PUSH1 0x20 DUP2 ADD SWAP3 SWAP1 SWAP3 MSTORE PUSH32 0x2541109A23D530C06D62A3BF63D8D03107194870126FDDB7170C0DAEF360CD8A SWAP2 ADD PUSH2 0x1631 JUMP JUMPDEST PUSH2 0x19E3 PUSH2 0x1B35 JUMP JUMPDEST PUSH8 0xDE0B6B3A7640000 PUSH2 0x19F5 DUP6 PUSH2 0x581 JUMP JUMPDEST PUSH2 0x19FF SWAP2 SWAP1 PUSH2 0x1D16 JUMP JUMPDEST DUP3 GT ISZERO PUSH2 0x1A4E JUMPI PUSH1 0x40 MLOAD PUSH3 0x461BCD PUSH1 0xE5 SHL DUP2 MSTORE PUSH1 0x20 PUSH1 0x4 DUP3 ADD MSTORE PUSH1 0x1D PUSH1 0x24 DUP3 ADD MSTORE PUSH32 0x596F7520676F747461206B6565702031204D45544820616C7761797321000000 PUSH1 0x44 DUP3 ADD MSTORE PUSH1 0x64 ADD PUSH2 0x5FA JUMP JUMPDEST DUP2 DUP2 MSTORE PUSH2 0x1A59 PUSH2 0x968 JUMP JUMPDEST PUSH2 0x1A63 SWAP1 DUP4 PUSH2 0x1F57 JUMP JUMPDEST PUSH1 0x20 DUP1 DUP4 ADD DUP3 SWAP1 MSTORE PUSH1 0x1 PUSH1 0x1 PUSH1 0xA0 SHL SUB DUP7 AND PUSH0 SWAP1 DUP2 MSTORE PUSH1 0x6A SWAP1 SWAP2 MSTORE PUSH1 0x40 DUP2 KECCAK256 DUP1 SLOAD SWAP1 SWAP2 SWAP1 PUSH2 0x1A92 SWAP1 DUP5 SWAP1 PUSH2 0x1D16 JUMP JUMPDEST SWAP1 SWAP2 SSTORE POP POP PUSH1 0x20 DUP1 DUP3 ADD MLOAD PUSH1 0x1 PUSH1 0x1 PUSH1 0xA0 SHL SUB DUP6 AND PUSH0 SWAP1 DUP2 MSTORE PUSH1 0x6A SWAP1 SWAP3 MSTORE PUSH1 0x40 DUP3 KECCAK256 DUP1 SLOAD SWAP2 SWAP3 SWAP1 SWAP2 PUSH2 0x1AC5 SWAP1 DUP5 SWAP1 PUSH2 0x1D29 JUMP JUMPDEST SWAP1 SWAP2 SSTORE POP POP DUP1 MLOAD PUSH1 0x40 MLOAD SWAP1 DUP2 MSTORE PUSH1 0x1 PUSH1 0x1 PUSH1 0xA0 SHL SUB DUP5 DUP2 AND SWAP2 SWAP1 DUP7 AND SWAP1 PUSH0 DUP1 MLOAD PUSH1 0x20 PUSH2 0x1F6F DUP4 CODECOPY DUP2 MLOAD SWAP2 MSTORE SWAP1 PUSH1 0x20 ADD PUSH1 0x40 MLOAD DUP1 SWAP2 SUB SWAP1 LOG3 DUP1 MLOAD PUSH1 0x40 DUP1 MLOAD DUP3 DUP2 MSTORE PUSH1 0x20 DUP2 ADD SWAP3 SWAP1 SWAP3 MSTORE PUSH32 0xD9923E08D9D88FF7A7E9B8460F3163DC6B887FABE315449DA3B5CD16BB5E9340 SWAP2 ADD PUSH2 0x1631 JUMP JUMPDEST PUSH1 0x40 MLOAD DUP1 PUSH2 0x120 ADD PUSH1 0x40 MSTORE DUP1 PUSH0 DUP2 MSTORE PUSH1 0x20 ADD PUSH0 DUP2 MSTORE PUSH1 0x20 ADD PUSH0 DUP2 MSTORE PUSH1 0x20 ADD PUSH0 DUP2 MSTORE PUSH1 0x20 ADD PUSH0 DUP2 MSTORE PUSH1 0x20 ADD PUSH0 DUP2 MSTORE PUSH1 0x20 ADD PUSH0 DUP2 MSTORE PUSH1 0x20 ADD PUSH0 DUP2 MSTORE PUSH1 0x20 ADD PUSH0 DUP2 MSTORE POP SWAP1 JUMP JUMPDEST PUSH0 JUMPDEST DUP4 DUP2 LT ISZERO PUSH2 0x1B92 JUMPI DUP2 DUP2 ADD MLOAD DUP4 DUP3 ADD MSTORE PUSH1 0x20 ADD PUSH2 0x1B7A JUMP JUMPDEST POP POP PUSH0 SWAP2 ADD MSTORE JUMP JUMPDEST PUSH1 0x20 DUP2 MSTORE PUSH0 DUP3 MLOAD DUP1 PUSH1 0x20 DUP5 ADD MSTORE PUSH2 0x1BB8 DUP2 PUSH1 0x40 DUP6 ADD PUSH1 0x20 DUP8 ADD PUSH2 0x1B78 JUMP JUMPDEST PUSH1 0x1F ADD PUSH1 0x1F NOT AND SWAP2 SWAP1 SWAP2 ADD PUSH1 0x40 ADD SWAP3 SWAP2 POP POP JUMP JUMPDEST DUP1 CALLDATALOAD PUSH1 0x1 PUSH1 0x1 PUSH1 0xA0 SHL SUB DUP2 AND DUP2 EQ PUSH2 0x674 JUMPI PUSH0 DUP1 REVERT JUMPDEST PUSH0 DUP1 PUSH1 0x40 DUP4 DUP6 SUB SLT ISZERO PUSH2 0x1BF3 JUMPI PUSH0 DUP1 REVERT JUMPDEST PUSH2 0x1BFC DUP4 PUSH2 0x1BCC JUMP JUMPDEST SWAP5 PUSH1 0x20 SWAP4 SWAP1 SWAP4 ADD CALLDATALOAD SWAP4 POP POP POP JUMP JUMPDEST PUSH0 DUP1 PUSH0 PUSH1 0x60 DUP5 DUP7 SUB SLT ISZERO PUSH2 0x1C1C JUMPI PUSH0 DUP1 REVERT JUMPDEST PUSH2 0x1C25 DUP5 PUSH2 0x1BCC JUMP JUMPDEST SWAP3 POP PUSH2 0x1C33 PUSH1 0x20 DUP6 ADD PUSH2 0x1BCC JUMP JUMPDEST SWAP2 POP PUSH1 0x40 DUP5 ADD CALLDATALOAD SWAP1 POP SWAP3 POP SWAP3 POP SWAP3 JUMP JUMPDEST PUSH0 PUSH1 0x20 DUP3 DUP5 SUB SLT ISZERO PUSH2 0x1C53 JUMPI PUSH0 DUP1 REVERT JUMPDEST POP CALLDATALOAD SWAP2 SWAP1 POP JUMP JUMPDEST PUSH0 PUSH1 0x20 DUP3 DUP5 SUB SLT ISZERO PUSH2 0x1C6A JUMPI PUSH0 DUP1 REVERT JUMPDEST PUSH2 0x1C73 DUP3 PUSH2 0x1BCC JUMP JUMPDEST SWAP4 SWAP3 POP POP POP JUMP JUMPDEST PUSH0 PUSH1 0x20 DUP3 DUP5 SUB SLT ISZERO PUSH2 0x1C8A JUMPI PUSH0 DUP1 REVERT JUMPDEST DUP2 CALLDATALOAD DUP1 ISZERO ISZERO DUP2 EQ PUSH2 0x1C73 JUMPI PUSH0 DUP1 REVERT JUMPDEST PUSH0 DUP1 PUSH1 0x40 DUP4 DUP6 SUB SLT ISZERO PUSH2 0x1CAA JUMPI PUSH0 DUP1 REVERT JUMPDEST PUSH2 0x1CB3 DUP4 PUSH2 0x1BCC JUMP JUMPDEST SWAP2 POP PUSH2 0x1CC1 PUSH1 0x20 DUP5 ADD PUSH2 0x1BCC JUMP JUMPDEST SWAP1 POP SWAP3 POP SWAP3 SWAP1 POP JUMP JUMPDEST PUSH1 0x1 DUP2 DUP2 SHR SWAP1 DUP3 AND DUP1 PUSH2 0x1CDE JUMPI PUSH1 0x7F DUP3 AND SWAP2 POP JUMPDEST PUSH1 0x20 DUP3 LT DUP2 SUB PUSH2 0x1CFC JUMPI PUSH4 0x4E487B71 PUSH1 0xE0 SHL PUSH0 MSTORE PUSH1 0x22 PUSH1 0x4 MSTORE PUSH1 0x24 PUSH0 REVERT JUMPDEST POP SWAP2 SWAP1 POP JUMP JUMPDEST PUSH4 0x4E487B71 PUSH1 0xE0 SHL PUSH0 MSTORE PUSH1 0x11 PUSH1 0x4 MSTORE PUSH1 0x24 PUSH0 REVERT JUMPDEST DUP2 DUP2 SUB DUP2 DUP2 GT ISZERO PUSH2 0x4CD JUMPI PUSH2 0x4CD PUSH2 0x1D02 JUMP JUMPDEST DUP1 DUP3 ADD DUP1 DUP3 GT ISZERO PUSH2 0x4CD JUMPI PUSH2 0x4CD PUSH2 0x1D02 JUMP JUMPDEST PUSH4 0x4E487B71 PUSH1 0xE0 SHL PUSH0 MSTORE PUSH1 0x12 PUSH1 0x4 MSTORE PUSH1 0x24 PUSH0 REVERT JUMPDEST PUSH0 DUP3 PUSH2 0x1D5E JUMPI PUSH2 0x1D5E PUSH2 0x1D3C JUMP JUMPDEST POP DIV SWAP1 JUMP JUMPDEST PUSH4 0x4E487B71 PUSH1 0xE0 SHL PUSH0 MSTORE PUSH1 0x41 PUSH1 0x4 MSTORE PUSH1 0x24 PUSH0 REVERT JUMPDEST PUSH1 0x1F DUP3 GT ISZERO PUSH2 0x1309 JUMPI DUP1 PUSH0 MSTORE PUSH1 0x20 PUSH0 KECCAK256 PUSH1 0x1F DUP5 ADD PUSH1 0x5 SHR DUP2 ADD PUSH1 0x20 DUP6 LT ISZERO PUSH2 0x1D9C JUMPI POP DUP1 JUMPDEST PUSH1 0x1F DUP5 ADD PUSH1 0x5 SHR DUP3 ADD SWAP2 POP JUMPDEST DUP2 DUP2 LT ISZERO PUSH2 0x1DBB JUMPI PUSH0 DUP2 SSTORE PUSH1 0x1 ADD PUSH2 0x1DA8 JUMP JUMPDEST POP POP POP POP POP JUMP JUMPDEST DUP2 MLOAD PUSH8 0xFFFFFFFFFFFFFFFF DUP2 GT ISZERO PUSH2 0x1DDC JUMPI PUSH2 0x1DDC PUSH2 0x1D63 JUMP JUMPDEST PUSH2 0x1DF0 DUP2 PUSH2 0x1DEA DUP5 SLOAD PUSH2 0x1CCA JUMP JUMPDEST DUP5 PUSH2 0x1D77 JUMP JUMPDEST PUSH1 0x20 DUP1 PUSH1 0x1F DUP4 GT PUSH1 0x1 DUP2 EQ PUSH2 0x1E23 JUMPI PUSH0 DUP5 ISZERO PUSH2 0x1E0C JUMPI POP DUP6 DUP4 ADD MLOAD JUMPDEST PUSH0 NOT PUSH1 0x3 DUP7 SWAP1 SHL SHR NOT AND PUSH1 0x1 DUP6 SWAP1 SHL OR DUP6 SSTORE PUSH2 0x1E7A JUMP JUMPDEST PUSH0 DUP6 DUP2 MSTORE PUSH1 0x20 DUP2 KECCAK256 PUSH1 0x1F NOT DUP7 AND SWAP2 JUMPDEST DUP3 DUP2 LT ISZERO PUSH2 0x1E51 JUMPI DUP9 DUP7 ADD MLOAD DUP3 SSTORE SWAP5 DUP5 ADD SWAP5 PUSH1 0x1 SWAP1 SWAP2 ADD SWAP1 DUP5 ADD PUSH2 0x1E32 JUMP JUMPDEST POP DUP6 DUP3 LT ISZERO PUSH2 0x1E6E JUMPI DUP8 DUP6 ADD MLOAD PUSH0 NOT PUSH1 0x3 DUP9 SWAP1 SHL PUSH1 0xF8 AND SHR NOT AND DUP2 SSTORE JUMPDEST POP POP PUSH1 0x1 DUP5 PUSH1 0x1 SHL ADD DUP6 SSTORE JUMPDEST POP POP POP POP POP POP JUMP JUMPDEST PUSH0 DUP3 PUSH2 0x1E90 JUMPI PUSH2 0x1E90 PUSH2 0x1D3C JUMP JUMPDEST POP MOD SWAP1 JUMP JUMPDEST PUSH4 0x4E487B71 PUSH1 0xE0 SHL PUSH0 MSTORE PUSH1 0x32 PUSH1 0x4 MSTORE PUSH1 0x24 PUSH0 REVERT JUMPDEST PUSH1 0x20 DUP1 DUP3 MSTORE PUSH1 0x28 SWAP1 DUP3 ADD MSTORE PUSH32 0x5472616E7366657220616D6F756E74206578636565647320746865206D617854 PUSH1 0x40 DUP3 ADD MSTORE PUSH8 0x3C20B6B7BAB73A17 PUSH1 0xC1 SHL PUSH1 0x60 DUP3 ADD MSTORE PUSH1 0x80 ADD SWAP1 JUMP JUMPDEST PUSH1 0x20 DUP1 DUP3 MSTORE PUSH1 0x2B SWAP1 DUP3 ADD MSTORE PUSH32 0x496E697469616C697A61626C653A20636F6E7472616374206973206E6F742069 PUSH1 0x40 DUP3 ADD MSTORE PUSH11 0x6E697469616C697A696E67 PUSH1 0xA8 SHL PUSH1 0x60 DUP3 ADD MSTORE PUSH1 0x80 ADD SWAP1 JUMP JUMPDEST PUSH0 DUP3 MLOAD PUSH2 0x1F4D DUP2 DUP5 PUSH1 0x20 DUP8 ADD PUSH2 0x1B78 JUMP JUMPDEST SWAP2 SWAP1 SWAP2 ADD SWAP3 SWAP2 POP POP JUMP JUMPDEST DUP1 DUP3 MUL DUP2 ISZERO DUP3 DUP3 DIV DUP5 EQ OR PUSH2 0x4CD JUMPI PUSH2 0x4CD PUSH2 0x1D02 JUMP INVALID 0xDD CALLCODE MSTORE 0xAD SHL 0xE2 0xC8 SWAP12 PUSH10 0xC2B068FC378DAA952BA7 CALL PUSH4 0xC4A11628 CREATE2 GAS 0x4D CREATE2 0x23 0xB3 0xEF LOG2 PUSH5 0x6970667358 0x22 SLT KECCAK256 0xDD CODESIZE 0xE5 EXP 0xE0 0xE0 REVERT PUSH27 0x1847842FFE73356271A55488F816835419A3D1DB1D76EF2A64736F PUSH13 0x63430008180033000000000000 "
		},
		"gasEstimates": {
			"creation": {
				"codeDepositCost": "1626400",
				"executionCost": "25924",
				"totalCost": "1652324"
			},
			"external": {
				"_excluded(uint256)": "4657",
				"_getCurrentSupply()": "infinite",
				"_getRate()": "infinite",
				"_rTotal()": "2406",
				"_tTotal()": "2338",
				"allowance(address,address)": "infinite",
				"antiWhale()": "2377",
				"approve(address,uint256)": "24662",
				"balanceOf(address)": "infinite",
				"decimals()": "2356",
				"decreaseAllowance(address,uint256)": "infinite",
				"getTenPercentOfBalance()": "infinite",
				"increaseAllowance(address,uint256)": "infinite",
				"initialize()": "infinite",
				"isExcluded(address)": "2612",
				"isExcludedFromMaxTx(address)": "2591",
				"maxTxAmount()": "2384",
				"name()": "infinite",
				"owner()": "2375",
				"rBalanceOf(address)": "infinite",
				"renounceOwnership()": "infinite",
				"setAntiWhaleStatus(bool)": "26724",
				"symbol()": "infinite",
				"totalSupply()": "2371",
				"transfer(address,uint256)": "infinite",
				"transferFrom(address,address,uint256)": "infinite",
				"transferOwnership(address)": "28443",
				"viewTBalanceRBalance(address)": "4841"
			},
			"internal": {
				"_approve(address,address,uint256)": "infinite",
				"_tokenTransfer(address,address,uint256)": "infinite",
				"_transfer(address,address,uint256)": "infinite",
				"_transferBothExcluded(address,address,uint256)": "infinite",
				"_transferFromExcluded(address,address,uint256)": "infinite",
				"_transferStandard(address,address,uint256)": "infinite",
				"_transferToExcluded(address,address,uint256)": "infinite",
				"excludeAddress(address)": "infinite",
				"excludeFromMaxTx(address)": "infinite",
				"isRouter(address)": "infinite"
			}
		},
		"methodIdentifiers": {
			"_excluded(uint256)": "4d09deb3",
			"_getCurrentSupply()": "97a9d560",
			"_getRate()": "94e10784",
			"_rTotal()": "45e0b9d4",
			"_tTotal()": "af465a27",
			"allowance(address,address)": "dd62ed3e",
			"antiWhale()": "4dacf3f5",
			"approve(address,uint256)": "095ea7b3",
			"balanceOf(address)": "70a08231",
			"decimals()": "313ce567",
			"decreaseAllowance(address,uint256)": "a457c2d7",
			"getTenPercentOfBalance()": "aae5ddd2",
			"increaseAllowance(address,uint256)": "39509351",
			"initialize()": "8129fc1c",
			"isExcluded(address)": "cba0e996",
			"isExcludedFromMaxTx(address)": "658c27a9",
			"maxTxAmount()": "8c0b5e22",
			"name()": "06fdde03",
			"owner()": "8da5cb5b",
			"rBalanceOf(address)": "5319e78f",
			"renounceOwnership()": "715018a6",
			"setAntiWhaleStatus(bool)": "83f24c09",
			"symbol()": "95d89b41",
			"totalSupply()": "18160ddd",
			"transfer(address,uint256)": "a9059cbb",
			"transferFrom(address,address,uint256)": "23b872dd",
			"transferOwnership(address)": "f2fde38b",
			"viewTBalanceRBalance(address)": "80da2287"
		}
	},
	"abi": [
		{
			"anonymous": false,
			"inputs": [
				{
					"indexed": true,
					"internalType": "address",
					"name": "owner",
					"type": "address"
				},
				{
					"indexed": true,
					"internalType": "address",
					"name": "spender",
					"type": "address"
				},
				{
					"indexed": false,
					"internalType": "uint256",
					"name": "value",
					"type": "uint256"
				}
			],
			"name": "Approval",
			"type": "event"
		},
		{
			"anonymous": false,
			"inputs": [
				{
					"indexed": false,
					"internalType": "uint8",
					"name": "version",
					"type": "uint8"
				}
			],
			"name": "Initialized",
			"type": "event"
		},
		{
			"anonymous": false,
			"inputs": [
				{
					"indexed": true,
					"internalType": "address",
					"name": "previousOwner",
					"type": "address"
				},
				{
					"indexed": true,
					"internalType": "address",
					"name": "newOwner",
					"type": "address"
				}
			],
			"name": "OwnershipTransferred",
			"type": "event"
		},
		{
			"anonymous": false,
			"inputs": [
				{
					"indexed": true,
					"internalType": "address",
					"name": "from",
					"type": "address"
				},
				{
					"indexed": true,
					"internalType": "address",
					"name": "to",
					"type": "address"
				},
				{
					"indexed": false,
					"internalType": "uint256",
					"name": "value",
					"type": "uint256"
				}
			],
			"name": "Transfer",
			"type": "event"
		},
		{
			"anonymous": false,
			"inputs": [
				{
					"indexed": false,
					"internalType": "uint256",
					"name": "amountSent",
					"type": "uint256"
				},
				{
					"indexed": false,
					"internalType": "uint256",
					"name": "amountReceived",
					"type": "uint256"
				}
			],
			"name": "TransferBothExcluded",
			"type": "event"
		},
		{
			"anonymous": false,
			"inputs": [
				{
					"indexed": false,
					"internalType": "uint256",
					"name": "amountSent",
					"type": "uint256"
				},
				{
					"indexed": false,
					"internalType": "uint256",
					"name": "amountReceived",
					"type": "uint256"
				}
			],
			"name": "TransferFromExcluded",
			"type": "event"
		},
		{
			"anonymous": false,
			"inputs": [
				{
					"indexed": false,
					"internalType": "uint256",
					"name": "amountSent",
					"type": "uint256"
				},
				{
					"indexed": false,
					"internalType": "uint256",
					"name": "amountReceived",
					"type": "uint256"
				}
			],
			"name": "TransferStandard",
			"type": "event"
		},
		{
			"anonymous": false,
			"inputs": [
				{
					"indexed": false,
					"internalType": "uint256",
					"name": "amountSent",
					"type": "uint256"
				},
				{
					"indexed": false,
					"internalType": "uint256",
					"name": "amountReceived",
					"type": "uint256"
				}
			],
			"name": "TransferToExcluded",
			"type": "event"
		},
		{
			"inputs": [
				{
					"internalType": "uint256",
					"name": "",
					"type": "uint256"
				}
			],
			"name": "_excluded",
			"outputs": [
				{
					"internalType": "address",
					"name": "",
					"type": "address"
				}
			],
			"stateMutability": "view",
			"type": "function"
		},
		{
			"inputs": [],
			"name": "_getCurrentSupply",
			"outputs": [
				{
					"internalType": "uint256",
					"name": "",
					"type": "uint256"
				},
				{
					"internalType": "uint256",
					"name": "",
					"type": "uint256"
				}
			],
			"stateMutability": "view",
			"type": "function"
		},
		{
			"inputs": [],
			"name": "_getRate",
			"outputs": [
				{
					"internalType": "uint256",
					"name": "",
					"type": "uint256"
				}
			],
			"stateMutability": "view",
			"type": "function"
		},
		{
			"inputs": [],
			"name": "_rTotal",
			"outputs": [
				{
					"internalType": "uint256",
					"name": "",
					"type": "uint256"
				}
			],
			"stateMutability": "view",
			"type": "function"
		},
		{
			"inputs": [],
			"name": "_tTotal",
			"outputs": [
				{
					"internalType": "uint256",
					"name": "",
					"type": "uint256"
				}
			],
			"stateMutability": "view",
			"type": "function"
		},
		{
			"inputs": [
				{
					"internalType": "address",
					"name": "owner",
					"type": "address"
				},
				{
					"internalType": "address",
					"name": "spender",
					"type": "address"
				}
			],
			"name": "allowance",
			"outputs": [
				{
					"internalType": "uint256",
					"name": "",
					"type": "uint256"
				}
			],
			"stateMutability": "view",
			"type": "function"
		},
		{
			"inputs": [],
			"name": "antiWhale",
			"outputs": [
				{
					"internalType": "bool",
					"name": "",
					"type": "bool"
				}
			],
			"stateMutability": "view",
			"type": "function"
		},
		{
			"inputs": [
				{
					"internalType": "address",
					"name": "spender",
					"type": "address"
				},
				{
					"internalType": "uint256",
					"name": "amount",
					"type": "uint256"
				}
			],
			"name": "approve",
			"outputs": [
				{
					"internalType": "bool",
					"name": "",
					"type": "bool"
				}
			],
			"stateMutability": "nonpayable",
			"type": "function"
		},
		{
			"inputs": [
				{
					"internalType": "address",
					"name": "account",
					"type": "address"
				}
			],
			"name": "balanceOf",
			"outputs": [
				{
					"internalType": "uint256",
					"name": "",
					"type": "uint256"
				}
			],
			"stateMutability": "view",
			"type": "function"
		},
		{
			"inputs": [],
			"name": "decimals",
			"outputs": [
				{
					"internalType": "uint8",
					"name": "",
					"type": "uint8"
				}
			],
			"stateMutability": "view",
			"type": "function"
		},
		{
			"inputs": [
				{
					"internalType": "address",
					"name": "spender",
					"type": "address"
				},
				{
					"internalType": "uint256",
					"name": "subtractedValue",
					"type": "uint256"
				}
			],
			"name": "decreaseAllowance",
			"outputs": [
				{
					"internalType": "bool",
					"name": "",
					"type": "bool"
				}
			],
			"stateMutability": "nonpayable",
			"type": "function"
		},
		{
			"inputs": [],
			"name": "getTenPercentOfBalance",
			"outputs": [
				{
					"internalType": "uint256",
					"name": "",
					"type": "uint256"
				}
			],
			"stateMutability": "view",
			"type": "function"
		},
		{
			"inputs": [
				{
					"internalType": "address",
					"name": "spender",
					"type": "address"
				},
				{
					"internalType": "uint256",
					"name": "addedValue",
					"type": "uint256"
				}
			],
			"name": "increaseAllowance",
			"outputs": [
				{
					"internalType": "bool",
					"name": "",
					"type": "bool"
				}
			],
			"stateMutability": "nonpayable",
			"type": "function"
		},
		{
			"inputs": [],
			"name": "initialize",
			"outputs": [],
			"stateMutability": "nonpayable",
			"type": "function"
		},
		{
			"inputs": [
				{
					"internalType": "address",
					"name": "account",
					"type": "address"
				}
			],
			"name": "isExcluded",
			"outputs": [
				{
					"internalType": "bool",
					"name": "",
					"type": "bool"
				}
			],
			"stateMutability": "view",
			"type": "function"
		},
		{
			"inputs": [
				{
					"internalType": "address",
					"name": "account",
					"type": "address"
				}
			],
			"name": "isExcludedFromMaxTx",
			"outputs": [
				{
					"internalType": "bool",
					"name": "",
					"type": "bool"
				}
			],
			"stateMutability": "view",
			"type": "function"
		},
		{
			"inputs": [],
			"name": "maxTxAmount",
			"outputs": [
				{
					"internalType": "uint256",
					"name": "",
					"type": "uint256"
				}
			],
			"stateMutability": "view",
			"type": "function"
		},
		{
			"inputs": [],
			"name": "name",
			"outputs": [
				{
					"internalType": "string",
					"name": "",
					"type": "string"
				}
			],
			"stateMutability": "view",
			"type": "function"
		},
		{
			"inputs": [],
			"name": "owner",
			"outputs": [
				{
					"internalType": "address",
					"name": "",
					"type": "address"
				}
			],
			"stateMutability": "view",
			"type": "function"
		},
		{
			"inputs": [
				{
					"internalType": "address",
					"name": "account",
					"type": "address"
				}
			],
			"name": "rBalanceOf",
			"outputs": [
				{
					"internalType": "uint256",
					"name": "",
					"type": "uint256"
				}
			],
			"stateMutability": "view",
			"type": "function"
		},
		{
			"inputs": [],
			"name": "renounceOwnership",
			"outputs": [],
			"stateMutability": "nonpayable",
			"type": "function"
		},
		{
			"inputs": [
				{
					"internalType": "bool",
					"name": "_status",
					"type": "bool"
				}
			],
			"name": "setAntiWhaleStatus",
			"outputs": [],
			"stateMutability": "nonpayable",
			"type": "function"
		},
		{
			"inputs": [],
			"name": "symbol",
			"outputs": [
				{
					"internalType": "string",
					"name": "",
					"type": "string"
				}
			],
			"stateMutability": "view",
			"type": "function"
		},
		{
			"inputs": [],
			"name": "totalSupply",
			"outputs": [
				{
					"internalType": "uint256",
					"name": "",
					"type": "uint256"
				}
			],
			"stateMutability": "view",
			"type": "function"
		},
		{
			"inputs": [
				{
					"internalType": "address",
					"name": "recipient",
					"type": "address"
				},
				{
					"internalType": "uint256",
					"name": "amount",
					"type": "uint256"
				}
			],
			"name": "transfer",
			"outputs": [
				{
					"internalType": "bool",
					"name": "",
					"type": "bool"
				}
			],
			"stateMutability": "nonpayable",
			"type": "function"
		},
		{
			"inputs": [
				{
					"internalType": "address",
					"name": "sender",
					"type": "address"
				},
				{
					"internalType": "address",
					"name": "recipient",
					"type": "address"
				},
				{
					"internalType": "uint256",
					"name": "amount",
					"type": "uint256"
				}
			],
			"name": "transferFrom",
			"outputs": [
				{
					"internalType": "bool",
					"name": "",
					"type": "bool"
				}
			],
			"stateMutability": "nonpayable",
			"type": "function"
		},
		{
			"inputs": [
				{
					"internalType": "address",
					"name": "newOwner",
					"type": "address"
				}
			],
			"name": "transferOwnership",
			"outputs": [],
			"stateMutability": "nonpayable",
			"type": "function"
		},
		{
			"inputs": [
				{
					"internalType": "address",
					"name": "_address",
					"type": "address"
				}
			],
			"name": "viewTBalanceRBalance",
			"outputs": [
				{
					"internalType": "uint256",
					"name": "",
					"type": "uint256"
				},
				{
					"internalType": "uint256",
					"name": "",
					"type": "uint256"
				}
			],
			"stateMutability": "view",
			"type": "function"
		}
	]
}